{"abi":[{"type":"function","name":"get","inputs":[],"outputs":[{"name":"","type":"uint256","internalType":"uint256"}],"stateMutability":"view"},{"type":"function","name":"increment","inputs":[],"outputs":[],"stateMutability":"nonpayable"},{"type":"function","name":"number","inputs":[],"outputs":[{"name":"","type":"uint256","internalType":"uint256"}],"stateMutability":"view"},{"type":"function","name":"setNumber","inputs":[{"name":"newNumber","type":"uint256","internalType":"uint256"}],"outputs":[],"stateMutability":"nonpayable"}],"bytecode":{"object":"0x6080604052348015600e575f5ffd5b506102128061001c5f395ff3fe608060405234801561000f575f5ffd5b506004361061004a575f3560e01c80633fb5c1cb1461004e5780636d4ce63c1461006a5780638381f58a14610088578063d09de08a146100a6575b5f5ffd5b61006860048036038101906100639190610115565b6100b0565b005b6100726100b9565b60405161007f919061014f565b60405180910390f35b6100906100c1565b60405161009d919061014f565b60405180910390f35b6100ae6100c6565b005b805f8190555050565b5f5f54905090565b5f5481565b5f5f8154809291906100d790610195565b9190505550565b5f5ffd5b5f819050919050565b6100f4816100e2565b81146100fe575f5ffd5b50565b5f8135905061010f816100eb565b92915050565b5f6020828403121561012a576101296100de565b5b5f61013784828501610101565b91505092915050565b610149816100e2565b82525050565b5f6020820190506101625f830184610140565b92915050565b7f4e487b71000000000000000000000000000000000000000000000000000000005f52601160045260245ffd5b5f61019f826100e2565b91507fffffffffffffffffffffffffffffffffffffffffffffffffffffffffffffffff82036101d1576101d0610168565b5b60018201905091905056fea2646970667358221220614509474fd5e7525446e89ead601c71e4e6f5675460529ae3c546d0c8649c6564736f6c634300081e0033","linkReferences":{}},"methodIdentifiers":{"get()":"6d4ce63c","increment()":"d09de08a","number()":"8381f58a","setNumber(uint256)":"3fb5c1cb"},"id":65}