{"abi":[{"type":"function","name":"get","inputs":[],"outputs":[{"name":"","type":"uint256","internalType":"uint256"}],"stateMutability":"view"},{"type":"function","name":"increment","inputs":[],"outputs":[],"stateMutability":"nonpayable"},{"type":"function","name":"number","inputs":[],"outputs":[{"name":"","type":"uint256","internalType":"uint256"}],"stateMutability":"view"},{"type":"function","name":"setNumber","inputs":[{"name":"newNumber","type":"uint256","internalType":"uint256"}],"outputs":[],"stateMutability":"nonpayable"}],"bytecode":{"object":"0x608060405234601c57600e6020565b61032361002b823961032390f35b6026565b60405190565b5f80fdfe60806040526004361015610013575b6101f5565b61001d5f3561005c565b80633fb5c1cb146100575780636d4ce63c146100525780638381f58a1461004d5763d09de08a0361000e576101c2565b61018d565b61011d565b6100b9565b60e01c90565b60405190565b5f80fd5b5f80fd5b90565b61007c81610070565b0361008357565b5f80fd5b9050359061009482610073565b565b906020828203126100af576100ac915f01610087565b90565b61006c565b5f0190565b346100e7576100d16100cc366004610096565b610256565b6100d9610062565b806100e3816100b4565b0390f35b610068565b5f9103126100f657565b61006c565b61010490610070565b9052565b919061011b905f602085019401906100fb565b565b3461014d5761012d3660046100ec565b61014961013861028c565b610140610062565b91829182610108565b0390f35b610068565b1c90565b90565b61016990600861016e9302610152565b610156565b90565b9061017c9154610159565b90565b61018a5f5f90610171565b90565b346101bd5761019d3660046100ec565b6101b96101a861017f565b6101b0610062565b91829182610108565b0390f35b610068565b346101f0576101d23660046100ec565b6101da6102d1565b6101e2610062565b806101ec816100b4565b0390f35b610068565b5f80fd5b5f1b90565b9061020a5f19916101f9565b9181191691161790565b90565b61022b61022661023092610070565b610214565b610070565b90565b90565b9061024b61024661025292610217565b610233565b82546101fe565b9055565b610260905f610236565b565b5f90565b5f1c90565b61027761027c91610266565b610156565b90565b610289905461026b565b90565b610294610262565b5061029e5f61027f565b90565b634e487b7160e01b5f52601160045260245ffd5b6102be90610070565b5f1981146102cc5760010190565b6102a1565b6102eb6102e56102e05f61027f565b6102b5565b5f610236565b56fea2646970667358221220102f69825bfef3356fc0ad26429b9037acb7ec5ac682a0382ddb5bffdf37ba2164736f6c634300081e0033","linkReferences":{}},"methodIdentifiers":{"get()":"6d4ce63c","increment()":"d09de08a","number()":"8381f58a","setNumber(uint256)":"3fb5c1cb"},"id":43}