{"abi":[{"type":"constructor","inputs":[{"name":"_token","type":"address","internalType":"contract IERC20"}],"stateMutability":"nonpayable"},{"type":"function","name":"balances","inputs":[{"name":"","type":"address","internalType":"address"}],"outputs":[{"name":"","type":"uint256","internalType":"uint256"}],"stateMutability":"view"},{"type":"function","name":"deposit","inputs":[{"name":"amount","type":"uint256","internalType":"uint256"}],"outputs":[],"stateMutability":"nonpayable"},{"type":"function","name":"owner","inputs":[],"outputs":[{"name":"","type":"address","internalType":"address"}],"stateMutability":"view"},{"type":"function","name":"token","inputs":[],"outputs":[{"name":"","type":"address","internalType":"contract IERC20"}],"stateMutability":"view"},{"type":"function","name":"totalDeposit","inputs":[],"outputs":[{"name":"","type":"uint256","internalType":"uint256"}],"stateMutability":"view"},{"type":"function","name":"withdraw","inputs":[{"name":"amount","type":"uint256","internalType":"uint256"}],"outputs":[],"stateMutability":"nonpayable"}],"bytecode":{"object":"0x60806040523461002f57610019610014610100565b6101d6565b610021610034565b610a266101ee8239610a2690f35b61003a565b60405190565b5f80fd5b601f801991011690565b634e487b7160e01b5f52604160045260245ffd5b906100669061003e565b810190811060018060401b0382111761007e57604052565b610048565b9061009661008f610034565b928361005c565b565b5f80fd5b60018060a01b031690565b6100b09061009c565b90565b6100bc906100a7565b90565b6100c8816100b3565b036100cf57565b5f80fd5b905051906100e0826100bf565b565b906020828203126100fb576100f8915f016100d3565b90565b610098565b61011e610c148038038061011381610083565b9283398101906100e2565b90565b5f1b90565b9061013760018060a01b0391610121565b9181191691161790565b90565b61015861015361015d9261009c565b610141565b61009c565b90565b61016990610144565b90565b61017590610160565b90565b90565b9061019061018b6101979261016c565b610178565b8254610126565b9055565b6101a490610144565b90565b6101b09061019b565b90565b90565b906101cb6101c66101d2926101a7565b6101b3565b8254610126565b9055565b6101eb906101e4335f61017b565b60036101b6565b56fe60806040526004361015610013575b61040d565b61001d5f3561007c565b806327e235e3146100775780632e1a7d4d146100725780638da5cb5b1461006d578063b6b55f2514610068578063f6153ccd146100635763fc0c546a0361000e576103d8565b610335565b6102f3565b6102be565b61021b565b6101a0565b60e01c90565b60405190565b5f80fd5b5f80fd5b60018060a01b031690565b6100a490610090565b90565b6100b08161009b565b036100b757565b5f80fd5b905035906100c8826100a7565b565b906020828203126100e3576100e0915f016100bb565b90565b61008c565b90565b6100ff6100fa61010492610090565b6100e8565b610090565b90565b610110906100eb565b90565b61011c90610107565b90565b9061012990610113565b5f5260205260405f2090565b1c90565b90565b61014c9060086101519302610135565b610139565b90565b9061015f915461013c565b90565b610178906101736001915f9261011f565b610154565b90565b90565b6101879061017b565b9052565b919061019e905f6020850194019061017e565b565b346101d0576101cc6101bb6101b63660046100ca565b610162565b6101c3610082565b9182918261018b565b0390f35b610088565b6101de8161017b565b036101e557565b5f80fd5b905035906101f6826101d5565b565b906020828203126102115761020e915f016101e9565b90565b61008c565b5f0190565b346102495761023361022e3660046101f8565b6106bd565b61023b610082565b8061024581610216565b0390f35b610088565b5f91031261025857565b61008c565b60018060a01b031690565b61027890600861027d9302610135565b61025d565b90565b9061028b9154610268565b90565b6102995f5f90610280565b90565b6102a59061009b565b9052565b91906102bc905f6020850194019061029c565b565b346102ee576102ce36600461024e565b6102ea6102d961028e565b6102e1610082565b918291826102a9565b0390f35b610088565b346103215761030b6103063660046101f8565b6108f0565b610313610082565b8061031d81610216565b0390f35b610088565b61033260025f90610154565b90565b346103655761034536600461024e565b610361610350610326565b610358610082565b9182918261018b565b0390f35b610088565b60018060a01b031690565b61038590600861038a9302610135565b61036a565b90565b906103989154610375565b90565b6103a760035f9061038d565b90565b6103b390610107565b90565b6103bf906103aa565b9052565b91906103d6905f602085019401906103b6565b565b34610408576103e836600461024e565b6104046103f361039b565b6103fb610082565b918291826103c3565b0390f35b610088565b5f80fd5b5f1c90565b61042261042791610411565b610139565b90565b6104349054610416565b90565b60209181520190565b5f7f496e73756666696369656e742062616c616e636520746f207769746864726177910152565b61047360208092610437565b61047c81610440565b0190565b6104959060208101905f818303910152610467565b90565b1561049f57565b6104a7610082565b62461bcd60e51b8152806104bd60048201610480565b0390fd5b634e487b7160e01b5f52601160045260245ffd5b6104e46104ea9193929361017b565b9261017b565b82039182116104f557565b6104c1565b5f1b90565b9061050b5f19916104fa565b9181191691161790565b61052961052461052e9261017b565b6100e8565b61017b565b90565b90565b9061054961054461055092610515565b610531565b82546104ff565b9055565b61056061056591610411565b61036a565b90565b6105729054610554565b90565b601f801991011690565b634e487b7160e01b5f52604160045260245ffd5b9061059d90610575565b810190811067ffffffffffffffff8211176105b757604052565b61057f565b60e01b90565b151590565b6105d0816105c2565b036105d757565b5f80fd5b905051906105e8826105c7565b565b9060208282031261060357610600915f016105db565b90565b61008c565b91602061062992949361062260408201965f83019061029c565b019061017e565b565b610633610082565b3d5f823e3d90fd5b5f7f5472616e73666572206661696c65640000000000000000000000000000000000910152565b61066f600f602092610437565b6106788161063b565b0190565b6106919060208101905f818303910152610662565b90565b1561069b57565b6106a3610082565b62461bcd60e51b8152806106b96004820161067c565b0390fd5b6106ed6106d46106cf6001339061011f565b61042a565b6106e66106e08461017b565b9161017b565b1015610498565b6107158161070f6107006001339061011f565b9161070a8361042a565b6104d5565b90610534565b61073261072b82610726600261042a565b6104d5565b6002610534565b60206107466107416003610568565b6103aa565b9163a9059cbb9261076b5f33939561077661075f610082565b978896879586946105bc565b845260048401610608565b03925af180156107c157610791915f91610793575b50610694565b565b6107b4915060203d81116107ba575b6107ac8183610593565b8101906105ea565b5f61078b565b503d6107a2565b61062b565b90565b6107dd6107d86107e2926107c6565b6100e8565b61017b565b90565b60207f68616e2030000000000000000000000000000000000000000000000000000000917f4465706f73697420616d6f756e74206d757374206265206772656174657220745f8201520152565b61083f6025604092610437565b610848816107e5565b0190565b6108619060208101905f818303910152610832565b90565b1561086b57565b610873610082565b62461bcd60e51b8152806108896004820161084c565b0390fd5b61089690610107565b90565b6040906108c26108c994969593966108b860608401985f85019061029c565b602083019061029c565b019061017e565b565b6108da6108e09193929361017b565b9261017b565b82018092116108eb57565b6104c1565b61090c816109066109005f6107c9565b9161017b565b11610864565b61091e6109196003610568565b6103aa565b9060206323b872dd92339061094f5f6109363061088d565b9661095a87610943610082565b998a97889687956105bc565b855260048501610899565b03925af19081156109eb5761097d6109b4926109bb945f916109bd575b50610694565b6109a58161099f6109906001339061011f565b9161099a8361042a565b6108cb565b90610534565b6109af600261042a565b6108cb565b6002610534565b565b6109de915060203d81116109e4575b6109d68183610593565b8101906105ea565b5f610977565b503d6109cc565b61062b56fea2646970667358221220dbc80445db26b14ec01cedadc9f7f9e609cace5cf279e26a28735d9cd102faac64736f6c634300081e0033","linkReferences":{}},"methodIdentifiers":{"balances(address)":"27e235e3","deposit(uint256)":"b6b55f25","owner()":"8da5cb5b","token()":"fc0c546a","totalDeposit()":"f6153ccd","withdraw(uint256)":"2e1a7d4d"},"id":52}