{"abi":[{"type":"constructor","inputs":[{"name":"_token","type":"address","internalType":"contract IERC20"}],"stateMutability":"nonpayable"},{"type":"function","name":"balances","inputs":[{"name":"","type":"address","internalType":"address"}],"outputs":[{"name":"","type":"uint256","internalType":"uint256"}],"stateMutability":"view"},{"type":"function","name":"deposit","inputs":[{"name":"amount","type":"uint256","internalType":"uint256"}],"outputs":[],"stateMutability":"nonpayable"},{"type":"function","name":"owner","inputs":[],"outputs":[{"name":"","type":"address","internalType":"address"}],"stateMutability":"view"},{"type":"function","name":"token","inputs":[],"outputs":[{"name":"","type":"address","internalType":"contract IERC20"}],"stateMutability":"view"},{"type":"function","name":"totalDeposit","inputs":[],"outputs":[{"name":"","type":"uint256","internalType":"uint256"}],"stateMutability":"view"},{"type":"function","name":"withdraw","inputs":[{"name":"amount","type":"uint256","internalType":"uint256"}],"outputs":[],"stateMutability":"nonpayable"}],"bytecode":{"object":"0x608060405234801561000f575f5ffd5b50604051610adb380380610adb83398181016040528101906100319190610125565b335f5f6101000a81548173ffffffffffffffffffffffffffffffffffffffff021916908373ffffffffffffffffffffffffffffffffffffffff1602179055508060035f6101000a81548173ffffffffffffffffffffffffffffffffffffffff021916908373ffffffffffffffffffffffffffffffffffffffff16021790555050610150565b5f5ffd5b5f73ffffffffffffffffffffffffffffffffffffffff82169050919050565b5f6100e3826100ba565b9050919050565b5f6100f4826100d9565b9050919050565b610104816100ea565b811461010e575f5ffd5b50565b5f8151905061011f816100fb565b92915050565b5f6020828403121561013a576101396100b6565b5b5f61014784828501610111565b91505092915050565b61097e8061015d5f395ff3fe608060405234801561000f575f5ffd5b5060043610610060575f3560e01c806327e235e3146100645780632e1a7d4d146100945780638da5cb5b146100b0578063b6b55f25146100ce578063f6153ccd146100ea578063fc0c546a14610108575b5f5ffd5b61007e6004803603810190610079919061053e565b610126565b60405161008b9190610581565b60405180910390f35b6100ae60048036038101906100a991906105c4565b61013b565b005b6100b8610304565b6040516100c591906105fe565b60405180910390f35b6100e860048036038101906100e391906105c4565b610328565b005b6100f26104b5565b6040516100ff9190610581565b60405180910390f35b6101106104bb565b60405161011d9190610672565b60405180910390f35b6001602052805f5260405f205f915090505481565b8060015f3373ffffffffffffffffffffffffffffffffffffffff1673ffffffffffffffffffffffffffffffffffffffff1681526020019081526020015f205410156101bb576040517f08c379a00000000000000000000000000000000000000000000000000000000081526004016101b2906106e5565b60405180910390fd5b8060015f3373ffffffffffffffffffffffffffffffffffffffff1673ffffffffffffffffffffffffffffffffffffffff1681526020019081526020015f205f8282546102079190610730565b925050819055508060025f82825461021f9190610730565b9250508190555060035f9054906101000a900473ffffffffffffffffffffffffffffffffffffffff1673ffffffffffffffffffffffffffffffffffffffff1663a9059cbb33836040518363ffffffff1660e01b8152600401610282929190610763565b6020604051808303815f875af115801561029e573d5f5f3e3d5ffd5b505050506040513d601f19601f820116820180604052508101906102c291906107bf565b610301576040517f08c379a00000000000000000000000000000000000000000000000000000000081526004016102f890610834565b60405180910390fd5b50565b5f5f9054906101000a900473ffffffffffffffffffffffffffffffffffffffff1681565b5f811161036a576040517f08c379a0000000000000000000000000000000000000000000000000000000008152600401610361906108c2565b60405180910390fd5b60035f9054906101000a900473ffffffffffffffffffffffffffffffffffffffff1673ffffffffffffffffffffffffffffffffffffffff166323b872dd3330846040518463ffffffff1660e01b81526004016103c8939291906108e0565b6020604051808303815f875af11580156103e4573d5f5f3e3d5ffd5b505050506040513d601f19601f8201168201806040525081019061040891906107bf565b610447576040517f08c379a000000000000000000000000000000000000000000000000000000000815260040161043e90610834565b60405180910390fd5b8060015f3373ffffffffffffffffffffffffffffffffffffffff1673ffffffffffffffffffffffffffffffffffffffff1681526020019081526020015f205f8282546104939190610915565b925050819055508060025f8282546104ab9190610915565b9250508190555050565b60025481565b60035f9054906101000a900473ffffffffffffffffffffffffffffffffffffffff1681565b5f5ffd5b5f73ffffffffffffffffffffffffffffffffffffffff82169050919050565b5f61050d826104e4565b9050919050565b61051d81610503565b8114610527575f5ffd5b50565b5f8135905061053881610514565b92915050565b5f60208284031215610553576105526104e0565b5b5f6105608482850161052a565b91505092915050565b5f819050919050565b61057b81610569565b82525050565b5f6020820190506105945f830184610572565b92915050565b6105a381610569565b81146105ad575f5ffd5b50565b5f813590506105be8161059a565b92915050565b5f602082840312156105d9576105d86104e0565b5b5f6105e6848285016105b0565b91505092915050565b6105f881610503565b82525050565b5f6020820190506106115f8301846105ef565b92915050565b5f819050919050565b5f61063a610635610630846104e4565b610617565b6104e4565b9050919050565b5f61064b82610620565b9050919050565b5f61065c82610641565b9050919050565b61066c81610652565b82525050565b5f6020820190506106855f830184610663565b92915050565b5f82825260208201905092915050565b7f496e73756666696369656e742062616c616e636520746f2077697468647261775f82015250565b5f6106cf60208361068b565b91506106da8261069b565b602082019050919050565b5f6020820190508181035f8301526106fc816106c3565b9050919050565b7f4e487b71000000000000000000000000000000000000000000000000000000005f52601160045260245ffd5b5f61073a82610569565b915061074583610569565b925082820390508181111561075d5761075c610703565b5b92915050565b5f6040820190506107765f8301856105ef565b6107836020830184610572565b9392505050565b5f8115159050919050565b61079e8161078a565b81146107a8575f5ffd5b50565b5f815190506107b981610795565b92915050565b5f602082840312156107d4576107d36104e0565b5b5f6107e1848285016107ab565b91505092915050565b7f5472616e73666572206661696c656400000000000000000000000000000000005f82015250565b5f61081e600f8361068b565b9150610829826107ea565b602082019050919050565b5f6020820190508181035f83015261084b81610812565b9050919050565b7f4465706f73697420616d6f756e74206d757374206265206772656174657220745f8201527f68616e2030000000000000000000000000000000000000000000000000000000602082015250565b5f6108ac60258361068b565b91506108b782610852565b604082019050919050565b5f6020820190508181035f8301526108d9816108a0565b9050919050565b5f6060820190506108f35f8301866105ef565b61090060208301856105ef565b61090d6040830184610572565b949350505050565b5f61091f82610569565b915061092a83610569565b925082820190508082111561094257610941610703565b5b9291505056fea2646970667358221220f15ef3b9808c47379a321b93474ee5f39d24738b2000cc79af3452eca7faf12b64736f6c634300081e0033","linkReferences":{}},"methodIdentifiers":{"balances(address)":"27e235e3","deposit(uint256)":"b6b55f25","owner()":"8da5cb5b","token()":"fc0c546a","totalDeposit()":"f6153ccd","withdraw(uint256)":"2e1a7d4d"},"id":66}