{"abi":[{"type":"constructor","inputs":[],"stateMutability":"nonpayable"},{"type":"function","name":"balances","inputs":[{"name":"","type":"address","internalType":"address"}],"outputs":[{"name":"","type":"uint256","internalType":"uint256"}],"stateMutability":"view"},{"type":"function","name":"deposit","inputs":[],"outputs":[],"stateMutability":"payable"},{"type":"function","name":"owner","inputs":[],"outputs":[{"name":"","type":"address","internalType":"address"}],"stateMutability":"view"},{"type":"function","name":"totalDeposit","inputs":[],"outputs":[{"name":"","type":"uint256","internalType":"uint256"}],"stateMutability":"view"},{"type":"function","name":"withdraw","inputs":[{"name":"amount","type":"uint256","internalType":"uint256"}],"outputs":[],"stateMutability":"nonpayable"}],"bytecode":{"object":"0x6080604052348015600e575f5ffd5b50335f5f6101000a81548173ffffffffffffffffffffffffffffffffffffffff021916908373ffffffffffffffffffffffffffffffffffffffff1602179055506106238061005b5f395ff3fe608060405260043610610049575f3560e01c806327e235e31461004d5780632e1a7d4d146100895780638da5cb5b146100b1578063d0e30db0146100db578063f6153ccd146100e5575b5f5ffd5b348015610058575f5ffd5b50610073600480360381019061006e919061037b565b61010f565b60405161008091906103be565b60405180910390f35b348015610094575f5ffd5b506100af60048036038101906100aa9190610401565b610124565b005b3480156100bc575f5ffd5b506100c5610255565b6040516100d2919061043b565b60405180910390f35b6100e3610279565b005b3480156100f0575f5ffd5b506100f9610317565b60405161010691906103be565b60405180910390f35b6001602052805f5260405f205f915090505481565b8060015f3373ffffffffffffffffffffffffffffffffffffffff1673ffffffffffffffffffffffffffffffffffffffff1681526020019081526020015f2054116101a3576040517f08c379a000000000000000000000000000000000000000000000000000000000815260040161019a906104ae565b60405180910390fd5b3373ffffffffffffffffffffffffffffffffffffffff166108fc8290811502906040515f60405180830381858888f193505050501580156101e6573d5f5f3e3d5ffd5b508060015f3373ffffffffffffffffffffffffffffffffffffffff1673ffffffffffffffffffffffffffffffffffffffff1681526020019081526020015f205f82825461023391906104f9565b925050819055508060025f82825461024b91906104f9565b9250508190555050565b5f5f9054906101000a900473ffffffffffffffffffffffffffffffffffffffff1681565b5f34116102bb576040517f08c379a00000000000000000000000000000000000000000000000000000000081526004016102b29061059c565b60405180910390fd5b3460015f3373ffffffffffffffffffffffffffffffffffffffff1673ffffffffffffffffffffffffffffffffffffffff1681526020019081526020015f20819055503460025f82825461030e91906105ba565b92505081905550565b60025481565b5f5ffd5b5f73ffffffffffffffffffffffffffffffffffffffff82169050919050565b5f61034a82610321565b9050919050565b61035a81610340565b8114610364575f5ffd5b50565b5f8135905061037581610351565b92915050565b5f602082840312156103905761038f61031d565b5b5f61039d84828501610367565b91505092915050565b5f819050919050565b6103b8816103a6565b82525050565b5f6020820190506103d15f8301846103af565b92915050565b6103e0816103a6565b81146103ea575f5ffd5b50565b5f813590506103fb816103d7565b92915050565b5f602082840312156104165761041561031d565b5b5f610423848285016103ed565b91505092915050565b61043581610340565b82525050565b5f60208201905061044e5f83018461042c565b92915050565b5f82825260208201905092915050565b7f4e6f2062616c616e636520746f207769746864726177000000000000000000005f82015250565b5f610498601683610454565b91506104a382610464565b602082019050919050565b5f6020820190508181035f8301526104c58161048c565b9050919050565b7f4e487b71000000000000000000000000000000000000000000000000000000005f52601160045260245ffd5b5f610503826103a6565b915061050e836103a6565b9250828203905081811115610526576105256104cc565b5b92915050565b7f4465706f73697420616d6f756e74206d757374206265206772656174657220745f8201527f68616e2030000000000000000000000000000000000000000000000000000000602082015250565b5f610586602583610454565b91506105918261052c565b604082019050919050565b5f6020820190508181035f8301526105b38161057a565b9050919050565b5f6105c4826103a6565b91506105cf836103a6565b92508282019050808211156105e7576105e66104cc565b5b9291505056fea2646970667358221220aad235e92f6b37e5cddb792b5cdbd46fa48080db4010ea7f75354ad37b13c86c64736f6c634300081e0033","linkReferences":{}},"methodIdentifiers":{"balances(address)":"27e235e3","deposit()":"d0e30db0","owner()":"8da5cb5b","totalDeposit()":"f6153ccd","withdraw(uint256)":"2e1a7d4d"},"id":22}