{"abi":[{"type":"function","name":"callSetValue","inputs":[{"name":"callee","type":"address","internalType":"address"},{"name":"value","type":"uint256","internalType":"uint256"}],"outputs":[{"name":"","type":"bool","internalType":"bool"}],"stateMutability":"nonpayable"}],"bytecode":{"object":"0x6080604052348015600e575f5ffd5b506103e88061001c5f395ff3fe608060405234801561000f575f5ffd5b5060043610610029575f3560e01c8063fdfa868f1461002d575b5f5ffd5b61004760048036038101906100429190610239565b61005d565b6040516100549190610291565b60405180910390f35b5f5f8373ffffffffffffffffffffffffffffffffffffffff16670de0b6b3a76400008460405160240161009091906102b9565b6040516020818303038152906040527f55241077000000000000000000000000000000000000000000000000000000007bffffffffffffffffffffffffffffffffffffffffffffffffffffffff19166020820180517bffffffffffffffffffffffffffffffffffffffffffffffffffffffff838183161783525050505060405161011a9190610324565b5f6040518083038185875af1925050503d805f8114610154576040519150601f19603f3d011682016040523d82523d5f602084013e610159565b606091505b505090508061019d576040517f08c379a000000000000000000000000000000000000000000000000000000000815260040161019490610394565b60405180910390fd5b600191505092915050565b5f5ffd5b5f73ffffffffffffffffffffffffffffffffffffffff82169050919050565b5f6101d5826101ac565b9050919050565b6101e5816101cb565b81146101ef575f5ffd5b50565b5f81359050610200816101dc565b92915050565b5f819050919050565b61021881610206565b8114610222575f5ffd5b50565b5f813590506102338161020f565b92915050565b5f5f6040838503121561024f5761024e6101a8565b5b5f61025c858286016101f2565b925050602061026d85828601610225565b9150509250929050565b5f8115159050919050565b61028b81610277565b82525050565b5f6020820190506102a45f830184610282565b92915050565b6102b381610206565b82525050565b5f6020820190506102cc5f8301846102aa565b92915050565b5f81519050919050565b5f81905092915050565b8281835e5f83830152505050565b5f6102fe826102d2565b61030881856102dc565b93506103188185602086016102e6565b80840191505092915050565b5f61032f82846102f4565b915081905092915050565b5f82825260208201905092915050565b7f63616c6c2066756e6374696f6e206661696c65640000000000000000000000005f82015250565b5f61037e60148361033a565b91506103898261034a565b602082019050919050565b5f6020820190508181035f8301526103ab81610372565b905091905056fea26469706673582212202fa7f56acbcf528ce49db7ba7bee01614ea39030038a5d61cc920de47c5501b064736f6c634300081e0033","linkReferences":{}},"methodIdentifiers":{"callSetValue(address,uint256)":"fdfa868f"},"id":60}