{"abi":[{"type":"function","name":"callSetValue","inputs":[{"name":"value_","type":"uint256","internalType":"uint256"}],"outputs":[],"stateMutability":"nonpayable"},{"type":"function","name":"getValue","inputs":[],"outputs":[{"name":"","type":"uint256","internalType":"uint256"}],"stateMutability":"view"},{"type":"function","name":"setValue","inputs":[{"name":"value_","type":"uint256","internalType":"uint256"}],"outputs":[],"stateMutability":"payable"}],"bytecode":{"object":"0x6080604052348015600e575f5ffd5b506101848061001c5f395ff3fe608060405260043610610033575f3560e01c806320965255146100375780635524107714610061578063fa47b8a51461007d575b5f5ffd5b348015610042575f5ffd5b5061004b6100a5565b60405161005891906100dc565b60405180910390f35b61007b60048036038101906100769190610123565b6100ad565b005b348015610088575f5ffd5b506100a3600480360381019061009e9190610123565b6100c1565b005b5f5f54905090565b5f34116100b8575f5ffd5b805f8190555050565b50565b5f819050919050565b6100d6816100c4565b82525050565b5f6020820190506100ef5f8301846100cd565b92915050565b5f5ffd5b610102816100c4565b811461010c575f5ffd5b50565b5f8135905061011d816100f9565b92915050565b5f60208284031215610138576101376100f5565b5b5f6101458482850161010f565b9150509291505056fea2646970667358221220531e0c4b62c4e4b9efd26aa6a5c2bdabac81444697abea2168ef92b002331aa864736f6c634300081e0033","linkReferences":{}},"methodIdentifiers":{"callSetValue(uint256)":"fa47b8a5","getValue()":"20965255","setValue(uint256)":"55241077"},"id":60}