{"abi":[{"type":"function","name":"callSetValue","inputs":[{"name":"value_","type":"uint256","internalType":"uint256"}],"outputs":[],"stateMutability":"nonpayable"},{"type":"function","name":"getValue","inputs":[],"outputs":[{"name":"","type":"uint256","internalType":"uint256"}],"stateMutability":"view"},{"type":"function","name":"setValue","inputs":[{"name":"value_","type":"uint256","internalType":"uint256"}],"outputs":[],"stateMutability":"payable"}],"bytecode":{"object":"0x608060405234601c57600e6020565b61028f61002b823961028f90f35b6026565b60405190565b5f80fdfe60806040526004361015610013575b610164565b61001d5f3561004c565b8063209652551461004757806355241077146100425763fa47b8a50361000e57610138565b61010f565b610094565b60e01c90565b60405190565b5f80fd5b5f80fd5b5f91031261006a57565b61005c565b90565b61007b9061006f565b9052565b9190610092905f60208501940190610072565b565b346100c4576100a4366004610060565b6100c06100af610195565b6100b7610052565b9182918261007f565b0390f35b610058565b6100d28161006f565b036100d957565b5f80fd5b905035906100ea826100c9565b565b9060208282031261010557610102915f016100dd565b90565b61005c565b5f0190565b61012261011d3660046100ec565b610231565b61012a610052565b806101348161010a565b0390f35b3461015f576101483660046100ec565b50610151610052565b8061015b8161010a565b0390f35b610058565b5f80fd5b5f90565b5f1c90565b90565b6101806101859161016c565b610171565b90565b6101929054610174565b90565b61019d610168565b506101a75f610188565b90565b90565b90565b6101c46101bf6101c9926101aa565b6101ad565b61006f565b90565b156101d357565b5f80fd5b5f1b90565b906101e85f19916101d7565b9181191691161790565b61020661020161020b9261006f565b6101ad565b61006f565b90565b90565b9061022661022161022d926101f2565b61020e565b82546101dc565b9055565b610257906102513461024b6102455f6101b0565b9161006f565b116101cc565b5f610211565b56fea2646970667358221220ee34378d33abbc0bc9d7285d5b0b078ebe69080f1f5b8da14d27e59d6c03c09c64736f6c634300081e0033","linkReferences":{}},"methodIdentifiers":{"callSetValue(uint256)":"fa47b8a5","getValue()":"20965255","setValue(uint256)":"55241077"},"id":54}