{"abi":[{"type":"function","name":"callSetValue","inputs":[{"name":"callee","type":"address","internalType":"address"},{"name":"value","type":"uint256","internalType":"uint256"}],"outputs":[{"name":"","type":"bool","internalType":"bool"}],"stateMutability":"nonpayable"}],"bytecode":{"object":"0x608060405234601c57600e6020565b61037061002b823961037090f35b6026565b60405190565b5f80fdfe60806040526004361015610013575b61012a565b61001d5f3561002c565b63fdfa868f0361000e576100f4565b60e01c90565b60405190565b5f80fd5b5f80fd5b60018060a01b031690565b61005490610040565b90565b6100608161004b565b0361006757565b5f80fd5b9050359061007882610057565b565b90565b6100868161007a565b0361008d57565b5f80fd5b9050359061009e8261007d565b565b91906040838203126100c857806100bc6100c5925f860161006b565b93602001610091565b90565b61003c565b151590565b6100db906100cd565b9052565b91906100f2905f602085019401906100d2565b565b346101255761012161011061010a3660046100a0565b906102c5565b610118610032565b918291826100df565b0390f35b610038565b5f80fd5b5f90565b90565b90565b61014c61014761015192610132565b610135565b61007a565b90565b61015d9061007a565b9052565b9190610174905f60208501940190610154565b565b601f801991011690565b634e487b7160e01b5f52604160045260245ffd5b9061019e90610176565b810190811067ffffffffffffffff8211176101b857604052565b610180565b906101d06101c9610032565b9283610194565b565b67ffffffffffffffff81116101f0576101ec602091610176565b0190565b610180565b90610207610202836101d2565b6101bd565b918252565b606090565b3d5f1461022c576102213d6101f5565b903d5f602084013e5b565b61023461020c565b9061022a565b60209181520190565b5f7f63616c6c2066756e6374696f6e206661696c6564000000000000000000000000910152565b610277601460209261023a565b61028081610243565b0190565b6102999060208101905f81830391015261026a565b90565b156102a357565b6102ab610032565b62461bcd60e51b8152806102c160048201610284565b0390fd5b5f6103359261030f82936102d761012e565b509161031e6102ed670de0b6b3a7640000610138565b916102f6610032565b938491600460208401635524107760e01b815201610161565b60208201810382520383610194565b602082019151925af161032f610211565b5061029c565b60019056fea2646970667358221220825c90872afedbae47d747d0c0e1483ea00a1182f5f5754172d61a97efdc474d64736f6c634300081e0033","linkReferences":{}},"methodIdentifiers":{"callSetValue(address,uint256)":"fdfa868f"},"id":54}