{"abi":[{"type":"constructor","inputs":[],"stateMutability":"nonpayable"},{"type":"receive","stateMutability":"payable"},{"type":"function","name":"changeOwner","inputs":[{"name":"_newOwner","type":"address","internalType":"address"}],"outputs":[],"stateMutability":"nonpayable"},{"type":"function","name":"deposit","inputs":[],"outputs":[],"stateMutability":"payable"},{"type":"function","name":"withdraw","inputs":[{"name":"_toAddress","type":"address","internalType":"address"},{"name":"amount","type":"uint256","internalType":"uint256"}],"outputs":[],"stateMutability":"payable"}],"bytecode":{"object":"0x6080604052348015600e575f5ffd5b503360045f6101000a81548173ffffffffffffffffffffffffffffffffffffffff021916908373ffffffffffffffffffffffffffffffffffffffff1602179055503060055f6101000a81548173ffffffffffffffffffffffffffffffffffffffff021916908373ffffffffffffffffffffffffffffffffffffffff160217905550610d658061009c5f395ff3fe608060405260043610610037575f3560e01c8063a6f9dae11461004a578063d0e30db014610072578063f3fef3a31461007c57610046565b3661004657610044610098565b005b5f5ffd5b348015610055575f5ffd5b50610070600480360381019061006b9190610986565b610628565b005b61007a610098565b005b610096600480360381019061009191906109e4565b610768565b005b5f34116100da576040517f08c379a00000000000000000000000000000000000000000000000000000000081526004016100d190610a7c565b60405180910390fd5b345f5f3373ffffffffffffffffffffffffffffffffffffffff1673ffffffffffffffffffffffffffffffffffffffff1681526020019081526020015f205f8282546101259190610ac7565b9250508190555f5f3373ffffffffffffffffffffffffffffffffffffffff1673ffffffffffffffffffffffffffffffffffffffff1681526020019081526020015f20819055505f5f60015f6003811061018157610180610afa565b5b015f9054906101000a900473ffffffffffffffffffffffffffffffffffffffff1673ffffffffffffffffffffffffffffffffffffffff1673ffffffffffffffffffffffffffffffffffffffff1681526020019081526020015f20545f5f3373ffffffffffffffffffffffffffffffffffffffff1673ffffffffffffffffffffffffffffffffffffffff1681526020019081526020015f20541115610386576001806003811061023357610232610afa565b5b015f9054906101000a900473ffffffffffffffffffffffffffffffffffffffff16600160026003811061026957610268610afa565b5b015f6101000a81548173ffffffffffffffffffffffffffffffffffffffff021916908373ffffffffffffffffffffffffffffffffffffffff16021790555060015f600381106102bb576102ba610afa565b5b015f9054906101000a900473ffffffffffffffffffffffffffffffffffffffff16600180600381106102f0576102ef610afa565b5b015f6101000a81548173ffffffffffffffffffffffffffffffffffffffff021916908373ffffffffffffffffffffffffffffffffffffffff1602179055503360015f6003811061034357610342610afa565b5b015f6101000a81548173ffffffffffffffffffffffffffffffffffffffff021916908373ffffffffffffffffffffffffffffffffffffffff160217905550610626565b5f5f6001806003811061039c5761039b610afa565b5b015f9054906101000a900473ffffffffffffffffffffffffffffffffffffffff1673ffffffffffffffffffffffffffffffffffffffff1673ffffffffffffffffffffffffffffffffffffffff1681526020019081526020015f20545f5f3373ffffffffffffffffffffffffffffffffffffffff1673ffffffffffffffffffffffffffffffffffffffff1681526020019081526020015f2054111561051a576001806003811061044e5761044d610afa565b5b015f9054906101000a900473ffffffffffffffffffffffffffffffffffffffff16600160026003811061048457610483610afa565b5b015f6101000a81548173ffffffffffffffffffffffffffffffffffffffff021916908373ffffffffffffffffffffffffffffffffffffffff16021790555033600180600381106104d7576104d6610afa565b5b015f6101000a81548173ffffffffffffffffffffffffffffffffffffffff021916908373ffffffffffffffffffffffffffffffffffffffff160217905550610625565b5f5f600160026003811061053157610530610afa565b5b015f9054906101000a900473ffffffffffffffffffffffffffffffffffffffff1673ffffffffffffffffffffffffffffffffffffffff1673ffffffffffffffffffffffffffffffffffffffff1681526020019081526020015f20545f5f3373ffffffffffffffffffffffffffffffffffffffff1673ffffffffffffffffffffffffffffffffffffffff1681526020019081526020015f20541115610624573360016002600381106105e5576105e4610afa565b5b015f6101000a81548173ffffffffffffffffffffffffffffffffffffffff021916908373ffffffffffffffffffffffffffffffffffffffff1602179055505b5b5b565b60045f9054906101000a900473ffffffffffffffffffffffffffffffffffffffff1673ffffffffffffffffffffffffffffffffffffffff163373ffffffffffffffffffffffffffffffffffffffff16146106b7576040517f08c379a00000000000000000000000000000000000000000000000000000000081526004016106ae90610b71565b60405180910390fd5b5f73ffffffffffffffffffffffffffffffffffffffff168173ffffffffffffffffffffffffffffffffffffffff1603610725576040517f08c379a000000000000000000000000000000000000000000000000000000000815260040161071c90610bd9565b60405180910390fd5b8060045f6101000a81548173ffffffffffffffffffffffffffffffffffffffff021916908373ffffffffffffffffffffffffffffffffffffffff16021790555050565b60045f9054906101000a900473ffffffffffffffffffffffffffffffffffffffff1673ffffffffffffffffffffffffffffffffffffffff163373ffffffffffffffffffffffffffffffffffffffff16146107f7576040517f08c379a00000000000000000000000000000000000000000000000000000000081526004016107ee90610c41565b60405180910390fd5b5f73ffffffffffffffffffffffffffffffffffffffff168273ffffffffffffffffffffffffffffffffffffffff1603610865576040517f08c379a000000000000000000000000000000000000000000000000000000000815260040161085c90610ca9565b60405180910390fd5b8060055f9054906101000a900473ffffffffffffffffffffffffffffffffffffffff1673ffffffffffffffffffffffffffffffffffffffff163110156108e0576040517f08c379a00000000000000000000000000000000000000000000000000000000081526004016108d790610d11565b60405180910390fd5b8173ffffffffffffffffffffffffffffffffffffffff166108fc8290811502906040515f60405180830381858888f19350505050158015610923573d5f5f3e3d5ffd5b505050565b5f5ffd5b5f73ffffffffffffffffffffffffffffffffffffffff82169050919050565b5f6109558261092c565b9050919050565b6109658161094b565b811461096f575f5ffd5b50565b5f813590506109808161095c565b92915050565b5f6020828403121561099b5761099a610928565b5b5f6109a884828501610972565b91505092915050565b5f819050919050565b6109c3816109b1565b81146109cd575f5ffd5b50565b5f813590506109de816109ba565b92915050565b5f5f604083850312156109fa576109f9610928565b5b5f610a0785828601610972565b9250506020610a18858286016109d0565b9150509250929050565b5f82825260208201905092915050565b7f6465706f7369742076616c7565206d617374203e2030000000000000000000005f82015250565b5f610a66601683610a22565b9150610a7182610a32565b602082019050919050565b5f6020820190508181035f830152610a9381610a5a565b9050919050565b7f4e487b71000000000000000000000000000000000000000000000000000000005f52601160045260245ffd5b5f610ad1826109b1565b9150610adc836109b1565b9250828201905080821115610af457610af3610a9a565b5b92915050565b7f4e487b71000000000000000000000000000000000000000000000000000000005f52603260045260245ffd5b7f4f6e6c79206f776e65722063616e206368616e6765206f776e657200000000005f82015250565b5f610b5b601b83610a22565b9150610b6682610b27565b602082019050919050565b5f6020820190508181035f830152610b8881610b4f565b9050919050565b7f4e6577206f776e65722063616e6e6f74206265207a65726f20616464726573735f82015250565b5f610bc3602083610a22565b9150610bce82610b8f565b602082019050919050565b5f6020820190508181035f830152610bf081610bb7565b9050919050565b7f4f6e6c79206f776e65722063616e2077697468647261770000000000000000005f82015250565b5f610c2b601783610a22565b9150610c3682610bf7565b602082019050919050565b5f6020820190508181035f830152610c5881610c1f565b9050919050565b7f746f41646472657373206973206e6f74203000000000000000000000000000005f82015250565b5f610c93601283610a22565b9150610c9e82610c5f565b602082019050919050565b5f6020820190508181035f830152610cc081610c87565b9050919050565b7f496e73756666696369656e742062616c616e63650000000000000000000000005f82015250565b5f610cfb601483610a22565b9150610d0682610cc7565b602082019050919050565b5f6020820190508181035f830152610d2881610cef565b905091905056fea2646970667358221220634df0d15a6a6917b5242817170e69a26e43878e584b47fb159eacdfc6cc2ff964736f6c634300081e0033","linkReferences":{}},"methodIdentifiers":{"changeOwner(address)":"a6f9dae1","deposit()":"d0e30db0","withdraw(address,uint256)":"f3fef3a3"},"id":50}