{"abi":[{"type":"constructor","inputs":[],"stateMutability":"nonpayable"},{"type":"receive","stateMutability":"payable"},{"type":"function","name":"Top3Address","inputs":[{"name":"","type":"uint256","internalType":"uint256"}],"outputs":[{"name":"","type":"address","internalType":"address"}],"stateMutability":"view"},{"type":"function","name":"balances","inputs":[{"name":"","type":"address","internalType":"address"}],"outputs":[{"name":"","type":"uint256","internalType":"uint256"}],"stateMutability":"view"},{"type":"function","name":"changeOwner","inputs":[{"name":"_newOwner","type":"address","internalType":"address"}],"outputs":[],"stateMutability":"nonpayable"},{"type":"function","name":"contractAddress","inputs":[],"outputs":[{"name":"","type":"address","internalType":"address"}],"stateMutability":"view"},{"type":"function","name":"deposit","inputs":[],"outputs":[],"stateMutability":"payable"},{"type":"function","name":"owner","inputs":[],"outputs":[{"name":"","type":"address","internalType":"address"}],"stateMutability":"view"},{"type":"function","name":"withdraw","inputs":[{"name":"_toAddress","type":"address","internalType":"address"},{"name":"amount","type":"uint256","internalType":"uint256"}],"outputs":[],"stateMutability":"payable"}],"bytecode":{"object":"0x6080604052348015600e575f5ffd5b503360045f6101000a81548173ffffffffffffffffffffffffffffffffffffffff021916908373ffffffffffffffffffffffffffffffffffffffff1602179055503060055f6101000a81548173ffffffffffffffffffffffffffffffffffffffff021916908373ffffffffffffffffffffffffffffffffffffffff160217905550610f7a8061009c5f395ff3fe608060405260043610610073575f3560e01c8063a6f9dae11161004d578063a6f9dae114610128578063d0e30db014610150578063f3fef3a31461015a578063f6b4dfb41461017657610082565b80630fb4be3e1461008657806327e235e3146100c25780638da5cb5b146100fe57610082565b36610082576100806101a0565b005b5f5ffd5b348015610091575f5ffd5b506100ac60048036038101906100a79190610af9565b610730565b6040516100b99190610b63565b60405180910390f35b3480156100cd575f5ffd5b506100e860048036038101906100e39190610ba6565b610764565b6040516100f59190610be0565b60405180910390f35b348015610109575f5ffd5b50610112610778565b60405161011f9190610b63565b60405180910390f35b348015610133575f5ffd5b5061014e60048036038101906101499190610ba6565b61079d565b005b6101586101a0565b005b610174600480360381019061016f9190610bf9565b6108dd565b005b348015610181575f5ffd5b5061018a610a9d565b6040516101979190610b63565b60405180910390f35b5f34116101e2576040517f08c379a00000000000000000000000000000000000000000000000000000000081526004016101d990610c91565b60405180910390fd5b345f5f3373ffffffffffffffffffffffffffffffffffffffff1673ffffffffffffffffffffffffffffffffffffffff1681526020019081526020015f205f82825461022d9190610cdc565b9250508190555f5f3373ffffffffffffffffffffffffffffffffffffffff1673ffffffffffffffffffffffffffffffffffffffff1681526020019081526020015f20819055505f5f60015f6003811061028957610288610d0f565b5b015f9054906101000a900473ffffffffffffffffffffffffffffffffffffffff1673ffffffffffffffffffffffffffffffffffffffff1673ffffffffffffffffffffffffffffffffffffffff1681526020019081526020015f20545f5f3373ffffffffffffffffffffffffffffffffffffffff1673ffffffffffffffffffffffffffffffffffffffff1681526020019081526020015f2054111561048e576001806003811061033b5761033a610d0f565b5b015f9054906101000a900473ffffffffffffffffffffffffffffffffffffffff16600160026003811061037157610370610d0f565b5b015f6101000a81548173ffffffffffffffffffffffffffffffffffffffff021916908373ffffffffffffffffffffffffffffffffffffffff16021790555060015f600381106103c3576103c2610d0f565b5b015f9054906101000a900473ffffffffffffffffffffffffffffffffffffffff16600180600381106103f8576103f7610d0f565b5b015f6101000a81548173ffffffffffffffffffffffffffffffffffffffff021916908373ffffffffffffffffffffffffffffffffffffffff1602179055503360015f6003811061044b5761044a610d0f565b5b015f6101000a81548173ffffffffffffffffffffffffffffffffffffffff021916908373ffffffffffffffffffffffffffffffffffffffff16021790555061072e565b5f5f600180600381106104a4576104a3610d0f565b5b015f9054906101000a900473ffffffffffffffffffffffffffffffffffffffff1673ffffffffffffffffffffffffffffffffffffffff1673ffffffffffffffffffffffffffffffffffffffff1681526020019081526020015f20545f5f3373ffffffffffffffffffffffffffffffffffffffff1673ffffffffffffffffffffffffffffffffffffffff1681526020019081526020015f20541115610622576001806003811061055657610555610d0f565b5b015f9054906101000a900473ffffffffffffffffffffffffffffffffffffffff16600160026003811061058c5761058b610d0f565b5b015f6101000a81548173ffffffffffffffffffffffffffffffffffffffff021916908373ffffffffffffffffffffffffffffffffffffffff16021790555033600180600381106105df576105de610d0f565b5b015f6101000a81548173ffffffffffffffffffffffffffffffffffffffff021916908373ffffffffffffffffffffffffffffffffffffffff16021790555061072d565b5f5f600160026003811061063957610638610d0f565b5b015f9054906101000a900473ffffffffffffffffffffffffffffffffffffffff1673ffffffffffffffffffffffffffffffffffffffff1673ffffffffffffffffffffffffffffffffffffffff1681526020019081526020015f20545f5f3373ffffffffffffffffffffffffffffffffffffffff1673ffffffffffffffffffffffffffffffffffffffff1681526020019081526020015f2054111561072c573360016002600381106106ed576106ec610d0f565b5b015f6101000a81548173ffffffffffffffffffffffffffffffffffffffff021916908373ffffffffffffffffffffffffffffffffffffffff1602179055505b5b5b565b6001816003811061073f575f80fd5b015f915054906101000a900473ffffffffffffffffffffffffffffffffffffffff1681565b5f602052805f5260405f205f915090505481565b60045f9054906101000a900473ffffffffffffffffffffffffffffffffffffffff1681565b60045f9054906101000a900473ffffffffffffffffffffffffffffffffffffffff1673ffffffffffffffffffffffffffffffffffffffff163373ffffffffffffffffffffffffffffffffffffffff161461082c576040517f08c379a000000000000000000000000000000000000000000000000000000000815260040161082390610d86565b60405180910390fd5b5f73ffffffffffffffffffffffffffffffffffffffff168173ffffffffffffffffffffffffffffffffffffffff160361089a576040517f08c379a000000000000000000000000000000000000000000000000000000000815260040161089190610dee565b60405180910390fd5b8060045f6101000a81548173ffffffffffffffffffffffffffffffffffffffff021916908373ffffffffffffffffffffffffffffffffffffffff16021790555050565b60045f9054906101000a900473ffffffffffffffffffffffffffffffffffffffff1673ffffffffffffffffffffffffffffffffffffffff163373ffffffffffffffffffffffffffffffffffffffff161461096c576040517f08c379a000000000000000000000000000000000000000000000000000000000815260040161096390610e56565b60405180910390fd5b5f73ffffffffffffffffffffffffffffffffffffffff168273ffffffffffffffffffffffffffffffffffffffff16036109da576040517f08c379a00000000000000000000000000000000000000000000000000000000081526004016109d190610ebe565b60405180910390fd5b8060055f9054906101000a900473ffffffffffffffffffffffffffffffffffffffff1673ffffffffffffffffffffffffffffffffffffffff16311015610a55576040517f08c379a0000000000000000000000000000000000000000000000000000000008152600401610a4c90610f26565b60405180910390fd5b8173ffffffffffffffffffffffffffffffffffffffff166108fc8290811502906040515f60405180830381858888f19350505050158015610a98573d5f5f3e3d5ffd5b505050565b60055f9054906101000a900473ffffffffffffffffffffffffffffffffffffffff1681565b5f5ffd5b5f819050919050565b610ad881610ac6565b8114610ae2575f5ffd5b50565b5f81359050610af381610acf565b92915050565b5f60208284031215610b0e57610b0d610ac2565b5b5f610b1b84828501610ae5565b91505092915050565b5f73ffffffffffffffffffffffffffffffffffffffff82169050919050565b5f610b4d82610b24565b9050919050565b610b5d81610b43565b82525050565b5f602082019050610b765f830184610b54565b92915050565b610b8581610b43565b8114610b8f575f5ffd5b50565b5f81359050610ba081610b7c565b92915050565b5f60208284031215610bbb57610bba610ac2565b5b5f610bc884828501610b92565b91505092915050565b610bda81610ac6565b82525050565b5f602082019050610bf35f830184610bd1565b92915050565b5f5f60408385031215610c0f57610c0e610ac2565b5b5f610c1c85828601610b92565b9250506020610c2d85828601610ae5565b9150509250929050565b5f82825260208201905092915050565b7f6465706f7369742076616c7565206d617374203e2030000000000000000000005f82015250565b5f610c7b601683610c37565b9150610c8682610c47565b602082019050919050565b5f6020820190508181035f830152610ca881610c6f565b9050919050565b7f4e487b71000000000000000000000000000000000000000000000000000000005f52601160045260245ffd5b5f610ce682610ac6565b9150610cf183610ac6565b9250828201905080821115610d0957610d08610caf565b5b92915050565b7f4e487b71000000000000000000000000000000000000000000000000000000005f52603260045260245ffd5b7f4f6e6c79206f776e65722063616e206368616e6765206f776e657200000000005f82015250565b5f610d70601b83610c37565b9150610d7b82610d3c565b602082019050919050565b5f6020820190508181035f830152610d9d81610d64565b9050919050565b7f4e6577206f776e65722063616e6e6f74206265207a65726f20616464726573735f82015250565b5f610dd8602083610c37565b9150610de382610da4565b602082019050919050565b5f6020820190508181035f830152610e0581610dcc565b9050919050565b7f4f6e6c79206f776e65722063616e2077697468647261770000000000000000005f82015250565b5f610e40601783610c37565b9150610e4b82610e0c565b602082019050919050565b5f6020820190508181035f830152610e6d81610e34565b9050919050565b7f746f41646472657373206973206e6f74203000000000000000000000000000005f82015250565b5f610ea8601283610c37565b9150610eb382610e74565b602082019050919050565b5f6020820190508181035f830152610ed581610e9c565b9050919050565b7f496e73756666696369656e742062616c616e63650000000000000000000000005f82015250565b5f610f10601483610c37565b9150610f1b82610edc565b602082019050919050565b5f6020820190508181035f830152610f3d81610f04565b905091905056fea2646970667358221220310b9d9d427f484bbb9765390952424607e7e88c47ba87a8f57e372d04e86d1b64736f6c634300081e0033","linkReferences":{}},"methodIdentifiers":{"Top3Address(uint256)":"0fb4be3e","balances(address)":"27e235e3","changeOwner(address)":"a6f9dae1","contractAddress()":"f6b4dfb4","deposit()":"d0e30db0","owner()":"8da5cb5b","withdraw(address,uint256)":"f3fef3a3"},"id":20}