{"abi":[{"type":"constructor","inputs":[],"stateMutability":"nonpayable"},{"type":"function","name":"changeOwner","inputs":[],"outputs":[],"stateMutability":"nonpayable"},{"type":"function","name":"deposit","inputs":[],"outputs":[],"stateMutability":"payable"},{"type":"function","name":"getBalance","inputs":[],"outputs":[{"name":"","type":"uint256","internalType":"uint256"}],"stateMutability":"view"},{"type":"function","name":"getMsgAddress","inputs":[],"outputs":[{"name":"","type":"address","internalType":"address"}],"stateMutability":"view"},{"type":"function","name":"getOwner","inputs":[],"outputs":[{"name":"","type":"address","internalType":"address"}],"stateMutability":"view"},{"type":"function","name":"getTop3Address","inputs":[],"outputs":[{"name":"","type":"address[3]","internalType":"address[3]"}],"stateMutability":"view"},{"type":"function","name":"withdraw","inputs":[{"name":"_fromAddress","type":"address","internalType":"address"},{"name":"_toAddress","type":"address","internalType":"address"},{"name":"amount","type":"uint256","internalType":"uint256"}],"outputs":[],"stateMutability":"payable"}],"bytecode":{"object":"0x6080604052348015600e575f5ffd5b503360045f6101000a81548173ffffffffffffffffffffffffffffffffffffffff021916908373ffffffffffffffffffffffffffffffffffffffff1602179055503060055f6101000a81548173ffffffffffffffffffffffffffffffffffffffff021916908373ffffffffffffffffffffffffffffffffffffffff160217905550610e0c8061009c5f395ff3fe60806040526004361061006f575f3560e01c8063893d20e81161004d578063893d20e8146100dd578063d0e30db014610107578063d9caed1214610111578063e97afe391461012d5761006f565b806312065fe01461007357806362a094771461009d5780637275750f146100b3575b5f5ffd5b34801561007e575f5ffd5b50610087610157565b60405161009491906108bf565b60405180910390f35b3480156100a8575f5ffd5b506100b1610196565b005b3480156100be575f5ffd5b506100c7610267565b6040516100d491906109ad565b60405180910390f35b3480156100e8575f5ffd5b506100f16102e7565b6040516100fe91906109d5565b60405180910390f35b61010f61030f565b005b61012b60048036038101906101269190610a46565b6105f4565b005b348015610138575f5ffd5b5061014161087e565b60405161014e91906109d5565b60405180910390f35b5f60055f9054906101000a900473ffffffffffffffffffffffffffffffffffffffff1673ffffffffffffffffffffffffffffffffffffffff1631905090565b60045f9054906101000a900473ffffffffffffffffffffffffffffffffffffffff1673ffffffffffffffffffffffffffffffffffffffff163373ffffffffffffffffffffffffffffffffffffffff1614610225576040517f08c379a000000000000000000000000000000000000000000000000000000000815260040161021c90610af0565b60405180910390fd5b3360045f6101000a81548173ffffffffffffffffffffffffffffffffffffffff021916908373ffffffffffffffffffffffffffffffffffffffff160217905550565b61026f610885565b60016003806020026040519081016040528092919082600380156102dd576020028201915b815f9054906101000a900473ffffffffffffffffffffffffffffffffffffffff1673ffffffffffffffffffffffffffffffffffffffff1681526020019060010190808311610294575b5050505050905090565b5f60045f9054906101000a900473ffffffffffffffffffffffffffffffffffffffff16905090565b5f3411610351576040517f08c379a000000000000000000000000000000000000000000000000000000000815260040161034890610b58565b60405180910390fd5b345f5f3373ffffffffffffffffffffffffffffffffffffffff1673ffffffffffffffffffffffffffffffffffffffff1681526020019081526020015f205f82825461039c9190610ba3565b9250508190555f5f3373ffffffffffffffffffffffffffffffffffffffff1673ffffffffffffffffffffffffffffffffffffffff1681526020019081526020015f20819055505f5f60015f600381106103f8576103f7610bd6565b5b015f9054906101000a900473ffffffffffffffffffffffffffffffffffffffff1673ffffffffffffffffffffffffffffffffffffffff1673ffffffffffffffffffffffffffffffffffffffff1681526020019081526020015f20545f5f3373ffffffffffffffffffffffffffffffffffffffff1673ffffffffffffffffffffffffffffffffffffffff1681526020019081526020015f205411156104ea573360015f600381106104ab576104aa610bd6565b5b015f6101000a81548173ffffffffffffffffffffffffffffffffffffffff021916908373ffffffffffffffffffffffffffffffffffffffff1602179055505b5f5f60018060038110610500576104ff610bd6565b5b015f9054906101000a900473ffffffffffffffffffffffffffffffffffffffff1673ffffffffffffffffffffffffffffffffffffffff1673ffffffffffffffffffffffffffffffffffffffff1681526020019081526020015f20545f5f3373ffffffffffffffffffffffffffffffffffffffff1673ffffffffffffffffffffffffffffffffffffffff1681526020019081526020015f205411156105f25733600180600381106105b3576105b2610bd6565b5b015f6101000a81548173ffffffffffffffffffffffffffffffffffffffff021916908373ffffffffffffffffffffffffffffffffffffffff1602179055505b565b60045f9054906101000a900473ffffffffffffffffffffffffffffffffffffffff1673ffffffffffffffffffffffffffffffffffffffff163373ffffffffffffffffffffffffffffffffffffffff1614610683576040517f08c379a000000000000000000000000000000000000000000000000000000000815260040161067a90610c4d565b60405180910390fd5b5f73ffffffffffffffffffffffffffffffffffffffff168273ffffffffffffffffffffffffffffffffffffffff16036106f1576040517f08c379a00000000000000000000000000000000000000000000000000000000081526004016106e890610cb5565b60405180910390fd5b5f73ffffffffffffffffffffffffffffffffffffffff168373ffffffffffffffffffffffffffffffffffffffff160361075f576040517f08c379a000000000000000000000000000000000000000000000000000000000815260040161075690610d1d565b60405180910390fd5b8060055f9054906101000a900473ffffffffffffffffffffffffffffffffffffffff1673ffffffffffffffffffffffffffffffffffffffff163110156107da576040517f08c379a00000000000000000000000000000000000000000000000000000000081526004016107d190610d85565b60405180910390fd5b805f5f8573ffffffffffffffffffffffffffffffffffffffff1673ffffffffffffffffffffffffffffffffffffffff1681526020019081526020015f205f8282546108259190610da3565b925050819055508173ffffffffffffffffffffffffffffffffffffffff166108fc8290811502906040515f60405180830381858888f1935050505015801561086f573d5f5f3e3d5ffd5b50610878610267565b50505050565b5f33905090565b6040518060600160405280600390602082028036833780820191505090505090565b5f819050919050565b6108b9816108a7565b82525050565b5f6020820190506108d25f8301846108b0565b92915050565b5f60039050919050565b5f81905092915050565b5f819050919050565b5f73ffffffffffffffffffffffffffffffffffffffff82169050919050565b5f61091e826108f5565b9050919050565b61092e81610914565b82525050565b5f61093f8383610925565b60208301905092915050565b5f602082019050919050565b610960816108d8565b61096a81846108e2565b9250610975826108ec565b805f5b838110156109a557815161098c8782610934565b96506109978361094b565b925050600181019050610978565b505050505050565b5f6060820190506109c05f830184610957565b92915050565b6109cf81610914565b82525050565b5f6020820190506109e85f8301846109c6565b92915050565b5f5ffd5b6109fb81610914565b8114610a05575f5ffd5b50565b5f81359050610a16816109f2565b92915050565b610a25816108a7565b8114610a2f575f5ffd5b50565b5f81359050610a4081610a1c565b92915050565b5f5f5f60608486031215610a5d57610a5c6109ee565b5b5f610a6a86828701610a08565b9350506020610a7b86828701610a08565b9250506040610a8c86828701610a32565b9150509250925092565b5f82825260208201905092915050565b7f4f6e6c79206f776e65722063616e206368616e6765206f776e657200000000005f82015250565b5f610ada601b83610a96565b9150610ae582610aa6565b602082019050919050565b5f6020820190508181035f830152610b0781610ace565b9050919050565b7f6465706f7369742076616c7565206d617374203e2030000000000000000000005f82015250565b5f610b42601683610a96565b9150610b4d82610b0e565b602082019050919050565b5f6020820190508181035f830152610b6f81610b36565b9050919050565b7f4e487b71000000000000000000000000000000000000000000000000000000005f52601160045260245ffd5b5f610bad826108a7565b9150610bb8836108a7565b9250828201905080821115610bd057610bcf610b76565b5b92915050565b7f4e487b71000000000000000000000000000000000000000000000000000000005f52603260045260245ffd5b7f4f6e6c79206f776e65722063616e2077697468647261770000000000000000005f82015250565b5f610c37601783610a96565b9150610c4282610c03565b602082019050919050565b5f6020820190508181035f830152610c6481610c2b565b9050919050565b7f746f41646472657373206973206e6f74203000000000000000000000000000005f82015250565b5f610c9f601283610a96565b9150610caa82610c6b565b602082019050919050565b5f6020820190508181035f830152610ccc81610c93565b9050919050565b7f5f66726f6d41646472657373206973206e6f74203000000000000000000000005f82015250565b5f610d07601583610a96565b9150610d1282610cd3565b602082019050919050565b5f6020820190508181035f830152610d3481610cfb565b9050919050565b7f496e73756666696369656e742062616c616e63650000000000000000000000005f82015250565b5f610d6f601483610a96565b9150610d7a82610d3b565b602082019050919050565b5f6020820190508181035f830152610d9c81610d63565b9050919050565b5f610dad826108a7565b9150610db8836108a7565b9250828203905081811115610dd057610dcf610b76565b5b9291505056fea2646970667358221220f20ed37a1351beb67258aa9ae2e0534f8564b68b1746a015b7d0bedda855729464736f6c634300081e0033","linkReferences":{}},"methodIdentifiers":{"changeOwner()":"62a09477","deposit()":"d0e30db0","getBalance()":"12065fe0","getMsgAddress()":"e97afe39","getOwner()":"893d20e8","getTop3Address()":"7275750f","withdraw(address,address,uint256)":"d9caed12"},"id":19}