{"abi":[{"type":"constructor","inputs":[],"stateMutability":"nonpayable"},{"type":"function","name":"changeOwner","inputs":[],"outputs":[],"stateMutability":"nonpayable"},{"type":"function","name":"deposit","inputs":[],"outputs":[],"stateMutability":"payable"},{"type":"function","name":"getBalance","inputs":[],"outputs":[{"name":"","type":"uint256","internalType":"uint256"}],"stateMutability":"view"},{"type":"function","name":"getMsgAddress","inputs":[],"outputs":[{"name":"","type":"address","internalType":"address"}],"stateMutability":"view"},{"type":"function","name":"getOwner","inputs":[],"outputs":[{"name":"","type":"address","internalType":"address"}],"stateMutability":"view"},{"type":"function","name":"getOwnerBalance","inputs":[],"outputs":[{"name":"","type":"uint256","internalType":"uint256"}],"stateMutability":"view"},{"type":"function","name":"getTop3Address","inputs":[],"outputs":[{"name":"","type":"address[3]","internalType":"address[3]"}],"stateMutability":"view"},{"type":"function","name":"withdraw","inputs":[{"name":"_fromAddress","type":"address","internalType":"address"},{"name":"_toAddress","type":"address","internalType":"address"},{"name":"amount","type":"uint256","internalType":"uint256"}],"outputs":[],"stateMutability":"payable"}],"bytecode":{"object":"0x6080604052348015600e575f5ffd5b503060045f6101000a81548173ffffffffffffffffffffffffffffffffffffffff021916908373ffffffffffffffffffffffffffffffffffffffff1602179055503060055f6101000a81548173ffffffffffffffffffffffffffffffffffffffff021916908373ffffffffffffffffffffffffffffffffffffffff160217905550610d898061009c5f395ff3fe60806040526004361061007a575f3560e01c8063893d20e81161004d578063893d20e814610112578063d0e30db01461013c578063d9caed1214610146578063e97afe39146101625761007a565b806312065fe01461007e578063590791f2146100a857806362a09477146100d25780637275750f146100e8575b5f5ffd5b348015610089575f5ffd5b5061009261018c565b60405161009f91906108a4565b60405180910390f35b3480156100b3575f5ffd5b506100bc6101cb565b6040516100c991906108a4565b60405180910390f35b3480156100dd575f5ffd5b506100e661020a565b005b3480156100f3575f5ffd5b506100fc61024c565b6040516101099190610992565b60405180910390f35b34801561011d575f5ffd5b506101266102cc565b60405161013391906109ba565b60405180910390f35b6101446102f4565b005b610160600480360381019061015b9190610a2b565b6105d9565b005b34801561016d575f5ffd5b50610176610863565b60405161018391906109ba565b60405180910390f35b5f60045f9054906101000a900473ffffffffffffffffffffffffffffffffffffffff1673ffffffffffffffffffffffffffffffffffffffff1631905090565b5f60055f9054906101000a900473ffffffffffffffffffffffffffffffffffffffff1673ffffffffffffffffffffffffffffffffffffffff1631905090565b3360045f6101000a81548173ffffffffffffffffffffffffffffffffffffffff021916908373ffffffffffffffffffffffffffffffffffffffff160217905550565b61025461086a565b60016003806020026040519081016040528092919082600380156102c2576020028201915b815f9054906101000a900473ffffffffffffffffffffffffffffffffffffffff1673ffffffffffffffffffffffffffffffffffffffff1681526020019060010190808311610279575b5050505050905090565b5f60045f9054906101000a900473ffffffffffffffffffffffffffffffffffffffff16905090565b5f3411610336576040517f08c379a000000000000000000000000000000000000000000000000000000000815260040161032d90610ad5565b60405180910390fd5b345f5f3373ffffffffffffffffffffffffffffffffffffffff1673ffffffffffffffffffffffffffffffffffffffff1681526020019081526020015f205f8282546103819190610b20565b9250508190555f5f3373ffffffffffffffffffffffffffffffffffffffff1673ffffffffffffffffffffffffffffffffffffffff1681526020019081526020015f20819055505f5f60015f600381106103dd576103dc610b53565b5b015f9054906101000a900473ffffffffffffffffffffffffffffffffffffffff1673ffffffffffffffffffffffffffffffffffffffff1673ffffffffffffffffffffffffffffffffffffffff1681526020019081526020015f20545f5f3373ffffffffffffffffffffffffffffffffffffffff1673ffffffffffffffffffffffffffffffffffffffff1681526020019081526020015f205411156104cf573360015f600381106104905761048f610b53565b5b015f6101000a81548173ffffffffffffffffffffffffffffffffffffffff021916908373ffffffffffffffffffffffffffffffffffffffff1602179055505b5f5f600180600381106104e5576104e4610b53565b5b015f9054906101000a900473ffffffffffffffffffffffffffffffffffffffff1673ffffffffffffffffffffffffffffffffffffffff1673ffffffffffffffffffffffffffffffffffffffff1681526020019081526020015f20545f5f3373ffffffffffffffffffffffffffffffffffffffff1673ffffffffffffffffffffffffffffffffffffffff1681526020019081526020015f205411156105d757336001806003811061059857610597610b53565b5b015f6101000a81548173ffffffffffffffffffffffffffffffffffffffff021916908373ffffffffffffffffffffffffffffffffffffffff1602179055505b565b60045f9054906101000a900473ffffffffffffffffffffffffffffffffffffffff1673ffffffffffffffffffffffffffffffffffffffff163373ffffffffffffffffffffffffffffffffffffffff1614610668576040517f08c379a000000000000000000000000000000000000000000000000000000000815260040161065f90610bca565b60405180910390fd5b5f73ffffffffffffffffffffffffffffffffffffffff168273ffffffffffffffffffffffffffffffffffffffff16036106d6576040517f08c379a00000000000000000000000000000000000000000000000000000000081526004016106cd90610c32565b60405180910390fd5b5f73ffffffffffffffffffffffffffffffffffffffff168373ffffffffffffffffffffffffffffffffffffffff1603610744576040517f08c379a000000000000000000000000000000000000000000000000000000000815260040161073b90610c9a565b60405180910390fd5b8060055f9054906101000a900473ffffffffffffffffffffffffffffffffffffffff1673ffffffffffffffffffffffffffffffffffffffff163110156107bf576040517f08c379a00000000000000000000000000000000000000000000000000000000081526004016107b690610d02565b60405180910390fd5b805f5f8573ffffffffffffffffffffffffffffffffffffffff1673ffffffffffffffffffffffffffffffffffffffff1681526020019081526020015f205f82825461080a9190610d20565b925050819055508173ffffffffffffffffffffffffffffffffffffffff166108fc8290811502906040515f60405180830381858888f19350505050158015610854573d5f5f3e3d5ffd5b5061085d61024c565b50505050565b5f33905090565b6040518060600160405280600390602082028036833780820191505090505090565b5f819050919050565b61089e8161088c565b82525050565b5f6020820190506108b75f830184610895565b92915050565b5f60039050919050565b5f81905092915050565b5f819050919050565b5f73ffffffffffffffffffffffffffffffffffffffff82169050919050565b5f610903826108da565b9050919050565b610913816108f9565b82525050565b5f610924838361090a565b60208301905092915050565b5f602082019050919050565b610945816108bd565b61094f81846108c7565b925061095a826108d1565b805f5b8381101561098a5781516109718782610919565b965061097c83610930565b92505060018101905061095d565b505050505050565b5f6060820190506109a55f83018461093c565b92915050565b6109b4816108f9565b82525050565b5f6020820190506109cd5f8301846109ab565b92915050565b5f5ffd5b6109e0816108f9565b81146109ea575f5ffd5b50565b5f813590506109fb816109d7565b92915050565b610a0a8161088c565b8114610a14575f5ffd5b50565b5f81359050610a2581610a01565b92915050565b5f5f5f60608486031215610a4257610a416109d3565b5b5f610a4f868287016109ed565b9350506020610a60868287016109ed565b9250506040610a7186828701610a17565b9150509250925092565b5f82825260208201905092915050565b7f6465706f7369742076616c7565206d617374203e2030000000000000000000005f82015250565b5f610abf601683610a7b565b9150610aca82610a8b565b602082019050919050565b5f6020820190508181035f830152610aec81610ab3565b9050919050565b7f4e487b71000000000000000000000000000000000000000000000000000000005f52601160045260245ffd5b5f610b2a8261088c565b9150610b358361088c565b9250828201905080821115610b4d57610b4c610af3565b5b92915050565b7f4e487b71000000000000000000000000000000000000000000000000000000005f52603260045260245ffd5b7f4f6e6c79206f776e65722063616e2077697468647261770000000000000000005f82015250565b5f610bb4601783610a7b565b9150610bbf82610b80565b602082019050919050565b5f6020820190508181035f830152610be181610ba8565b9050919050565b7f746f41646472657373206973206e6f74203000000000000000000000000000005f82015250565b5f610c1c601283610a7b565b9150610c2782610be8565b602082019050919050565b5f6020820190508181035f830152610c4981610c10565b9050919050565b7f5f66726f6d41646472657373206973206e6f74203000000000000000000000005f82015250565b5f610c84601583610a7b565b9150610c8f82610c50565b602082019050919050565b5f6020820190508181035f830152610cb181610c78565b9050919050565b7f496e73756666696369656e742062616c616e63650000000000000000000000005f82015250565b5f610cec601483610a7b565b9150610cf782610cb8565b602082019050919050565b5f6020820190508181035f830152610d1981610ce0565b9050919050565b5f610d2a8261088c565b9150610d358361088c565b9250828203905081811115610d4d57610d4c610af3565b5b9291505056fea2646970667358221220cfee4f28f2ae5bc58050425a13b452b8db51aaa764b6a953f8a3934655e2c05f64736f6c634300081e0033","linkReferences":{}},"methodIdentifiers":{"changeOwner()":"62a09477","deposit()":"d0e30db0","getBalance()":"12065fe0","getMsgAddress()":"e97afe39","getOwner()":"893d20e8","getOwnerBalance()":"590791f2","getTop3Address()":"7275750f","withdraw(address,address,uint256)":"d9caed12"},"id":19}