{"abi":[{"type":"constructor","inputs":[],"stateMutability":"nonpayable"},{"type":"receive","stateMutability":"payable"},{"type":"function","name":"changeOwner","inputs":[{"name":"_newOwner","type":"address","internalType":"address"}],"outputs":[],"stateMutability":"nonpayable"},{"type":"function","name":"deposit","inputs":[],"outputs":[],"stateMutability":"payable"},{"type":"function","name":"withdraw","inputs":[{"name":"_toAddress","type":"address","internalType":"address"},{"name":"amount","type":"uint256","internalType":"uint256"}],"outputs":[],"stateMutability":"payable"}],"bytecode":{"object":"0x608060405234602257600e60ad565b60146026565b610ace6100c88239610ace90f35b602c565b60405190565b5f80fd5b5f1b90565b90604460018060a01b03916030565b9181191691161790565b60018060a01b031690565b90565b606b6067606f92604e565b6059565b604e565b90565b607990605c565b90565b6083906072565b90565b90565b9060996095609f92607c565b6086565b82546035565b9055565b60aa906072565b90565b60b63360046089565b60c560bf3060a3565b60056089565b56fe6080604052600436101561001d575b366101af5761001b610a8e565b005b6100275f35610056565b8063a6f9dae114610051578063d0e30db01461004c5763f3fef3a30361000e57610185565b610109565b6100c7565b60e01c90565b60405190565b5f80fd5b5f80fd5b60018060a01b031690565b61007e9061006a565b90565b61008a81610075565b0361009157565b5f80fd5b905035906100a282610081565b565b906020828203126100bd576100ba915f01610095565b90565b610066565b5f0190565b346100f5576100df6100da3660046100a4565b610395565b6100e761005c565b806100f1816100c2565b0390f35b610062565b5f91031261010457565b610066565b6101143660046100fa565b61011c610611565b61012461005c565b8061012e816100c2565b0390f35b90565b61013e81610132565b0361014557565b5f80fd5b9050359061015682610135565b565b9190604083820312610180578061017461017d925f8601610095565b93602001610149565b90565b610066565b610199610193366004610158565b906109e9565b6101a161005c565b806101ab816100c2565b0390f35b5f80fd5b5f1c90565b60018060a01b031690565b6101cf6101d4916101b3565b6101b8565b90565b6101e190546101c3565b90565b60209181520190565b5f7f4f6e6c79206f776e65722063616e206368616e6765206f776e65720000000000910152565b610221601b6020926101e4565b61022a816101ed565b0190565b6102439060208101905f818303910152610214565b90565b1561024d57565b61025561005c565b62461bcd60e51b81528061026b6004820161022e565b0390fd5b90565b90565b61028961028461028e9261026f565b610272565b61006a565b90565b61029a90610275565b90565b5f7f4e6577206f776e65722063616e6e6f74206265207a65726f2061646472657373910152565b6102d0602080926101e4565b6102d98161029d565b0190565b6102f29060208101905f8183039101526102c4565b90565b156102fc57565b61030461005c565b62461bcd60e51b81528061031a600482016102dd565b0390fd5b5f1b90565b9061033460018060a01b039161031e565b9181191691161790565b61035261034d6103579261006a565b610272565b61006a565b90565b6103639061033e565b90565b61036f9061035a565b90565b90565b9061038a61038561039192610366565b610372565b8254610323565b9055565b6103ea906103be336103b86103b26103ad60046101d7565b610075565b91610075565b14610246565b6103e3816103dc6103d66103d15f610291565b610075565b91610075565b14156102f5565b6004610375565b565b6104006103fb6104059261026f565b610272565b610132565b90565b5f7f6465706f7369742076616c7565206d617374203e203000000000000000000000910152565b61043c60166020926101e4565b61044581610408565b0190565b61045e9060208101905f81830391015261042f565b90565b1561046857565b61047061005c565b62461bcd60e51b81528061048660048201610449565b0390fd5b9061049490610366565b5f5260205260405f2090565b90565b6104af6104b4916101b3565b6104a0565b90565b6104c190546104a3565b90565b634e487b7160e01b5f52601160045260245ffd5b6104e76104ed91939293610132565b92610132565b82018092116104f857565b6104c4565b906105095f199161031e565b9181191691161790565b61052761052261052c92610132565b610272565b610132565b90565b90565b9061054761054261054e92610513565b61052f565b82546104fd565b9055565b634e487b7160e01b5f52603260045260245ffd5b50600390565b90565b61057881610566565b8210156105925761058a60019161056c565b910201905f90565b610552565b1c90565b6105ab9060086105b09302610597565b6101b8565b90565b906105be915461059b565b90565b1b90565b919060086105e59102916105df60018060a01b03846105c1565b926105c1565b9181191691161790565b919061060561060061060d93610366565b610372565b9083546105c5565b9055565b61062d346106276106215f6103ec565b91610132565b11610461565b610668346106586106516106425f339061048a565b9261064c846104b7565b6104d8565b8092610532565b6106635f339061048a565b610532565b61067b6106765f339061048a565b6104b7565b6106b36106ad6106a86106a35f61069d61069760015f9061056f565b906105b3565b9061048a565b6104b7565b610132565b91610132565b115f14610726576106e46106d16106cb60018061056f565b906105b3565b6106de600160029061056f565b906105ef565b61070d6106fc6106f660015f9061056f565b906105b3565b61070760018061056f565b906105ef565b6107233361071d60015f9061056f565b906105ef565b5b565b6107396107345f339061048a565b6104b7565b61077061076a6107656107605f61075a61075460018061056f565b906105b3565b9061048a565b6104b7565b610132565b91610132565b115f146107bc576107a161078e61078860018061056f565b906105b3565b61079b600160029061056f565b906105ef565b6107b6336107b060018061056f565b906105ef565b5b610724565b6107cf6107ca5f339061048a565b6104b7565b6108086108026107fd6107f85f6107f26107ec600160029061056f565b906105b3565b9061048a565b6104b7565b610132565b91610132565b11610813575b6107b7565b61082a33610824600160029061056f565b906105ef565b61080e565b5f7f4f6e6c79206f776e65722063616e207769746864726177000000000000000000910152565b61086360176020926101e4565b61086c8161082f565b0190565b6108859060208101905f818303910152610856565b90565b1561088f57565b61089761005c565b62461bcd60e51b8152806108ad60048201610870565b0390fd5b5f7f746f41646472657373206973206e6f7420300000000000000000000000000000910152565b6108e560126020926101e4565b6108ee816108b1565b0190565b6109079060208101905f8183039101526108d8565b90565b1561091157565b61091961005c565b62461bcd60e51b81528061092f600482016108f2565b0390fd5b5f7f496e73756666696369656e742062616c616e6365000000000000000000000000910152565b61096760146020926101e4565b61097081610933565b0190565b6109899060208101905f81830391015261095a565b90565b1561099357565b61099b61005c565b62461bcd60e51b8152806109b160048201610974565b0390fd5b6109be9061033e565b90565b6109ca906109b5565b90565b6109d69061035a565b90565b6109e161005c565b3d5f823e3d90fd5b5f808093610a70610a6b8395610a1a33610a14610a0e610a0960046101d7565b610075565b91610075565b14610888565b610a3f81610a38610a32610a2d89610291565b610075565b91610075565b141561090a565b610a66610a4c60056101d7565b31610a5f610a5987610132565b91610132565b101561098c565b6109c1565b6109cd565b828215610a85575bf115610a8057565b6109d9565b506108fc610a78565b610a96610611565b56fea26469706673582212204aa9ea645338c4292ac8d75eb096ba1a9686e4b7c2c3d9c95e0bf78f923c0a7e64736f6c634300081e0033","linkReferences":{}},"methodIdentifiers":{"changeOwner(address)":"a6f9dae1","deposit()":"d0e30db0","withdraw(address,uint256)":"f3fef3a3"},"id":44}