{"abi":[{"type":"constructor","inputs":[{"name":"name","type":"string","internalType":"string"},{"name":"symbol","type":"string","internalType":"string"}],"stateMutability":"nonpayable"},{"type":"function","name":"DOMAIN_SEPARATOR","inputs":[],"outputs":[{"name":"","type":"bytes32","internalType":"bytes32"}],"stateMutability":"view"},{"type":"function","name":"PERMIT_TYPEHASH","inputs":[],"outputs":[{"name":"","type":"bytes32","internalType":"bytes32"}],"stateMutability":"view"},{"type":"function","name":"allowance","inputs":[{"name":"owner","type":"address","internalType":"address"},{"name":"spender","type":"address","internalType":"address"}],"outputs":[{"name":"","type":"uint256","internalType":"uint256"}],"stateMutability":"view"},{"type":"function","name":"approve","inputs":[{"name":"spender","type":"address","internalType":"address"},{"name":"amount","type":"uint256","internalType":"uint256"}],"outputs":[{"name":"","type":"bool","internalType":"bool"}],"stateMutability":"nonpayable"},{"type":"function","name":"balanceOf","inputs":[{"name":"account","type":"address","internalType":"address"}],"outputs":[{"name":"","type":"uint256","internalType":"uint256"}],"stateMutability":"view"},{"type":"function","name":"decimals","inputs":[],"outputs":[{"name":"","type":"uint8","internalType":"uint8"}],"stateMutability":"view"},{"type":"function","name":"eip712Domain","inputs":[],"outputs":[{"name":"fields","type":"bytes1","internalType":"bytes1"},{"name":"name","type":"string","internalType":"string"},{"name":"version","type":"string","internalType":"string"},{"name":"chainId","type":"uint256","internalType":"uint256"},{"name":"verifyingContract","type":"address","internalType":"address"},{"name":"salt","type":"bytes32","internalType":"bytes32"},{"name":"extensions","type":"uint256[]","internalType":"uint256[]"}],"stateMutability":"view"},{"type":"function","name":"getNonce","inputs":[{"name":"owner","type":"address","internalType":"address"}],"outputs":[{"name":"","type":"uint256","internalType":"uint256"}],"stateMutability":"view"},{"type":"function","name":"mint","inputs":[{"name":"to","type":"address","internalType":"address"},{"name":"amount","type":"uint256","internalType":"uint256"}],"outputs":[],"stateMutability":"nonpayable"},{"type":"function","name":"name","inputs":[],"outputs":[{"name":"","type":"string","internalType":"string"}],"stateMutability":"view"},{"type":"function","name":"nonces","inputs":[{"name":"","type":"address","internalType":"address"}],"outputs":[{"name":"","type":"uint256","internalType":"uint256"}],"stateMutability":"view"},{"type":"function","name":"permit","inputs":[{"name":"owner","type":"address","internalType":"address"},{"name":"spender","type":"address","internalType":"address"},{"name":"value","type":"uint256","internalType":"uint256"},{"name":"deadline","type":"uint256","internalType":"uint256"},{"name":"v","type":"uint8","internalType":"uint8"},{"name":"r","type":"bytes32","internalType":"bytes32"},{"name":"s","type":"bytes32","internalType":"bytes32"}],"outputs":[],"stateMutability":"nonpayable"},{"type":"function","name":"symbol","inputs":[],"outputs":[{"name":"","type":"string","internalType":"string"}],"stateMutability":"view"},{"type":"function","name":"totalSupply","inputs":[],"outputs":[{"name":"","type":"uint256","internalType":"uint256"}],"stateMutability":"view"},{"type":"function","name":"transfer","inputs":[{"name":"to","type":"address","internalType":"address"},{"name":"value","type":"uint256","internalType":"uint256"}],"outputs":[{"name":"","type":"bool","internalType":"bool"}],"stateMutability":"nonpayable"},{"type":"function","name":"transferFrom","inputs":[{"name":"from","type":"address","internalType":"address"},{"name":"to","type":"address","internalType":"address"},{"name":"value","type":"uint256","internalType":"uint256"}],"outputs":[{"name":"","type":"bool","internalType":"bool"}],"stateMutability":"nonpayable"},{"type":"function","name":"transferWithCallback","inputs":[{"name":"to","type":"address","internalType":"address"},{"name":"amount","type":"uint256","internalType":"uint256"}],"outputs":[{"name":"","type":"bool","internalType":"bool"}],"stateMutability":"nonpayable"},{"type":"function","name":"transferWithCallbackAndData","inputs":[{"name":"to","type":"address","internalType":"address"},{"name":"amount","type":"uint256","internalType":"uint256"},{"name":"data","type":"bytes","internalType":"bytes"}],"outputs":[{"name":"","type":"bool","internalType":"bool"}],"stateMutability":"nonpayable"},{"type":"event","name":"Approval","inputs":[{"name":"owner","type":"address","indexed":true,"internalType":"address"},{"name":"spender","type":"address","indexed":true,"internalType":"address"},{"name":"value","type":"uint256","indexed":false,"internalType":"uint256"}],"anonymous":false},{"type":"event","name":"EIP712DomainChanged","inputs":[],"anonymous":false},{"type":"event","name":"Transfer","inputs":[{"name":"from","type":"address","indexed":true,"internalType":"address"},{"name":"to","type":"address","indexed":true,"internalType":"address"},{"name":"value","type":"uint256","indexed":false,"internalType":"uint256"}],"anonymous":false},{"type":"error","name":"ERC20InsufficientAllowance","inputs":[{"name":"spender","type":"address","internalType":"address"},{"name":"allowance","type":"uint256","internalType":"uint256"},{"name":"needed","type":"uint256","internalType":"uint256"}]},{"type":"error","name":"ERC20InsufficientBalance","inputs":[{"name":"sender","type":"address","internalType":"address"},{"name":"balance","type":"uint256","internalType":"uint256"},{"name":"needed","type":"uint256","internalType":"uint256"}]},{"type":"error","name":"ERC20InvalidApprover","inputs":[{"name":"approver","type":"address","internalType":"address"}]},{"type":"error","name":"ERC20InvalidReceiver","inputs":[{"name":"receiver","type":"address","internalType":"address"}]},{"type":"error","name":"ERC20InvalidSender","inputs":[{"name":"sender","type":"address","internalType":"address"}]},{"type":"error","name":"ERC20InvalidSpender","inputs":[{"name":"spender","type":"address","internalType":"address"}]},{"type":"error","name":"ERC2612ExpiredSignature","inputs":[{"name":"deadline","type":"uint256","internalType":"uint256"}]},{"type":"error","name":"ERC2612InvalidSigner","inputs":[{"name":"signer","type":"address","internalType":"address"},{"name":"owner","type":"address","internalType":"address"}]},{"type":"error","name":"InvalidShortString","inputs":[]},{"type":"error","name":"StringTooLong","inputs":[{"name":"str","type":"string","internalType":"string"}]}],"bytecode":{"object":"0x610160604052348015610010575f5ffd5b50604051612860380380612860833981810160405281019061003291906103a4565b816040518060400160405280600181526020017f310000000000000000000000000000000000000000000000000000000000000081525083838181816003908161007c919061062a565b50806004908161008c919061062a565b50505050506100a560058361014260201b90919060201c565b61012081815250506100c160068261014260201b90919060201c565b6101408181525050818051906020012060e08181525050808051906020012061010081815250504660a081815250506100fe61018f60201b60201c565b608081815250503073ffffffffffffffffffffffffffffffffffffffff1660c08173ffffffffffffffffffffffffffffffffffffffff1681525050505050506108ab565b5f6020835110156101635761015c836101e960201b60201c565b9050610189565b826101738361024e60201b60201c565b5f019081610181919061062a565b5060ff5f1b90505b92915050565b5f7f8b73c3c69bb8fe3d512ecc4cf759cc79239f7b179b0ffacaa9a75d522b39400f60e0516101005146306040516020016101ce95949392919061075f565b60405160208183030381529060405280519060200120905090565b5f5f829050601f8151111561023557826040517f305a27a900000000000000000000000000000000000000000000000000000000815260040161022c91906107f8565b60405180910390fd5b80518161024190610845565b5f1c175f1b915050919050565b5f819050919050565b5f604051905090565b5f5ffd5b5f5ffd5b5f5ffd5b5f5ffd5b5f601f19601f8301169050919050565b7f4e487b71000000000000000000000000000000000000000000000000000000005f52604160045260245ffd5b6102b682610270565b810181811067ffffffffffffffff821117156102d5576102d4610280565b5b80604052505050565b5f6102e7610257565b90506102f382826102ad565b919050565b5f67ffffffffffffffff82111561031257610311610280565b5b61031b82610270565b9050602081019050919050565b8281835e5f83830152505050565b5f610348610343846102f8565b6102de565b9050828152602081018484840111156103645761036361026c565b5b61036f848285610328565b509392505050565b5f82601f83011261038b5761038a610268565b5b815161039b848260208601610336565b91505092915050565b5f5f604083850312156103ba576103b9610260565b5b5f83015167ffffffffffffffff8111156103d7576103d6610264565b5b6103e385828601610377565b925050602083015167ffffffffffffffff81111561040457610403610264565b5b61041085828601610377565b9150509250929050565b5f81519050919050565b7f4e487b71000000000000000000000000000000000000000000000000000000005f52602260045260245ffd5b5f600282049050600182168061046857607f821691505b60208210810361047b5761047a610424565b5b50919050565b5f819050815f5260205f209050919050565b5f6020601f8301049050919050565b5f82821b905092915050565b5f600883026104dd7fffffffffffffffffffffffffffffffffffffffffffffffffffffffffffffffff826104a2565b6104e786836104a2565b95508019841693508086168417925050509392505050565b5f819050919050565b5f819050919050565b5f61052b610526610521846104ff565b610508565b6104ff565b9050919050565b5f819050919050565b61054483610511565b61055861055082610532565b8484546104ae565b825550505050565b5f5f905090565b61056f610560565b61057a81848461053b565b505050565b5b8181101561059d576105925f82610567565b600181019050610580565b5050565b601f8211156105e2576105b381610481565b6105bc84610493565b810160208510156105cb578190505b6105df6105d785610493565b83018261057f565b50505b505050565b5f82821c905092915050565b5f6106025f19846008026105e7565b1980831691505092915050565b5f61061a83836105f3565b9150826002028217905092915050565b6106338261041a565b67ffffffffffffffff81111561064c5761064b610280565b5b6106568254610451565b6106618282856105a1565b5f60209050601f831160018114610692575f8415610680578287015190505b61068a858261060f565b8655506106f1565b601f1984166106a086610481565b5f5b828110156106c7578489015182556001820191506020850194506020810190506106a2565b868310156106e457848901516106e0601f8916826105f3565b8355505b6001600288020188555050505b505050505050565b5f819050919050565b61070b816106f9565b82525050565b61071a816104ff565b82525050565b5f73ffffffffffffffffffffffffffffffffffffffff82169050919050565b5f61074982610720565b9050919050565b6107598161073f565b82525050565b5f60a0820190506107725f830188610702565b61077f6020830187610702565b61078c6040830186610702565b6107996060830185610711565b6107a66080830184610750565b9695505050505050565b5f82825260208201905092915050565b5f6107ca8261041a565b6107d481856107b0565b93506107e4818560208601610328565b6107ed81610270565b840191505092915050565b5f6020820190508181035f83015261081081846107c0565b905092915050565b5f81519050919050565b5f819050602082019050919050565b5f61083c82516106f9565b80915050919050565b5f61084f82610818565b8261085984610822565b905061086481610831565b925060208210156108a45761089f7fffffffffffffffffffffffffffffffffffffffffffffffffffffffffffffffff836020036008026104a2565b831692505b5050919050565b60805160a05160c05160e051610100516101205161014051611f646108fc5f395f610e4b01525f610e1001525f6112d501525f6112b401525f610cd501525f610d2b01525f610d540152611f645ff3fe608060405234801561000f575f5ffd5b5060043610610114575f3560e01c806340c10f19116100a057806395d89b411161006f57806395d89b411461030e578063a580a1c61461032c578063a9059cbb1461035c578063d505accf1461038c578063dd62ed3e146103a857610114565b806340c10f191461026e57806370a082311461028a5780637ecebe00146102ba57806384b0196e146102ea57610114565b806323b872dd116100e757806323b872dd146101b45780632d0335ab146101e457806330adf81f14610214578063313ce567146102325780633644e5151461025057610114565b806306fdde0314610118578063095ea7b31461013657806318160ddd146101665780631a825b7514610184575b5f5ffd5b6101206103d8565b60405161012d9190611542565b60405180910390f35b610150600480360381019061014b91906115f7565b610468565b60405161015d919061164f565b60405180910390f35b61016e61047b565b60405161017b9190611677565b60405180910390f35b61019e600480360381019061019991906115f7565b610484565b6040516101ab919061164f565b60405180910390f35b6101ce60048036038101906101c99190611690565b610563565b6040516101db919061164f565b60405180910390f35b6101fe60048036038101906101f991906116e0565b610591565b60405161020b9190611677565b60405180910390f35b61021c6105d7565b6040516102299190611723565b60405180910390f35b61023a6105fb565b6040516102479190611757565b60405180910390f35b610258610603565b6040516102659190611723565b60405180910390f35b610288600480360381019061028391906115f7565b610611565b005b6102a4600480360381019061029f91906116e0565b61061f565b6040516102b19190611677565b60405180910390f35b6102d460048036038101906102cf91906116e0565b610664565b6040516102e19190611677565b60405180910390f35b6102f2610679565b6040516103059796959493929190611870565b60405180910390f35b61031661071e565b6040516103239190611542565b60405180910390f35b61034660048036038101906103419190611953565b6107ae565b604051610353919061164f565b60405180910390f35b610376600480360381019061037191906115f7565b610893565b604051610383919061164f565b60405180910390f35b6103a660048036038101906103a19190611a18565b6108b5565b005b6103c260048036038101906103bd9190611ab5565b610a82565b6040516103cf9190611677565b60405180910390f35b6060600380546103e790611b20565b80601f016020809104026020016040519081016040528092919081815260200182805461041390611b20565b801561045e5780601f106104355761010080835404028352916020019161045e565b820191905f5260205f20905b81548152906001019060200180831161044157829003601f168201915b5050505050905090565b5f6104738383610b04565b905092915050565b5f600254905090565b5f61048f8383610893565b6104ce576040517f08c379a00000000000000000000000000000000000000000000000000000000081526004016104c590611b9a565b60405180910390fd5b6104d783610b26565b15610559578273ffffffffffffffffffffffffffffffffffffffff1663d031426333846040518363ffffffff1660e01b8152600401610517929190611beb565b6020604051808303815f875af1158015610533573d5f5f3e3d5ffd5b505050506040513d601f19601f820116820180604052508101906105579190611c4f565b505b6001905092915050565b5f5f61056d610b48565b905061057a858285610b4f565b610585858585610be2565b60019150509392505050565b5f60075f8373ffffffffffffffffffffffffffffffffffffffff1673ffffffffffffffffffffffffffffffffffffffff1681526020019081526020015f20549050919050565b7f6e71edae12b1b97f4d1f60370fef10105fa2faae0126114a169c64845d6126c981565b5f6012905090565b5f61060c610cd2565b905090565b61061b8282610d88565b5050565b5f5f5f8373ffffffffffffffffffffffffffffffffffffffff1673ffffffffffffffffffffffffffffffffffffffff1681526020019081526020015f20549050919050565b6007602052805f5260405f205f915090505481565b5f6060805f5f5f606061068a610e07565b610692610e42565b46305f5f1b5f67ffffffffffffffff8111156106b1576106b0611c7a565b5b6040519080825280602002602001820160405280156106df5781602001602082028036833780820191505090505b507f0f00000000000000000000000000000000000000000000000000000000000000959493929190965096509650965096509650965090919293949596565b60606004805461072d90611b20565b80601f016020809104026020016040519081016040528092919081815260200182805461075990611b20565b80156107a45780601f1061077b576101008083540402835291602001916107a4565b820191905f5260205f20905b81548152906001019060200180831161078757829003601f168201915b5050505050905090565b5f6107b98585610893565b6107f8576040517f08c379a00000000000000000000000000000000000000000000000000000000081526004016107ef90611b9a565b60405180910390fd5b61080185610b26565b15610887578473ffffffffffffffffffffffffffffffffffffffff1663d0314263338686866040518563ffffffff1660e01b81526004016108459493929190611ce1565b6020604051808303815f875af1158015610861573d5f5f3e3d5ffd5b505050506040513d601f19601f820116820180604052508101906108859190611c4f565b505b60019050949350505050565b5f5f61089d610b48565b90506108aa818585610be2565b600191505092915050565b834211156108fa57836040517f627913020000000000000000000000000000000000000000000000000000000081526004016108f19190611677565b60405180910390fd5b5f7f6e71edae12b1b97f4d1f60370fef10105fa2faae0126114a169c64845d6126c988888860075f8d73ffffffffffffffffffffffffffffffffffffffff1673ffffffffffffffffffffffffffffffffffffffff1681526020019081526020015f205f81548092919061096c90611d4c565b919050558960405160200161098696959493929190611d93565b6040516020818303038152906040528051906020012090505f6109a882610e7d565b90505f6001828787876040515f81526020016040526040516109cd9493929190611df2565b6020604051602081039080840390855afa1580156109ed573d5f5f3e3d5ffd5b5050506020604051035190508973ffffffffffffffffffffffffffffffffffffffff168173ffffffffffffffffffffffffffffffffffffffff1614610a6b57808a6040517f4b800e46000000000000000000000000000000000000000000000000000000008152600401610a62929190611e35565b60405180910390fd5b610a768a8a8a610e96565b50505050505050505050565b5f60015f8473ffffffffffffffffffffffffffffffffffffffff1673ffffffffffffffffffffffffffffffffffffffff1681526020019081526020015f205f8373ffffffffffffffffffffffffffffffffffffffff1673ffffffffffffffffffffffffffffffffffffffff1681526020019081526020015f2054905092915050565b5f5f610b0e610b48565b9050610b1b818585610e96565b600191505092915050565b5f5f8273ffffffffffffffffffffffffffffffffffffffff163b119050919050565b5f33905090565b5f610b5a8484610a82565b90507fffffffffffffffffffffffffffffffffffffffffffffffffffffffffffffffff811015610bdc5781811015610bcd578281836040517ffb8f41b2000000000000000000000000000000000000000000000000000000008152600401610bc493929190611e5c565b60405180910390fd5b610bdb84848484035f610ea8565b5b50505050565b5f73ffffffffffffffffffffffffffffffffffffffff168373ffffffffffffffffffffffffffffffffffffffff1603610c52575f6040517f96c6fd1e000000000000000000000000000000000000000000000000000000008152600401610c499190611e91565b60405180910390fd5b5f73ffffffffffffffffffffffffffffffffffffffff168273ffffffffffffffffffffffffffffffffffffffff1603610cc2575f6040517fec442f05000000000000000000000000000000000000000000000000000000008152600401610cb99190611e91565b60405180910390fd5b610ccd838383611077565b505050565b5f7f000000000000000000000000000000000000000000000000000000000000000073ffffffffffffffffffffffffffffffffffffffff163073ffffffffffffffffffffffffffffffffffffffff16148015610d4d57507f000000000000000000000000000000000000000000000000000000000000000046145b15610d7a577f00000000000000000000000000000000000000000000000000000000000000009050610d85565b610d82611290565b90505b90565b5f73ffffffffffffffffffffffffffffffffffffffff168273ffffffffffffffffffffffffffffffffffffffff1603610df8575f6040517fec442f05000000000000000000000000000000000000000000000000000000008152600401610def9190611e91565b60405180910390fd5b610e035f8383611077565b5050565b6060610e3d60057f000000000000000000000000000000000000000000000000000000000000000061132590919063ffffffff16565b905090565b6060610e7860067f000000000000000000000000000000000000000000000000000000000000000061132590919063ffffffff16565b905090565b5f610e8f610e89610cd2565b836113d2565b9050919050565b610ea38383836001610ea8565b505050565b5f73ffffffffffffffffffffffffffffffffffffffff168473ffffffffffffffffffffffffffffffffffffffff1603610f18575f6040517fe602df05000000000000000000000000000000000000000000000000000000008152600401610f0f9190611e91565b60405180910390fd5b5f73ffffffffffffffffffffffffffffffffffffffff168373ffffffffffffffffffffffffffffffffffffffff1603610f88575f6040517f94280d62000000000000000000000000000000000000000000000000000000008152600401610f7f9190611e91565b60405180910390fd5b8160015f8673ffffffffffffffffffffffffffffffffffffffff1673ffffffffffffffffffffffffffffffffffffffff1681526020019081526020015f205f8573ffffffffffffffffffffffffffffffffffffffff1673ffffffffffffffffffffffffffffffffffffffff1681526020019081526020015f20819055508015611071578273ffffffffffffffffffffffffffffffffffffffff168473ffffffffffffffffffffffffffffffffffffffff167f8c5be1e5ebec7d5bd14f71427d1e84f3dd0314c0f7b2291e5b200ac8c7c3b925846040516110689190611677565b60405180910390a35b50505050565b5f73ffffffffffffffffffffffffffffffffffffffff168373ffffffffffffffffffffffffffffffffffffffff16036110c7578060025f8282546110bb9190611eaa565b92505081905550611195565b5f5f5f8573ffffffffffffffffffffffffffffffffffffffff1673ffffffffffffffffffffffffffffffffffffffff1681526020019081526020015f2054905081811015611150578381836040517fe450d38c00000000000000000000000000000000000000000000000000000000815260040161114793929190611e5c565b60405180910390fd5b8181035f5f8673ffffffffffffffffffffffffffffffffffffffff1673ffffffffffffffffffffffffffffffffffffffff1681526020019081526020015f2081905550505b5f73ffffffffffffffffffffffffffffffffffffffff168273ffffffffffffffffffffffffffffffffffffffff16036111dc578060025f8282540392505081905550611226565b805f5f8473ffffffffffffffffffffffffffffffffffffffff1673ffffffffffffffffffffffffffffffffffffffff1681526020019081526020015f205f82825401925050819055505b8173ffffffffffffffffffffffffffffffffffffffff168373ffffffffffffffffffffffffffffffffffffffff167fddf252ad1be2c89b69c2b068fc378daa952ba7f163c4a11628f55a4df523b3ef836040516112839190611677565b60405180910390a3505050565b5f7f8b73c3c69bb8fe3d512ecc4cf759cc79239f7b179b0ffacaa9a75d522b39400f7f00000000000000000000000000000000000000000000000000000000000000007f0000000000000000000000000000000000000000000000000000000000000000463060405160200161130a959493929190611edd565b60405160208183030381529060405280519060200120905090565b606060ff5f1b83146113415761133a83611412565b90506113cc565b81805461134d90611b20565b80601f016020809104026020016040519081016040528092919081815260200182805461137990611b20565b80156113c45780601f1061139b576101008083540402835291602001916113c4565b820191905f5260205f20905b8154815290600101906020018083116113a757829003601f168201915b505050505090505b92915050565b5f6040517f190100000000000000000000000000000000000000000000000000000000000081528360028201528260228201526042812091505092915050565b60605f61141e83611484565b90505f602067ffffffffffffffff81111561143c5761143b611c7a565b5b6040519080825280601f01601f19166020018201604052801561146e5781602001600182028036833780820191505090505b5090508181528360208201528092505050919050565b5f5f60ff835f1c169050601f8111156114c9576040517fb3512b0c00000000000000000000000000000000000000000000000000000000815260040160405180910390fd5b80915050919050565b5f81519050919050565b5f82825260208201905092915050565b8281835e5f83830152505050565b5f601f19601f8301169050919050565b5f611514826114d2565b61151e81856114dc565b935061152e8185602086016114ec565b611537816114fa565b840191505092915050565b5f6020820190508181035f83015261155a818461150a565b905092915050565b5f5ffd5b5f5ffd5b5f73ffffffffffffffffffffffffffffffffffffffff82169050919050565b5f6115938261156a565b9050919050565b6115a381611589565b81146115ad575f5ffd5b50565b5f813590506115be8161159a565b92915050565b5f819050919050565b6115d6816115c4565b81146115e0575f5ffd5b50565b5f813590506115f1816115cd565b92915050565b5f5f6040838503121561160d5761160c611562565b5b5f61161a858286016115b0565b925050602061162b858286016115e3565b9150509250929050565b5f8115159050919050565b61164981611635565b82525050565b5f6020820190506116625f830184611640565b92915050565b611671816115c4565b82525050565b5f60208201905061168a5f830184611668565b92915050565b5f5f5f606084860312156116a7576116a6611562565b5b5f6116b4868287016115b0565b93505060206116c5868287016115b0565b92505060406116d6868287016115e3565b9150509250925092565b5f602082840312156116f5576116f4611562565b5b5f611702848285016115b0565b91505092915050565b5f819050919050565b61171d8161170b565b82525050565b5f6020820190506117365f830184611714565b92915050565b5f60ff82169050919050565b6117518161173c565b82525050565b5f60208201905061176a5f830184611748565b92915050565b5f7fff0000000000000000000000000000000000000000000000000000000000000082169050919050565b6117a481611770565b82525050565b6117b381611589565b82525050565b5f81519050919050565b5f82825260208201905092915050565b5f819050602082019050919050565b6117eb816115c4565b82525050565b5f6117fc83836117e2565b60208301905092915050565b5f602082019050919050565b5f61181e826117b9565b61182881856117c3565b9350611833836117d3565b805f5b8381101561186357815161184a88826117f1565b975061185583611808565b925050600181019050611836565b5085935050505092915050565b5f60e0820190506118835f83018a61179b565b8181036020830152611895818961150a565b905081810360408301526118a9818861150a565b90506118b86060830187611668565b6118c560808301866117aa565b6118d260a0830185611714565b81810360c08301526118e48184611814565b905098975050505050505050565b5f5ffd5b5f5ffd5b5f5ffd5b5f5f83601f840112611913576119126118f2565b5b8235905067ffffffffffffffff8111156119305761192f6118f6565b5b60208301915083600182028301111561194c5761194b6118fa565b5b9250929050565b5f5f5f5f6060858703121561196b5761196a611562565b5b5f611978878288016115b0565b9450506020611989878288016115e3565b935050604085013567ffffffffffffffff8111156119aa576119a9611566565b5b6119b6878288016118fe565b925092505092959194509250565b6119cd8161173c565b81146119d7575f5ffd5b50565b5f813590506119e8816119c4565b92915050565b6119f78161170b565b8114611a01575f5ffd5b50565b5f81359050611a12816119ee565b92915050565b5f5f5f5f5f5f5f60e0888a031215611a3357611a32611562565b5b5f611a408a828b016115b0565b9750506020611a518a828b016115b0565b9650506040611a628a828b016115e3565b9550506060611a738a828b016115e3565b9450506080611a848a828b016119da565b93505060a0611a958a828b01611a04565b92505060c0611aa68a828b01611a04565b91505092959891949750929550565b5f5f60408385031215611acb57611aca611562565b5b5f611ad8858286016115b0565b9250506020611ae9858286016115b0565b9150509250929050565b7f4e487b71000000000000000000000000000000000000000000000000000000005f52602260045260245ffd5b5f6002820490506001821680611b3757607f821691505b602082108103611b4a57611b49611af3565b5b50919050565b7f5472616e73666572206661696c656400000000000000000000000000000000005f82015250565b5f611b84600f836114dc565b9150611b8f82611b50565b602082019050919050565b5f6020820190508181035f830152611bb181611b78565b9050919050565b5f82825260208201905092915050565b50565b5f611bd65f83611bb8565b9150611be182611bc8565b5f82019050919050565b5f606082019050611bfe5f8301856117aa565b611c0b6020830184611668565b8181036040830152611c1c81611bcb565b90509392505050565b611c2e81611635565b8114611c38575f5ffd5b50565b5f81519050611c4981611c25565b92915050565b5f60208284031215611c6457611c63611562565b5b5f611c7184828501611c3b565b91505092915050565b7f4e487b71000000000000000000000000000000000000000000000000000000005f52604160045260245ffd5b828183375f83830152505050565b5f611cc08385611bb8565b9350611ccd838584611ca7565b611cd6836114fa565b840190509392505050565b5f606082019050611cf45f8301876117aa565b611d016020830186611668565b8181036040830152611d14818486611cb5565b905095945050505050565b7f4e487b71000000000000000000000000000000000000000000000000000000005f52601160045260245ffd5b5f611d56826115c4565b91507fffffffffffffffffffffffffffffffffffffffffffffffffffffffffffffffff8203611d8857611d87611d1f565b5b600182019050919050565b5f60c082019050611da65f830189611714565b611db360208301886117aa565b611dc060408301876117aa565b611dcd6060830186611668565b611dda6080830185611668565b611de760a0830184611668565b979650505050505050565b5f608082019050611e055f830187611714565b611e126020830186611748565b611e1f6040830185611714565b611e2c6060830184611714565b95945050505050565b5f604082019050611e485f8301856117aa565b611e5560208301846117aa565b9392505050565b5f606082019050611e6f5f8301866117aa565b611e7c6020830185611668565b611e896040830184611668565b949350505050565b5f602082019050611ea45f8301846117aa565b92915050565b5f611eb4826115c4565b9150611ebf836115c4565b9250828201905080821115611ed757611ed6611d1f565b5b92915050565b5f60a082019050611ef05f830188611714565b611efd6020830187611714565b611f0a6040830186611714565b611f176060830185611668565b611f2460808301846117aa565b969550505050505056fea2646970667358221220d89e543d80269b445b13f57c1c22613159b1f9fefc54d5cf50d2c6986fcb205864736f6c634300081e0033","linkReferences":{}},"methodIdentifiers":{"DOMAIN_SEPARATOR()":"3644e515","PERMIT_TYPEHASH()":"30adf81f","allowance(address,address)":"dd62ed3e","approve(address,uint256)":"095ea7b3","balanceOf(address)":"70a08231","decimals()":"313ce567","eip712Domain()":"84b0196e","getNonce(address)":"2d0335ab","mint(address,uint256)":"40c10f19","name()":"06fdde03","nonces(address)":"7ecebe00","permit(address,address,uint256,uint256,uint8,bytes32,bytes32)":"d505accf","symbol()":"95d89b41","totalSupply()":"18160ddd","transfer(address,uint256)":"a9059cbb","transferFrom(address,address,uint256)":"23b872dd","transferWithCallback(address,uint256)":"1a825b75","transferWithCallbackAndData(address,uint256,bytes)":"a580a1c6"},"id":74}