{"abi":[{"type":"constructor","inputs":[{"name":"name","type":"string","internalType":"string"},{"name":"symbol","type":"string","internalType":"string"}],"stateMutability":"nonpayable"},{"type":"function","name":"DOMAIN_SEPARATOR","inputs":[],"outputs":[{"name":"","type":"bytes32","internalType":"bytes32"}],"stateMutability":"view"},{"type":"function","name":"PERMIT_TYPEHASH","inputs":[],"outputs":[{"name":"","type":"bytes32","internalType":"bytes32"}],"stateMutability":"view"},{"type":"function","name":"allowance","inputs":[{"name":"owner","type":"address","internalType":"address"},{"name":"spender","type":"address","internalType":"address"}],"outputs":[{"name":"","type":"uint256","internalType":"uint256"}],"stateMutability":"view"},{"type":"function","name":"approve","inputs":[{"name":"spender","type":"address","internalType":"address"},{"name":"amount","type":"uint256","internalType":"uint256"}],"outputs":[{"name":"","type":"bool","internalType":"bool"}],"stateMutability":"nonpayable"},{"type":"function","name":"balanceOf","inputs":[{"name":"account","type":"address","internalType":"address"}],"outputs":[{"name":"","type":"uint256","internalType":"uint256"}],"stateMutability":"view"},{"type":"function","name":"decimals","inputs":[],"outputs":[{"name":"","type":"uint8","internalType":"uint8"}],"stateMutability":"view"},{"type":"function","name":"eip712Domain","inputs":[],"outputs":[{"name":"fields","type":"bytes1","internalType":"bytes1"},{"name":"name","type":"string","internalType":"string"},{"name":"version","type":"string","internalType":"string"},{"name":"chainId","type":"uint256","internalType":"uint256"},{"name":"verifyingContract","type":"address","internalType":"address"},{"name":"salt","type":"bytes32","internalType":"bytes32"},{"name":"extensions","type":"uint256[]","internalType":"uint256[]"}],"stateMutability":"view"},{"type":"function","name":"getNonce","inputs":[{"name":"owner","type":"address","internalType":"address"}],"outputs":[{"name":"","type":"uint256","internalType":"uint256"}],"stateMutability":"view"},{"type":"function","name":"mint","inputs":[{"name":"to","type":"address","internalType":"address"},{"name":"amount","type":"uint256","internalType":"uint256"}],"outputs":[],"stateMutability":"nonpayable"},{"type":"function","name":"name","inputs":[],"outputs":[{"name":"","type":"string","internalType":"string"}],"stateMutability":"view"},{"type":"function","name":"nonces","inputs":[{"name":"","type":"address","internalType":"address"}],"outputs":[{"name":"","type":"uint256","internalType":"uint256"}],"stateMutability":"view"},{"type":"function","name":"permit","inputs":[{"name":"owner","type":"address","internalType":"address"},{"name":"spender","type":"address","internalType":"address"},{"name":"value","type":"uint256","internalType":"uint256"},{"name":"deadline","type":"uint256","internalType":"uint256"},{"name":"v","type":"uint8","internalType":"uint8"},{"name":"r","type":"bytes32","internalType":"bytes32"},{"name":"s","type":"bytes32","internalType":"bytes32"}],"outputs":[],"stateMutability":"nonpayable"},{"type":"function","name":"symbol","inputs":[],"outputs":[{"name":"","type":"string","internalType":"string"}],"stateMutability":"view"},{"type":"function","name":"totalSupply","inputs":[],"outputs":[{"name":"","type":"uint256","internalType":"uint256"}],"stateMutability":"view"},{"type":"function","name":"transfer","inputs":[{"name":"to","type":"address","internalType":"address"},{"name":"value","type":"uint256","internalType":"uint256"}],"outputs":[{"name":"","type":"bool","internalType":"bool"}],"stateMutability":"nonpayable"},{"type":"function","name":"transferFrom","inputs":[{"name":"from","type":"address","internalType":"address"},{"name":"to","type":"address","internalType":"address"},{"name":"value","type":"uint256","internalType":"uint256"}],"outputs":[{"name":"","type":"bool","internalType":"bool"}],"stateMutability":"nonpayable"},{"type":"function","name":"transferWithCallback","inputs":[{"name":"to","type":"address","internalType":"address"},{"name":"amount","type":"uint256","internalType":"uint256"}],"outputs":[{"name":"","type":"bool","internalType":"bool"}],"stateMutability":"nonpayable"},{"type":"function","name":"transferWithCallbackAndData","inputs":[{"name":"to","type":"address","internalType":"address"},{"name":"amount","type":"uint256","internalType":"uint256"},{"name":"data","type":"bytes","internalType":"bytes"}],"outputs":[{"name":"","type":"bool","internalType":"bool"}],"stateMutability":"nonpayable"},{"type":"event","name":"Approval","inputs":[{"name":"owner","type":"address","indexed":true,"internalType":"address"},{"name":"spender","type":"address","indexed":true,"internalType":"address"},{"name":"value","type":"uint256","indexed":false,"internalType":"uint256"}],"anonymous":false},{"type":"event","name":"EIP712DomainChanged","inputs":[],"anonymous":false},{"type":"event","name":"Transfer","inputs":[{"name":"from","type":"address","indexed":true,"internalType":"address"},{"name":"to","type":"address","indexed":true,"internalType":"address"},{"name":"value","type":"uint256","indexed":false,"internalType":"uint256"}],"anonymous":false},{"type":"error","name":"ERC20InsufficientAllowance","inputs":[{"name":"spender","type":"address","internalType":"address"},{"name":"allowance","type":"uint256","internalType":"uint256"},{"name":"needed","type":"uint256","internalType":"uint256"}]},{"type":"error","name":"ERC20InsufficientBalance","inputs":[{"name":"sender","type":"address","internalType":"address"},{"name":"balance","type":"uint256","internalType":"uint256"},{"name":"needed","type":"uint256","internalType":"uint256"}]},{"type":"error","name":"ERC20InvalidApprover","inputs":[{"name":"approver","type":"address","internalType":"address"}]},{"type":"error","name":"ERC20InvalidReceiver","inputs":[{"name":"receiver","type":"address","internalType":"address"}]},{"type":"error","name":"ERC20InvalidSender","inputs":[{"name":"sender","type":"address","internalType":"address"}]},{"type":"error","name":"ERC20InvalidSpender","inputs":[{"name":"spender","type":"address","internalType":"address"}]},{"type":"error","name":"ERC2612ExpiredSignature","inputs":[{"name":"deadline","type":"uint256","internalType":"uint256"}]},{"type":"error","name":"ERC2612InvalidSigner","inputs":[{"name":"signer","type":"address","internalType":"address"},{"name":"owner","type":"address","internalType":"address"}]},{"type":"error","name":"InvalidShortString","inputs":[]},{"type":"error","name":"StringTooLong","inputs":[{"name":"str","type":"string","internalType":"string"}]}],"bytecode":{"object":"0x610160604052346100735761001b6100156101ca565b9061024e565b610023610078565b611f406109378239608051816116dd015260a05181611714015260c051816116a4015260e05181611b8a01526101005181611baf015261012051816117b3015261014051816117f30152611f4090f35b61007e565b60405190565b5f80fd5b601f801991011690565b634e487b7160e01b5f52604160045260245ffd5b906100aa90610082565b810190811060018060401b038211176100c257604052565b61008c565b906100da6100d3610078565b92836100a0565b565b5f80fd5b5f80fd5b5f80fd5b5f80fd5b60018060401b03811161010857610104602091610082565b0190565b61008c565b90825f9392825e0152565b9092919261012d610128826100ec565b6100c7565b93818552602085019082840111610149576101479261010d565b565b6100e8565b9080601f8301121561016c5781602061016993519101610118565b90565b6100e4565b9190916040818403126101c5575f81015160018060401b0381116101c0578361019b91830161014e565b92602082015160018060401b0381116101bb576101b8920161014e565b90565b6100e0565b6100e0565b6100dc565b6101e8612877803803806101dd816100c7565b928339810190610171565b9091565b906101fe6101f9836100ec565b6100c7565b918252565b5f7f3100000000000000000000000000000000000000000000000000000000000000910152565b61023460016101ec565b9061024160208301610203565b565b61024b61022a565b90565b610263918161025b610243565b9091926102b7565b565b90565b90565b60200190565b5190565b60018060a01b031690565b90565b61029761029261029c92610275565b610280565b610275565b90565b6102a890610283565b90565b6102b49061029f565b90565b6102c8610318946102fd939461034c565b6102dc816102d66005610265565b90610633565b610120526102f4836102ee6006610265565b90610633565b61014052610268565b61030f61030982610271565b9161026b565b2060e052610268565b61032a61032482610271565b9161026b565b20610100524660a05261033b610751565b608052610347306102ab565b60c052565b9061035691610358565b565b90610362916105b8565b565b5190565b634e487b7160e01b5f52602260045260245ffd5b906001600283049216801561039c575b602083101461039757565b610368565b91607f169161038c565b5f5260205f2090565b601f602091010490565b1b90565b919060086103d89102916103d25f19846103b9565b926103b9565b9181191691161790565b90565b6103f96103f46103fe926103e2565b610280565b6103e2565b90565b90565b919061041a610415610422936103e5565b610401565b9083546103bd565b9055565b5f90565b61043c91610436610426565b91610404565b565b5b81811061044a575050565b806104575f60019361042a565b0161043f565b9190601f811161046d575b505050565b61047961049e936103a6565b906020610485846103af565b830193106104a6575b610497906103af565b019061043e565b5f8080610468565b91506104978192905061048e565b1c90565b906104c8905f19906008026104b4565b191690565b816104d7916104b8565b906002021790565b906104e981610364565b9060018060401b0382116105a75761050b82610505855461037c565b8561045d565b602090601f831160011461053f5791809161052e935f92610533575b50506104cd565b90555b565b90915001515f80610527565b601f1983169161054e856103a6565b925f5b81811061058f57509160029391856001969410610575575b50505002019055610531565b610585910151601f8416906104b8565b90555f8080610569565b91936020600181928787015181550195019201610551565b61008c565b906105b6916104df565b565b906105c76105ce9260036105ac565b60046105ac565b565b5f90565b90565b6105eb6105e66105f0926105d4565b610280565b6103e2565b90565b90565b90565b5f1b90565b61061261060d610617926105f3565b6105f9565b6105f6565b90565b61062460ff6105fe565b90565b610630906105f6565b90565b9061063c6105d0565b5061064e61064983610268565b610271565b61066161065b60206105d7565b916103e2565b105f146106755750610672906108ac565b90565b5f61068361068993926107c2565b016105ac565b61069961069461061a565b610627565b90565b5f90565b7f8b73c3c69bb8fe3d512ecc4cf759cc79239f7b179b0ffacaa9a75d522b39400f90565b6106ce90516105f6565b90565b6106da906105f6565b9052565b6106e7906103e2565b9052565b6106f490610275565b90565b610700906106eb565b9052565b9095949261074f9461073e6107489261073460809661072a60a088019c5f8901906106d1565b60208701906106d1565b60408501906106d1565b60608301906106de565b01906106f7565b565b61075961069c565b506107626106a0565b6107ac61076f60e06106c4565b9161079d61077e6101006106c4565b46610788306102ab565b91610791610078565b96879560208701610704565b602082018103825203826100a0565b6107be6107b882610271565b9161026b565b2090565b90565b90565b6107dc6107d76107e1926107c5565b610280565b6103e2565b90565b60209181520190565b61080c61081560209361081a9361080381610364565b938480936107e4565b9586910161010d565b610082565b0190565b6108339160208201915f8184039101526107ed565b90565b61085061084b61084583610271565b9261026b565b6106c4565b906020811061085e575b5090565b610870905f19906020036008026103b9565b165f61085a565b5f1c90565b61088861088d91610877565b6103e5565b90565b6108a461089f6108a9926103e2565b6105f9565b6105f6565b90565b6108b46105d0565b506108be81610268565b906108c882610271565b6108db6108d5601f6107c8565b916103e2565b116109105750610908816109026108fc6108f761090d95610836565b61087c565b91610271565b17610890565b610627565b90565b6109329061091c610078565b91829163305a27a960e01b83526004830161081e565b0390fdfe60806040526004361015610013575b610a7d565b61001d5f3561013c565b806306fdde0314610137578063095ea7b31461013257806318160ddd1461012d5780631a825b751461012857806323b872dd146101235780632d0335ab1461011e57806330adf81f14610119578063313ce567146101145780633644e5151461010f57806340c10f191461010a57806370a08231146101055780637ecebe001461010057806384b0196e146100fb57806395d89b41146100f6578063a580a1c6146100f1578063a9059cbb146100ec578063d505accf146100e75763dd62ed3e0361000e57610a47565b6109e0565b6108f4565b6108bb565b6107e9565b6107ad565b610659565b610591565b61055d565b610523565b6104ee565b610491565b610408565b6103b4565b610344565b61030f565b6102b7565b6101ca565b60e01c90565b60405190565b5f80fd5b5f80fd5b5f91031261015a57565b61014c565b5190565b60209181520190565b90825f9392825e0152565b601f801991011690565b6101a06101a96020936101ae936101978161015f565b93848093610163565b9586910161016c565b610177565b0190565b6101c79160208201915f818403910152610181565b90565b346101fa576101da366004610150565b6101f66101e5610bda565b6101ed610142565b918291826101b2565b0390f35b610148565b5f80fd5b60018060a01b031690565b61021790610203565b90565b6102238161020e565b0361022a57565b5f80fd5b9050359061023b8261021a565b565b90565b6102498161023d565b0361025057565b5f80fd5b9050359061026182610240565b565b919060408382031261028b578061027f610288925f860161022e565b93602001610254565b90565b61014c565b151590565b61029e90610290565b9052565b91906102b5905f60208501940190610295565b565b346102e8576102e46102d36102cd366004610263565b90610bf4565b6102db610142565b918291826102a2565b0390f35b610148565b6102f69061023d565b9052565b919061030d905f602085019401906102ed565b565b3461033f5761031f366004610150565b61033b61032a610c34565b610332610142565b918291826102fa565b0390f35b610148565b346103755761037161036061035a366004610263565b90610d91565b610368610142565b918291826102a2565b0390f35b610148565b90916060828403126103af576103ac610395845f850161022e565b936103a3816020860161022e565b93604001610254565b90565b61014c565b346103e5576103e16103d06103ca36600461037a565b91610e4b565b6103d8610142565b918291826102a2565b0390f35b610148565b9060208282031261040357610400915f0161022e565b90565b61014c565b346104385761043461042361041e3660046103ea565b610e7a565b61042b610142565b918291826102fa565b0390f35b610148565b7f6e71edae12b1b97f4d1f60370fef10105fa2faae0126114a169c64845d6126c990565b61046961043d565b90565b90565b6104789061046c565b9052565b919061048f905f6020850194019061046f565b565b346104c1576104a1366004610150565b6104bd6104ac610461565b6104b4610142565b9182918261047c565b0390f35b610148565b60ff1690565b6104d5906104c6565b9052565b91906104ec905f602085019401906104cc565b565b3461051e576104fe366004610150565b61051a610509610ebc565b610511610142565b918291826104d9565b0390f35b610148565b3461055357610533366004610150565b61054f61053e610ed6565b610546610142565b9182918261047c565b0390f35b610148565b5f0190565b3461058c57610576610570366004610263565b90610eea565b61057e610142565b8061058881610558565b0390f35b610148565b346105c1576105bd6105ac6105a73660046103ea565b610ef6565b6105b4610142565b918291826102fa565b0390f35b610148565b90565b6105dd6105d86105e292610203565b6105c6565b610203565b90565b6105ee906105c9565b90565b6105fa906105e5565b90565b90610607906105f1565b5f5260205260405f2090565b1c90565b90565b61062a90600861062f9302610613565b610617565b90565b9061063d915461061a565b90565b610656906106516007915f926105fd565b610632565b90565b346106895761068561067461066f3660046103ea565b610640565b61067c610142565b918291826102fa565b0390f35b610148565b60ff60f81b1690565b6106a09061068e565b9052565b6106ad9061020e565b9052565b5190565b60209181520190565b60200190565b6106cd9061023d565b9052565b906106de816020936106c4565b0190565b60200190565b906107056106ff6106f8846106b1565b80936106b5565b926106be565b905f5b8181106107155750505090565b90919261072e61072860019286516106d1565b946106e2565b9101919091610708565b9395919461078961077e61079d95610770610793956107aa9c9a61076360e08c01925f8d0190610697565b8a820360208c0152610181565b9088820360408a0152610181565b9760608701906102ed565b60808501906106a4565b60a083019061046f565b60c08184039101526106e8565b90565b346107e4576107bd366004610150565b6107e06107c8610fea565b936107d7979597939193610142565b97889788610738565b0390f35b610148565b34610819576107f9366004610150565b610815610804611074565b61080c610142565b918291826101b2565b0390f35b610148565b5f80fd5b5f80fd5b5f80fd5b909182601f830112156108645781359167ffffffffffffffff831161085f57602001926001830284011161085a57565b610826565b610822565b61081e565b916060838303126108b657610880825f850161022e565b9261088e8360208301610254565b92604082013567ffffffffffffffff81116108b1576108ad920161082a565b9091565b6101ff565b61014c565b346108ef576108eb6108da6108d1366004610869565b929190916110ee565b6108e2610142565b918291826102a2565b0390f35b610148565b346109255761092161091061090a366004610263565b906111ae565b610918610142565b918291826102a2565b0390f35b610148565b610933816104c6565b0361093a57565b5f80fd5b9050359061094b8261092a565b565b6109568161046c565b0361095d57565b5f80fd5b9050359061096e8261094d565b565b60e0818303126109db57610986825f830161022e565b92610994836020840161022e565b926109a28160408501610254565b926109b08260608301610254565b926109d86109c1846080850161093e565b936109cf8160a08601610961565b9360c001610961565b90565b61014c565b34610a15576109ff6109f3366004610970565b9594909493919361131b565b610a07610142565b80610a1181610558565b0390f35b610148565b9190604083820312610a425780610a36610a3f925f860161022e565b9360200161022e565b90565b61014c565b34610a7857610a74610a63610a5d366004610a1a565b9061146d565b610a6b610142565b918291826102fa565b0390f35b610148565b5f80fd5b606090565b634e487b7160e01b5f52602260045260245ffd5b9060016002830492168015610aba575b6020831014610ab557565b610a86565b91607f1691610aaa565b60209181520190565b5f5260205f2090565b905f9291805490610af0610ae983610a9a565b8094610ac4565b916001811690815f14610b475750600114610b0b575b505050565b610b189192939450610acd565b915f925b818410610b2f57505001905f8080610b06565b60018160209295939554848601520191019290610b1c565b92949550505060ff19168252151560200201905f8080610b06565b90610b6c91610ad6565b90565b634e487b7160e01b5f52604160045260245ffd5b90610b8d90610177565b810190811067ffffffffffffffff821117610ba757604052565b610b6f565b90610bcc610bc592610bbc610142565b93848092610b62565b0383610b83565b565b610bd790610bac565b90565b610be2610a81565b50610bed6003610bce565b90565b5f90565b90610c0791610c01610bf0565b50611495565b90565b5f90565b5f1c90565b610c1f610c2491610c0e565b610617565b90565b610c319054610c13565b90565b610c3c610c0a565b50610c476002610c27565b90565b5f7f5472616e73666572206661696c65640000000000000000000000000000000000910152565b610c7e600f602092610163565b610c8781610c4a565b0190565b610ca09060208101905f818303910152610c71565b90565b15610caa57565b610cb2610142565b62461bcd60e51b815280610cc860048201610c8b565b0390fd5b610cd5906105c9565b90565b610ce190610ccc565b90565b610ced906105e5565b90565b60e01b90565b610cff81610290565b03610d0657565b5f80fd5b90505190610d1782610cf6565b565b90602082820312610d3257610d2f915f01610d0a565b90565b61014c565b60209181520190565b610d4b5f8092610d37565b0190565b610d71610d7e93610d6760608401945f8501906106a4565b60208301906102ed565b6040818303910152610d40565b90565b610d89610142565b3d5f823e3d90fd5b610d99610bf0565b50610dad610da88284906111ae565b610ca3565b610db6816114b7565b610dc2575b5050600190565b610dd5610dd0602092610cd8565b610ce4565b9163d031426392610dfa5f339395610e05610dee610142565b97889687958694610cf0565b845260048401610d4f565b03925af18015610e4657610e1a575b80610dbb565b610e3a9060203d8111610e3f575b610e328183610b83565b810190610d19565b610e14565b503d610e28565b610d81565b91610e7592610e58610bf0565b50610e6d610e646114d7565b82908491611524565b9190916115ed565b600190565b610e91610e9691610e89610c0a565b5060076105fd565b610c27565b90565b5f90565b90565b610eb4610eaf610eb992610e9d565b6105c6565b6104c6565b90565b610ec4610e99565b50610ecf6012610ea0565b90565b5f90565b610ede610ed2565b50610ee761168a565b90565b90610ef491611744565b565b610f0c610f1191610f05610c0a565b505f6105fd565b610c27565b90565b5f90565b5f90565b606090565b610f2a906105e5565b90565b90565b5f1b90565b610f49610f44610f4e92610f2d565b610f30565b61046c565b90565b610f65610f60610f6a92610f2d565b6105c6565b61023d565b90565b90610f80610f79610142565b9283610b83565b565b67ffffffffffffffff8111610f9a5760208091020190565b610b6f565b90610fb1610fac83610f82565b610f6d565b918252565b369037565b90610fe0610fc883610f9f565b92602080610fd68693610f82565b9201910390610fb6565b565b600f60f81b90565b610ff2610f14565b50610ffb610a81565b50611004610a81565b5061100d610c0a565b50611016610f18565b5061101f610ed2565b50611028610f1c565b506110316117a5565b9061103a6117e5565b90469061104630610f21565b906110505f610f35565b9061106261105d5f610f51565b610fbb565b9061106b610fe2565b96959493929190565b61107c610a81565b506110876004610bce565b90565b90825f939282370152565b91906110af816110a8816110b495610d37565b809561108a565b610177565b0190565b6110de6110eb95939492946110d460608401965f8501906106a4565b60208301906102ed565b6040818503910152611095565b90565b91926110f8610bf0565b5061110c6111078484906111ae565b610ca3565b611115836114b7565b611123575b50505050600190565b61115b5f61113a611135602096610cd8565b610ce4565b9261116663d03142639133969861114f610142565b998a9889978896610cf0565b8652600486016110b8565b03925af180156111a95761117d575b80808061111a565b61119d9060203d81116111a2575b6111958183610b83565b810190610d19565b611175565b503d61118b565b610d81565b6111cb916111ba610bf0565b506111c36114d7565b9190916115ed565b600190565b634e487b7160e01b5f52601160045260245ffd5b6111ed9061023d565b5f1981146111fb5760010190565b6111d0565b9061120c5f1991610f30565b9181191691161790565b61122a61122561122f9261023d565b6105c6565b61023d565b90565b90565b9061124a61124561125192611216565b611232565b8254611200565b9055565b919461129d6112a79298979561129360a0966112896112ae9a61127f60c08a019e5f8b019061046f565b60208901906106a4565b60408701906106a4565b60608501906102ed565b60808301906102ed565b01906102ed565b565b60200190565b5190565b6112ef6112f6946112e56060949897956112db608086019a5f87019061046f565b60208501906104cc565b604083019061046f565b019061046f565b565b91602061131992949361131260408201965f8301906106a4565b01906106a4565b565b9695909492939193426113366113308361023d565b9161023d565b1161143857916113d3602094926113c0886113a88c61139a8b5f9a61135961043d565b936113688197939160076105fd565b61138461137482610c27565b9161137e836111e4565b90611235565b919261138e610142565b978f9689978801611255565b8a8201810382520382610b83565b6113ba6113b4826112b6565b916112b0565b20611825565b92936113ca610142565b948594856112ba565b838052039060015afa15611433576113eb5f51610f30565b806113fe6113f88761020e565b9161020e565b0361141357506114119293919091611842565b565b849061142f5f9283926325c0072360e11b8452600484016112f8565b0390fd5b610d81565b611453905f91829163313c898160e11b8352600483016102fa565b0390fd5b90611461906105f1565b5f5260205260405f2090565b6114929161148861148d92611480610c0a565b506001611457565b6105fd565b610c27565b90565b6114b2916114a1610bf0565b506114aa6114d7565b919091611842565b600190565b6114bf610bf0565b503b6114d36114cd5f610f51565b9161023d565b1190565b6114df610f18565b503390565b60409061150d611514949695939661150360608401985f8501906106a4565b60208301906102ed565b01906102ed565b565b90611521910361023d565b90565b92919261153281839061146d565b90816115476115415f1961023d565b9161023d565b10611554575b5050509050565b816115676115618761023d565b9161023d565b1061158d57611584939461157c919392611516565b905f92611852565b805f808061154d565b506115ac849291925f938493637dc7a0d960e11b8552600485016114e4565b0390fd5b6115c46115bf6115c992610f2d565b6105c6565b610203565b90565b6115d5906115b0565b90565b91906115eb905f602085019401906106a4565b565b91826116096116036115fe5f6115cc565b61020e565b9161020e565b14611663578161162961162361161e5f6115cc565b61020e565b9161020e565b1461163c5761163a92919091611994565b565b61165f6116485f6115cc565b5f91829163ec442f0560e01b8352600483016115d8565b0390fd5b61168661166f5f6115cc565b5f918291634b637e8f60e11b8352600483016115d8565b0390fd5b611692610ed2565b5061169c30610f21565b6116ce6116c87f000000000000000000000000000000000000000000000000000000000000000061020e565b9161020e565b148061170a575b5f146116ff577f000000000000000000000000000000000000000000000000000000000000000090565b611707611b74565b90565b504661173e6117387f000000000000000000000000000000000000000000000000000000000000000061023d565b9161023d565b146116d5565b8061175f6117596117545f6115cc565b61020e565b9161020e565b1461177b57611779916117715f6115cc565b919091611994565b565b61179e6117875f6115cc565b5f91829163ec442f0560e01b8352600483016115d8565b0390fd5b90565b6117ad610a81565b506117e27f00000000000000000000000000000000000000000000000000000000000000006117dc60056117a2565b90611d1a565b90565b6117ed610a81565b506118227f000000000000000000000000000000000000000000000000000000000000000061181c60066117a2565b90611d1a565b90565b61183f90611831610ed2565b5061183a61168a565b611d68565b90565b916118509291600192611852565b565b90928161186f6118696118645f6115cc565b61020e565b9161020e565b1461193a578361188f6118896118845f6115cc565b61020e565b9161020e565b14611913576118b3836118ae6118a760018690611457565b87906105fd565b611235565b6118bd575b505050565b9190916119086118f66118f07f8c5be1e5ebec7d5bd14f71427d1e84f3dd0314c0f7b2291e5b200ac8c7c3b925936105f1565b936105f1565b936118ff610142565b918291826102fa565b0390a35f80806118b8565b61193661191f5f6115cc565b5f918291634a1406b160e11b8352600483016115d8565b0390fd5b61195d6119465f6115cc565b5f91829163e602df0560e01b8352600483016115d8565b0390fd5b6119706119769193929361023d565b9261023d565b820180921161198157565b6111d0565b90611991910161023d565b90565b919091806119b26119ac6119a75f6115cc565b61020e565b9161020e565b145f14611a93576119d66119cf836119ca6002610c27565b611961565b6002611235565b5b826119f26119ec6119e75f6115cc565b61020e565b9161020e565b145f14611a6757611a16611a0f83611a0a6002610c27565b611516565b6002611235565b5b919091611a62611a50611a4a7fddf252ad1be2c89b69c2b068fc378daa952ba7f163c4a11628f55a4df523b3ef936105f1565b936105f1565b93611a59610142565b918291826102fa565b0390a3565b611a8e82611a88611a795f87906105fd565b91611a8383610c27565b611986565b90611235565b611a17565b611aa6611aa15f83906105fd565b610c27565b80611ab9611ab38561023d565b9161023d565b10611ae157611acc611adc918490611516565b611ad75f84906105fd565b611235565b6119d7565b90611aff9091925f93849363391434e360e21b8552600485016114e4565b0390fd5b7f8b73c3c69bb8fe3d512ecc4cf759cc79239f7b179b0ffacaa9a75d522b39400f90565b90959492611b7294611b61611b6b92611b57608096611b4d60a088019c5f89019061046f565b602087019061046f565b604085019061046f565b60608301906102ed565b01906106a4565b565b611b7c610ed2565b50611b85611b03565b611bfc7f000000000000000000000000000000000000000000000000000000000000000091611bed7f000000000000000000000000000000000000000000000000000000000000000046611bd830610f21565b91611be1610142565b96879560208701611b27565b60208201810382520382610b83565b611c0e611c08826112b6565b916112b0565b2090565b611c1b9061046c565b90565b90565b611c35611c30611c3a92611c1e565b610f30565b61046c565b90565b611c4760ff611c21565b90565b5f5260205f2090565b905f9291805490611c6d611c6683610a9a565b8094610ac4565b916001811690815f14611cc45750600114611c88575b505050565b611c959192939450611c4a565b915f925b818410611cac57505001905f8080611c83565b60018160209295939554848601520191019290611c99565b92949550505060ff19168252151560200201905f8080611c83565b90611ce991611c53565b90565b90611d0c611d0592611cfc610142565b93848092611cdf565b0383610b83565b565b611d1790611cec565b90565b90611d23610a81565b50611d2d82611c12565b611d46611d40611d3b611c3d565b61046c565b9161046c565b14155f14611d5b5750611d5890611e2e565b90565b611d659150611d0e565b90565b604291611d73610ed2565b50604051917f19010000000000000000000000000000000000000000000000000000000000008352600283015260228201522090565b90565b611dc0611dbb611dc592611da9565b6105c6565b61023d565b90565b67ffffffffffffffff8111611de657611de2602091610177565b0190565b610b6f565b90611dfd611df883611dc8565b610f6d565b918252565b369037565b90611e2c611e1483611deb565b92602080611e228693611dc8565b9201910390611e02565b565b611e36610a81565b50611e4081611ead565b90611e53611e4e6020611dac565b611e07565b918252602082015290565b611e6a611e6f91610c0e565b611216565b90565b611e86611e81611e8b92611c1e565b6105c6565b61023d565b90565b90565b611ea5611ea0611eaa92611e8e565b6105c6565b61023d565b90565b611ec2611ec791611ebc610c0a565b50611c12565b611e5e565b611ed160ff611e72565b1680611ee6611ee0601f611e91565b9161023d565b11611eee5790565b5f632cd44ac360e21b815280611f0660048201610558565b0390fdfea2646970667358221220fd8baa8f601a5d80db8030b52437101eeded7f36c825fcb17736334e5f77d5e464736f6c634300081e0033","linkReferences":{}},"methodIdentifiers":{"DOMAIN_SEPARATOR()":"3644e515","PERMIT_TYPEHASH()":"30adf81f","allowance(address,address)":"dd62ed3e","approve(address,uint256)":"095ea7b3","balanceOf(address)":"70a08231","decimals()":"313ce567","eip712Domain()":"84b0196e","getNonce(address)":"2d0335ab","mint(address,uint256)":"40c10f19","name()":"06fdde03","nonces(address)":"7ecebe00","permit(address,address,uint256,uint256,uint8,bytes32,bytes32)":"d505accf","symbol()":"95d89b41","totalSupply()":"18160ddd","transfer(address,uint256)":"a9059cbb","transferFrom(address,address,uint256)":"23b872dd","transferWithCallback(address,uint256)":"1a825b75","transferWithCallbackAndData(address,uint256,bytes)":"a580a1c6"},"id":63}