{"abi":[{"type":"constructor","inputs":[{"name":"name","type":"string","internalType":"string"},{"name":"symbol","type":"string","internalType":"string"}],"stateMutability":"nonpayable"},{"type":"function","name":"allowance","inputs":[{"name":"owner","type":"address","internalType":"address"},{"name":"spender","type":"address","internalType":"address"}],"outputs":[{"name":"","type":"uint256","internalType":"uint256"}],"stateMutability":"view"},{"type":"function","name":"approve","inputs":[{"name":"spender","type":"address","internalType":"address"},{"name":"value","type":"uint256","internalType":"uint256"}],"outputs":[{"name":"","type":"bool","internalType":"bool"}],"stateMutability":"nonpayable"},{"type":"function","name":"balanceOf","inputs":[{"name":"account","type":"address","internalType":"address"}],"outputs":[{"name":"","type":"uint256","internalType":"uint256"}],"stateMutability":"view"},{"type":"function","name":"decimals","inputs":[],"outputs":[{"name":"","type":"uint8","internalType":"uint8"}],"stateMutability":"view"},{"type":"function","name":"mint","inputs":[{"name":"to","type":"address","internalType":"address"},{"name":"amount","type":"uint256","internalType":"uint256"}],"outputs":[],"stateMutability":"nonpayable"},{"type":"function","name":"name","inputs":[],"outputs":[{"name":"","type":"string","internalType":"string"}],"stateMutability":"view"},{"type":"function","name":"symbol","inputs":[],"outputs":[{"name":"","type":"string","internalType":"string"}],"stateMutability":"view"},{"type":"function","name":"totalSupply","inputs":[],"outputs":[{"name":"","type":"uint256","internalType":"uint256"}],"stateMutability":"view"},{"type":"function","name":"transfer","inputs":[{"name":"to","type":"address","internalType":"address"},{"name":"value","type":"uint256","internalType":"uint256"}],"outputs":[{"name":"","type":"bool","internalType":"bool"}],"stateMutability":"nonpayable"},{"type":"function","name":"transferFrom","inputs":[{"name":"from","type":"address","internalType":"address"},{"name":"to","type":"address","internalType":"address"},{"name":"value","type":"uint256","internalType":"uint256"}],"outputs":[{"name":"","type":"bool","internalType":"bool"}],"stateMutability":"nonpayable"},{"type":"function","name":"transferWithCallback","inputs":[{"name":"to","type":"address","internalType":"address"},{"name":"amount","type":"uint256","internalType":"uint256"}],"outputs":[{"name":"","type":"bool","internalType":"bool"}],"stateMutability":"nonpayable"},{"type":"function","name":"transferWithCallbackAndData","inputs":[{"name":"to","type":"address","internalType":"address"},{"name":"amount","type":"uint256","internalType":"uint256"},{"name":"data","type":"bytes","internalType":"bytes"}],"outputs":[{"name":"","type":"bool","internalType":"bool"}],"stateMutability":"nonpayable"},{"type":"event","name":"Approval","inputs":[{"name":"owner","type":"address","indexed":true,"internalType":"address"},{"name":"spender","type":"address","indexed":true,"internalType":"address"},{"name":"value","type":"uint256","indexed":false,"internalType":"uint256"}],"anonymous":false},{"type":"event","name":"Transfer","inputs":[{"name":"from","type":"address","indexed":true,"internalType":"address"},{"name":"to","type":"address","indexed":true,"internalType":"address"},{"name":"value","type":"uint256","indexed":false,"internalType":"uint256"}],"anonymous":false},{"type":"error","name":"ERC20InsufficientAllowance","inputs":[{"name":"spender","type":"address","internalType":"address"},{"name":"allowance","type":"uint256","internalType":"uint256"},{"name":"needed","type":"uint256","internalType":"uint256"}]},{"type":"error","name":"ERC20InsufficientBalance","inputs":[{"name":"sender","type":"address","internalType":"address"},{"name":"balance","type":"uint256","internalType":"uint256"},{"name":"needed","type":"uint256","internalType":"uint256"}]},{"type":"error","name":"ERC20InvalidApprover","inputs":[{"name":"approver","type":"address","internalType":"address"}]},{"type":"error","name":"ERC20InvalidReceiver","inputs":[{"name":"receiver","type":"address","internalType":"address"}]},{"type":"error","name":"ERC20InvalidSender","inputs":[{"name":"sender","type":"address","internalType":"address"}]},{"type":"error","name":"ERC20InvalidSpender","inputs":[{"name":"spender","type":"address","internalType":"address"}]}],"bytecode":{"object":"0x608060405234801561000f575f5ffd5b50604051611875380380611875833981810160405281019061003191906101a9565b81818160039081610042919061042f565b508060049081610052919061042f565b50505050506104fe565b5f604051905090565b5f5ffd5b5f5ffd5b5f5ffd5b5f5ffd5b5f601f19601f8301169050919050565b7f4e487b71000000000000000000000000000000000000000000000000000000005f52604160045260245ffd5b6100bb82610075565b810181811067ffffffffffffffff821117156100da576100d9610085565b5b80604052505050565b5f6100ec61005c565b90506100f882826100b2565b919050565b5f67ffffffffffffffff82111561011757610116610085565b5b61012082610075565b9050602081019050919050565b8281835e5f83830152505050565b5f61014d610148846100fd565b6100e3565b90508281526020810184848401111561016957610168610071565b5b61017484828561012d565b509392505050565b5f82601f8301126101905761018f61006d565b5b81516101a084826020860161013b565b91505092915050565b5f5f604083850312156101bf576101be610065565b5b5f83015167ffffffffffffffff8111156101dc576101db610069565b5b6101e88582860161017c565b925050602083015167ffffffffffffffff81111561020957610208610069565b5b6102158582860161017c565b9150509250929050565b5f81519050919050565b7f4e487b71000000000000000000000000000000000000000000000000000000005f52602260045260245ffd5b5f600282049050600182168061026d57607f821691505b6020821081036102805761027f610229565b5b50919050565b5f819050815f5260205f209050919050565b5f6020601f8301049050919050565b5f82821b905092915050565b5f600883026102e27fffffffffffffffffffffffffffffffffffffffffffffffffffffffffffffffff826102a7565b6102ec86836102a7565b95508019841693508086168417925050509392505050565b5f819050919050565b5f819050919050565b5f61033061032b61032684610304565b61030d565b610304565b9050919050565b5f819050919050565b61034983610316565b61035d61035582610337565b8484546102b3565b825550505050565b5f5f905090565b610374610365565b61037f818484610340565b505050565b5b818110156103a2576103975f8261036c565b600181019050610385565b5050565b601f8211156103e7576103b881610286565b6103c184610298565b810160208510156103d0578190505b6103e46103dc85610298565b830182610384565b50505b505050565b5f82821c905092915050565b5f6104075f19846008026103ec565b1980831691505092915050565b5f61041f83836103f8565b9150826002028217905092915050565b6104388261021f565b67ffffffffffffffff81111561045157610450610085565b5b61045b8254610256565b6104668282856103a6565b5f60209050601f831160018114610497575f8415610485578287015190505b61048f8582610414565b8655506104f6565b601f1984166104a586610286565b5f5b828110156104cc578489015182556001820191506020850194506020810190506104a7565b868310156104e957848901516104e5601f8916826103f8565b8355505b6001600288020188555050505b505050505050565b61136a8061050b5f395ff3fe608060405234801561000f575f5ffd5b50600436106100b2575f3560e01c806340c10f191161006f57806340c10f19146101a057806370a08231146101bc57806395d89b41146101ec578063a580a1c61461020a578063a9059cbb1461023a578063dd62ed3e1461026a576100b2565b806306fdde03146100b6578063095ea7b3146100d457806318160ddd146101045780631a825b751461012257806323b872dd14610152578063313ce56714610182575b5f5ffd5b6100be61029a565b6040516100cb9190610d6b565b60405180910390f35b6100ee60048036038101906100e99190610e20565b61032a565b6040516100fb9190610e78565b60405180910390f35b61010c61034c565b6040516101199190610ea0565b60405180910390f35b61013c60048036038101906101379190610e20565b610355565b6040516101499190610e78565b60405180910390f35b61016c60048036038101906101679190610eb9565b610434565b6040516101799190610e78565b60405180910390f35b61018a610462565b6040516101979190610f24565b60405180910390f35b6101ba60048036038101906101b59190610e20565b61046a565b005b6101d660048036038101906101d19190610f3d565b610478565b6040516101e39190610ea0565b60405180910390f35b6101f46104bd565b6040516102019190610d6b565b60405180910390f35b610224600480360381019061021f9190610fc9565b61054d565b6040516102319190610e78565b60405180910390f35b610254600480360381019061024f9190610e20565b610632565b6040516102619190610e78565b60405180910390f35b610284600480360381019061027f919061103a565b610654565b6040516102919190610ea0565b60405180910390f35b6060600380546102a9906110a5565b80601f01602080910402602001604051908101604052809291908181526020018280546102d5906110a5565b80156103205780601f106102f757610100808354040283529160200191610320565b820191905f5260205f20905b81548152906001019060200180831161030357829003601f168201915b5050505050905090565b5f5f6103346106d6565b90506103418185856106dd565b600191505092915050565b5f600254905090565b5f6103608383610632565b61039f576040517f08c379a00000000000000000000000000000000000000000000000000000000081526004016103969061111f565b60405180910390fd5b6103a8836106ef565b1561042a578273ffffffffffffffffffffffffffffffffffffffff1663d031426333846040518363ffffffff1660e01b81526004016103e892919061117f565b6020604051808303815f875af1158015610404573d5f5f3e3d5ffd5b505050506040513d601f19601f8201168201806040525081019061042891906111e3565b505b6001905092915050565b5f5f61043e6106d6565b905061044b858285610711565b6104568585856107a4565b60019150509392505050565b5f6012905090565b6104748282610894565b5050565b5f5f5f8373ffffffffffffffffffffffffffffffffffffffff1673ffffffffffffffffffffffffffffffffffffffff1681526020019081526020015f20549050919050565b6060600480546104cc906110a5565b80601f01602080910402602001604051908101604052809291908181526020018280546104f8906110a5565b80156105435780601f1061051a57610100808354040283529160200191610543565b820191905f5260205f20905b81548152906001019060200180831161052657829003601f168201915b5050505050905090565b5f6105588585610632565b610597576040517f08c379a000000000000000000000000000000000000000000000000000000000815260040161058e9061111f565b60405180910390fd5b6105a0856106ef565b15610626578473ffffffffffffffffffffffffffffffffffffffff1663d0314263338686866040518563ffffffff1660e01b81526004016105e49493929190611248565b6020604051808303815f875af1158015610600573d5f5f3e3d5ffd5b505050506040513d601f19601f8201168201806040525081019061062491906111e3565b505b60019050949350505050565b5f5f61063c6106d6565b90506106498185856107a4565b600191505092915050565b5f60015f8473ffffffffffffffffffffffffffffffffffffffff1673ffffffffffffffffffffffffffffffffffffffff1681526020019081526020015f205f8373ffffffffffffffffffffffffffffffffffffffff1673ffffffffffffffffffffffffffffffffffffffff1681526020019081526020015f2054905092915050565b5f33905090565b6106ea8383836001610913565b505050565b5f5f8273ffffffffffffffffffffffffffffffffffffffff163b119050919050565b5f61071c8484610654565b90507fffffffffffffffffffffffffffffffffffffffffffffffffffffffffffffffff81101561079e578181101561078f578281836040517ffb8f41b200000000000000000000000000000000000000000000000000000000815260040161078693929190611286565b60405180910390fd5b61079d84848484035f610913565b5b50505050565b5f73ffffffffffffffffffffffffffffffffffffffff168373ffffffffffffffffffffffffffffffffffffffff1603610814575f6040517f96c6fd1e00000000000000000000000000000000000000000000000000000000815260040161080b91906112bb565b60405180910390fd5b5f73ffffffffffffffffffffffffffffffffffffffff168273ffffffffffffffffffffffffffffffffffffffff1603610884575f6040517fec442f0500000000000000000000000000000000000000000000000000000000815260040161087b91906112bb565b60405180910390fd5b61088f838383610ae2565b505050565b5f73ffffffffffffffffffffffffffffffffffffffff168273ffffffffffffffffffffffffffffffffffffffff1603610904575f6040517fec442f050000000000000000000000000000000000000000000000000000000081526004016108fb91906112bb565b60405180910390fd5b61090f5f8383610ae2565b5050565b5f73ffffffffffffffffffffffffffffffffffffffff168473ffffffffffffffffffffffffffffffffffffffff1603610983575f6040517fe602df0500000000000000000000000000000000000000000000000000000000815260040161097a91906112bb565b60405180910390fd5b5f73ffffffffffffffffffffffffffffffffffffffff168373ffffffffffffffffffffffffffffffffffffffff16036109f3575f6040517f94280d620000000000000000000000000000000000000000000000000000000081526004016109ea91906112bb565b60405180910390fd5b8160015f8673ffffffffffffffffffffffffffffffffffffffff1673ffffffffffffffffffffffffffffffffffffffff1681526020019081526020015f205f8573ffffffffffffffffffffffffffffffffffffffff1673ffffffffffffffffffffffffffffffffffffffff1681526020019081526020015f20819055508015610adc578273ffffffffffffffffffffffffffffffffffffffff168473ffffffffffffffffffffffffffffffffffffffff167f8c5be1e5ebec7d5bd14f71427d1e84f3dd0314c0f7b2291e5b200ac8c7c3b92584604051610ad39190610ea0565b60405180910390a35b50505050565b5f73ffffffffffffffffffffffffffffffffffffffff168373ffffffffffffffffffffffffffffffffffffffff1603610b32578060025f828254610b269190611301565b92505081905550610c00565b5f5f5f8573ffffffffffffffffffffffffffffffffffffffff1673ffffffffffffffffffffffffffffffffffffffff1681526020019081526020015f2054905081811015610bbb578381836040517fe450d38c000000000000000000000000000000000000000000000000000000008152600401610bb293929190611286565b60405180910390fd5b8181035f5f8673ffffffffffffffffffffffffffffffffffffffff1673ffffffffffffffffffffffffffffffffffffffff1681526020019081526020015f2081905550505b5f73ffffffffffffffffffffffffffffffffffffffff168273ffffffffffffffffffffffffffffffffffffffff1603610c47578060025f8282540392505081905550610c91565b805f5f8473ffffffffffffffffffffffffffffffffffffffff1673ffffffffffffffffffffffffffffffffffffffff1681526020019081526020015f205f82825401925050819055505b8173ffffffffffffffffffffffffffffffffffffffff168373ffffffffffffffffffffffffffffffffffffffff167fddf252ad1be2c89b69c2b068fc378daa952ba7f163c4a11628f55a4df523b3ef83604051610cee9190610ea0565b60405180910390a3505050565b5f81519050919050565b5f82825260208201905092915050565b8281835e5f83830152505050565b5f601f19601f8301169050919050565b5f610d3d82610cfb565b610d478185610d05565b9350610d57818560208601610d15565b610d6081610d23565b840191505092915050565b5f6020820190508181035f830152610d838184610d33565b905092915050565b5f5ffd5b5f5ffd5b5f73ffffffffffffffffffffffffffffffffffffffff82169050919050565b5f610dbc82610d93565b9050919050565b610dcc81610db2565b8114610dd6575f5ffd5b50565b5f81359050610de781610dc3565b92915050565b5f819050919050565b610dff81610ded565b8114610e09575f5ffd5b50565b5f81359050610e1a81610df6565b92915050565b5f5f60408385031215610e3657610e35610d8b565b5b5f610e4385828601610dd9565b9250506020610e5485828601610e0c565b9150509250929050565b5f8115159050919050565b610e7281610e5e565b82525050565b5f602082019050610e8b5f830184610e69565b92915050565b610e9a81610ded565b82525050565b5f602082019050610eb35f830184610e91565b92915050565b5f5f5f60608486031215610ed057610ecf610d8b565b5b5f610edd86828701610dd9565b9350506020610eee86828701610dd9565b9250506040610eff86828701610e0c565b9150509250925092565b5f60ff82169050919050565b610f1e81610f09565b82525050565b5f602082019050610f375f830184610f15565b92915050565b5f60208284031215610f5257610f51610d8b565b5b5f610f5f84828501610dd9565b91505092915050565b5f5ffd5b5f5ffd5b5f5ffd5b5f5f83601f840112610f8957610f88610f68565b5b8235905067ffffffffffffffff811115610fa657610fa5610f6c565b5b602083019150836001820283011115610fc257610fc1610f70565b5b9250929050565b5f5f5f5f60608587031215610fe157610fe0610d8b565b5b5f610fee87828801610dd9565b9450506020610fff87828801610e0c565b935050604085013567ffffffffffffffff8111156110205761101f610d8f565b5b61102c87828801610f74565b925092505092959194509250565b5f5f604083850312156110505761104f610d8b565b5b5f61105d85828601610dd9565b925050602061106e85828601610dd9565b9150509250929050565b7f4e487b71000000000000000000000000000000000000000000000000000000005f52602260045260245ffd5b5f60028204905060018216806110bc57607f821691505b6020821081036110cf576110ce611078565b5b50919050565b7f5472616e73666572206661696c656400000000000000000000000000000000005f82015250565b5f611109600f83610d05565b9150611114826110d5565b602082019050919050565b5f6020820190508181035f830152611136816110fd565b9050919050565b61114681610db2565b82525050565b5f82825260208201905092915050565b50565b5f61116a5f8361114c565b91506111758261115c565b5f82019050919050565b5f6060820190506111925f83018561113d565b61119f6020830184610e91565b81810360408301526111b08161115f565b90509392505050565b6111c281610e5e565b81146111cc575f5ffd5b50565b5f815190506111dd816111b9565b92915050565b5f602082840312156111f8576111f7610d8b565b5b5f611205848285016111cf565b91505092915050565b828183375f83830152505050565b5f611227838561114c565b935061123483858461120e565b61123d83610d23565b840190509392505050565b5f60608201905061125b5f83018761113d565b6112686020830186610e91565b818103604083015261127b81848661121c565b905095945050505050565b5f6060820190506112995f83018661113d565b6112a66020830185610e91565b6112b36040830184610e91565b949350505050565b5f6020820190506112ce5f83018461113d565b92915050565b7f4e487b71000000000000000000000000000000000000000000000000000000005f52601160045260245ffd5b5f61130b82610ded565b915061131683610ded565b925082820190508082111561132e5761132d6112d4565b5b9291505056fea2646970667358221220bcab38db46bf9bcff7c7a5b78e1d914a8455b9595cfc79dd226b1cb454cd569464736f6c634300081e0033","linkReferences":{}},"methodIdentifiers":{"allowance(address,address)":"dd62ed3e","approve(address,uint256)":"095ea7b3","balanceOf(address)":"70a08231","decimals()":"313ce567","mint(address,uint256)":"40c10f19","name()":"06fdde03","symbol()":"95d89b41","totalSupply()":"18160ddd","transfer(address,uint256)":"a9059cbb","transferFrom(address,address,uint256)":"23b872dd","transferWithCallback(address,uint256)":"1a825b75","transferWithCallbackAndData(address,uint256,bytes)":"a580a1c6"},"id":83}