{"abi":[{"type":"constructor","inputs":[{"name":"name","type":"string","internalType":"string"},{"name":"symbol","type":"string","internalType":"string"}],"stateMutability":"nonpayable"},{"type":"function","name":"allowance","inputs":[{"name":"owner","type":"address","internalType":"address"},{"name":"spender","type":"address","internalType":"address"}],"outputs":[{"name":"","type":"uint256","internalType":"uint256"}],"stateMutability":"view"},{"type":"function","name":"approve","inputs":[{"name":"spender","type":"address","internalType":"address"},{"name":"value","type":"uint256","internalType":"uint256"}],"outputs":[{"name":"","type":"bool","internalType":"bool"}],"stateMutability":"nonpayable"},{"type":"function","name":"balanceOf","inputs":[{"name":"account","type":"address","internalType":"address"}],"outputs":[{"name":"","type":"uint256","internalType":"uint256"}],"stateMutability":"view"},{"type":"function","name":"decimals","inputs":[],"outputs":[{"name":"","type":"uint8","internalType":"uint8"}],"stateMutability":"view"},{"type":"function","name":"mint","inputs":[{"name":"to","type":"address","internalType":"address"},{"name":"amount","type":"uint256","internalType":"uint256"}],"outputs":[],"stateMutability":"nonpayable"},{"type":"function","name":"name","inputs":[],"outputs":[{"name":"","type":"string","internalType":"string"}],"stateMutability":"view"},{"type":"function","name":"symbol","inputs":[],"outputs":[{"name":"","type":"string","internalType":"string"}],"stateMutability":"view"},{"type":"function","name":"totalSupply","inputs":[],"outputs":[{"name":"","type":"uint256","internalType":"uint256"}],"stateMutability":"view"},{"type":"function","name":"transfer","inputs":[{"name":"to","type":"address","internalType":"address"},{"name":"value","type":"uint256","internalType":"uint256"}],"outputs":[{"name":"","type":"bool","internalType":"bool"}],"stateMutability":"nonpayable"},{"type":"function","name":"transferFrom","inputs":[{"name":"from","type":"address","internalType":"address"},{"name":"to","type":"address","internalType":"address"},{"name":"value","type":"uint256","internalType":"uint256"}],"outputs":[{"name":"","type":"bool","internalType":"bool"}],"stateMutability":"nonpayable"},{"type":"function","name":"transferWithCallback","inputs":[{"name":"to","type":"address","internalType":"address"},{"name":"amount","type":"uint256","internalType":"uint256"}],"outputs":[{"name":"","type":"bool","internalType":"bool"}],"stateMutability":"nonpayable"},{"type":"function","name":"transferWithCallbackAndData","inputs":[{"name":"to","type":"address","internalType":"address"},{"name":"amount","type":"uint256","internalType":"uint256"},{"name":"data","type":"bytes","internalType":"bytes"}],"outputs":[{"name":"","type":"bool","internalType":"bool"}],"stateMutability":"nonpayable"},{"type":"event","name":"Approval","inputs":[{"name":"owner","type":"address","indexed":true,"internalType":"address"},{"name":"spender","type":"address","indexed":true,"internalType":"address"},{"name":"value","type":"uint256","indexed":false,"internalType":"uint256"}],"anonymous":false},{"type":"event","name":"Transfer","inputs":[{"name":"from","type":"address","indexed":true,"internalType":"address"},{"name":"to","type":"address","indexed":true,"internalType":"address"},{"name":"value","type":"uint256","indexed":false,"internalType":"uint256"}],"anonymous":false},{"type":"error","name":"ERC20InsufficientAllowance","inputs":[{"name":"spender","type":"address","internalType":"address"},{"name":"allowance","type":"uint256","internalType":"uint256"},{"name":"needed","type":"uint256","internalType":"uint256"}]},{"type":"error","name":"ERC20InsufficientBalance","inputs":[{"name":"sender","type":"address","internalType":"address"},{"name":"balance","type":"uint256","internalType":"uint256"},{"name":"needed","type":"uint256","internalType":"uint256"}]},{"type":"error","name":"ERC20InvalidApprover","inputs":[{"name":"approver","type":"address","internalType":"address"}]},{"type":"error","name":"ERC20InvalidReceiver","inputs":[{"name":"receiver","type":"address","internalType":"address"}]},{"type":"error","name":"ERC20InvalidSender","inputs":[{"name":"sender","type":"address","internalType":"address"}]},{"type":"error","name":"ERC20InvalidSpender","inputs":[{"name":"spender","type":"address","internalType":"address"}]}],"bytecode":{"object":"0x6080604052346100305761001a610014610187565b906101a9565b610022610035565b611233610425823961123390f35b61003b565b60405190565b5f80fd5b601f801991011690565b634e487b7160e01b5f52604160045260245ffd5b906100679061003f565b810190811060018060401b0382111761007f57604052565b610049565b90610097610090610035565b928361005d565b565b5f80fd5b5f80fd5b5f80fd5b5f80fd5b60018060401b0381116100c5576100c160209161003f565b0190565b610049565b90825f9392825e0152565b909291926100ea6100e5826100a9565b610084565b9381855260208501908284011161010657610104926100ca565b565b6100a5565b9080601f8301121561012957816020610126935191016100d5565b90565b6100a1565b919091604081840312610182575f81015160018060401b03811161017d578361015891830161010b565b92602082015160018060401b03811161017857610175920161010b565b90565b61009d565b61009d565b610099565b6101a56116588038038061019a81610084565b92833981019061012e565b9091565b906101b39161040c565b565b5190565b634e487b7160e01b5f52602260045260245ffd5b90600160028304921680156101ed575b60208310146101e857565b6101b9565b91607f16916101dd565b5f5260205f2090565b601f602091010490565b1b90565b919060086102299102916102235f198461020a565b9261020a565b9181191691161790565b90565b90565b61024d61024861025292610233565b610236565b610233565b90565b90565b919061026e61026961027693610239565b610255565b90835461020e565b9055565b5f90565b6102909161028a61027a565b91610258565b565b5b81811061029e575050565b806102ab5f60019361027e565b01610293565b9190601f81116102c1575b505050565b6102cd6102f2936101f7565b9060206102d984610200565b830193106102fa575b6102eb90610200565b0190610292565b5f80806102bc565b91506102eb819290506102e2565b1c90565b9061031c905f1990600802610308565b191690565b8161032b9161030c565b906002021790565b9061033d816101b5565b9060018060401b0382116103fb5761035f8261035985546101cd565b856102b1565b602090601f831160011461039357918091610382935f92610387575b5050610321565b90555b565b90915001515f8061037b565b601f198316916103a2856101f7565b925f5b8181106103e3575091600293918560019694106103c9575b50505002019055610385565b6103d9910151601f84169061030c565b90555f80806103bd565b919360206001819287870151815501950192016103a5565b610049565b9061040a91610333565b565b9061041b610422926003610400565b6004610400565b56fe60806040526004361015610013575b610617565b61001d5f356100dc565b806306fdde03146100d7578063095ea7b3146100d257806318160ddd146100cd5780631a825b75146100c857806323b872dd146100c3578063313ce567146100be57806340c10f19146100b957806370a08231146100b457806395d89b41146100af578063a580a1c6146100aa578063a9059cbb146100a55763dd62ed3e0361000e576105e1565b61057e565b610545565b610473565b61043e565b6103ec565b6103b2565b610354565b6102e4565b6102af565b610257565b61016a565b60e01c90565b60405190565b5f80fd5b5f80fd5b5f9103126100fa57565b6100ec565b5190565b60209181520190565b90825f9392825e0152565b601f801991011690565b61014061014960209361014e93610137816100ff565b93848093610103565b9586910161010c565b610117565b0190565b6101679160208201915f818403910152610121565b90565b3461019a5761017a3660046100f0565b610196610185610774565b61018d6100e2565b91829182610152565b0390f35b6100e8565b5f80fd5b60018060a01b031690565b6101b7906101a3565b90565b6101c3816101ae565b036101ca57565b5f80fd5b905035906101db826101ba565b565b90565b6101e9816101dd565b036101f057565b5f80fd5b90503590610201826101e0565b565b919060408382031261022b578061021f610228925f86016101ce565b936020016101f4565b90565b6100ec565b151590565b61023e90610230565b9052565b9190610255905f60208501940190610235565b565b346102885761028461027361026d366004610203565b9061078e565b61027b6100e2565b91829182610242565b0390f35b6100e8565b610296906101dd565b9052565b91906102ad905f6020850194019061028d565b565b346102df576102bf3660046100f0565b6102db6102ca6107dd565b6102d26100e2565b9182918261029a565b0390f35b6100e8565b34610315576103116103006102fa366004610203565b90610972565b6103086100e2565b91829182610242565b0390f35b6100e8565b909160608284031261034f5761034c610335845f85016101ce565b9361034381602086016101ce565b936040016101f4565b90565b6100ec565b346103855761038161037061036a36600461031a565b91610a2c565b6103786100e2565b91829182610242565b0390f35b6100e8565b60ff1690565b6103999061038a565b9052565b91906103b0905f60208501940190610390565b565b346103e2576103c23660046100f0565b6103de6103cd610a7e565b6103d56100e2565b9182918261039d565b0390f35b6100e8565b5f0190565b3461041b576104056103ff366004610203565b90610a94565b61040d6100e2565b80610417816103e7565b0390f35b6100e8565b9060208282031261043957610436915f016101ce565b90565b6100ec565b3461046e5761046a610459610454366004610420565b610ac2565b6104616100e2565b9182918261029a565b0390f35b6100e8565b346104a3576104833660046100f0565b61049f61048e610ae0565b6104966100e2565b91829182610152565b0390f35b6100e8565b5f80fd5b5f80fd5b5f80fd5b909182601f830112156104ee5781359167ffffffffffffffff83116104e95760200192600183028401116104e457565b6104b0565b6104ac565b6104a8565b916060838303126105405761050a825f85016101ce565b9261051883602083016101f4565b92604082013567ffffffffffffffff811161053b5761053792016104b4565b9091565b61019f565b6100ec565b346105795761057561056461055b3660046104f3565b92919091610b5a565b61056c6100e2565b91829182610242565b0390f35b6100e8565b346105af576105ab61059a610594366004610203565b90610c1a565b6105a26100e2565b91829182610242565b0390f35b6100e8565b91906040838203126105dc57806105d06105d9925f86016101ce565b936020016101ce565b90565b6100ec565b346106125761060e6105fd6105f73660046105b4565b90610c52565b6106056100e2565b9182918261029a565b0390f35b6100e8565b5f80fd5b606090565b634e487b7160e01b5f52602260045260245ffd5b9060016002830492168015610654575b602083101461064f57565b610620565b91607f1691610644565b60209181520190565b5f5260205f2090565b905f929180549061068a61068383610634565b809461065e565b916001811690815f146106e157506001146106a5575b505050565b6106b29192939450610667565b915f925b8184106106c957505001905f80806106a0565b600181602092959395548486015201910192906106b6565b92949550505060ff19168252151560200201905f80806106a0565b9061070691610670565b90565b634e487b7160e01b5f52604160045260245ffd5b9061072790610117565b810190811067ffffffffffffffff82111761074157604052565b610709565b9061076661075f926107566100e2565b938480926106fc565b038361071d565b565b61077190610746565b90565b61077c61061b565b506107876003610768565b90565b5f90565b6107ab9161079a61078a565b506107a3610c7e565b919091610c8b565b600190565b5f90565b5f1c90565b90565b6107c86107cd916107b4565b6107b9565b90565b6107da90546107bc565b90565b6107e56107b0565b506107f060026107d0565b90565b5f7f5472616e73666572206661696c65640000000000000000000000000000000000910152565b610827600f602092610103565b610830816107f3565b0190565b6108499060208101905f81830391015261081a565b90565b1561085357565b61085b6100e2565b62461bcd60e51b81528061087160048201610834565b0390fd5b90565b61088c610887610891926101a3565b610875565b6101a3565b90565b61089d90610878565b90565b6108a990610894565b90565b6108b590610878565b90565b6108c1906108ac565b90565b60e01b90565b6108d381610230565b036108da57565b5f80fd5b905051906108eb826108ca565b565b9060208282031261090657610903915f016108de565b90565b6100ec565b610914906101ae565b9052565b60209181520190565b61092c5f8092610918565b0190565b61095261095f9361094860608401945f85019061090b565b602083019061028d565b6040818303910152610921565b90565b61096a6100e2565b3d5f823e3d90fd5b61097a61078a565b5061098e610989828490610c1a565b61084c565b61099781610cba565b6109a3575b5050600190565b6109b66109b16020926108a0565b6108b8565b9163d0314263926109db5f3393956109e66109cf6100e2565b978896879586946108c4565b845260048401610930565b03925af18015610a27576109fb575b8061099c565b610a1b9060203d8111610a20575b610a13818361071d565b8101906108ed565b6109f5565b503d610a09565b610962565b91610a5692610a3961078a565b50610a4e610a45610c7e565b82908491610d1a565b919091610de3565b600190565b5f90565b90565b610a76610a71610a7b92610a5f565b610875565b61038a565b90565b610a86610a5b565b50610a916012610a62565b90565b90610a9e91610e80565b565b610aa9906108ac565b90565b90610ab690610aa0565b5f5260205260405f2090565b610ad8610add91610ad16107b0565b505f610aac565b6107d0565b90565b610ae861061b565b50610af36004610768565b90565b90825f939282370152565b9190610b1b81610b1481610b2095610918565b8095610af6565b610117565b0190565b610b4a610b579593949294610b4060608401965f85019061090b565b602083019061028d565b6040818503910152610b01565b90565b9192610b6461078a565b50610b78610b73848490610c1a565b61084c565b610b8183610cba565b610b8f575b50505050600190565b610bc75f610ba6610ba16020966108a0565b6108b8565b92610bd263d031426391339698610bbb6100e2565b998a98899788966108c4565b865260048601610b24565b03925af18015610c1557610be9575b808080610b86565b610c099060203d8111610c0e575b610c01818361071d565b8101906108ed565b610be1565b503d610bf7565b610962565b610c3791610c2661078a565b50610c2f610c7e565b919091610de3565b600190565b90610c4690610aa0565b5f5260205260405f2090565b610c7791610c6d610c7292610c656107b0565b506001610c3c565b610aac565b6107d0565b90565b5f90565b610c86610c7a565b503390565b91610c999291600192610f38565b565b90565b610cb2610cad610cb792610c9b565b610875565b6101dd565b90565b610cc261078a565b503b610cd6610cd05f610c9e565b916101dd565b1190565b604090610d03610d0a9496959396610cf960608401985f85019061090b565b602083019061028d565b019061028d565b565b90610d1791036101dd565b90565b929192610d28818390610c52565b9081610d3d610d375f196101dd565b916101dd565b10610d4a575b5050509050565b81610d5d610d57876101dd565b916101dd565b10610d8357610d7a9394610d72919392610d0c565b905f92610f38565b805f8080610d43565b50610da2849291925f938493637dc7a0d960e11b855260048501610cda565b0390fd5b610dba610db5610dbf92610c9b565b610875565b6101a3565b90565b610dcb90610da6565b90565b9190610de1905f6020850194019061090b565b565b9182610dff610df9610df45f610dc2565b6101ae565b916101ae565b14610e595781610e1f610e19610e145f610dc2565b6101ae565b916101ae565b14610e3257610e309291909161108e565b565b610e55610e3e5f610dc2565b5f91829163ec442f0560e01b835260048301610dce565b0390fd5b610e7c610e655f610dc2565b5f918291634b637e8f60e11b835260048301610dce565b0390fd5b80610e9b610e95610e905f610dc2565b6101ae565b916101ae565b14610eb757610eb591610ead5f610dc2565b91909161108e565b565b610eda610ec35f610dc2565b5f91829163ec442f0560e01b835260048301610dce565b0390fd5b5f1b90565b90610eef5f1991610ede565b9181191691161790565b610f0d610f08610f12926101dd565b610875565b6101dd565b90565b90565b90610f2d610f28610f3492610ef9565b610f15565b8254610ee3565b9055565b909281610f55610f4f610f4a5f610dc2565b6101ae565b916101ae565b146110205783610f75610f6f610f6a5f610dc2565b6101ae565b916101ae565b14610ff957610f9983610f94610f8d60018690610c3c565b8790610aac565b610f18565b610fa3575b505050565b919091610fee610fdc610fd67f8c5be1e5ebec7d5bd14f71427d1e84f3dd0314c0f7b2291e5b200ac8c7c3b92593610aa0565b93610aa0565b93610fe56100e2565b9182918261029a565b0390a35f8080610f9e565b61101c6110055f610dc2565b5f918291634a1406b160e11b835260048301610dce565b0390fd5b61104361102c5f610dc2565b5f91829163e602df0560e01b835260048301610dce565b0390fd5b634e487b7160e01b5f52601160045260245ffd5b61106a611070919392936101dd565b926101dd565b820180921161107b57565b611047565b9061108b91016101dd565b90565b919091806110ac6110a66110a15f610dc2565b6101ae565b916101ae565b145f1461118d576110d06110c9836110c460026107d0565b61105b565b6002610f18565b5b826110ec6110e66110e15f610dc2565b6101ae565b916101ae565b145f14611161576111106111098361110460026107d0565b610d0c565b6002610f18565b5b91909161115c61114a6111447fddf252ad1be2c89b69c2b068fc378daa952ba7f163c4a11628f55a4df523b3ef93610aa0565b93610aa0565b936111536100e2565b9182918261029a565b0390a3565b611188826111826111735f8790610aac565b9161117d836107d0565b611080565b90610f18565b611111565b6111a061119b5f8390610aac565b6107d0565b806111b36111ad856101dd565b916101dd565b106111db576111c66111d6918490610d0c565b6111d15f8490610aac565b610f18565b6110d1565b906111f99091925f93849363391434e360e21b855260048501610cda565b0390fdfea2646970667358221220dc391317156c4ae5290886f34a431ae962eb243a88fc2f7fb816e58dd3a09a0964736f6c634300081e0033","linkReferences":{}},"methodIdentifiers":{"allowance(address,address)":"dd62ed3e","approve(address,uint256)":"095ea7b3","balanceOf(address)":"70a08231","decimals()":"313ce567","mint(address,uint256)":"40c10f19","name()":"06fdde03","symbol()":"95d89b41","totalSupply()":"18160ddd","transfer(address,uint256)":"a9059cbb","transferFrom(address,address,uint256)":"23b872dd","transferWithCallback(address,uint256)":"1a825b75","transferWithCallbackAndData(address,uint256,bytes)":"a580a1c6"},"id":56}