{"abi":[{"type":"constructor","inputs":[{"name":"_paymentTokenAddress","type":"address","internalType":"address"}],"stateMutability":"nonpayable"},{"type":"function","name":"DOMAIN_SEPARATOR","inputs":[],"outputs":[{"name":"","type":"bytes32","internalType":"bytes32"}],"stateMutability":"view"},{"type":"function","name":"PERMIT_BUY_TYPEHASH","inputs":[],"outputs":[{"name":"","type":"bytes32","internalType":"bytes32"}],"stateMutability":"view"},{"type":"function","name":"buy","inputs":[{"name":"_listingId","type":"uint256","internalType":"uint256"}],"outputs":[],"stateMutability":"nonpayable"},{"type":"function","name":"cancelListing","inputs":[{"name":"_listingId","type":"uint256","internalType":"uint256"}],"outputs":[],"stateMutability":"nonpayable"},{"type":"function","name":"eip712Domain","inputs":[],"outputs":[{"name":"fields","type":"bytes1","internalType":"bytes1"},{"name":"name","type":"string","internalType":"string"},{"name":"version","type":"string","internalType":"string"},{"name":"chainId","type":"uint256","internalType":"uint256"},{"name":"verifyingContract","type":"address","internalType":"address"},{"name":"salt","type":"bytes32","internalType":"bytes32"},{"name":"extensions","type":"uint256[]","internalType":"uint256[]"}],"stateMutability":"view"},{"type":"function","name":"getWhitelistNonce","inputs":[{"name":"buyer","type":"address","internalType":"address"}],"outputs":[{"name":"","type":"uint256","internalType":"uint256"}],"stateMutability":"view"},{"type":"function","name":"list","inputs":[{"name":"_nftContract","type":"address","internalType":"address"},{"name":"_tokenId","type":"uint256","internalType":"uint256"},{"name":"_price","type":"uint256","internalType":"uint256"}],"outputs":[],"stateMutability":"nonpayable"},{"type":"function","name":"listings","inputs":[{"name":"","type":"uint256","internalType":"uint256"}],"outputs":[{"name":"seller","type":"address","internalType":"address"},{"name":"nftContract","type":"address","internalType":"address"},{"name":"tokenId","type":"uint256","internalType":"uint256"},{"name":"price","type":"uint256","internalType":"uint256"},{"name":"isActive","type":"bool","internalType":"bool"}],"stateMutability":"view"},{"type":"function","name":"nextListingId","inputs":[],"outputs":[{"name":"","type":"uint256","internalType":"uint256"}],"stateMutability":"view"},{"type":"function","name":"paymentToken","inputs":[],"outputs":[{"name":"","type":"address","internalType":"contract IExtendedERC20"}],"stateMutability":"view"},{"type":"function","name":"permitBuy","inputs":[{"name":"buyer","type":"address","internalType":"address"},{"name":"listingId","type":"uint256","internalType":"uint256"},{"name":"deadline","type":"uint256","internalType":"uint256"},{"name":"v","type":"uint8","internalType":"uint8"},{"name":"r","type":"bytes32","internalType":"bytes32"},{"name":"s","type":"bytes32","internalType":"bytes32"}],"outputs":[],"stateMutability":"nonpayable"},{"type":"function","name":"setWhitelistAdmin","inputs":[{"name":"newAdmin","type":"address","internalType":"address"}],"outputs":[],"stateMutability":"nonpayable"},{"type":"function","name":"tokensReceived","inputs":[{"name":"from","type":"address","internalType":"address"},{"name":"amount","type":"uint256","internalType":"uint256"},{"name":"data","type":"bytes","internalType":"bytes"}],"outputs":[{"name":"","type":"bool","internalType":"bool"}],"stateMutability":"nonpayable"},{"type":"function","name":"whitelistAdmin","inputs":[],"outputs":[{"name":"","type":"address","internalType":"address"}],"stateMutability":"view"},{"type":"function","name":"whitelistNonces","inputs":[{"name":"","type":"address","internalType":"address"}],"outputs":[{"name":"","type":"uint256","internalType":"uint256"}],"stateMutability":"view"},{"type":"event","name":"EIP712DomainChanged","inputs":[],"anonymous":false},{"type":"event","name":"NFTListed","inputs":[{"name":"listingId","type":"uint256","indexed":true,"internalType":"uint256"},{"name":"seller","type":"address","indexed":true,"internalType":"address"},{"name":"nftContract","type":"address","indexed":true,"internalType":"address"},{"name":"tokenId","type":"uint256","indexed":false,"internalType":"uint256"},{"name":"price","type":"uint256","indexed":false,"internalType":"uint256"}],"anonymous":false},{"type":"event","name":"NFTListingCancelled","inputs":[{"name":"listingId","type":"uint256","indexed":true,"internalType":"uint256"}],"anonymous":false},{"type":"event","name":"NFTSold","inputs":[{"name":"listingId","type":"uint256","indexed":true,"internalType":"uint256"},{"name":"buyer","type":"address","indexed":true,"internalType":"address"},{"name":"seller","type":"address","indexed":true,"internalType":"address"},{"name":"nftContract","type":"address","indexed":false,"internalType":"address"},{"name":"tokenId","type":"uint256","indexed":false,"internalType":"uint256"},{"name":"price","type":"uint256","indexed":false,"internalType":"uint256"}],"anonymous":false},{"type":"event","name":"PermitBuyExecuted","inputs":[{"name":"buyer","type":"address","indexed":true,"internalType":"address"},{"name":"listingId","type":"uint256","indexed":true,"internalType":"uint256"},{"name":"price","type":"uint256","indexed":false,"internalType":"uint256"},{"name":"deadline","type":"uint256","indexed":false,"internalType":"uint256"}],"anonymous":false},{"type":"event","name":"WhitelistAdminChanged","inputs":[{"name":"oldAdmin","type":"address","indexed":true,"internalType":"address"},{"name":"newAdmin","type":"address","indexed":true,"internalType":"address"}],"anonymous":false},{"type":"error","name":"InvalidShortString","inputs":[]},{"type":"error","name":"PermitBuyExpiredSignature","inputs":[{"name":"deadline","type":"uint256","internalType":"uint256"}]},{"type":"error","name":"PermitBuyInsufficientAllowance","inputs":[{"name":"buyer","type":"address","internalType":"address"},{"name":"allowance","type":"uint256","internalType":"uint256"},{"name":"required","type":"uint256","internalType":"uint256"}]},{"type":"error","name":"PermitBuyInsufficientBalance","inputs":[{"name":"buyer","type":"address","internalType":"address"},{"name":"balance","type":"uint256","internalType":"uint256"},{"name":"required","type":"uint256","internalType":"uint256"}]},{"type":"error","name":"PermitBuyInvalidBuyer","inputs":[{"name":"expectedBuyer","type":"address","internalType":"address"},{"name":"actualBuyer","type":"address","internalType":"address"}]},{"type":"error","name":"PermitBuyInvalidListingId","inputs":[{"name":"expectedListingId","type":"uint256","internalType":"uint256"},{"name":"actualListingId","type":"uint256","internalType":"uint256"}]},{"type":"error","name":"PermitBuyInvalidSigner","inputs":[{"name":"signer","type":"address","internalType":"address"},{"name":"admin","type":"address","internalType":"address"}]},{"type":"error","name":"StringTooLong","inputs":[{"name":"str","type":"string","internalType":"string"}]}],"bytecode":{"object":"0x610160604052348015610010575f5ffd5b50604051613db0380380613db0833981810160405281019061003291906103b0565b6040518060400160405280600b81526020017f4e46544d61726b657456320000000000000000000000000000000000000000008152506040518060400160405280600181526020017f3100000000000000000000000000000000000000000000000000000000000000815250825f73ffffffffffffffffffffffffffffffffffffffff168173ffffffffffffffffffffffffffffffffffffffff160361010d576040517f08c379a00000000000000000000000000000000000000000000000000000000081526004016101049061045b565b60405180910390fd5b805f5f6101000a81548173ffffffffffffffffffffffffffffffffffffffff021916908373ffffffffffffffffffffffffffffffffffffffff1602179055505061016160038361023d60201b90919060201c565b610120818152505061017d60048261023d60201b90919060201c565b6101408181525050818051906020012060e08181525050808051906020012061010081815250504660a081815250506101ba61028a60201b60201c565b608081815250503073ffffffffffffffffffffffffffffffffffffffff1660c08173ffffffffffffffffffffffffffffffffffffffff168152505050503360065f6101000a81548173ffffffffffffffffffffffffffffffffffffffff021916908373ffffffffffffffffffffffffffffffffffffffff16021790555050610915565b5f60208351101561025e57610257836102e460201b60201c565b9050610284565b8261026e8361034960201b60201c565b5f01908161027c91906106b6565b5060ff5f1b90505b92915050565b5f7f8b73c3c69bb8fe3d512ecc4cf759cc79239f7b179b0ffacaa9a75d522b39400f60e0516101005146306040516020016102c99594939291906107bb565b60405160208183030381529060405280519060200120905090565b5f5f829050601f8151111561033057826040517f305a27a90000000000000000000000000000000000000000000000000000000081526004016103279190610862565b60405180910390fd5b80518161033c906108af565b5f1c175f1b915050919050565b5f819050919050565b5f5ffd5b5f73ffffffffffffffffffffffffffffffffffffffff82169050919050565b5f61037f82610356565b9050919050565b61038f81610375565b8114610399575f5ffd5b50565b5f815190506103aa81610386565b92915050565b5f602082840312156103c5576103c4610352565b5b5f6103d28482850161039c565b91505092915050565b5f82825260208201905092915050565b7f4e46544d61726b65743a207061796d656e7420746f6b656e20616464726573735f8201527f2063616e6e6f74206265207a65726f0000000000000000000000000000000000602082015250565b5f610445602f836103db565b9150610450826103eb565b604082019050919050565b5f6020820190508181035f83015261047281610439565b9050919050565b5f81519050919050565b7f4e487b71000000000000000000000000000000000000000000000000000000005f52604160045260245ffd5b7f4e487b71000000000000000000000000000000000000000000000000000000005f52602260045260245ffd5b5f60028204905060018216806104f457607f821691505b602082108103610507576105066104b0565b5b50919050565b5f819050815f5260205f209050919050565b5f6020601f8301049050919050565b5f82821b905092915050565b5f600883026105697fffffffffffffffffffffffffffffffffffffffffffffffffffffffffffffffff8261052e565b610573868361052e565b95508019841693508086168417925050509392505050565b5f819050919050565b5f819050919050565b5f6105b76105b26105ad8461058b565b610594565b61058b565b9050919050565b5f819050919050565b6105d08361059d565b6105e46105dc826105be565b84845461053a565b825550505050565b5f5f905090565b6105fb6105ec565b6106068184846105c7565b505050565b5b818110156106295761061e5f826105f3565b60018101905061060c565b5050565b601f82111561066e5761063f8161050d565b6106488461051f565b81016020851015610657578190505b61066b6106638561051f565b83018261060b565b50505b505050565b5f82821c905092915050565b5f61068e5f1984600802610673565b1980831691505092915050565b5f6106a6838361067f565b9150826002028217905092915050565b6106bf82610479565b67ffffffffffffffff8111156106d8576106d7610483565b5b6106e282546104dd565b6106ed82828561062d565b5f60209050601f83116001811461071e575f841561070c578287015190505b610716858261069b565b86555061077d565b601f19841661072c8661050d565b5f5b828110156107535784890151825560018201915060208501945060208101905061072e565b86831015610770578489015161076c601f89168261067f565b8355505b6001600288020188555050505b505050505050565b5f819050919050565b61079781610785565b82525050565b6107a68161058b565b82525050565b6107b581610375565b82525050565b5f60a0820190506107ce5f83018861078e565b6107db602083018761078e565b6107e8604083018661078e565b6107f5606083018561079d565b61080260808301846107ac565b9695505050505050565b8281835e5f83830152505050565b5f601f19601f8301169050919050565b5f61083482610479565b61083e81856103db565b935061084e81856020860161080c565b6108578161081a565b840191505092915050565b5f6020820190508181035f83015261087a818461082a565b905092915050565b5f81519050919050565b5f819050602082019050919050565b5f6108a68251610785565b80915050919050565b5f6108b982610882565b826108c38461088c565b90506108ce8161089b565b9250602082101561090e576109097fffffffffffffffffffffffffffffffffffffffffffffffffffffffffffffffff8360200360080261052e565b831692505b5050919050565b60805160a05160c05160e05161010051610120516101405161344a6109665f395f611eef01525f611eb401525f611f6601525f611f4501525f611b4001525f611b9601525f611bbf015261344a5ff3fe608060405234801561000f575f5ffd5b50600436106100f3575f3560e01c80637bd2fc7d11610095578063d031426311610064578063d031426314610265578063d96a094a14610295578063dda342bb146102b1578063de74e57b146102cd576100f3565b80637bd2fc7d146101eb57806384b0196e14610207578063a8d49e641461022b578063aaccf1ec14610247576100f3565b80633013ce29116100d15780633013ce2914610175578063305a67a8146101935780633644e515146101af5780634adbe551146101cd576100f3565b8063042dca71146100f757806311fdcc7e146101275780631d833ec514610157575b5f5ffd5b610111600480360381019061010c91906121de565b610301565b60405161011e9190612221565b60405180910390f35b610141600480360381019061013c91906121de565b610316565b60405161014e9190612221565b60405180910390f35b61015f61035c565b60405161016c9190612252565b60405180910390f35b61017d610380565b60405161018a91906122c6565b60405180910390f35b6101ad60048036038101906101a89190612309565b6103a4565b005b6101b7610528565b6040516101c49190612252565b60405180910390f35b6101d5610536565b6040516101e29190612343565b60405180910390f35b610205600480360381019061020091906123bc565b61055b565b005b61020f610a9f565b60405161022297969594939291906125a6565b60405180910390f35b610245600480360381019061024091906121de565b610b44565b005b61024f610d04565b60405161025c9190612221565b60405180910390f35b61027f600480360381019061027a9190612689565b610d0a565b60405161028c9190612714565b60405180910390f35b6102af60048036038101906102aa9190612309565b611130565b005b6102cb60048036038101906102c6919061272d565b611503565b005b6102e760048036038101906102e29190612309565b611ac1565b6040516102f895949392919061277d565b60405180910390f35b6005602052805f5260405f205f915090505481565b5f60055f8373ffffffffffffffffffffffffffffffffffffffff1673ffffffffffffffffffffffffffffffffffffffff1681526020019081526020015f20549050919050565b7f806eab964914cab2a2031c7614f2be00ee8da340c473f939a7f99940b671dbfb81565b5f5f9054906101000a900473ffffffffffffffffffffffffffffffffffffffff1681565b5f60015f8381526020019081526020015f20905060025482106103fc576040517f08c379a00000000000000000000000000000000000000000000000000000000081526004016103f39061283e565b60405180910390fd5b806004015f9054906101000a900460ff1661044c576040517f08c379a0000000000000000000000000000000000000000000000000000000008152600401610443906128a6565b60405180910390fd5b3373ffffffffffffffffffffffffffffffffffffffff16815f015f9054906101000a900473ffffffffffffffffffffffffffffffffffffffff1673ffffffffffffffffffffffffffffffffffffffff16146104dc576040517f08c379a00000000000000000000000000000000000000000000000000000000081526004016104d39061290e565b60405180910390fd5b5f816004015f6101000a81548160ff021916908315150217905550817fc46ea9fee66461db46a6ac51d560a291533b66981fb9c09ca8948e8dc8d4247260405160405180910390a25050565b5f610531611b3d565b905090565b60065f9054906101000a900473ffffffffffffffffffffffffffffffffffffffff1681565b610566868686611bf3565b610574868686868686611cef565b5f60015f8781526020019081526020015f20905060025486106105cc576040517f08c379a00000000000000000000000000000000000000000000000000000000081526004016105c39061299c565b60405180910390fd5b806004015f9054906101000a900460ff1661061c576040517f08c379a000000000000000000000000000000000000000000000000000000000815260040161061390612a2a565b60405180910390fd5b5f5f5f9054906101000a900473ffffffffffffffffffffffffffffffffffffffff1673ffffffffffffffffffffffffffffffffffffffff166370a08231896040518263ffffffff1660e01b81526004016106769190612343565b602060405180830381865afa158015610691573d5f5f3e3d5ffd5b505050506040513d601f19601f820116820180604052508101906106b59190612a5c565b9050816003015481101561070857878183600301546040517f62d71bf60000000000000000000000000000000000000000000000000000000081526004016106ff93929190612a87565b60405180910390fd5b5f5f5f9054906101000a900473ffffffffffffffffffffffffffffffffffffffff1673ffffffffffffffffffffffffffffffffffffffff1663dd62ed3e8a306040518363ffffffff1660e01b8152600401610764929190612abc565b602060405180830381865afa15801561077f573d5f5f3e3d5ffd5b505050506040513d601f19601f820116820180604052508101906107a39190612a5c565b905082600301548110156107f657888184600301546040517fba97a5840000000000000000000000000000000000000000000000000000000081526004016107ed93929190612a87565b60405180910390fd5b5f836004015f6101000a81548160ff0219169083151502179055505f5f9054906101000a900473ffffffffffffffffffffffffffffffffffffffff1673ffffffffffffffffffffffffffffffffffffffff166323b872dd8a855f015f9054906101000a900473ffffffffffffffffffffffffffffffffffffffff1686600301546040518463ffffffff1660e01b815260040161089493929190612ae3565b6020604051808303815f875af11580156108b0573d5f5f3e3d5ffd5b505050506040513d601f19601f820116820180604052508101906108d49190612b42565b50826001015f9054906101000a900473ffffffffffffffffffffffffffffffffffffffff1673ffffffffffffffffffffffffffffffffffffffff166323b872dd845f015f9054906101000a900473ffffffffffffffffffffffffffffffffffffffff168b86600201546040518463ffffffff1660e01b815260040161095b93929190612ae3565b5f604051808303815f87803b158015610972575f5ffd5b505af1158015610984573d5f5f3e3d5ffd5b50505050825f015f9054906101000a900473ffffffffffffffffffffffffffffffffffffffff1673ffffffffffffffffffffffffffffffffffffffff168973ffffffffffffffffffffffffffffffffffffffff16897f88f63fa89cb6cf4da421a869453f09e48f4a2e670eb9dac1f4cd89afa5333372866001015f9054906101000a900473ffffffffffffffffffffffffffffffffffffffff1687600201548860030154604051610a3793929190612a87565b60405180910390a4878973ffffffffffffffffffffffffffffffffffffffff167fadbfe75b6432ad913d529185edc6190c1eb52d5693802bf5b0ef8795886c548785600301548a604051610a8c929190612b6d565b60405180910390a3505050505050505050565b5f6060805f5f5f6060610ab0611eab565b610ab8611ee6565b46305f5f1b5f67ffffffffffffffff811115610ad757610ad6612b94565b5b604051908082528060200260200182016040528015610b055781602001602082028036833780820191505090505b507f0f00000000000000000000000000000000000000000000000000000000000000959493929190965096509650965096509650965090919293949596565b60065f9054906101000a900473ffffffffffffffffffffffffffffffffffffffff1673ffffffffffffffffffffffffffffffffffffffff163373ffffffffffffffffffffffffffffffffffffffff1614610bd3576040517f08c379a0000000000000000000000000000000000000000000000000000000008152600401610bca90612c0b565b60405180910390fd5b5f73ffffffffffffffffffffffffffffffffffffffff168173ffffffffffffffffffffffffffffffffffffffff1603610c41576040517f08c379a0000000000000000000000000000000000000000000000000000000008152600401610c3890612c99565b60405180910390fd5b5f60065f9054906101000a900473ffffffffffffffffffffffffffffffffffffffff1690508160065f6101000a81548173ffffffffffffffffffffffffffffffffffffffff021916908373ffffffffffffffffffffffffffffffffffffffff1602179055508173ffffffffffffffffffffffffffffffffffffffff168173ffffffffffffffffffffffffffffffffffffffff167f6c0a8a9cbf7f807c711446ed20f10fbaeea4c098ff4f08387a7f90feb60eb04c60405160405180910390a35050565b60025481565b5f5f5f9054906101000a900473ffffffffffffffffffffffffffffffffffffffff1673ffffffffffffffffffffffffffffffffffffffff163373ffffffffffffffffffffffffffffffffffffffff1614610d99576040517f08c379a0000000000000000000000000000000000000000000000000000000008152600401610d9090612d27565b60405180910390fd5b60208383905014610ddf576040517f08c379a0000000000000000000000000000000000000000000000000000000008152600401610dd690612d8f565b60405180910390fd5b5f8383810190610def9190612309565b90505f60015f8381526020019081526020015f209050806004015f9054906101000a900460ff16610e55576040517f08c379a0000000000000000000000000000000000000000000000000000000008152600401610e4c906128a6565b60405180910390fd5b8060030154861015610e9c576040517f08c379a0000000000000000000000000000000000000000000000000000000008152600401610e9390612e1d565b60405180910390fd5b5f816004015f6101000a81548160ff021916908315150217905550806001015f9054906101000a900473ffffffffffffffffffffffffffffffffffffffff1673ffffffffffffffffffffffffffffffffffffffff166323b872dd825f015f9054906101000a900473ffffffffffffffffffffffffffffffffffffffff168984600201546040518463ffffffff1660e01b8152600401610f3d93929190612ae3565b5f604051808303815f87803b158015610f54575f5ffd5b505af1158015610f66573d5f5f3e3d5ffd5b505050505f5f5f9054906101000a900473ffffffffffffffffffffffffffffffffffffffff1673ffffffffffffffffffffffffffffffffffffffff1663a9059cbb835f015f9054906101000a900473ffffffffffffffffffffffffffffffffffffffff16896040518363ffffffff1660e01b8152600401610fe8929190612e3b565b6020604051808303815f875af1158015611004573d5f5f3e3d5ffd5b505050506040513d601f19601f820116820180604052508101906110289190612b42565b90508061106a576040517f08c379a000000000000000000000000000000000000000000000000000000000815260040161106190612ed2565b60405180910390fd5b815f015f9054906101000a900473ffffffffffffffffffffffffffffffffffffffff1673ffffffffffffffffffffffffffffffffffffffff168873ffffffffffffffffffffffffffffffffffffffff16847f88f63fa89cb6cf4da421a869453f09e48f4a2e670eb9dac1f4cd89afa5333372856001015f9054906101000a900473ffffffffffffffffffffffffffffffffffffffff168660020154876003015460405161111993929190612a87565b60405180910390a460019350505050949350505050565b5f60015f8381526020019081526020015f2090506002548210611188576040517f08c379a000000000000000000000000000000000000000000000000000000000815260040161117f9061283e565b60405180910390fd5b806004015f9054906101000a900460ff166111d8576040517f08c379a00000000000000000000000000000000000000000000000000000000081526004016111cf906128a6565b60405180910390fd5b80600301545f5f9054906101000a900473ffffffffffffffffffffffffffffffffffffffff1673ffffffffffffffffffffffffffffffffffffffff166370a08231336040518263ffffffff1660e01b81526004016112369190612343565b602060405180830381865afa158015611251573d5f5f3e3d5ffd5b505050506040513d601f19601f820116820180604052508101906112759190612a5c565b10156112b6576040517f08c379a00000000000000000000000000000000000000000000000000000000081526004016112ad90612e1d565b60405180910390fd5b5f816004015f6101000a81548160ff0219169083151502179055505f5f9054906101000a900473ffffffffffffffffffffffffffffffffffffffff1673ffffffffffffffffffffffffffffffffffffffff166323b872dd33835f015f9054906101000a900473ffffffffffffffffffffffffffffffffffffffff1684600301546040518463ffffffff1660e01b815260040161135493929190612ae3565b6020604051808303815f875af1158015611370573d5f5f3e3d5ffd5b505050506040513d601f19601f820116820180604052508101906113949190612b42565b50806001015f9054906101000a900473ffffffffffffffffffffffffffffffffffffffff1673ffffffffffffffffffffffffffffffffffffffff166323b872dd825f015f9054906101000a900473ffffffffffffffffffffffffffffffffffffffff163384600201546040518463ffffffff1660e01b815260040161141b93929190612ae3565b5f604051808303815f87803b158015611432575f5ffd5b505af1158015611444573d5f5f3e3d5ffd5b50505050805f015f9054906101000a900473ffffffffffffffffffffffffffffffffffffffff1673ffffffffffffffffffffffffffffffffffffffff163373ffffffffffffffffffffffffffffffffffffffff16837f88f63fa89cb6cf4da421a869453f09e48f4a2e670eb9dac1f4cd89afa5333372846001015f9054906101000a900473ffffffffffffffffffffffffffffffffffffffff16856002015486600301546040516114f793929190612a87565b60405180910390a45050565b5f8111611545576040517f08c379a000000000000000000000000000000000000000000000000000000000815260040161153c90612f60565b60405180910390fd5b5f73ffffffffffffffffffffffffffffffffffffffff168373ffffffffffffffffffffffffffffffffffffffff16036115b3576040517f08c379a00000000000000000000000000000000000000000000000000000000081526004016115aa90612fee565b60405180910390fd5b5f5f90505b6002548110156116b9578373ffffffffffffffffffffffffffffffffffffffff1660015f8381526020019081526020015f206001015f9054906101000a900473ffffffffffffffffffffffffffffffffffffffff1673ffffffffffffffffffffffffffffffffffffffff1614801561164357508260015f8381526020019081526020015f2060020154145b801561166c575060015f8281526020019081526020015f206004015f9054906101000a900460ff165b156116ac576040517f08c379a00000000000000000000000000000000000000000000000000000000081526004016116a390613056565b60405180910390fd5b80806001019150506115b8565b505f8390505f8173ffffffffffffffffffffffffffffffffffffffff16636352211e856040518263ffffffff1660e01b81526004016116f89190612221565b602060405180830381865afa158015611713573d5f5f3e3d5ffd5b505050506040513d601f19601f820116820180604052508101906117379190613088565b90503373ffffffffffffffffffffffffffffffffffffffff168173ffffffffffffffffffffffffffffffffffffffff16146117a7576040517f08c379a000000000000000000000000000000000000000000000000000000000815260040161179e90613123565b60405180910390fd5b8173ffffffffffffffffffffffffffffffffffffffff1663e985e9c582306040518363ffffffff1660e01b81526004016117e2929190612abc565b602060405180830381865afa1580156117fd573d5f5f3e3d5ffd5b505050506040513d601f19601f820116820180604052508101906118219190612b42565b806118ce57503073ffffffffffffffffffffffffffffffffffffffff168273ffffffffffffffffffffffffffffffffffffffff1663081812fc866040518263ffffffff1660e01b81526004016118779190612221565b602060405180830381865afa158015611892573d5f5f3e3d5ffd5b505050506040513d601f19601f820116820180604052508101906118b69190613088565b73ffffffffffffffffffffffffffffffffffffffff16145b61190d576040517f08c379a0000000000000000000000000000000000000000000000000000000008152600401611904906131b1565b60405180910390fd5b5f60025490506040518060a001604052808373ffffffffffffffffffffffffffffffffffffffff1681526020018773ffffffffffffffffffffffffffffffffffffffff1681526020018681526020018581526020016001151581525060015f8381526020019081526020015f205f820151815f015f6101000a81548173ffffffffffffffffffffffffffffffffffffffff021916908373ffffffffffffffffffffffffffffffffffffffff1602179055506020820151816001015f6101000a81548173ffffffffffffffffffffffffffffffffffffffff021916908373ffffffffffffffffffffffffffffffffffffffff16021790555060408201518160020155606082015181600301556080820151816004015f6101000a81548160ff02191690831515021790555090505060025f815480929190611a4c906131fc565b91905055508573ffffffffffffffffffffffffffffffffffffffff168273ffffffffffffffffffffffffffffffffffffffff16827fb0fe4922ac99799c17a4130d5c045ba2ecdf6e15b75b9ea84aaf0dc28724a42b8888604051611ab1929190612b6d565b60405180910390a4505050505050565b6001602052805f5260405f205f91509050805f015f9054906101000a900473ffffffffffffffffffffffffffffffffffffffff1690806001015f9054906101000a900473ffffffffffffffffffffffffffffffffffffffff1690806002015490806003015490806004015f9054906101000a900460ff16905085565b5f7f000000000000000000000000000000000000000000000000000000000000000073ffffffffffffffffffffffffffffffffffffffff163073ffffffffffffffffffffffffffffffffffffffff16148015611bb857507f000000000000000000000000000000000000000000000000000000000000000046145b15611be5577f00000000000000000000000000000000000000000000000000000000000000009050611bf0565b611bed611f21565b90505b90565b5f73ffffffffffffffffffffffffffffffffffffffff168373ffffffffffffffffffffffffffffffffffffffff1603611c61576040517f08c379a0000000000000000000000000000000000000000000000000000000008152600401611c58906132b3565b60405180910390fd5b6002548210611ca5576040517f08c379a0000000000000000000000000000000000000000000000000000000008152600401611c9c9061299c565b60405180910390fd5b80421115611cea57806040517fc8e3f5af000000000000000000000000000000000000000000000000000000008152600401611ce19190612221565b60405180910390fd5b505050565b5f7f806eab964914cab2a2031c7614f2be00ee8da340c473f939a7f99940b671dbfb878787604051602001611d2794939291906132d1565b6040516020818303038152906040528051906020012090505f611d4982611fb6565b90505f6001828787876040515f8152602001604052604051611d6e9493929190613323565b6020604051602081039080840390855afa158015611d8e573d5f5f3e3d5ffd5b50505060206040510351905060065f9054906101000a900473ffffffffffffffffffffffffffffffffffffffff1673ffffffffffffffffffffffffffffffffffffffff168173ffffffffffffffffffffffffffffffffffffffff1614611e4e578060065f9054906101000a900473ffffffffffffffffffffffffffffffffffffffff166040517f59ec7897000000000000000000000000000000000000000000000000000000008152600401611e45929190612abc565b60405180910390fd5b60055f8a73ffffffffffffffffffffffffffffffffffffffff1673ffffffffffffffffffffffffffffffffffffffff1681526020019081526020015f205f815480929190611e9b906131fc565b9190505550505050505050505050565b6060611ee160037f0000000000000000000000000000000000000000000000000000000000000000611fcf90919063ffffffff16565b905090565b6060611f1c60047f0000000000000000000000000000000000000000000000000000000000000000611fcf90919063ffffffff16565b905090565b5f7f8b73c3c69bb8fe3d512ecc4cf759cc79239f7b179b0ffacaa9a75d522b39400f7f00000000000000000000000000000000000000000000000000000000000000007f00000000000000000000000000000000000000000000000000000000000000004630604051602001611f9b959493929190613366565b60405160208183030381529060405280519060200120905090565b5f611fc8611fc2611b3d565b8361207c565b9050919050565b606060ff5f1b8314611feb57611fe4836120bc565b9050612076565b818054611ff7906133e4565b80601f0160208091040260200160405190810160405280929190818152602001828054612023906133e4565b801561206e5780601f106120455761010080835404028352916020019161206e565b820191905f5260205f20905b81548152906001019060200180831161205157829003601f168201915b505050505090505b92915050565b5f6040517f190100000000000000000000000000000000000000000000000000000000000081528360028201528260228201526042812091505092915050565b60605f6120c88361212e565b90505f602067ffffffffffffffff8111156120e6576120e5612b94565b5b6040519080825280601f01601f1916602001820160405280156121185781602001600182028036833780820191505090505b5090508181528360208201528092505050919050565b5f5f60ff835f1c169050601f811115612173576040517fb3512b0c00000000000000000000000000000000000000000000000000000000815260040160405180910390fd5b80915050919050565b5f5ffd5b5f5ffd5b5f73ffffffffffffffffffffffffffffffffffffffff82169050919050565b5f6121ad82612184565b9050919050565b6121bd816121a3565b81146121c7575f5ffd5b50565b5f813590506121d8816121b4565b92915050565b5f602082840312156121f3576121f261217c565b5b5f612200848285016121ca565b91505092915050565b5f819050919050565b61221b81612209565b82525050565b5f6020820190506122345f830184612212565b92915050565b5f819050919050565b61224c8161223a565b82525050565b5f6020820190506122655f830184612243565b92915050565b5f819050919050565b5f61228e61228961228484612184565b61226b565b612184565b9050919050565b5f61229f82612274565b9050919050565b5f6122b082612295565b9050919050565b6122c0816122a6565b82525050565b5f6020820190506122d95f8301846122b7565b92915050565b6122e881612209565b81146122f2575f5ffd5b50565b5f81359050612303816122df565b92915050565b5f6020828403121561231e5761231d61217c565b5b5f61232b848285016122f5565b91505092915050565b61233d816121a3565b82525050565b5f6020820190506123565f830184612334565b92915050565b5f60ff82169050919050565b6123718161235c565b811461237b575f5ffd5b50565b5f8135905061238c81612368565b92915050565b61239b8161223a565b81146123a5575f5ffd5b50565b5f813590506123b681612392565b92915050565b5f5f5f5f5f5f60c087890312156123d6576123d561217c565b5b5f6123e389828a016121ca565b96505060206123f489828a016122f5565b955050604061240589828a016122f5565b945050606061241689828a0161237e565b935050608061242789828a016123a8565b92505060a061243889828a016123a8565b9150509295509295509295565b5f7fff0000000000000000000000000000000000000000000000000000000000000082169050919050565b61247981612445565b82525050565b5f81519050919050565b5f82825260208201905092915050565b8281835e5f83830152505050565b5f601f19601f8301169050919050565b5f6124c18261247f565b6124cb8185612489565b93506124db818560208601612499565b6124e4816124a7565b840191505092915050565b5f81519050919050565b5f82825260208201905092915050565b5f819050602082019050919050565b61252181612209565b82525050565b5f6125328383612518565b60208301905092915050565b5f602082019050919050565b5f612554826124ef565b61255e81856124f9565b935061256983612509565b805f5b838110156125995781516125808882612527565b975061258b8361253e565b92505060018101905061256c565b5085935050505092915050565b5f60e0820190506125b95f83018a612470565b81810360208301526125cb81896124b7565b905081810360408301526125df81886124b7565b90506125ee6060830187612212565b6125fb6080830186612334565b61260860a0830185612243565b81810360c083015261261a818461254a565b905098975050505050505050565b5f5ffd5b5f5ffd5b5f5ffd5b5f5f83601f84011261264957612648612628565b5b8235905067ffffffffffffffff8111156126665761266561262c565b5b60208301915083600182028301111561268257612681612630565b5b9250929050565b5f5f5f5f606085870312156126a1576126a061217c565b5b5f6126ae878288016121ca565b94505060206126bf878288016122f5565b935050604085013567ffffffffffffffff8111156126e0576126df612180565b5b6126ec87828801612634565b925092505092959194509250565b5f8115159050919050565b61270e816126fa565b82525050565b5f6020820190506127275f830184612705565b92915050565b5f5f5f606084860312156127445761274361217c565b5b5f612751868287016121ca565b9350506020612762868287016122f5565b9250506040612773868287016122f5565b9150509250925092565b5f60a0820190506127905f830188612334565b61279d6020830187612334565b6127aa6040830186612212565b6127b76060830185612212565b6127c46080830184612705565b9695505050505050565b7f4e46544d61726b65743a206c697374696e6720696420646f6573206e6f7420655f8201527f7869737400000000000000000000000000000000000000000000000000000000602082015250565b5f612828602483612489565b9150612833826127ce565b604082019050919050565b5f6020820190508181035f8301526128558161281c565b9050919050565b7f4e46544d61726b65743a206c697374696e67206973206e6f74206163746976655f82015250565b5f612890602083612489565b915061289b8261285c565b602082019050919050565b5f6020820190508181035f8301526128bd81612884565b9050919050565b7f4e46544d61726b65743a2063616c6c6572206973206e6f742073656c6c6572005f82015250565b5f6128f8601f83612489565b9150612903826128c4565b602082019050919050565b5f6020820190508181035f830152612925816128ec565b9050919050565b7f4e46544d61726b657456323a206c697374696e6720696420646f6573206e6f745f8201527f2065786973740000000000000000000000000000000000000000000000000000602082015250565b5f612986602683612489565b91506129918261292c565b604082019050919050565b5f6020820190508181035f8301526129b38161297a565b9050919050565b7f4e46544d61726b657456323a206c697374696e67206973206e6f7420616374695f8201527f7665000000000000000000000000000000000000000000000000000000000000602082015250565b5f612a14602283612489565b9150612a1f826129ba565b604082019050919050565b5f6020820190508181035f830152612a4181612a08565b9050919050565b5f81519050612a56816122df565b92915050565b5f60208284031215612a7157612a7061217c565b5b5f612a7e84828501612a48565b91505092915050565b5f606082019050612a9a5f830186612334565b612aa76020830185612212565b612ab46040830184612212565b949350505050565b5f604082019050612acf5f830185612334565b612adc6020830184612334565b9392505050565b5f606082019050612af65f830186612334565b612b036020830185612334565b612b106040830184612212565b949350505050565b612b21816126fa565b8114612b2b575f5ffd5b50565b5f81519050612b3c81612b18565b92915050565b5f60208284031215612b5757612b5661217c565b5b5f612b6484828501612b2e565b91505092915050565b5f604082019050612b805f830185612212565b612b8d6020830184612212565b9392505050565b7f4e487b71000000000000000000000000000000000000000000000000000000005f52604160045260245ffd5b7f4e46544d61726b657456323a2063616c6c6572206973206e6f742061646d696e5f82015250565b5f612bf5602083612489565b9150612c0082612bc1565b602082019050919050565b5f6020820190508181035f830152612c2281612be9565b9050919050565b7f4e46544d61726b657456323a206e65772061646d696e2063616e6e6f742062655f8201527f207a65726f206164647265737300000000000000000000000000000000000000602082015250565b5f612c83602d83612489565b9150612c8e82612c29565b604082019050919050565b5f6020820190508181035f830152612cb081612c77565b9050919050565b7f4e46544d61726b65743a2063616c6c6572206973206e6f74207061796d656e745f8201527f20746f6b656e0000000000000000000000000000000000000000000000000000602082015250565b5f612d11602683612489565b9150612d1c82612cb7565b604082019050919050565b5f6020820190508181035f830152612d3e81612d05565b9050919050565b7f4e46544d61726b65743a20696e76616c69642064617461206c656e67746800005f82015250565b5f612d79601e83612489565b9150612d8482612d45565b602082019050919050565b5f6020820190508181035f830152612da681612d6d565b9050919050565b7f4e46544d61726b65743a206e6f7420656e6f756768207061796d656e7420746f5f8201527f6b656e0000000000000000000000000000000000000000000000000000000000602082015250565b5f612e07602383612489565b9150612e1282612dad565b604082019050919050565b5f6020820190508181035f830152612e3481612dfb565b9050919050565b5f604082019050612e4e5f830185612334565b612e5b6020830184612212565b9392505050565b7f4e46544d61726b65743a20746f6b656e207472616e7366657220746f2073656c5f8201527f6c6572206661696c656400000000000000000000000000000000000000000000602082015250565b5f612ebc602a83612489565b9150612ec782612e62565b604082019050919050565b5f6020820190508181035f830152612ee981612eb0565b9050919050565b7f4e46544d61726b65743a207072696365206d75737420626520677265617465725f8201527f207468616e207a65726f00000000000000000000000000000000000000000000602082015250565b5f612f4a602a83612489565b9150612f5582612ef0565b604082019050919050565b5f6020820190508181035f830152612f7781612f3e565b9050919050565b7f4e46544d61726b65743a206e667420636f6e74726163742061646472657373205f8201527f63616e6e6f74206265207a65726f000000000000000000000000000000000000602082015250565b5f612fd8602e83612489565b9150612fe382612f7e565b604082019050919050565b5f6020820190508181035f83015261300581612fcc565b9050919050565b7f4e46544d61726b65743a206e667420697320616c7265616479206c69737465645f82015250565b5f613040602083612489565b915061304b8261300c565b602082019050919050565b5f6020820190508181035f83015261306d81613034565b9050919050565b5f81519050613082816121b4565b92915050565b5f6020828403121561309d5761309c61217c565b5b5f6130aa84828501613074565b91505092915050565b7f4e46544d61726b65743a2063616c6c6572206973206e6f7420746865206f776e5f8201527f6572000000000000000000000000000000000000000000000000000000000000602082015250565b5f61310d602283612489565b9150613118826130b3565b604082019050919050565b5f6020820190508181035f83015261313a81613101565b9050919050565b7f4e46544d61726b65743a206d61726b6574206973206e6f7420617070726f76655f8201527f6420746f207472616e736665722074686973204e465400000000000000000000602082015250565b5f61319b603683612489565b91506131a682613141565b604082019050919050565b5f6020820190508181035f8301526131c88161318f565b9050919050565b7f4e487b71000000000000000000000000000000000000000000000000000000005f52601160045260245ffd5b5f61320682612209565b91507fffffffffffffffffffffffffffffffffffffffffffffffffffffffffffffffff8203613238576132376131cf565b5b600182019050919050565b7f4e46544d61726b657456323a2062757965722063616e6e6f74206265207a65725f8201527f6f20616464726573730000000000000000000000000000000000000000000000602082015250565b5f61329d602983612489565b91506132a882613243565b604082019050919050565b5f6020820190508181035f8301526132ca81613291565b9050919050565b5f6080820190506132e45f830187612243565b6132f16020830186612334565b6132fe6040830185612212565b61330b6060830184612212565b95945050505050565b61331d8161235c565b82525050565b5f6080820190506133365f830187612243565b6133436020830186613314565b6133506040830185612243565b61335d6060830184612243565b95945050505050565b5f60a0820190506133795f830188612243565b6133866020830187612243565b6133936040830186612243565b6133a06060830185612212565b6133ad6080830184612334565b9695505050505050565b7f4e487b71000000000000000000000000000000000000000000000000000000005f52602260045260245ffd5b5f60028204905060018216806133fb57607f821691505b60208210810361340e5761340d6133b7565b5b5091905056fea2646970667358221220ffb8edf15dc999346c6f87a2f71179cfd6af16bdee27324c25a1719f73a45e1c64736f6c634300081e0033","linkReferences":{}},"methodIdentifiers":{"DOMAIN_SEPARATOR()":"3644e515","PERMIT_BUY_TYPEHASH()":"1d833ec5","buy(uint256)":"d96a094a","cancelListing(uint256)":"305a67a8","eip712Domain()":"84b0196e","getWhitelistNonce(address)":"11fdcc7e","list(address,uint256,uint256)":"dda342bb","listings(uint256)":"de74e57b","nextListingId()":"aaccf1ec","paymentToken()":"3013ce29","permitBuy(address,uint256,uint256,uint8,bytes32,bytes32)":"7bd2fc7d","setWhitelistAdmin(address)":"a8d49e64","tokensReceived(address,uint256,bytes)":"d0314263","whitelistAdmin()":"4adbe551","whitelistNonces(address)":"042dca71"},"id":67}