{"abi":[{"type":"constructor","inputs":[{"name":"_paymentTokenAddress","type":"address","internalType":"address"}],"stateMutability":"nonpayable"},{"type":"function","name":"DOMAIN_SEPARATOR","inputs":[],"outputs":[{"name":"","type":"bytes32","internalType":"bytes32"}],"stateMutability":"view"},{"type":"function","name":"PERMIT_BUY_TYPEHASH","inputs":[],"outputs":[{"name":"","type":"bytes32","internalType":"bytes32"}],"stateMutability":"view"},{"type":"function","name":"buy","inputs":[{"name":"_listingId","type":"uint256","internalType":"uint256"}],"outputs":[],"stateMutability":"nonpayable"},{"type":"function","name":"cancelListing","inputs":[{"name":"_listingId","type":"uint256","internalType":"uint256"}],"outputs":[],"stateMutability":"nonpayable"},{"type":"function","name":"eip712Domain","inputs":[],"outputs":[{"name":"fields","type":"bytes1","internalType":"bytes1"},{"name":"name","type":"string","internalType":"string"},{"name":"version","type":"string","internalType":"string"},{"name":"chainId","type":"uint256","internalType":"uint256"},{"name":"verifyingContract","type":"address","internalType":"address"},{"name":"salt","type":"bytes32","internalType":"bytes32"},{"name":"extensions","type":"uint256[]","internalType":"uint256[]"}],"stateMutability":"view"},{"type":"function","name":"getWhitelistNonce","inputs":[{"name":"buyer","type":"address","internalType":"address"}],"outputs":[{"name":"","type":"uint256","internalType":"uint256"}],"stateMutability":"view"},{"type":"function","name":"list","inputs":[{"name":"_nftContract","type":"address","internalType":"address"},{"name":"_tokenId","type":"uint256","internalType":"uint256"},{"name":"_price","type":"uint256","internalType":"uint256"}],"outputs":[],"stateMutability":"nonpayable"},{"type":"function","name":"listings","inputs":[{"name":"","type":"uint256","internalType":"uint256"}],"outputs":[{"name":"seller","type":"address","internalType":"address"},{"name":"nftContract","type":"address","internalType":"address"},{"name":"tokenId","type":"uint256","internalType":"uint256"},{"name":"price","type":"uint256","internalType":"uint256"},{"name":"isActive","type":"bool","internalType":"bool"}],"stateMutability":"view"},{"type":"function","name":"nextListingId","inputs":[],"outputs":[{"name":"","type":"uint256","internalType":"uint256"}],"stateMutability":"view"},{"type":"function","name":"paymentToken","inputs":[],"outputs":[{"name":"","type":"address","internalType":"contract IExtendedERC20"}],"stateMutability":"view"},{"type":"function","name":"permitBuy","inputs":[{"name":"buyer","type":"address","internalType":"address"},{"name":"listingId","type":"uint256","internalType":"uint256"},{"name":"deadline","type":"uint256","internalType":"uint256"},{"name":"v","type":"uint8","internalType":"uint8"},{"name":"r","type":"bytes32","internalType":"bytes32"},{"name":"s","type":"bytes32","internalType":"bytes32"}],"outputs":[],"stateMutability":"nonpayable"},{"type":"function","name":"setWhitelistAdmin","inputs":[{"name":"newAdmin","type":"address","internalType":"address"}],"outputs":[],"stateMutability":"nonpayable"},{"type":"function","name":"tokensReceived","inputs":[{"name":"from","type":"address","internalType":"address"},{"name":"amount","type":"uint256","internalType":"uint256"},{"name":"data","type":"bytes","internalType":"bytes"}],"outputs":[{"name":"","type":"bool","internalType":"bool"}],"stateMutability":"nonpayable"},{"type":"function","name":"whitelistAdmin","inputs":[],"outputs":[{"name":"","type":"address","internalType":"address"}],"stateMutability":"view"},{"type":"function","name":"whitelistNonces","inputs":[{"name":"","type":"address","internalType":"address"}],"outputs":[{"name":"","type":"uint256","internalType":"uint256"}],"stateMutability":"view"},{"type":"event","name":"EIP712DomainChanged","inputs":[],"anonymous":false},{"type":"event","name":"NFTListed","inputs":[{"name":"listingId","type":"uint256","indexed":true,"internalType":"uint256"},{"name":"seller","type":"address","indexed":true,"internalType":"address"},{"name":"nftContract","type":"address","indexed":true,"internalType":"address"},{"name":"tokenId","type":"uint256","indexed":false,"internalType":"uint256"},{"name":"price","type":"uint256","indexed":false,"internalType":"uint256"}],"anonymous":false},{"type":"event","name":"NFTListingCancelled","inputs":[{"name":"listingId","type":"uint256","indexed":true,"internalType":"uint256"}],"anonymous":false},{"type":"event","name":"NFTSold","inputs":[{"name":"listingId","type":"uint256","indexed":true,"internalType":"uint256"},{"name":"buyer","type":"address","indexed":true,"internalType":"address"},{"name":"seller","type":"address","indexed":true,"internalType":"address"},{"name":"nftContract","type":"address","indexed":false,"internalType":"address"},{"name":"tokenId","type":"uint256","indexed":false,"internalType":"uint256"},{"name":"price","type":"uint256","indexed":false,"internalType":"uint256"}],"anonymous":false},{"type":"event","name":"PermitBuyExecuted","inputs":[{"name":"buyer","type":"address","indexed":true,"internalType":"address"},{"name":"listingId","type":"uint256","indexed":true,"internalType":"uint256"},{"name":"price","type":"uint256","indexed":false,"internalType":"uint256"},{"name":"deadline","type":"uint256","indexed":false,"internalType":"uint256"}],"anonymous":false},{"type":"event","name":"WhitelistAdminChanged","inputs":[{"name":"oldAdmin","type":"address","indexed":true,"internalType":"address"},{"name":"newAdmin","type":"address","indexed":true,"internalType":"address"}],"anonymous":false},{"type":"error","name":"InvalidShortString","inputs":[]},{"type":"error","name":"PermitBuyExpiredSignature","inputs":[{"name":"deadline","type":"uint256","internalType":"uint256"}]},{"type":"error","name":"PermitBuyInsufficientAllowance","inputs":[{"name":"buyer","type":"address","internalType":"address"},{"name":"allowance","type":"uint256","internalType":"uint256"},{"name":"required","type":"uint256","internalType":"uint256"}]},{"type":"error","name":"PermitBuyInsufficientBalance","inputs":[{"name":"buyer","type":"address","internalType":"address"},{"name":"balance","type":"uint256","internalType":"uint256"},{"name":"required","type":"uint256","internalType":"uint256"}]},{"type":"error","name":"PermitBuyInvalidBuyer","inputs":[{"name":"expectedBuyer","type":"address","internalType":"address"},{"name":"actualBuyer","type":"address","internalType":"address"}]},{"type":"error","name":"PermitBuyInvalidListingId","inputs":[{"name":"expectedListingId","type":"uint256","internalType":"uint256"},{"name":"actualListingId","type":"uint256","internalType":"uint256"}]},{"type":"error","name":"PermitBuyInvalidSigner","inputs":[{"name":"signer","type":"address","internalType":"address"},{"name":"admin","type":"address","internalType":"address"}]},{"type":"error","name":"StringTooLong","inputs":[{"name":"str","type":"string","internalType":"string"}]}],"bytecode":{"object":"0x610160604052346100725761001a610015610137565b6102a0565b610022610077565b6132a1610a8c823960805181612a7b015260a05181612ab2015260c05181612a42015260e05181612ea601526101005181612ecb01526101205181612dad01526101405181612ded01526132a190f35b61007d565b60405190565b5f80fd5b601f801991011690565b634e487b7160e01b5f52604160045260245ffd5b906100a990610081565b810190811060018060401b038211176100c157604052565b61008b565b906100d96100d2610077565b928361009f565b565b5f80fd5b60018060a01b031690565b6100f3906100df565b90565b6100ff816100ea565b0361010657565b5f80fd5b90505190610117826100f6565b565b906020828203126101325761012f915f0161010a565b90565b6100db565b610155613d2d8038038061014a816100c6565b928339810190610119565b90565b60018060401b03811161017457610170602091610081565b0190565b61008b565b9061018b61018683610158565b6100c6565b918252565b5f7f4e46544d61726b65745632000000000000000000000000000000000000000000910152565b6101c1600b610179565b906101ce60208301610190565b565b6101d86101b7565b90565b5f7f3100000000000000000000000000000000000000000000000000000000000000910152565b61020c6001610179565b90610219602083016101db565b565b610223610202565b90565b5f1b90565b9061023c60018060a01b0391610226565b9181191691161790565b90565b61025d610258610262926100df565b610246565b6100df565b90565b61026e90610249565b90565b61027a90610265565b90565b90565b9061029561029061029c92610271565b61027d565b825461022b565b9055565b6102bc906102ac6101d0565b906102b561021b565b90916102e5565b6102c7336006610280565b565b90565b90565b60200190565b5190565b6102e290610265565b90565b61032a906102f561034594610379565b6103098161030360036102c9565b90610792565b610120526103218361031b60046102c9565b90610792565b610140526102cc565b61033c610336826102d5565b916102cf565b2060e0526102cc565b610357610351826102d5565b916102cf565b20610100524660a0526103686108a4565b608052610374306102d9565b60c052565b610382906104a7565b565b90565b61039b6103966103a092610384565b610246565b6100df565b90565b6103ac90610387565b90565b60209181520190565b60207f2063616e6e6f74206265207a65726f0000000000000000000000000000000000917f4e46544d61726b65743a207061796d656e7420746f6b656e20616464726573735f8201520152565b610412602f6040926103af565b61041b816103b8565b0190565b6104349060208101905f818303910152610405565b90565b1561043e57565b610446610077565b62461bcd60e51b81528061045c6004820161041f565b0390fd5b61046990610249565b90565b61047590610460565b90565b61048190610460565b90565b90565b9061049c6104976104a392610478565b610484565b825461022b565b9055565b6104d86104de916104d3816104cc6104c66104c15f6103a3565b6100ea565b916100ea565b1415610437565b61046c565b5f610487565b565b5f90565b90565b90565b6104fe6104f9610503926104e7565b610246565b6104e4565b90565b5190565b634e487b7160e01b5f52602260045260245ffd5b906001600283049216801561053e575b602083101461053957565b61050a565b91607f169161052e565b5f5260205f2090565b601f602091010490565b1b90565b9190600861057a9102916105745f198461055b565b9261055b565b9181191691161790565b61059861059361059d926104e4565b610246565b6104e4565b90565b90565b91906105b96105b46105c193610584565b6105a0565b90835461055f565b9055565b5f90565b6105db916105d56105c5565b916105a3565b565b5b8181106105e9575050565b806105f65f6001936105c9565b016105de565b9190601f811161060c575b505050565b61061861063d93610548565b90602061062484610551565b83019310610645575b61063690610551565b01906105dd565b5f8080610607565b91506106368192905061062d565b1c90565b90610667905f1990600802610653565b191690565b8161067691610657565b906002021790565b9061068881610506565b9060018060401b038211610746576106aa826106a4855461051e565b856105fc565b602090601f83116001146106de579180916106cd935f926106d2575b505061066c565b90555b565b90915001515f806106c6565b601f198316916106ed85610548565b925f5b81811061072e57509160029391856001969410610714575b505050020190556106d0565b610724910151601f841690610657565b90555f8080610708565b919360206001819287870151815501950192016106f0565b61008b565b906107559161067e565b565b90565b90565b61077161076c61077692610757565b610226565b61075a565b90565b61078360ff61075d565b90565b61078f9061075a565b90565b9061079b6104e0565b506107ad6107a8836102cc565b6102d5565b6107c06107ba60206104ea565b916104e4565b105f146107d457506107d190610a01565b90565b5f6107e26107e89392610915565b0161074b565b6107f86107f3610779565b610786565b90565b5f90565b7f8b73c3c69bb8fe3d512ecc4cf759cc79239f7b179b0ffacaa9a75d522b39400f90565b61082d905161075a565b90565b6108399061075a565b9052565b610846906104e4565b9052565b610853906100ea565b9052565b909594926108a29461089161089b9261088760809661087d60a088019c5f890190610830565b6020870190610830565b6040850190610830565b606083019061083d565b019061084a565b565b6108ac6107fb565b506108b56107ff565b6108ff6108c260e0610823565b916108f06108d1610100610823565b466108db306102d9565b916108e4610077565b96879560208701610857565b6020820181038252038261009f565b61091161090b826102d5565b916102cf565b2090565b90565b90565b61092f61092a61093492610918565b610246565b6104e4565b90565b90825f9392825e0152565b61096161096a60209361096f9361095881610506565b938480936103af565b95869101610937565b610081565b0190565b6109889160208201915f818403910152610942565b90565b6109a56109a061099a836102d5565b926102cf565b610823565b90602081106109b3575b5090565b6109c5905f199060200360080261055b565b165f6109af565b5f1c90565b6109dd6109e2916109cc565b610584565b90565b6109f96109f46109fe926104e4565b610226565b61075a565b90565b610a096104e0565b50610a13816102cc565b90610a1d826102d5565b610a30610a2a601f61091b565b916104e4565b11610a655750610a5d81610a57610a51610a4c610a629561098b565b6109d1565b916102d5565b176109e5565b610786565b90565b610a8790610a71610077565b91829163305a27a960e01b835260048301610973565b0390fdfe60806040526004361015610013575b610b2f565b61001d5f3561010c565b8063042dca711461010757806311fdcc7e146101025780631d833ec5146100fd5780633013ce29146100f8578063305a67a8146100f35780633644e515146100ee5780634adbe551146100e95780637bd2fc7d146100e457806384b0196e146100df578063a8d49e64146100da578063aaccf1ec146100d5578063d0314263146100d0578063d96a094a146100cb578063dda342bb146100c65763de74e57b0361000e57610af6565b610989565b61091c565b6108e3565b6107ea565b6107a8565b61076c565b6105cd565b6104e8565b610451565b61041e565b6103a3565b610301565b610269565b610234565b60e01c90565b60405190565b5f80fd5b5f80fd5b5f80fd5b60018060a01b031690565b61013890610124565b90565b6101448161012f565b0361014b57565b5f80fd5b9050359061015c8261013b565b565b9060208282031261017757610174915f0161014f565b90565b61011c565b90565b61019361018e61019892610124565b61017c565b610124565b90565b6101a49061017f565b90565b6101b09061019b565b90565b906101bd906101a7565b5f5260205260405f2090565b1c90565b90565b6101e09060086101e593026101c9565b6101cd565b90565b906101f391546101d0565b90565b61020c906102076005915f926101b3565b6101e8565b90565b90565b61021b9061020f565b9052565b9190610232905f60208501940190610212565b565b346102645761026061024f61024a36600461015e565b6101f6565b610257610112565b9182918261021f565b0390f35b610118565b346102995761029561028461027f36600461015e565b610b37565b61028c610112565b9182918261021f565b0390f35b610118565b5f9103126102a857565b61011c565b7f806eab964914cab2a2031c7614f2be00ee8da340c473f939a7f99940b671dbfb90565b6102d96102ad565b90565b90565b6102e8906102dc565b9052565b91906102ff905f602085019401906102df565b565b346103315761031136600461029e565b61032d61031c6102d1565b610324610112565b918291826102ec565b0390f35b610118565b60018060a01b031690565b61035190600861035693026101c9565b610336565b90565b906103649154610341565b90565b6103725f5f90610359565b90565b61037e9061019b565b90565b61038a90610375565b9052565b91906103a1905f60208501940190610381565b565b346103d3576103b336600461029e565b6103cf6103be610367565b6103c6610112565b9182918261038e565b0390f35b610118565b6103e18161020f565b036103e857565b5f80fd5b905035906103f9826103d8565b565b9060208282031261041457610411915f016103ec565b90565b61011c565b5f0190565b3461044c576104366104313660046103fb565b610d4e565b61043e610112565b8061044881610419565b0390f35b610118565b346104815761046136600461029e565b61047d61046c610e14565b610474610112565b918291826102ec565b0390f35b610118565b60018060a01b031690565b6104a19060086104a693026101c9565b610486565b90565b906104b49154610491565b90565b6104c360065f906104a9565b90565b6104cf9061012f565b9052565b91906104e6905f602085019401906104c6565b565b34610518576104f836600461029e565b6105146105036104b7565b61050b610112565b918291826104d3565b0390f35b610118565b60ff1690565b61052c8161051d565b0361053357565b5f80fd5b9050359061054482610523565b565b61054f816102dc565b0361055657565b5f80fd5b9050359061056782610546565b565b909160c0828403126105c857610581835f840161014f565b9261058f81602085016103ec565b9261059d82604083016103ec565b926105c56105ae8460608501610537565b936105bc816080860161055a565b9360a00161055a565b90565b61011c565b34610602576105ec6105e0366004610569565b94939093929192611147565b6105f4610112565b806105fe81610419565b0390f35b610118565b60ff60f81b1690565b61061990610607565b9052565b5190565b60209181520190565b90825f9392825e0152565b601f801991011690565b61065e61066760209361066c936106558161061d565b93848093610621565b9586910161062a565b610635565b0190565b5190565b60209181520190565b60200190565b61068c9061020f565b9052565b9061069d81602093610683565b0190565b60200190565b906106c46106be6106b784610670565b8093610674565b9261067d565b905f5b8181106106d45750505090565b9091926106ed6106e76001928651610690565b946106a1565b91019190916106c7565b9395919461074861073d61075c9561072f610752956107699c9a61072260e08c01925f8d0190610610565b8a820360208c015261063f565b9088820360408a015261063f565b976060870190610212565b60808501906104c6565b60a08301906102df565b60c08184039101526106a7565b90565b346107a35761077c36600461029e565b61079f610787611684565b93610796979597939193610112565b978897886106f7565b0390f35b610118565b346107d6576107c06107bb36600461015e565b61189d565b6107c8610112565b806107d281610419565b0390f35b610118565b6107e760025f906101e8565b90565b3461081a576107fa36600461029e565b6108166108056107db565b61080d610112565b9182918261021f565b0390f35b610118565b5f80fd5b5f80fd5b5f80fd5b909182601f830112156108655781359167ffffffffffffffff831161086057602001926001830284011161085b57565b610827565b610823565b61081f565b916060838303126108b757610881825f850161014f565b9261088f83602083016103ec565b92604082013567ffffffffffffffff81116108b2576108ae920161082b565b9091565b610120565b61011c565b151590565b6108ca906108bc565b9052565b91906108e1905f602085019401906108c1565b565b34610917576109136109026108f936600461086a565b92919091611c30565b61090a610112565b918291826108ce565b0390f35b610118565b3461094a5761093461092f3660046103fb565b611ed2565b61093c610112565b8061094681610419565b0390f35b610118565b90916060828403126109845761098161096a845f850161014f565b9361097881602086016103ec565b936040016103ec565b90565b61011c565b346109b8576109a261099c36600461094f565b9161263f565b6109aa610112565b806109b481610419565b0390f35b610118565b6109d16109cc6109d69261020f565b61017c565b61020f565b90565b906109e3906109bd565b5f5260205260405f2090565b5f1c90565b610a00610a05916109ef565b610486565b90565b610a1290546109f4565b90565b610a21610a26916109ef565b6101cd565b90565b610a339054610a15565b90565b60ff1690565b610a48610a4d916109ef565b610a36565b90565b610a5a9054610a3c565b90565b610a689060016109d9565b610a735f8201610a08565b91610a8060018301610a08565b91610a8d60028201610a29565b91610aa66004610a9f60038501610a29565b9301610a50565b90565b90959492610af494610ae3610aed92610ad9608096610acf60a088019c5f8901906104c6565b60208701906104c6565b6040850190610212565b6060830190610212565b01906108c1565b565b34610b2a57610b26610b11610b0c3660046103fb565b610a5d565b91610b1d959395610112565b95869586610aa9565b0390f35b610118565b5f80fd5b5f90565b610b4e610b5391610b46610b33565b5060056101b3565b610a29565b90565b90565b60207f7869737400000000000000000000000000000000000000000000000000000000917f4e46544d61726b65743a206c697374696e6720696420646f6573206e6f7420655f8201520152565b610bb36024604092610621565b610bbc81610b59565b0190565b610bd59060208101905f818303910152610ba6565b90565b15610bdf57565b610be7610112565b62461bcd60e51b815280610bfd60048201610bc0565b0390fd5b5f7f4e46544d61726b65743a206c697374696e67206973206e6f7420616374697665910152565b610c3460208092610621565b610c3d81610c01565b0190565b610c569060208101905f818303910152610c28565b90565b15610c6057565b610c68610112565b62461bcd60e51b815280610c7e60048201610c41565b0390fd5b5f7f4e46544d61726b65743a2063616c6c6572206973206e6f742073656c6c657200910152565b610cb6601f602092610621565b610cbf81610c82565b0190565b610cd89060208101905f818303910152610ca9565b90565b15610ce257565b610cea610112565b62461bcd60e51b815280610d0060048201610cc3565b0390fd5b5f1b90565b90610d1560ff91610d04565b9181191691161790565b610d28906108bc565b90565b90565b90610d43610d3e610d4a92610d1f565b610d2b565b8254610d09565b9055565b610dce610d65610d60600184906109d9565b610b56565b610d8a83610d84610d7e610d796002610a29565b61020f565b9161020f565b10610bd8565b610d9e610d9960048301610a50565b610c59565b610dc4610dac5f8301610a08565b610dbe610db83361012f565b9161012f565b14610cdb565b60045f9101610d2e565b610df87fc46ea9fee66461db46a6ac51d560a291533b66981fb9c09ca8948e8dc8d42472916109bd565b90610e01610112565b80610e0b81610419565b0390a2565b5f90565b610e1c610e10565b50610e25612a28565b90565b60207f2065786973740000000000000000000000000000000000000000000000000000917f4e46544d61726b657456323a206c697374696e6720696420646f6573206e6f745f8201520152565b610e826026604092610621565b610e8b81610e28565b0190565b610ea49060208101905f818303910152610e75565b90565b15610eae57565b610eb6610112565b62461bcd60e51b815280610ecc60048201610e8f565b0390fd5b60207f7665000000000000000000000000000000000000000000000000000000000000917f4e46544d61726b657456323a206c697374696e67206973206e6f7420616374695f8201520152565b610f2a6022604092610621565b610f3381610ed0565b0190565b610f4c9060208101905f818303910152610f1d565b90565b15610f5657565b610f5e610112565b62461bcd60e51b815280610f7460048201610f37565b0390fd5b610f84610f89916109ef565b610336565b90565b610f969054610f78565b90565b5f80fd5b634e487b7160e01b5f52604160045260245ffd5b90610fbb90610635565b810190811067ffffffffffffffff821117610fd557604052565b610f9d565b60e01b90565b90505190610fed826103d8565b565b9060208282031261100857611005915f01610fe0565b90565b61011c565b611015610112565b3d5f823e3d90fd5b60409061104661104d949695939661103c60608401985f8501906104c6565b6020830190610212565b0190610212565b565b6110589061019b565b90565b91602061107c92949361107560408201965f8301906104c6565b01906104c6565b565b611087816108bc565b0361108e57565b5f80fd5b9050519061109f8261107e565b565b906020828203126110ba576110b7915f01611092565b90565b61011c565b6040906110e86110ef94969593966110de60608401985f8501906104c6565b60208301906104c6565b0190610212565b565b6110fa9061017f565b90565b611106906110f1565b90565b6111129061019b565b90565b5f91031261111f57565b61011c565b91602061114592949361113e60408201965f830190610212565b0190610212565b565b939461116a929593919361115d86868991612b8a565b8592858891929394612ca1565b61117e611179600183906109d9565b610b56565b916111a48261119e6111986111936002610a29565b61020f565b9161020f565b10610ea7565b6111b86111b360048501610a50565b610f4f565b6111f860206111ce6111c95f610f8c565b610375565b6370a08231906111ed85926111e1610112565b95869485938493610fda565b8352600483016104d3565b03915afa9081156115a9575f9161157b575b508061122961122361121e60038801610a29565b61020f565b9161020f565b1061154e575061124061123b5f610f8c565b610375565b602063dd62ed3e91839061126e6112563061104f565b94611279611262610112565b96879586948594610fda565b84526004840161105b565b03915afa908115611549575f9161151b575b50806112aa6112a461129f60038801610a29565b61020f565b9161020f565b106114ee57506112bd5f60048501610d2e565b6112ce6112c95f610f8c565b610375565b60206323b872dd91839061130b5f6112e7818a01610a08565b956113166112f760038c01610a29565b6112ff610112565b98899788968795610fda565b8552600485016110bf565b03925af180156114e9576114bd575b5061134261133d61133860018601610a08565b6110fd565b611109565b906323b872dd6113535f8601610a08565b829361136160028801610a29565b92813b156114b8575f61138791611392829661137b610112565b998a9788968795610fda565b8552600485016110bf565b03925af19081156114b35761143992600392611487575b5083816113b75f8801610a08565b906113c460018901610a08565b926113d160028a01610a29565b6113dc878b01610a29565b9461142e61141c6114166114107f88f63fa89cb6cf4da421a869453f09e48f4a2e670eb9dac1f4cd89afa5333372966109bd565b966101a7565b966101a7565b96611425610112565b9384938461101d565b0390a4929301610a29565b9261146d6114677fadbfe75b6432ad913d529185edc6190c1eb52d5693802bf5b0ef8795886c5487936101a7565b936109bd565b93611482611479610112565b92839283611124565b0390a3565b6114a6905f3d81116114ac575b61149e8183610fb1565b810190611115565b5f6113a9565b503d611494565b61100d565b610f99565b6114dd9060203d81116114e2575b6114d58183610fb1565b8101906110a1565b611325565b503d6114cb565b61100d565b61151761150060038694939401610a29565b5f938493632ea5e96160e21b85526004850161101d565b0390fd5b61153c915060203d8111611542575b6115348183610fb1565b810190610fef565b5f61128b565b503d61152a565b61100d565b61157761156060038694939401610a29565b5f93849363316b8dfb60e11b85526004850161101d565b0390fd5b61159c915060203d81116115a2575b6115948183610fb1565b810190610fef565b5f61120a565b503d61158a565b61100d565b5f90565b606090565b5f90565b606090565b6115c99061019b565b90565b90565b6115e36115de6115e8926115cc565b610d04565b6102dc565b90565b6115ff6115fa611604926115cc565b61017c565b61020f565b90565b9061161a611613610112565b9283610fb1565b565b67ffffffffffffffff81116116345760208091020190565b610f9d565b9061164b6116468361161c565b611607565b918252565b369037565b9061167a61166283611639565b92602080611670869361161c565b9201910390611650565b565b600f60f81b90565b61168c6115ae565b506116956115b2565b5061169e6115b2565b506116a7610b33565b506116b06115b7565b506116b9610e10565b506116c26115bb565b506116cb612d9f565b906116d4612ddf565b9046906116e0306115c0565b906116ea5f6115cf565b906116fc6116f75f6115eb565b611655565b9061170561167c565b96959493929190565b5f7f4e46544d61726b657456323a2063616c6c6572206973206e6f742061646d696e910152565b61174160208092610621565b61174a8161170e565b0190565b6117639060208101905f818303910152611735565b90565b1561176d57565b611775610112565b62461bcd60e51b81528061178b6004820161174e565b0390fd5b6117a361179e6117a8926115cc565b61017c565b610124565b90565b6117b49061178f565b90565b60207f207a65726f206164647265737300000000000000000000000000000000000000917f4e46544d61726b657456323a206e65772061646d696e2063616e6e6f742062655f8201520152565b611811602d604092610621565b61181a816117b7565b0190565b6118339060208101905f818303910152611804565b90565b1561183d57565b611845610112565b62461bcd60e51b81528061185b6004820161181e565b0390fd5b9061187060018060a01b0391610d04565b9181191691161790565b90565b9061189261188d611899926101a7565b61187a565b825461185f565b9055565b6118c2336118bc6118b66118b16006610a08565b61012f565b9161012f565b14611766565b6118e7816118e06118da6118d55f6117ab565b61012f565b9161012f565b1415611836565b6118f16006610a08565b6118fc82600661187d565b9061193061192a7f6c0a8a9cbf7f807c711446ed20f10fbaeea4c098ff4f08387a7f90feb60eb04c936101a7565b916101a7565b91611939610112565b8061194381610419565b0390a3565b5f90565b60207f20746f6b656e0000000000000000000000000000000000000000000000000000917f4e46544d61726b65743a2063616c6c6572206973206e6f74207061796d656e745f8201520152565b6119a66026604092610621565b6119af8161194c565b0190565b6119c89060208101905f818303910152611999565b90565b156119d257565b6119da610112565b62461bcd60e51b8152806119f0600482016119b3565b0390fd5b5090565b90565b611a0f611a0a611a14926119f8565b61017c565b61020f565b90565b5f7f4e46544d61726b65743a20696e76616c69642064617461206c656e6774680000910152565b611a4b601e602092610621565b611a5481611a17565b0190565b611a6d9060208101905f818303910152611a3e565b90565b15611a7757565b611a7f610112565b62461bcd60e51b815280611a9560048201611a58565b0390fd5b60207f6b656e0000000000000000000000000000000000000000000000000000000000917f4e46544d61726b65743a206e6f7420656e6f756768207061796d656e7420746f5f8201520152565b611af36023604092610621565b611afc81611a99565b0190565b611b159060208101905f818303910152611ae6565b90565b15611b1f57565b611b27610112565b62461bcd60e51b815280611b3d60048201611b00565b0390fd5b611b4a9061017f565b90565b611b5690611b41565b90565b611b629061019b565b90565b916020611b86929493611b7f60408201965f8301906104c6565b0190610212565b565b60207f6c6572206661696c656400000000000000000000000000000000000000000000917f4e46544d61726b65743a20746f6b656e207472616e7366657220746f2073656c5f8201520152565b611be2602a604092610621565b611beb81611b88565b0190565b611c049060208101905f818303910152611bd5565b90565b15611c0e57565b611c16610112565b62461bcd60e51b815280611c2c60048201611bef565b0390fd5b9192611c9c9193611c3f611948565b50611c6c33611c66611c60611c5b611c565f610f8c565b610375565b61012f565b9161012f565b146119cb565b611c93611c7a8284906119f4565b611c8d611c8760206119fb565b9161020f565b14611a70565b908101906103fb565b611cb0611cab600183906109d9565b610b56565b92611cc5611cc060048601610a50565b610c59565b611ced81611ce6611ce0611cdb60038901610a29565b61020f565b9161020f565b1015611b18565b611cfa5f60048601610d2e565b611d16611d11611d0c60018701610a08565b611b4d565b611b59565b6323b872dd611d265f8701610a08565b8592611d3460028901610a29565b92813b15611ecd575f611d5a91611d658296611d4e610112565b98899788968795610fda565b8552600485016110bf565b03925af18015611ec857611e9c575b506020611d88611d835f610f8c565b610375565b9163a9059cbb92611db75f611d9e818a01610a08565b9395611dc2611dab610112565b97889687958694610fda565b845260048401611b65565b03925af18015611e9757611ddd915f91611e69575b50611c07565b90611de95f8401610a08565b91611df660018501610a08565b93611e0f6003611e0860028401610a29565b9201610a29565b94611e61611e4f611e49611e437f88f63fa89cb6cf4da421a869453f09e48f4a2e670eb9dac1f4cd89afa5333372966109bd565b966101a7565b966101a7565b96611e58610112565b9384938461101d565b0390a4600190565b611e8a915060203d8111611e90575b611e828183610fb1565b8101906110a1565b5f611dd7565b503d611e78565b61100d565b611ebb905f3d8111611ec1575b611eb38183610fb1565b810190611115565b5f611d74565b503d611ea9565b61100d565b610f99565b611ee6611ee1600183906109d9565b610b56565b90611f0c81611f06611f00611efb6002610a29565b61020f565b9161020f565b10610bd8565b611f20611f1b60048401610a50565b610c59565b611f606020611f36611f315f610f8c565b610375565b6370a0823190611f553392611f49610112565b95869485938493610fda565b8352600483016104d3565b03915afa80156121a957611f9a915f9161217b575b50611f93611f8d611f8860038701610a29565b61020f565b9161020f565b1015611b18565b611fa75f60048401610d2e565b611fb8611fb35f610f8c565b610375565b60206323b872dd913390611ff55f611fd1818901610a08565b95612000611fe160038b01610a29565b611fe9610112565b98899788968795610fda565b8552600485016110bf565b03925af180156121765761214a575b5061202c61202761202260018501610a08565b611b4d565b611b59565b6323b872dd61203c5f8501610a08565b339261204a60028701610a29565b92813b15612145575f6120709161207b8296612064610112565b98899788968795610fda565b8552600485016110bf565b03925af1801561214057612114575b50336120975f8401610a08565b916120a460018501610a08565b936120bd60036120b660028401610a29565b9201610a29565b9461210f6120fd6120f76120f17f88f63fa89cb6cf4da421a869453f09e48f4a2e670eb9dac1f4cd89afa5333372966109bd565b966101a7565b966101a7565b96612106610112565b9384938461101d565b0390a4565b612133905f3d8111612139575b61212b8183610fb1565b810190611115565b5f61208a565b503d612121565b61100d565b610f99565b61216a9060203d811161216f575b6121628183610fb1565b8101906110a1565b61200f565b503d612158565b61100d565b61219c915060203d81116121a2575b6121948183610fb1565b810190610fef565b5f611f75565b503d61218a565b61100d565b60207f207468616e207a65726f00000000000000000000000000000000000000000000917f4e46544d61726b65743a207072696365206d75737420626520677265617465725f8201520152565b612208602a604092610621565b612211816121ae565b0190565b61222a9060208101905f8183039101526121fb565b90565b1561223457565b61223c610112565b62461bcd60e51b81528061225260048201612215565b0390fd5b60207f63616e6e6f74206265207a65726f000000000000000000000000000000000000917f4e46544d61726b65743a206e667420636f6e74726163742061646472657373205f8201520152565b6122b0602e604092610621565b6122b981612256565b0190565b6122d29060208101905f8183039101526122a3565b90565b156122dc57565b6122e4610112565b62461bcd60e51b8152806122fa600482016122bd565b0390fd5b600161230a910161020f565b90565b5f7f4e46544d61726b65743a206e667420697320616c7265616479206c6973746564910152565b61234060208092610621565b6123498161230d565b0190565b6123629060208101905f818303910152612334565b90565b905051906123728261013b565b565b9060208282031261238d5761238a915f01612365565b90565b61011c565b60207f6572000000000000000000000000000000000000000000000000000000000000917f4e46544d61726b65743a2063616c6c6572206973206e6f7420746865206f776e5f8201520152565b6123ec6022604092610621565b6123f581612392565b0190565b61240e9060208101905f8183039101526123df565b90565b1561241857565b612420610112565b62461bcd60e51b815280612436600482016123f9565b0390fd5b6124439061019b565b90565b60207f6420746f207472616e736665722074686973204e465400000000000000000000917f4e46544d61726b65743a206d61726b6574206973206e6f7420617070726f76655f8201520152565b6124a06036604092610621565b6124a981612446565b0190565b6124c29060208101905f818303910152612493565b90565b156124cc57565b6124d4610112565b62461bcd60e51b8152806124ea600482016124ad565b0390fd5b6124f860a0611607565b90565b906125059061012f565b9052565b906125139061020f565b9052565b90612521906108bc565b9052565b61252f905161012f565b90565b61253c905161020f565b90565b9061254b5f1991610d04565b9181191691161790565b90565b9061256d612568612574926109bd565b612555565b825461253f565b9055565b61258290516108bc565b90565b906125fb60806004612601946125a85f82016125a25f8801612525565b9061187d565b6125c1600182016125bb60208801612525565b9061187d565b6125da600282016125d460408801612532565b90612558565b6125f3600382016125ed60608801612532565b90612558565b019201612578565b90610d2e565b565b9061260d91612585565b565b634e487b7160e01b5f52601160045260245ffd5b61262c9061020f565b5f19811461263a5760010190565b61260f565b90919261265e846126586126525f6115eb565b9161020f565b1161222d565b6126838261267c6126766126715f6117ab565b61012f565b9161012f565b14156122d5565b61268c5f6115eb565b5b806126a96126a361269e6002610a29565b61020f565b9161020f565b1015612765576126c560016126bf8184906109d9565b01610a08565b6126d76126d18561012f565b9161012f565b1480612735575b80612718575b6126f6576126f1906122fe565b61268d565b6126fe610112565b62461bcd60e51b8152806127146004820161234d565b0390fd5b50612730600461272a600184906109d9565b01610a50565b6126e4565b5061274d6002612747600184906109d9565b01610a29565b61275f6127598661020f565b9161020f565b146126de565b5092919061277281611b4d565b6127aa602061278083611b59565b636352211e9061279f8792612793610112565b95869485938493610fda565b83526004830161021f565b03915afa908115612a23575f916129f5575b50906127da826127d46127ce3361012f565b9161012f565b14612411565b6127e381611b59565b602063e985e9c59184906128116127f93061243a565b9461281c612805610112565b96879586948594610fda565b84526004840161105b565b03915afa9081156129f0575f916129c2575b508015612920575b61284091506124c5565b61284a6002610a29565b6128aa8261289985612890886128878b9161287e60019561287561286c6124ee565b995f8b016124fb565b602089016124fb565b60408701612509565b60608501612509565b60808301612517565b6128a5600184906109d9565b612603565b6128c66128bf6128ba6002610a29565b612623565b6002612558565b909192936129066129006128fa7fb0fe4922ac99799c17a4130d5c045ba2ecdf6e15b75b9ea84aaf0dc28724a42b946109bd565b946101a7565b946101a7565b9461291b612912610112565b92839283611124565b0390a4565b50602061292f61295992611b59565b63081812fc9061294e8792612942610112565b95869485938493610fda565b83526004830161021f565b03915afa80156129bd57612840915f9161298f575b5061298961298361297e3061243a565b61012f565b9161012f565b14612836565b6129b0915060203d81116129b6575b6129a88183610fb1565b810190612374565b5f61296e565b503d61299e565b61100d565b6129e3915060203d81116129e9575b6129db8183610fb1565b8101906110a1565b5f61282e565b503d6129d1565b61100d565b612a16915060203d8111612a1c575b612a0e8183610fb1565b810190612374565b5f6127bc565b503d612a04565b61100d565b612a30610e10565b50612a3a306115c0565b612a6c612a667f000000000000000000000000000000000000000000000000000000000000000061012f565b9161012f565b1480612aa8575b5f14612a9d577f000000000000000000000000000000000000000000000000000000000000000090565b612aa5612e90565b90565b5046612adc612ad67f000000000000000000000000000000000000000000000000000000000000000061020f565b9161020f565b14612a73565b60207f6f20616464726573730000000000000000000000000000000000000000000000917f4e46544d61726b657456323a2062757965722063616e6e6f74206265207a65725f8201520152565b612b3c6029604092610621565b612b4581612ae2565b0190565b612b5e9060208101905f818303910152612b2f565b90565b15612b6857565b612b70610112565b62461bcd60e51b815280612b8660048201612b49565b0390fd5b90612bb3612bd492612bac612ba6612ba15f6117ab565b61012f565b9161012f565b1415612b61565b612bce612bc8612bc36002610a29565b61020f565b9161020f565b10610ea7565b42612be7612be18361020f565b9161020f565b11612bef5750565b612c0a905f91829163c8e3f5af60e01b83526004830161021f565b0390fd5b612c43612c4a94612c39606094989795612c2f608086019a5f8701906102df565b60208501906104c6565b6040830190610212565b0190610212565b565b60200190565b5190565b612c5f9061051d565b9052565b612c98612c9f94612c8e606094989795612c84608086019a5f8701906102df565b6020850190612c56565b60408301906102df565b01906102df565b565b94612d0d90612cfa5f9593612ce260209896612cd4612cbe6102ad565b918c94612cc9610112565b9586948e8601612c0e565b8a8201810382520382610fb1565b612cf4612cee82612c52565b91612c4c565b20612f2e565b9293612d04610112565b94859485612c63565b838052039060015afa15612d9757612d255f51610d04565b80612d41612d3b612d366006610a08565b61012f565b9161012f565b03612d6e5750612d55612d6c9160056101b3565b612d66612d6182610a29565b612623565b90612558565b565b612d786006610a08565b90612d935f9283926359ec789760e01b84526004840161105b565b0390fd5b61100d565b90565b612da76115b2565b50612ddc7f0000000000000000000000000000000000000000000000000000000000000000612dd66003612d9c565b9061309a565b90565b612de76115b2565b50612e1c7f0000000000000000000000000000000000000000000000000000000000000000612e166004612d9c565b9061309a565b90565b7f8b73c3c69bb8fe3d512ecc4cf759cc79239f7b179b0ffacaa9a75d522b39400f90565b90959492612e8e94612e7d612e8792612e73608096612e6960a088019c5f8901906102df565b60208701906102df565b60408501906102df565b6060830190610212565b01906104c6565b565b612e98610e10565b50612ea1612e1f565b612f187f000000000000000000000000000000000000000000000000000000000000000091612f097f000000000000000000000000000000000000000000000000000000000000000046612ef4306115c0565b91612efd610112565b96879560208701612e43565b60208201810382520382610fb1565b612f2a612f2482612c52565b91612c4c565b2090565b612f4890612f3a610e10565b50612f43612a28565b6130e8565b90565b612f54906102dc565b90565b90565b612f6e612f69612f7392612f57565b610d04565b6102dc565b90565b612f8060ff612f5a565b90565b634e487b7160e01b5f52602260045260245ffd5b9060016002830492168015612fb7575b6020831014612fb257565b612f83565b91607f1691612fa7565b60209181520190565b5f5260205f2090565b905f9291805490612fed612fe683612f97565b8094612fc1565b916001811690815f146130445750600114613008575b505050565b6130159192939450612fca565b915f925b81841061302c57505001905f8080613003565b60018160209295939554848601520191019290613019565b92949550505060ff19168252151560200201905f8080613003565b9061306991612fd3565b90565b9061308c6130859261307c610112565b9384809261305f565b0383610fb1565b565b6130979061306c565b90565b906130a36115b2565b506130ad82612f4b565b6130c66130c06130bb612f76565b6102dc565b916102dc565b14155f146130db57506130d89061318f565b90565b6130e5915061308e565b90565b6042916130f3610e10565b50604051917f19010000000000000000000000000000000000000000000000000000000000008352600283015260228201522090565b67ffffffffffffffff811161314757613143602091610635565b0190565b610f9d565b9061315e61315983613129565b611607565b918252565b369037565b9061318d6131758361314c565b926020806131838693613129565b9201910390613163565b565b6131976115b2565b506131a18161320e565b906131b46131af60206119fb565b613168565b918252602082015290565b6131cb6131d0916109ef565b6109bd565b90565b6131e76131e26131ec92612f57565b61017c565b61020f565b90565b90565b61320661320161320b926131ef565b61017c565b61020f565b90565b6132236132289161321d610b33565b50612f4b565b6131bf565b61323260ff6131d3565b1680613247613241601f6131f2565b9161020f565b1161324f5790565b5f632cd44ac360e21b81528061326760048201610419565b0390fdfea2646970667358221220a75d35b88867355b2731abae9ed3535b968abc9835bcbb2b1141e9c1751819e264736f6c634300081e0033","linkReferences":{}},"methodIdentifiers":{"DOMAIN_SEPARATOR()":"3644e515","PERMIT_BUY_TYPEHASH()":"1d833ec5","buy(uint256)":"d96a094a","cancelListing(uint256)":"305a67a8","eip712Domain()":"84b0196e","getWhitelistNonce(address)":"11fdcc7e","list(address,uint256,uint256)":"dda342bb","listings(uint256)":"de74e57b","nextListingId()":"aaccf1ec","paymentToken()":"3013ce29","permitBuy(address,uint256,uint256,uint8,bytes32,bytes32)":"7bd2fc7d","setWhitelistAdmin(address)":"a8d49e64","tokensReceived(address,uint256,bytes)":"d0314263","whitelistAdmin()":"4adbe551","whitelistNonces(address)":"042dca71"},"id":61}