{"abi":[{"type":"constructor","inputs":[{"name":"_paymentTokenAddress","type":"address","internalType":"address"}],"stateMutability":"nonpayable"},{"type":"function","name":"DOMAIN_SEPARATOR","inputs":[],"outputs":[{"name":"","type":"bytes32","internalType":"bytes32"}],"stateMutability":"view"},{"type":"function","name":"PERMIT_BUY_TYPEHASH","inputs":[],"outputs":[{"name":"","type":"bytes32","internalType":"bytes32"}],"stateMutability":"view"},{"type":"function","name":"buy","inputs":[{"name":"_listingId","type":"string","internalType":"string"}],"outputs":[],"stateMutability":"nonpayable"},{"type":"function","name":"changeListingActive","inputs":[{"name":"_listingId","type":"string","internalType":"string"},{"name":"_isActive","type":"bool","internalType":"bool"}],"outputs":[],"stateMutability":"nonpayable"},{"type":"function","name":"eip712Domain","inputs":[],"outputs":[{"name":"fields","type":"bytes1","internalType":"bytes1"},{"name":"name","type":"string","internalType":"string"},{"name":"version","type":"string","internalType":"string"},{"name":"chainId","type":"uint256","internalType":"uint256"},{"name":"verifyingContract","type":"address","internalType":"address"},{"name":"salt","type":"bytes32","internalType":"bytes32"},{"name":"extensions","type":"uint256[]","internalType":"uint256[]"}],"stateMutability":"view"},{"type":"function","name":"getWhitelistNonce","inputs":[{"name":"buyer","type":"address","internalType":"address"}],"outputs":[{"name":"","type":"uint256","internalType":"uint256"}],"stateMutability":"view"},{"type":"function","name":"list","inputs":[{"name":"_nftContract","type":"address","internalType":"address"},{"name":"_tokenId","type":"uint256","internalType":"uint256"},{"name":"_price","type":"uint256","internalType":"uint256"}],"outputs":[],"stateMutability":"nonpayable"},{"type":"function","name":"listings","inputs":[{"name":"","type":"string","internalType":"string"}],"outputs":[{"name":"seller","type":"address","internalType":"address"},{"name":"nftContract","type":"address","internalType":"address"},{"name":"tokenId","type":"uint256","internalType":"uint256"},{"name":"price","type":"uint256","internalType":"uint256"},{"name":"isActive","type":"bool","internalType":"bool"}],"stateMutability":"view"},{"type":"function","name":"paymentToken","inputs":[],"outputs":[{"name":"","type":"address","internalType":"contract IExtendedERC20"}],"stateMutability":"view"},{"type":"function","name":"permitBuy","inputs":[{"name":"buyer","type":"address","internalType":"address"},{"name":"listingId","type":"string","internalType":"string"},{"name":"deadline","type":"uint256","internalType":"uint256"},{"name":"v","type":"uint8","internalType":"uint8"},{"name":"r","type":"bytes32","internalType":"bytes32"},{"name":"s","type":"bytes32","internalType":"bytes32"}],"outputs":[],"stateMutability":"nonpayable"},{"type":"function","name":"setWhitelistAdmin","inputs":[{"name":"newAdmin","type":"address","internalType":"address"}],"outputs":[],"stateMutability":"nonpayable"},{"type":"function","name":"tokensReceived","inputs":[{"name":"from","type":"address","internalType":"address"},{"name":"amount","type":"uint256","internalType":"uint256"},{"name":"data","type":"bytes","internalType":"bytes"}],"outputs":[{"name":"","type":"bool","internalType":"bool"}],"stateMutability":"nonpayable"},{"type":"function","name":"whitelistAdmin","inputs":[],"outputs":[{"name":"","type":"address","internalType":"address"}],"stateMutability":"view"},{"type":"function","name":"whitelistNonces","inputs":[{"name":"","type":"address","internalType":"address"}],"outputs":[{"name":"","type":"uint256","internalType":"uint256"}],"stateMutability":"view"},{"type":"event","name":"EIP712DomainChanged","inputs":[],"anonymous":false},{"type":"event","name":"NFTListed","inputs":[{"name":"listingId","type":"string","indexed":true,"internalType":"string"},{"name":"seller","type":"address","indexed":true,"internalType":"address"},{"name":"nftContract","type":"address","indexed":true,"internalType":"address"},{"name":"tokenId","type":"uint256","indexed":false,"internalType":"uint256"},{"name":"price","type":"uint256","indexed":false,"internalType":"uint256"}],"anonymous":false},{"type":"event","name":"NFTListingCancelled","inputs":[{"name":"listingId","type":"string","indexed":true,"internalType":"string"}],"anonymous":false},{"type":"event","name":"NFTSold","inputs":[{"name":"listingId","type":"string","indexed":true,"internalType":"string"},{"name":"buyer","type":"address","indexed":true,"internalType":"address"},{"name":"seller","type":"address","indexed":true,"internalType":"address"},{"name":"nftContract","type":"address","indexed":false,"internalType":"address"},{"name":"tokenId","type":"uint256","indexed":false,"internalType":"uint256"},{"name":"price","type":"uint256","indexed":false,"internalType":"uint256"}],"anonymous":false},{"type":"event","name":"PermitBuyExecuted","inputs":[{"name":"buyer","type":"address","indexed":true,"internalType":"address"},{"name":"listingId","type":"string","indexed":true,"internalType":"string"},{"name":"price","type":"uint256","indexed":false,"internalType":"uint256"},{"name":"deadline","type":"uint256","indexed":false,"internalType":"uint256"}],"anonymous":false},{"type":"event","name":"WhitelistAdminChanged","inputs":[{"name":"oldAdmin","type":"address","indexed":true,"internalType":"address"},{"name":"newAdmin","type":"address","indexed":true,"internalType":"address"}],"anonymous":false},{"type":"error","name":"InvalidShortString","inputs":[]},{"type":"error","name":"PermitBuyExpiredSignature","inputs":[{"name":"deadline","type":"uint256","internalType":"uint256"}]},{"type":"error","name":"PermitBuyInsufficientAllowance","inputs":[{"name":"buyer","type":"address","internalType":"address"},{"name":"allowance","type":"uint256","internalType":"uint256"},{"name":"required","type":"uint256","internalType":"uint256"}]},{"type":"error","name":"PermitBuyInsufficientBalance","inputs":[{"name":"buyer","type":"address","internalType":"address"},{"name":"balance","type":"uint256","internalType":"uint256"},{"name":"required","type":"uint256","internalType":"uint256"}]},{"type":"error","name":"PermitBuyInvalidBuyer","inputs":[{"name":"expectedBuyer","type":"address","internalType":"address"},{"name":"actualBuyer","type":"address","internalType":"address"}]},{"type":"error","name":"PermitBuyInvalidListingId","inputs":[{"name":"expectedListingId","type":"string","internalType":"string"},{"name":"actualListingId","type":"string","internalType":"string"}]},{"type":"error","name":"PermitBuyInvalidSigner","inputs":[{"name":"signer","type":"address","internalType":"address"},{"name":"admin","type":"address","internalType":"address"}]},{"type":"error","name":"StringTooLong","inputs":[{"name":"str","type":"string","internalType":"string"}]}],"bytecode":{"object":"0x610160604052348015610010575f5ffd5b50604051613faf380380613faf833981810160405281019061003291906103b0565b6040518060400160405280600b81526020017f4e46544d61726b657456320000000000000000000000000000000000000000008152506040518060400160405280600181526020017f3100000000000000000000000000000000000000000000000000000000000000815250825f73ffffffffffffffffffffffffffffffffffffffff168173ffffffffffffffffffffffffffffffffffffffff160361010d576040517f08c379a00000000000000000000000000000000000000000000000000000000081526004016101049061045b565b60405180910390fd5b805f5f6101000a81548173ffffffffffffffffffffffffffffffffffffffff021916908373ffffffffffffffffffffffffffffffffffffffff1602179055505061016160028361023d60201b90919060201c565b610120818152505061017d60038261023d60201b90919060201c565b6101408181525050818051906020012060e08181525050808051906020012061010081815250504660a081815250506101ba61028a60201b60201c565b608081815250503073ffffffffffffffffffffffffffffffffffffffff1660c08173ffffffffffffffffffffffffffffffffffffffff168152505050503360055f6101000a81548173ffffffffffffffffffffffffffffffffffffffff021916908373ffffffffffffffffffffffffffffffffffffffff16021790555050610915565b5f60208351101561025e57610257836102e460201b60201c565b9050610284565b8261026e8361034960201b60201c565b5f01908161027c91906106b6565b5060ff5f1b90505b92915050565b5f7f8b73c3c69bb8fe3d512ecc4cf759cc79239f7b179b0ffacaa9a75d522b39400f60e0516101005146306040516020016102c99594939291906107bb565b60405160208183030381529060405280519060200120905090565b5f5f829050601f8151111561033057826040517f305a27a90000000000000000000000000000000000000000000000000000000081526004016103279190610862565b60405180910390fd5b80518161033c906108af565b5f1c175f1b915050919050565b5f819050919050565b5f5ffd5b5f73ffffffffffffffffffffffffffffffffffffffff82169050919050565b5f61037f82610356565b9050919050565b61038f81610375565b8114610399575f5ffd5b50565b5f815190506103aa81610386565b92915050565b5f602082840312156103c5576103c4610352565b5b5f6103d28482850161039c565b91505092915050565b5f82825260208201905092915050565b7f4e46544d61726b65743a207061796d656e7420746f6b656e20616464726573735f8201527f2063616e6e6f74206265207a65726f0000000000000000000000000000000000602082015250565b5f610445602f836103db565b9150610450826103eb565b604082019050919050565b5f6020820190508181035f83015261047281610439565b9050919050565b5f81519050919050565b7f4e487b71000000000000000000000000000000000000000000000000000000005f52604160045260245ffd5b7f4e487b71000000000000000000000000000000000000000000000000000000005f52602260045260245ffd5b5f60028204905060018216806104f457607f821691505b602082108103610507576105066104b0565b5b50919050565b5f819050815f5260205f209050919050565b5f6020601f8301049050919050565b5f82821b905092915050565b5f600883026105697fffffffffffffffffffffffffffffffffffffffffffffffffffffffffffffffff8261052e565b610573868361052e565b95508019841693508086168417925050509392505050565b5f819050919050565b5f819050919050565b5f6105b76105b26105ad8461058b565b610594565b61058b565b9050919050565b5f819050919050565b6105d08361059d565b6105e46105dc826105be565b84845461053a565b825550505050565b5f5f905090565b6105fb6105ec565b6106068184846105c7565b505050565b5b818110156106295761061e5f826105f3565b60018101905061060c565b5050565b601f82111561066e5761063f8161050d565b6106488461051f565b81016020851015610657578190505b61066b6106638561051f565b83018261060b565b50505b505050565b5f82821c905092915050565b5f61068e5f1984600802610673565b1980831691505092915050565b5f6106a6838361067f565b9150826002028217905092915050565b6106bf82610479565b67ffffffffffffffff8111156106d8576106d7610483565b5b6106e282546104dd565b6106ed82828561062d565b5f60209050601f83116001811461071e575f841561070c578287015190505b610716858261069b565b86555061077d565b601f19841661072c8661050d565b5f5b828110156107535784890151825560018201915060208501945060208101905061072e565b86831015610770578489015161076c601f89168261067f565b8355505b6001600288020188555050505b505050505050565b5f819050919050565b61079781610785565b82525050565b6107a68161058b565b82525050565b6107b581610375565b82525050565b5f60a0820190506107ce5f83018861078e565b6107db602083018761078e565b6107e8604083018661078e565b6107f5606083018561079d565b61080260808301846107ac565b9695505050505050565b8281835e5f83830152505050565b5f601f19601f8301169050919050565b5f61083482610479565b61083e81856103db565b935061084e81856020860161080c565b6108578161081a565b840191505092915050565b5f6020820190508181035f83015261087a818461082a565b905092915050565b5f81519050919050565b5f819050602082019050919050565b5f6108a68251610785565b80915050919050565b5f6108b982610882565b826108c38461088c565b90506108ce8161089b565b9250602082101561090e576109097fffffffffffffffffffffffffffffffffffffffffffffffffffffffffffffffff8360200360080261052e565b831692505b5050919050565b60805160a05160c05160e0516101005161012051610140516136496109665f395f611c9301525f611c5801525f611ff001525f611fcf01525f611b9c01525f611bf201525f611c1b01526136495ff3fe608060405234801561000f575f5ffd5b50600436106100e8575f3560e01c80634adbe5511161008a578063a25570f811610064578063a25570f814610254578063a8d49e6414610270578063d03142631461028c578063dda342bb146102bc576100e8565b80634adbe551146101de57806377dec6c3146101fc57806384b0196e14610230576100e8565b80633013ce29116100c65780633013ce291461016a5780633644e515146101885780634736e295146101a6578063492cc769146101c2576100e8565b8063042dca71146100ec57806311fdcc7e1461011c5780631d833ec51461014c575b5f5ffd5b61010660048036038101906101019190612271565b6102d8565b60405161011391906122b4565b60405180910390f35b61013660048036038101906101319190612271565b6102ed565b60405161014391906122b4565b60405180910390f35b610154610333565b60405161016191906122e5565b60405180910390f35b610172610357565b60405161017f9190612359565b60405180910390f35b61019061037b565b60405161019d91906122e5565b60405180910390f35b6101c060048036038101906101bb91906124e3565b610389565b005b6101dc60048036038101906101d7919061253d565b6104ec565b005b6101e661089d565b6040516101f39190612593565b60405180910390f35b6102166004803603810190610211919061253d565b6108c2565b6040516102279594939291906125bb565b60405180910390f35b610238610956565b60405161024b979695949392919061275d565b60405180910390f35b61026e60048036038101906102699190612869565b6109fb565b005b61028a60048036038101906102859190612271565b610f32565b005b6102a660048036038101906102a1919061296b565b6110f2565b6040516102b391906129dc565b60405180910390f35b6102d660048036038101906102d191906129f5565b61156e565b005b6004602052805f5260405f205f915090505481565b5f60045f8373ffffffffffffffffffffffffffffffffffffffff1673ffffffffffffffffffffffffffffffffffffffff1681526020019081526020015f20549050919050565b7fb71dd4c344a42d11d673a327dd804c078c921a51c957e4450f85c291ec7772e181565b5f5f9054906101000a900473ffffffffffffffffffffffffffffffffffffffff1681565b5f610384611b99565b905090565b5f60018360405161039a9190612a7f565b90815260200160405180910390209050806004015f9054906101000a900460ff166103fa576040517f08c379a00000000000000000000000000000000000000000000000000000000081526004016103f190612adf565b60405180910390fd5b3373ffffffffffffffffffffffffffffffffffffffff16815f015f9054906101000a900473ffffffffffffffffffffffffffffffffffffffff1673ffffffffffffffffffffffffffffffffffffffff161461048a576040517f08c379a000000000000000000000000000000000000000000000000000000000815260040161048190612b47565b60405180910390fd5b81816004015f6101000a81548160ff021916908315150217905550826040516104b39190612a7f565b60405180910390207f28e1139e4b977e0dddf7deadd8adf0f03483577c0c4bc9fa740df4ad2dfee90160405160405180910390a2505050565b5f6001826040516104fd9190612a7f565b90815260200160405180910390209050806004015f9054906101000a900460ff1661055d576040517f08c379a000000000000000000000000000000000000000000000000000000000815260040161055490612adf565b60405180910390fd5b80600301545f5f9054906101000a900473ffffffffffffffffffffffffffffffffffffffff1673ffffffffffffffffffffffffffffffffffffffff166370a08231336040518263ffffffff1660e01b81526004016105bb9190612593565b602060405180830381865afa1580156105d6573d5f5f3e3d5ffd5b505050506040513d601f19601f820116820180604052508101906105fa9190612b79565b101561063b576040517f08c379a000000000000000000000000000000000000000000000000000000000815260040161063290612c14565b60405180910390fd5b5f816004015f6101000a81548160ff0219169083151502179055505f5f9054906101000a900473ffffffffffffffffffffffffffffffffffffffff1673ffffffffffffffffffffffffffffffffffffffff166323b872dd33835f015f9054906101000a900473ffffffffffffffffffffffffffffffffffffffff1684600301546040518463ffffffff1660e01b81526004016106d993929190612c32565b6020604051808303815f875af11580156106f5573d5f5f3e3d5ffd5b505050506040513d601f19601f820116820180604052508101906107199190612c7b565b50806001015f9054906101000a900473ffffffffffffffffffffffffffffffffffffffff1673ffffffffffffffffffffffffffffffffffffffff166323b872dd825f015f9054906101000a900473ffffffffffffffffffffffffffffffffffffffff163384600201546040518463ffffffff1660e01b81526004016107a093929190612c32565b5f604051808303815f87803b1580156107b7575f5ffd5b505af11580156107c9573d5f5f3e3d5ffd5b50505050805f015f9054906101000a900473ffffffffffffffffffffffffffffffffffffffff1673ffffffffffffffffffffffffffffffffffffffff163373ffffffffffffffffffffffffffffffffffffffff168360405161082b9190612a7f565b60405180910390207fa21b29feb46592df452c60761146cd41d48525657ed3975f06bbd7303ff40684846001015f9054906101000a900473ffffffffffffffffffffffffffffffffffffffff168560020154866003015460405161089193929190612ca6565b60405180910390a45050565b60055f9054906101000a900473ffffffffffffffffffffffffffffffffffffffff1681565b6001818051602081018201805184825260208301602085012081835280955050505050505f91509050805f015f9054906101000a900473ffffffffffffffffffffffffffffffffffffffff1690806001015f9054906101000a900473ffffffffffffffffffffffffffffffffffffffff1690806002015490806003015490806004015f9054906101000a900460ff16905085565b5f6060805f5f5f6060610967611c4f565b61096f611c8a565b46305f5f1b5f67ffffffffffffffff81111561098e5761098d61238a565b5b6040519080825280602002602001820160405280156109bc5781602001602082028036833780820191505090505b507f0f00000000000000000000000000000000000000000000000000000000000000959493929190965096509650965096509650965090919293949596565b610a06868686611cc5565b610a14868686868686611d7d565b5f600186604051610a259190612a7f565b90815260200160405180910390209050806004015f9054906101000a900460ff16610a85576040517f08c379a0000000000000000000000000000000000000000000000000000000008152600401610a7c90612d4b565b60405180910390fd5b5f5f5f9054906101000a900473ffffffffffffffffffffffffffffffffffffffff1673ffffffffffffffffffffffffffffffffffffffff166370a08231896040518263ffffffff1660e01b8152600401610adf9190612593565b602060405180830381865afa158015610afa573d5f5f3e3d5ffd5b505050506040513d601f19601f82011682018060405250810190610b1e9190612b79565b90508160030154811015610b7157878183600301546040517f62d71bf6000000000000000000000000000000000000000000000000000000008152600401610b6893929190612ca6565b60405180910390fd5b5f5f5f9054906101000a900473ffffffffffffffffffffffffffffffffffffffff1673ffffffffffffffffffffffffffffffffffffffff1663dd62ed3e8a306040518363ffffffff1660e01b8152600401610bcd929190612d69565b602060405180830381865afa158015610be8573d5f5f3e3d5ffd5b505050506040513d601f19601f82011682018060405250810190610c0c9190612b79565b90508260030154811015610c5f57888184600301546040517fba97a584000000000000000000000000000000000000000000000000000000008152600401610c5693929190612ca6565b60405180910390fd5b5f836004015f6101000a81548160ff0219169083151502179055505f5f9054906101000a900473ffffffffffffffffffffffffffffffffffffffff1673ffffffffffffffffffffffffffffffffffffffff166323b872dd8a855f015f9054906101000a900473ffffffffffffffffffffffffffffffffffffffff1686600301546040518463ffffffff1660e01b8152600401610cfd93929190612c32565b6020604051808303815f875af1158015610d19573d5f5f3e3d5ffd5b505050506040513d601f19601f82011682018060405250810190610d3d9190612c7b565b50826001015f9054906101000a900473ffffffffffffffffffffffffffffffffffffffff1673ffffffffffffffffffffffffffffffffffffffff166323b872dd845f015f9054906101000a900473ffffffffffffffffffffffffffffffffffffffff168b86600201546040518463ffffffff1660e01b8152600401610dc493929190612c32565b5f604051808303815f87803b158015610ddb575f5ffd5b505af1158015610ded573d5f5f3e3d5ffd5b50505050825f015f9054906101000a900473ffffffffffffffffffffffffffffffffffffffff1673ffffffffffffffffffffffffffffffffffffffff168973ffffffffffffffffffffffffffffffffffffffff1689604051610e4f9190612a7f565b60405180910390207fa21b29feb46592df452c60761146cd41d48525657ed3975f06bbd7303ff40684866001015f9054906101000a900473ffffffffffffffffffffffffffffffffffffffff1687600201548860030154604051610eb593929190612ca6565b60405180910390a487604051610ecb9190612a7f565b60405180910390208973ffffffffffffffffffffffffffffffffffffffff167f30cd793e5e9e3a00576d71be63696032b72a27324a92985eb7628c521e4d174c85600301548a604051610f1f929190612d90565b60405180910390a3505050505050505050565b60055f9054906101000a900473ffffffffffffffffffffffffffffffffffffffff1673ffffffffffffffffffffffffffffffffffffffff163373ffffffffffffffffffffffffffffffffffffffff1614610fc1576040517f08c379a0000000000000000000000000000000000000000000000000000000008152600401610fb890612e01565b60405180910390fd5b5f73ffffffffffffffffffffffffffffffffffffffff168173ffffffffffffffffffffffffffffffffffffffff160361102f576040517f08c379a000000000000000000000000000000000000000000000000000000000815260040161102690612e8f565b60405180910390fd5b5f60055f9054906101000a900473ffffffffffffffffffffffffffffffffffffffff1690508160055f6101000a81548173ffffffffffffffffffffffffffffffffffffffff021916908373ffffffffffffffffffffffffffffffffffffffff1602179055508173ffffffffffffffffffffffffffffffffffffffff168173ffffffffffffffffffffffffffffffffffffffff167f6c0a8a9cbf7f807c711446ed20f10fbaeea4c098ff4f08387a7f90feb60eb04c60405160405180910390a35050565b5f5f5f9054906101000a900473ffffffffffffffffffffffffffffffffffffffff1673ffffffffffffffffffffffffffffffffffffffff163373ffffffffffffffffffffffffffffffffffffffff1614611181576040517f08c379a000000000000000000000000000000000000000000000000000000000815260040161117890612f1d565b60405180910390fd5b5f83839050116111c6576040517f08c379a00000000000000000000000000000000000000000000000000000000081526004016111bd90612f85565b60405180910390fd5b5f83838080601f0160208091040260200160405190810160405280939291908181526020018383808284375f81840152601f19601f8201169050808301925050505050505090505f60018260405161121e9190612a7f565b90815260200160405180910390209050806004015f9054906101000a900460ff1661127e576040517f08c379a000000000000000000000000000000000000000000000000000000000815260040161127590612adf565b60405180910390fd5b80600301548610156112c5576040517f08c379a00000000000000000000000000000000000000000000000000000000081526004016112bc90612c14565b60405180910390fd5b5f816004015f6101000a81548160ff021916908315150217905550806001015f9054906101000a900473ffffffffffffffffffffffffffffffffffffffff1673ffffffffffffffffffffffffffffffffffffffff166323b872dd825f015f9054906101000a900473ffffffffffffffffffffffffffffffffffffffff168984600201546040518463ffffffff1660e01b815260040161136693929190612c32565b5f604051808303815f87803b15801561137d575f5ffd5b505af115801561138f573d5f5f3e3d5ffd5b505050505f5f5f9054906101000a900473ffffffffffffffffffffffffffffffffffffffff1673ffffffffffffffffffffffffffffffffffffffff1663a9059cbb835f015f9054906101000a900473ffffffffffffffffffffffffffffffffffffffff16896040518363ffffffff1660e01b8152600401611411929190612fa3565b6020604051808303815f875af115801561142d573d5f5f3e3d5ffd5b505050506040513d601f19601f820116820180604052508101906114519190612c7b565b905080611493576040517f08c379a000000000000000000000000000000000000000000000000000000000815260040161148a9061303a565b60405180910390fd5b815f015f9054906101000a900473ffffffffffffffffffffffffffffffffffffffff1673ffffffffffffffffffffffffffffffffffffffff168873ffffffffffffffffffffffffffffffffffffffff16846040516114f19190612a7f565b60405180910390207fa21b29feb46592df452c60761146cd41d48525657ed3975f06bbd7303ff40684856001015f9054906101000a900473ffffffffffffffffffffffffffffffffffffffff168660020154876003015460405161155793929190612ca6565b60405180910390a460019350505050949350505050565b5f81116115b0576040517f08c379a00000000000000000000000000000000000000000000000000000000081526004016115a7906130c8565b60405180910390fd5b5f73ffffffffffffffffffffffffffffffffffffffff168373ffffffffffffffffffffffffffffffffffffffff160361161e576040517f08c379a000000000000000000000000000000000000000000000000000000000815260040161161590613156565b60405180910390fd5b5f8390505f8173ffffffffffffffffffffffffffffffffffffffff16636352211e856040518263ffffffff1660e01b815260040161165c91906122b4565b602060405180830381865afa158015611677573d5f5f3e3d5ffd5b505050506040513d601f19601f8201168201806040525081019061169b9190613188565b90503373ffffffffffffffffffffffffffffffffffffffff168173ffffffffffffffffffffffffffffffffffffffff161461170b576040517f08c379a000000000000000000000000000000000000000000000000000000000815260040161170290613223565b60405180910390fd5b8173ffffffffffffffffffffffffffffffffffffffff1663e985e9c582306040518363ffffffff1660e01b8152600401611746929190612d69565b602060405180830381865afa158015611761573d5f5f3e3d5ffd5b505050506040513d601f19601f820116820180604052508101906117859190612c7b565b8061183257503073ffffffffffffffffffffffffffffffffffffffff168273ffffffffffffffffffffffffffffffffffffffff1663081812fc866040518263ffffffff1660e01b81526004016117db91906122b4565b602060405180830381865afa1580156117f6573d5f5f3e3d5ffd5b505050506040513d601f19601f8201168201806040525081019061181a9190613188565b73ffffffffffffffffffffffffffffffffffffffff16145b611871576040517f08c379a0000000000000000000000000000000000000000000000000000000008152600401611868906132b1565b60405180910390fd5b5f8585604051602001611885929190613334565b60405160208183030381529060405290505f6001826040516118a79190612a7f565b90815260200160405180910390206040518060a00160405290815f82015f9054906101000a900473ffffffffffffffffffffffffffffffffffffffff1673ffffffffffffffffffffffffffffffffffffffff1673ffffffffffffffffffffffffffffffffffffffff168152602001600182015f9054906101000a900473ffffffffffffffffffffffffffffffffffffffff1673ffffffffffffffffffffffffffffffffffffffff1673ffffffffffffffffffffffffffffffffffffffff1681526020016002820154815260200160038201548152602001600482015f9054906101000a900460ff1615151515815250509050858160400151036119df576040517f08c379a00000000000000000000000000000000000000000000000000000000081526004016119d6906133a9565b60405180910390fd5b6040518060a001604052808473ffffffffffffffffffffffffffffffffffffffff1681526020018873ffffffffffffffffffffffffffffffffffffffff16815260200187815260200186815260200160011515815250600183604051611a459190612a7f565b90815260200160405180910390205f820151815f015f6101000a81548173ffffffffffffffffffffffffffffffffffffffff021916908373ffffffffffffffffffffffffffffffffffffffff1602179055506020820151816001015f6101000a81548173ffffffffffffffffffffffffffffffffffffffff021916908373ffffffffffffffffffffffffffffffffffffffff16021790555060408201518160020155606082015181600301556080820151816004015f6101000a81548160ff0219169083151502179055509050508673ffffffffffffffffffffffffffffffffffffffff168373ffffffffffffffffffffffffffffffffffffffff1683604051611b4f9190612a7f565b60405180910390207f32e304293162354fd031a82b16650b13445b70dd2f94ece18258ba5e092f388b8989604051611b88929190612d90565b60405180910390a450505050505050565b5f7f000000000000000000000000000000000000000000000000000000000000000073ffffffffffffffffffffffffffffffffffffffff163073ffffffffffffffffffffffffffffffffffffffff16148015611c1457507f000000000000000000000000000000000000000000000000000000000000000046145b15611c41577f00000000000000000000000000000000000000000000000000000000000000009050611c4c565b611c49611fab565b90505b90565b6060611c8560027f000000000000000000000000000000000000000000000000000000000000000061204090919063ffffffff16565b905090565b6060611cc060037f000000000000000000000000000000000000000000000000000000000000000061204090919063ffffffff16565b905090565b5f73ffffffffffffffffffffffffffffffffffffffff168373ffffffffffffffffffffffffffffffffffffffff1603611d33576040517f08c379a0000000000000000000000000000000000000000000000000000000008152600401611d2a90613437565b60405180910390fd5b80421115611d7857806040517fc8e3f5af000000000000000000000000000000000000000000000000000000008152600401611d6f91906122b4565b60405180910390fd5b505050565b5f7fb71dd4c344a42d11d673a327dd804c078c921a51c957e4450f85c291ec7772e1878787604051602001611db59493929190613455565b6040516020818303038152906040528051906020012090505f611dd7826120ed565b90505f6001828787876040515f8152602001604052604051611dfc94939291906134ae565b6020604051602081039080840390855afa158015611e1c573d5f5f3e3d5ffd5b50505060206040510351905060055f9054906101000a900473ffffffffffffffffffffffffffffffffffffffff1673ffffffffffffffffffffffffffffffffffffffff168173ffffffffffffffffffffffffffffffffffffffff1614611edc578060055f9054906101000a900473ffffffffffffffffffffffffffffffffffffffff166040517f59ec7897000000000000000000000000000000000000000000000000000000008152600401611ed3929190612d69565b60405180910390fd5b3373ffffffffffffffffffffffffffffffffffffffff168973ffffffffffffffffffffffffffffffffffffffff1614611f4e5788336040517fad3bf453000000000000000000000000000000000000000000000000000000008152600401611f45929190612d69565b60405180910390fd5b60045f8a73ffffffffffffffffffffffffffffffffffffffff1673ffffffffffffffffffffffffffffffffffffffff1681526020019081526020015f205f815480929190611f9b9061351e565b9190505550505050505050505050565b5f7f8b73c3c69bb8fe3d512ecc4cf759cc79239f7b179b0ffacaa9a75d522b39400f7f00000000000000000000000000000000000000000000000000000000000000007f00000000000000000000000000000000000000000000000000000000000000004630604051602001612025959493929190613565565b60405160208183030381529060405280519060200120905090565b606060ff5f1b831461205c5761205583612106565b90506120e7565b818054612068906135e3565b80601f0160208091040260200160405190810160405280929190818152602001828054612094906135e3565b80156120df5780601f106120b6576101008083540402835291602001916120df565b820191905f5260205f20905b8154815290600101906020018083116120c257829003601f168201915b505050505090505b92915050565b5f6120ff6120f9611b99565b83612178565b9050919050565b60605f612112836121b8565b90505f602067ffffffffffffffff8111156121305761212f61238a565b5b6040519080825280601f01601f1916602001820160405280156121625781602001600182028036833780820191505090505b5090508181528360208201528092505050919050565b5f6040517f190100000000000000000000000000000000000000000000000000000000000081528360028201528260228201526042812091505092915050565b5f5f60ff835f1c169050601f8111156121fd576040517fb3512b0c00000000000000000000000000000000000000000000000000000000815260040160405180910390fd5b80915050919050565b5f604051905090565b5f5ffd5b5f5ffd5b5f73ffffffffffffffffffffffffffffffffffffffff82169050919050565b5f61224082612217565b9050919050565b61225081612236565b811461225a575f5ffd5b50565b5f8135905061226b81612247565b92915050565b5f602082840312156122865761228561220f565b5b5f6122938482850161225d565b91505092915050565b5f819050919050565b6122ae8161229c565b82525050565b5f6020820190506122c75f8301846122a5565b92915050565b5f819050919050565b6122df816122cd565b82525050565b5f6020820190506122f85f8301846122d6565b92915050565b5f819050919050565b5f61232161231c61231784612217565b6122fe565b612217565b9050919050565b5f61233282612307565b9050919050565b5f61234382612328565b9050919050565b61235381612339565b82525050565b5f60208201905061236c5f83018461234a565b92915050565b5f5ffd5b5f5ffd5b5f601f19601f8301169050919050565b7f4e487b71000000000000000000000000000000000000000000000000000000005f52604160045260245ffd5b6123c08261237a565b810181811067ffffffffffffffff821117156123df576123de61238a565b5b80604052505050565b5f6123f1612206565b90506123fd82826123b7565b919050565b5f67ffffffffffffffff82111561241c5761241b61238a565b5b6124258261237a565b9050602081019050919050565b828183375f83830152505050565b5f61245261244d84612402565b6123e8565b90508281526020810184848401111561246e5761246d612376565b5b612479848285612432565b509392505050565b5f82601f83011261249557612494612372565b5b81356124a5848260208601612440565b91505092915050565b5f8115159050919050565b6124c2816124ae565b81146124cc575f5ffd5b50565b5f813590506124dd816124b9565b92915050565b5f5f604083850312156124f9576124f861220f565b5b5f83013567ffffffffffffffff81111561251657612515612213565b5b61252285828601612481565b9250506020612533858286016124cf565b9150509250929050565b5f602082840312156125525761255161220f565b5b5f82013567ffffffffffffffff81111561256f5761256e612213565b5b61257b84828501612481565b91505092915050565b61258d81612236565b82525050565b5f6020820190506125a65f830184612584565b92915050565b6125b5816124ae565b82525050565b5f60a0820190506125ce5f830188612584565b6125db6020830187612584565b6125e860408301866122a5565b6125f560608301856122a5565b61260260808301846125ac565b9695505050505050565b5f7fff0000000000000000000000000000000000000000000000000000000000000082169050919050565b6126408161260c565b82525050565b5f81519050919050565b5f82825260208201905092915050565b8281835e5f83830152505050565b5f61267882612646565b6126828185612650565b9350612692818560208601612660565b61269b8161237a565b840191505092915050565b5f81519050919050565b5f82825260208201905092915050565b5f819050602082019050919050565b6126d88161229c565b82525050565b5f6126e983836126cf565b60208301905092915050565b5f602082019050919050565b5f61270b826126a6565b61271581856126b0565b9350612720836126c0565b805f5b8381101561275057815161273788826126de565b9750612742836126f5565b925050600181019050612723565b5085935050505092915050565b5f60e0820190506127705f83018a612637565b8181036020830152612782818961266e565b90508181036040830152612796818861266e565b90506127a560608301876122a5565b6127b26080830186612584565b6127bf60a08301856122d6565b81810360c08301526127d18184612701565b905098975050505050505050565b6127e88161229c565b81146127f2575f5ffd5b50565b5f81359050612803816127df565b92915050565b5f60ff82169050919050565b61281e81612809565b8114612828575f5ffd5b50565b5f8135905061283981612815565b92915050565b612848816122cd565b8114612852575f5ffd5b50565b5f813590506128638161283f565b92915050565b5f5f5f5f5f5f60c087890312156128835761288261220f565b5b5f61289089828a0161225d565b965050602087013567ffffffffffffffff8111156128b1576128b0612213565b5b6128bd89828a01612481565b95505060406128ce89828a016127f5565b94505060606128df89828a0161282b565b93505060806128f089828a01612855565b92505060a061290189828a01612855565b9150509295509295509295565b5f5ffd5b5f5ffd5b5f5f83601f84011261292b5761292a612372565b5b8235905067ffffffffffffffff8111156129485761294761290e565b5b60208301915083600182028301111561296457612963612912565b5b9250929050565b5f5f5f5f606085870312156129835761298261220f565b5b5f6129908782880161225d565b94505060206129a1878288016127f5565b935050604085013567ffffffffffffffff8111156129c2576129c1612213565b5b6129ce87828801612916565b925092505092959194509250565b5f6020820190506129ef5f8301846125ac565b92915050565b5f5f5f60608486031215612a0c57612a0b61220f565b5b5f612a198682870161225d565b9350506020612a2a868287016127f5565b9250506040612a3b868287016127f5565b9150509250925092565b5f81905092915050565b5f612a5982612646565b612a638185612a45565b9350612a73818560208601612660565b80840191505092915050565b5f612a8a8284612a4f565b915081905092915050565b7f4e46544d61726b65743a206c697374696e67206973206e6f74206163746976655f82015250565b5f612ac9602083612650565b9150612ad482612a95565b602082019050919050565b5f6020820190508181035f830152612af681612abd565b9050919050565b7f4e46544d61726b65743a2063616c6c6572206973206e6f742073656c6c6572005f82015250565b5f612b31601f83612650565b9150612b3c82612afd565b602082019050919050565b5f6020820190508181035f830152612b5e81612b25565b9050919050565b5f81519050612b73816127df565b92915050565b5f60208284031215612b8e57612b8d61220f565b5b5f612b9b84828501612b65565b91505092915050565b7f4e46544d61726b65743a206e6f7420656e6f756768207061796d656e7420746f5f8201527f6b656e0000000000000000000000000000000000000000000000000000000000602082015250565b5f612bfe602383612650565b9150612c0982612ba4565b604082019050919050565b5f6020820190508181035f830152612c2b81612bf2565b9050919050565b5f606082019050612c455f830186612584565b612c526020830185612584565b612c5f60408301846122a5565b949350505050565b5f81519050612c75816124b9565b92915050565b5f60208284031215612c9057612c8f61220f565b5b5f612c9d84828501612c67565b91505092915050565b5f606082019050612cb95f830186612584565b612cc660208301856122a5565b612cd360408301846122a5565b949350505050565b7f4e46544d61726b657456323a206c697374696e67206973206e6f7420616374695f8201527f7665000000000000000000000000000000000000000000000000000000000000602082015250565b5f612d35602283612650565b9150612d4082612cdb565b604082019050919050565b5f6020820190508181035f830152612d6281612d29565b9050919050565b5f604082019050612d7c5f830185612584565b612d896020830184612584565b9392505050565b5f604082019050612da35f8301856122a5565b612db060208301846122a5565b9392505050565b7f4e46544d61726b657456323a2063616c6c6572206973206e6f742061646d696e5f82015250565b5f612deb602083612650565b9150612df682612db7565b602082019050919050565b5f6020820190508181035f830152612e1881612ddf565b9050919050565b7f4e46544d61726b657456323a206e65772061646d696e2063616e6e6f742062655f8201527f207a65726f206164647265737300000000000000000000000000000000000000602082015250565b5f612e79602d83612650565b9150612e8482612e1f565b604082019050919050565b5f6020820190508181035f830152612ea681612e6d565b9050919050565b7f4e46544d61726b65743a2063616c6c6572206973206e6f74207061796d656e745f8201527f20746f6b656e0000000000000000000000000000000000000000000000000000602082015250565b5f612f07602683612650565b9150612f1282612ead565b604082019050919050565b5f6020820190508181035f830152612f3481612efb565b9050919050565b7f4e46544d61726b65743a20696e76616c69642064617461206c656e67746800005f82015250565b5f612f6f601e83612650565b9150612f7a82612f3b565b602082019050919050565b5f6020820190508181035f830152612f9c81612f63565b9050919050565b5f604082019050612fb65f830185612584565b612fc360208301846122a5565b9392505050565b7f4e46544d61726b65743a20746f6b656e207472616e7366657220746f2073656c5f8201527f6c6572206661696c656400000000000000000000000000000000000000000000602082015250565b5f613024602a83612650565b915061302f82612fca565b604082019050919050565b5f6020820190508181035f83015261305181613018565b9050919050565b7f4e46544d61726b65743a207072696365206d75737420626520677265617465725f8201527f207468616e207a65726f00000000000000000000000000000000000000000000602082015250565b5f6130b2602a83612650565b91506130bd82613058565b604082019050919050565b5f6020820190508181035f8301526130df816130a6565b9050919050565b7f4e46544d61726b65743a206e667420636f6e74726163742061646472657373205f8201527f63616e6e6f74206265207a65726f000000000000000000000000000000000000602082015250565b5f613140602e83612650565b915061314b826130e6565b604082019050919050565b5f6020820190508181035f83015261316d81613134565b9050919050565b5f8151905061318281612247565b92915050565b5f6020828403121561319d5761319c61220f565b5b5f6131aa84828501613174565b91505092915050565b7f4e46544d61726b65743a2063616c6c6572206973206e6f7420746865206f776e5f8201527f6572000000000000000000000000000000000000000000000000000000000000602082015250565b5f61320d602283612650565b9150613218826131b3565b604082019050919050565b5f6020820190508181035f83015261323a81613201565b9050919050565b7f4e46544d61726b65743a206d61726b6574206973206e6f7420617070726f76655f8201527f6420746f207472616e736665722074686973204e465400000000000000000000602082015250565b5f61329b603683612650565b91506132a682613241565b604082019050919050565b5f6020820190508181035f8301526132c88161328f565b9050919050565b5f8160601b9050919050565b5f6132e5826132cf565b9050919050565b5f6132f6826132db565b9050919050565b61330e61330982612236565b6132ec565b82525050565b5f819050919050565b61332e6133298261229c565b613314565b82525050565b5f61333f82856132fd565b60148201915061334f828461331d565b6020820191508190509392505050565b7f4e46544d61726b65743a206e667420697320616c7265616479206c69737465645f82015250565b5f613393602083612650565b915061339e8261335f565b602082019050919050565b5f6020820190508181035f8301526133c081613387565b9050919050565b7f4e46544d61726b657456323a2062757965722063616e6e6f74206265207a65725f8201527f6f20616464726573730000000000000000000000000000000000000000000000602082015250565b5f613421602983612650565b915061342c826133c7565b604082019050919050565b5f6020820190508181035f83015261344e81613415565b9050919050565b5f6080820190506134685f8301876122d6565b6134756020830186612584565b8181036040830152613487818561266e565b905061349660608301846122a5565b95945050505050565b6134a881612809565b82525050565b5f6080820190506134c15f8301876122d6565b6134ce602083018661349f565b6134db60408301856122d6565b6134e860608301846122d6565b95945050505050565b7f4e487b71000000000000000000000000000000000000000000000000000000005f52601160045260245ffd5b5f6135288261229c565b91507fffffffffffffffffffffffffffffffffffffffffffffffffffffffffffffffff820361355a576135596134f1565b5b600182019050919050565b5f60a0820190506135785f8301886122d6565b61358560208301876122d6565b61359260408301866122d6565b61359f60608301856122a5565b6135ac6080830184612584565b9695505050505050565b7f4e487b71000000000000000000000000000000000000000000000000000000005f52602260045260245ffd5b5f60028204905060018216806135fa57607f821691505b60208210810361360d5761360c6135b6565b5b5091905056fea2646970667358221220384eaf0295f0125aa2c793ee2d24bc0f6d400c1f396bfea3dad481d478cf0e5b64736f6c634300081e0033","linkReferences":{}},"methodIdentifiers":{"DOMAIN_SEPARATOR()":"3644e515","PERMIT_BUY_TYPEHASH()":"1d833ec5","buy(string)":"492cc769","changeListingActive(string,bool)":"4736e295","eip712Domain()":"84b0196e","getWhitelistNonce(address)":"11fdcc7e","list(address,uint256,uint256)":"dda342bb","listings(string)":"77dec6c3","paymentToken()":"3013ce29","permitBuy(address,string,uint256,uint8,bytes32,bytes32)":"a25570f8","setWhitelistAdmin(address)":"a8d49e64","tokensReceived(address,uint256,bytes)":"d0314263","whitelistAdmin()":"4adbe551","whitelistNonces(address)":"042dca71"},"id":72}