{"abi":[{"type":"constructor","inputs":[{"name":"_token","type":"address","internalType":"contract TokenV3"}],"stateMutability":"nonpayable"},{"type":"function","name":"DOMAIN_SEPARATOR","inputs":[],"outputs":[{"name":"","type":"bytes32","internalType":"bytes32"}],"stateMutability":"view"},{"type":"function","name":"PERMIT_TYPEHASH","inputs":[],"outputs":[{"name":"","type":"bytes32","internalType":"bytes32"}],"stateMutability":"view"},{"type":"function","name":"balances","inputs":[{"name":"","type":"address","internalType":"address"}],"outputs":[{"name":"","type":"uint256","internalType":"uint256"}],"stateMutability":"view"},{"type":"function","name":"deposit","inputs":[{"name":"amount","type":"uint256","internalType":"uint256"}],"outputs":[],"stateMutability":"nonpayable"},{"type":"function","name":"getNonce","inputs":[{"name":"owner","type":"address","internalType":"address"}],"outputs":[{"name":"","type":"uint256","internalType":"uint256"}],"stateMutability":"view"},{"type":"function","name":"nonces","inputs":[{"name":"","type":"address","internalType":"address"}],"outputs":[{"name":"","type":"uint256","internalType":"uint256"}],"stateMutability":"view"},{"type":"function","name":"owner","inputs":[],"outputs":[{"name":"","type":"address","internalType":"address"}],"stateMutability":"view"},{"type":"function","name":"permitDeposit","inputs":[{"name":"owner","type":"address","internalType":"address"},{"name":"amount","type":"uint256","internalType":"uint256"},{"name":"deadline","type":"uint256","internalType":"uint256"},{"name":"v","type":"uint8","internalType":"uint8"},{"name":"r","type":"bytes32","internalType":"bytes32"},{"name":"s","type":"bytes32","internalType":"bytes32"}],"outputs":[],"stateMutability":"nonpayable"},{"type":"function","name":"permitDepositWithTokenPermit","inputs":[{"name":"owner","type":"address","internalType":"address"},{"name":"amount","type":"uint256","internalType":"uint256"},{"name":"deadline","type":"uint256","internalType":"uint256"},{"name":"tokenV","type":"uint8","internalType":"uint8"},{"name":"tokenR","type":"bytes32","internalType":"bytes32"},{"name":"tokenS","type":"bytes32","internalType":"bytes32"},{"name":"bankV","type":"uint8","internalType":"uint8"},{"name":"bankR","type":"bytes32","internalType":"bytes32"},{"name":"bankS","type":"bytes32","internalType":"bytes32"}],"outputs":[],"stateMutability":"nonpayable"},{"type":"function","name":"setOwner","inputs":[{"name":"newOwner","type":"address","internalType":"address"}],"outputs":[],"stateMutability":"nonpayable"},{"type":"function","name":"token","inputs":[],"outputs":[{"name":"","type":"address","internalType":"contract IERC20"}],"stateMutability":"view"},{"type":"function","name":"tokenBankOwner","inputs":[],"outputs":[{"name":"","type":"address","internalType":"address"}],"stateMutability":"view"},{"type":"function","name":"tokensReceived","inputs":[{"name":"from","type":"address","internalType":"address"},{"name":"amount","type":"uint256","internalType":"uint256"},{"name":"token","type":"address","internalType":"address"}],"outputs":[],"stateMutability":"nonpayable"},{"type":"function","name":"totalDeposit","inputs":[],"outputs":[{"name":"","type":"uint256","internalType":"uint256"}],"stateMutability":"view"},{"type":"function","name":"userTokenBalances","inputs":[{"name":"","type":"address","internalType":"address"},{"name":"","type":"address","internalType":"address"}],"outputs":[{"name":"","type":"uint256","internalType":"uint256"}],"stateMutability":"view"},{"type":"function","name":"withdraw","inputs":[{"name":"amount","type":"uint256","internalType":"uint256"}],"outputs":[],"stateMutability":"nonpayable"},{"type":"event","name":"PermitDeposit","inputs":[{"name":"owner","type":"address","indexed":true,"internalType":"address"},{"name":"amount","type":"uint256","indexed":false,"internalType":"uint256"},{"name":"deadline","type":"uint256","indexed":false,"internalType":"uint256"}],"anonymous":false},{"type":"error","name":"PermitDepositExpiredSignature","inputs":[{"name":"deadline","type":"uint256","internalType":"uint256"}]},{"type":"error","name":"PermitDepositInvalidAmount","inputs":[{"name":"amount","type":"uint256","internalType":"uint256"}]},{"type":"error","name":"PermitDepositInvalidSigner","inputs":[{"name":"signer","type":"address","internalType":"address"},{"name":"owner","type":"address","internalType":"address"}]}],"bytecode":{"object":"0x608060405234801561000f575f5ffd5b50604051611fd6380380611fd683398181016040528101906100319190610169565b8080335f5f6101000a81548173ffffffffffffffffffffffffffffffffffffffff021916908373ffffffffffffffffffffffffffffffffffffffff1602179055508060035f6101000a81548173ffffffffffffffffffffffffffffffffffffffff021916908373ffffffffffffffffffffffffffffffffffffffff160217905550503360055f6101000a81548173ffffffffffffffffffffffffffffffffffffffff021916908373ffffffffffffffffffffffffffffffffffffffff1602179055505050610194565b5f5ffd5b5f73ffffffffffffffffffffffffffffffffffffffff82169050919050565b5f610127826100fe565b9050919050565b5f6101388261011d565b9050919050565b6101488161012e565b8114610152575f5ffd5b50565b5f815190506101638161013f565b92915050565b5f6020828403121561017e5761017d6100fa565b5b5f61018b84828501610155565b91505092915050565b611e35806101a15f395ff3fe608060405234801561000f575f5ffd5b50600436106100fe575f3560e01c806341245ed8116100955780638f7b1bca116100645780638f7b1bca146102aa578063b6b55f25146102c6578063f6153ccd146102e2578063fc0c546a14610300576100fe565b806341245ed81461021057806345f2d1051461022c5780637ecebe001461025c5780638da5cb5b1461028c576100fe565b80632d0335ab116100d15780632d0335ab146101885780632e1a7d4d146101b857806330adf81f146101d45780633644e515146101f2576100fe565b806313af403514610102578063140189781461011e57806327e235e31461013c5780632b86ed2f1461016c575b5f5ffd5b61011c6004803603810190610117919061146e565b61031e565b005b610126610445565b60405161013391906114a8565b60405180910390f35b6101566004803603810190610151919061146e565b61046a565b60405161016391906114d9565b60405180910390f35b6101866004803603810190610181919061151c565b61047f565b005b6101a2600480360381019061019d919061146e565b610580565b6040516101af91906114d9565b60405180910390f35b6101d260048036038101906101cd919061156c565b6105c6565b005b6101dc61078f565b6040516101e991906115af565b60405180910390f35b6101fa6107b3565b60405161020791906115af565b60405180910390f35b61022a60048036038101906102259190611628565b610880565b005b610246600480360381019061024191906116ec565b610d6e565b60405161025391906114d9565b60405180910390f35b6102766004803603810190610271919061146e565b610d8e565b60405161028391906114d9565b60405180910390f35b610294610da3565b6040516102a191906114a8565b60405180910390f35b6102c460048036038101906102bf919061172a565b610dc7565b005b6102e060048036038101906102db919061156c565b611240565b005b6102ea61124c565b6040516102f791906114d9565b60405180910390f35b610308611252565b604051610315919061180e565b60405180910390f35b5f5f9054906101000a900473ffffffffffffffffffffffffffffffffffffffff1673ffffffffffffffffffffffffffffffffffffffff163373ffffffffffffffffffffffffffffffffffffffff1614806103c4575060055f9054906101000a900473ffffffffffffffffffffffffffffffffffffffff1673ffffffffffffffffffffffffffffffffffffffff163373ffffffffffffffffffffffffffffffffffffffff16145b610403576040517f08c379a00000000000000000000000000000000000000000000000000000000081526004016103fa90611881565b60405180910390fd5b805f5f6101000a81548173ffffffffffffffffffffffffffffffffffffffff021916908373ffffffffffffffffffffffffffffffffffffffff16021790555050565b60055f9054906101000a900473ffffffffffffffffffffffffffffffffffffffff1681565b6001602052805f5260405f205f915090505481565b8073ffffffffffffffffffffffffffffffffffffffff163373ffffffffffffffffffffffffffffffffffffffff16146104ed576040517f08c379a00000000000000000000000000000000000000000000000000000000081526004016104e4906118e9565b60405180910390fd5b8160045f8573ffffffffffffffffffffffffffffffffffffffff1673ffffffffffffffffffffffffffffffffffffffff1681526020019081526020015f205f8373ffffffffffffffffffffffffffffffffffffffff1673ffffffffffffffffffffffffffffffffffffffff1681526020019081526020015f205f8282546105749190611934565b92505081905550505050565b5f60065f8373ffffffffffffffffffffffffffffffffffffffff1673ffffffffffffffffffffffffffffffffffffffff1681526020019081526020015f20549050919050565b8060015f3373ffffffffffffffffffffffffffffffffffffffff1673ffffffffffffffffffffffffffffffffffffffff1681526020019081526020015f20541015610646576040517f08c379a000000000000000000000000000000000000000000000000000000000815260040161063d906119b1565b60405180910390fd5b8060015f3373ffffffffffffffffffffffffffffffffffffffff1673ffffffffffffffffffffffffffffffffffffffff1681526020019081526020015f205f82825461069291906119cf565b925050819055508060025f8282546106aa91906119cf565b9250508190555060035f9054906101000a900473ffffffffffffffffffffffffffffffffffffffff1673ffffffffffffffffffffffffffffffffffffffff1663a9059cbb33836040518363ffffffff1660e01b815260040161070d929190611a02565b6020604051808303815f875af1158015610729573d5f5f3e3d5ffd5b505050506040513d601f19601f8201168201806040525081019061074d9190611a5e565b61078c576040517f08c379a000000000000000000000000000000000000000000000000000000000815260040161078390611ad3565b60405180910390fd5b50565b7fd3445ae723d3622133544ea22d23f3a973b674b2d72df6c2d55e759bd0eed7cb81565b5f7f8b73c3c69bb8fe3d512ecc4cf759cc79239f7b179b0ffacaa9a75d522b39400f6040518060400160405280600b81526020017f546f6b656e42616e6b5633000000000000000000000000000000000000000000815250805190602001206040518060400160405280600181526020017f3100000000000000000000000000000000000000000000000000000000000000815250805190602001204630604051602001610865959493929190611af1565b60405160208183030381529060405280519060200120905090565b5f88036108c457876040517f3a93159e0000000000000000000000000000000000000000000000000000000081526004016108bb91906114d9565b60405180910390fd5b8642111561090957866040517f1e83122a00000000000000000000000000000000000000000000000000000000815260040161090091906114d9565b60405180910390fd5b5f60035f9054906101000a900473ffffffffffffffffffffffffffffffffffffffff1690508073ffffffffffffffffffffffffffffffffffffffff1663d505accf8b308c8c8c8c8c6040518863ffffffff1660e01b81526004016109739796959493929190611b51565b5f604051808303815f87803b15801561098a575f5ffd5b505af115801561099c573d5f5f3e3d5ffd5b505050505f7fd3445ae723d3622133544ea22d23f3a973b674b2d72df6c2d55e759bd0eed7cb8b8b8b6040516020016109d89493929190611bbe565b6040516020818303038152906040528051906020012090505f6109f96107b3565b82604051602001610a0b929190611c75565b6040516020818303038152906040528051906020012090505f6001828888886040515f8152602001604052604051610a469493929190611cab565b6020604051602081039080840390855afa158015610a66573d5f5f3e3d5ffd5b5050506020604051035190508c73ffffffffffffffffffffffffffffffffffffffff168173ffffffffffffffffffffffffffffffffffffffff1614610ae457808d6040517fc533faca000000000000000000000000000000000000000000000000000000008152600401610adb929190611cee565b60405180910390fd5b8373ffffffffffffffffffffffffffffffffffffffff166323b872dd8e308f6040518463ffffffff1660e01b8152600401610b2193929190611d15565b6020604051808303815f875af1158015610b3d573d5f5f3e3d5ffd5b505050506040513d601f19601f82011682018060405250810190610b619190611a5e565b610ba0576040517f08c379a0000000000000000000000000000000000000000000000000000000008152600401610b9790611ad3565b60405180910390fd5b8b60015f8f73ffffffffffffffffffffffffffffffffffffffff1673ffffffffffffffffffffffffffffffffffffffff1681526020019081526020015f205f828254610bec9190611934565b925050819055508b60025f828254610c049190611934565b925050819055505f73ffffffffffffffffffffffffffffffffffffffff1660035f9054906101000a900473ffffffffffffffffffffffffffffffffffffffff1673ffffffffffffffffffffffffffffffffffffffff1614610d0f578b60045f8f73ffffffffffffffffffffffffffffffffffffffff1673ffffffffffffffffffffffffffffffffffffffff1681526020019081526020015f205f60035f9054906101000a900473ffffffffffffffffffffffffffffffffffffffff1673ffffffffffffffffffffffffffffffffffffffff1673ffffffffffffffffffffffffffffffffffffffff1681526020019081526020015f205f828254610d079190611934565b925050819055505b8c73ffffffffffffffffffffffffffffffffffffffff167f17ec270357dbb4df33522ba8cffb4d405e5948795ef252102d4cb1fabe1373f48d8d604051610d57929190611d4a565b60405180910390a250505050505050505050505050565b6004602052815f5260405f20602052805f5260405f205f91509150505481565b6006602052805f5260405f205f915090505481565b5f5f9054906101000a900473ffffffffffffffffffffffffffffffffffffffff1681565b5f8503610e0b57846040517f3a93159e000000000000000000000000000000000000000000000000000000008152600401610e0291906114d9565b60405180910390fd5b83421115610e5057836040517f1e83122a000000000000000000000000000000000000000000000000000000008152600401610e4791906114d9565b60405180910390fd5b5f7fd3445ae723d3622133544ea22d23f3a973b674b2d72df6c2d55e759bd0eed7cb878787604051602001610e889493929190611bbe565b6040516020818303038152906040528051906020012090505f610ea96107b3565b82604051602001610ebb929190611c75565b6040516020818303038152906040528051906020012090505f6001828787876040515f8152602001604052604051610ef69493929190611cab565b6020604051602081039080840390855afa158015610f16573d5f5f3e3d5ffd5b5050506020604051035190508873ffffffffffffffffffffffffffffffffffffffff168173ffffffffffffffffffffffffffffffffffffffff1614610f945780896040517fc533faca000000000000000000000000000000000000000000000000000000008152600401610f8b929190611cee565b60405180910390fd5b5f60035f9054906101000a900473ffffffffffffffffffffffffffffffffffffffff1690508073ffffffffffffffffffffffffffffffffffffffff166323b872dd8b308c6040518463ffffffff1660e01b8152600401610ff693929190611d15565b6020604051808303815f875af1158015611012573d5f5f3e3d5ffd5b505050506040513d601f19601f820116820180604052508101906110369190611a5e565b611075576040517f08c379a000000000000000000000000000000000000000000000000000000000815260040161106c90611ad3565b60405180910390fd5b8860015f8c73ffffffffffffffffffffffffffffffffffffffff1673ffffffffffffffffffffffffffffffffffffffff1681526020019081526020015f205f8282546110c19190611934565b925050819055508860025f8282546110d99190611934565b925050819055505f73ffffffffffffffffffffffffffffffffffffffff1660035f9054906101000a900473ffffffffffffffffffffffffffffffffffffffff1673ffffffffffffffffffffffffffffffffffffffff16146111e4578860045f8c73ffffffffffffffffffffffffffffffffffffffff1673ffffffffffffffffffffffffffffffffffffffff1681526020019081526020015f205f60035f9054906101000a900473ffffffffffffffffffffffffffffffffffffffff1673ffffffffffffffffffffffffffffffffffffffff1673ffffffffffffffffffffffffffffffffffffffff1681526020019081526020015f205f8282546111dc9190611934565b925050819055505b8973ffffffffffffffffffffffffffffffffffffffff167f17ec270357dbb4df33522ba8cffb4d405e5948795ef252102d4cb1fabe1373f48a8a60405161122c929190611d4a565b60405180910390a250505050505050505050565b61124981611277565b50565b60025481565b60035f9054906101000a900473ffffffffffffffffffffffffffffffffffffffff1681565b61128081611283565b50565b5f81116112c5576040517f08c379a00000000000000000000000000000000000000000000000000000000081526004016112bc90611de1565b60405180910390fd5b60035f9054906101000a900473ffffffffffffffffffffffffffffffffffffffff1673ffffffffffffffffffffffffffffffffffffffff166323b872dd3330846040518463ffffffff1660e01b815260040161132393929190611d15565b6020604051808303815f875af115801561133f573d5f5f3e3d5ffd5b505050506040513d601f19601f820116820180604052508101906113639190611a5e565b6113a2576040517f08c379a000000000000000000000000000000000000000000000000000000000815260040161139990611ad3565b60405180910390fd5b8060015f3373ffffffffffffffffffffffffffffffffffffffff1673ffffffffffffffffffffffffffffffffffffffff1681526020019081526020015f205f8282546113ee9190611934565b925050819055508060025f8282546114069190611934565b9250508190555050565b5f5ffd5b5f73ffffffffffffffffffffffffffffffffffffffff82169050919050565b5f61143d82611414565b9050919050565b61144d81611433565b8114611457575f5ffd5b50565b5f8135905061146881611444565b92915050565b5f6020828403121561148357611482611410565b5b5f6114908482850161145a565b91505092915050565b6114a281611433565b82525050565b5f6020820190506114bb5f830184611499565b92915050565b5f819050919050565b6114d3816114c1565b82525050565b5f6020820190506114ec5f8301846114ca565b92915050565b6114fb816114c1565b8114611505575f5ffd5b50565b5f81359050611516816114f2565b92915050565b5f5f5f6060848603121561153357611532611410565b5b5f6115408682870161145a565b935050602061155186828701611508565b92505060406115628682870161145a565b9150509250925092565b5f6020828403121561158157611580611410565b5b5f61158e84828501611508565b91505092915050565b5f819050919050565b6115a981611597565b82525050565b5f6020820190506115c25f8301846115a0565b92915050565b5f60ff82169050919050565b6115dd816115c8565b81146115e7575f5ffd5b50565b5f813590506115f8816115d4565b92915050565b61160781611597565b8114611611575f5ffd5b50565b5f81359050611622816115fe565b92915050565b5f5f5f5f5f5f5f5f5f6101208a8c03121561164657611645611410565b5b5f6116538c828d0161145a565b99505060206116648c828d01611508565b98505060406116758c828d01611508565b97505060606116868c828d016115ea565b96505060806116978c828d01611614565b95505060a06116a88c828d01611614565b94505060c06116b98c828d016115ea565b93505060e06116ca8c828d01611614565b9250506101006116dc8c828d01611614565b9150509295985092959850929598565b5f5f6040838503121561170257611701611410565b5b5f61170f8582860161145a565b92505060206117208582860161145a565b9150509250929050565b5f5f5f5f5f5f60c0878903121561174457611743611410565b5b5f61175189828a0161145a565b965050602061176289828a01611508565b955050604061177389828a01611508565b945050606061178489828a016115ea565b935050608061179589828a01611614565b92505060a06117a689828a01611614565b9150509295509295509295565b5f819050919050565b5f6117d66117d16117cc84611414565b6117b3565b611414565b9050919050565b5f6117e7826117bc565b9050919050565b5f6117f8826117dd565b9050919050565b611808816117ee565b82525050565b5f6020820190506118215f8301846117ff565b92915050565b5f82825260208201905092915050565b7f4f6e6c79206f776e65722063616e20736574206e6577206f776e6572000000005f82015250565b5f61186b601c83611827565b915061187682611837565b602082019050919050565b5f6020820190508181035f8301526118988161185f565b9050919050565b7f4f6e6c7920746f6b656e20636f6e74726163742063616e2063616c6c000000005f82015250565b5f6118d3601c83611827565b91506118de8261189f565b602082019050919050565b5f6020820190508181035f830152611900816118c7565b9050919050565b7f4e487b71000000000000000000000000000000000000000000000000000000005f52601160045260245ffd5b5f61193e826114c1565b9150611949836114c1565b925082820190508082111561196157611960611907565b5b92915050565b7f496e73756666696369656e742062616c616e636520746f2077697468647261775f82015250565b5f61199b602083611827565b91506119a682611967565b602082019050919050565b5f6020820190508181035f8301526119c88161198f565b9050919050565b5f6119d9826114c1565b91506119e4836114c1565b92508282039050818111156119fc576119fb611907565b5b92915050565b5f604082019050611a155f830185611499565b611a2260208301846114ca565b9392505050565b5f8115159050919050565b611a3d81611a29565b8114611a47575f5ffd5b50565b5f81519050611a5881611a34565b92915050565b5f60208284031215611a7357611a72611410565b5b5f611a8084828501611a4a565b91505092915050565b7f5472616e73666572206661696c656400000000000000000000000000000000005f82015250565b5f611abd600f83611827565b9150611ac882611a89565b602082019050919050565b5f6020820190508181035f830152611aea81611ab1565b9050919050565b5f60a082019050611b045f8301886115a0565b611b1160208301876115a0565b611b1e60408301866115a0565b611b2b60608301856114ca565b611b386080830184611499565b9695505050505050565b611b4b816115c8565b82525050565b5f60e082019050611b645f83018a611499565b611b716020830189611499565b611b7e60408301886114ca565b611b8b60608301876114ca565b611b986080830186611b42565b611ba560a08301856115a0565b611bb260c08301846115a0565b98975050505050505050565b5f608082019050611bd15f8301876115a0565b611bde6020830186611499565b611beb60408301856114ca565b611bf860608301846114ca565b95945050505050565b5f81905092915050565b7f19010000000000000000000000000000000000000000000000000000000000005f82015250565b5f611c3f600283611c01565b9150611c4a82611c0b565b600282019050919050565b5f819050919050565b611c6f611c6a82611597565b611c55565b82525050565b5f611c7f82611c33565b9150611c8b8285611c5e565b602082019150611c9b8284611c5e565b6020820191508190509392505050565b5f608082019050611cbe5f8301876115a0565b611ccb6020830186611b42565b611cd860408301856115a0565b611ce560608301846115a0565b95945050505050565b5f604082019050611d015f830185611499565b611d0e6020830184611499565b9392505050565b5f606082019050611d285f830186611499565b611d356020830185611499565b611d4260408301846114ca565b949350505050565b5f604082019050611d5d5f8301856114ca565b611d6a60208301846114ca565b9392505050565b7f4465706f73697420616d6f756e74206d757374206265206772656174657220745f8201527f68616e2030000000000000000000000000000000000000000000000000000000602082015250565b5f611dcb602583611827565b9150611dd682611d71565b604082019050919050565b5f6020820190508181035f830152611df881611dbf565b905091905056fea2646970667358221220f4e49010752c10d8534111bf5d6197f7f7304324759099285f8c0e29fd05c69164736f6c634300081e0033","linkReferences":{}},"methodIdentifiers":{"DOMAIN_SEPARATOR()":"3644e515","PERMIT_TYPEHASH()":"30adf81f","balances(address)":"27e235e3","deposit(uint256)":"b6b55f25","getNonce(address)":"2d0335ab","nonces(address)":"7ecebe00","owner()":"8da5cb5b","permitDeposit(address,uint256,uint256,uint8,bytes32,bytes32)":"8f7b1bca","permitDepositWithTokenPermit(address,uint256,uint256,uint8,bytes32,bytes32,uint8,bytes32,bytes32)":"41245ed8","setOwner(address)":"13af4035","token()":"fc0c546a","tokenBankOwner()":"14018978","tokensReceived(address,uint256,address)":"2b86ed2f","totalDeposit()":"f6153ccd","userTokenBalances(address,address)":"45f2d105","withdraw(uint256)":"2e1a7d4d"},"id":37}