{"abi":[{"type":"constructor","inputs":[{"name":"_token","type":"address","internalType":"contract TokenV3"}],"stateMutability":"nonpayable"},{"type":"function","name":"DOMAIN_SEPARATOR","inputs":[],"outputs":[{"name":"","type":"bytes32","internalType":"bytes32"}],"stateMutability":"view"},{"type":"function","name":"PERMIT_TYPEHASH","inputs":[],"outputs":[{"name":"","type":"bytes32","internalType":"bytes32"}],"stateMutability":"view"},{"type":"function","name":"balances","inputs":[{"name":"","type":"address","internalType":"address"}],"outputs":[{"name":"","type":"uint256","internalType":"uint256"}],"stateMutability":"view"},{"type":"function","name":"deposit","inputs":[{"name":"amount","type":"uint256","internalType":"uint256"}],"outputs":[],"stateMutability":"nonpayable"},{"type":"function","name":"getNonce","inputs":[{"name":"owner","type":"address","internalType":"address"}],"outputs":[{"name":"","type":"uint256","internalType":"uint256"}],"stateMutability":"view"},{"type":"function","name":"nonces","inputs":[{"name":"","type":"address","internalType":"address"}],"outputs":[{"name":"","type":"uint256","internalType":"uint256"}],"stateMutability":"view"},{"type":"function","name":"owner","inputs":[],"outputs":[{"name":"","type":"address","internalType":"address"}],"stateMutability":"view"},{"type":"function","name":"permitDeposit","inputs":[{"name":"owner","type":"address","internalType":"address"},{"name":"amount","type":"uint256","internalType":"uint256"},{"name":"deadline","type":"uint256","internalType":"uint256"},{"name":"v","type":"uint8","internalType":"uint8"},{"name":"r","type":"bytes32","internalType":"bytes32"},{"name":"s","type":"bytes32","internalType":"bytes32"}],"outputs":[],"stateMutability":"nonpayable"},{"type":"function","name":"setOwner","inputs":[{"name":"newOwner","type":"address","internalType":"address"}],"outputs":[],"stateMutability":"nonpayable"},{"type":"function","name":"token","inputs":[],"outputs":[{"name":"","type":"address","internalType":"contract IERC20"}],"stateMutability":"view"},{"type":"function","name":"tokenBankOwner","inputs":[],"outputs":[{"name":"","type":"address","internalType":"address"}],"stateMutability":"view"},{"type":"function","name":"tokensReceived","inputs":[{"name":"from","type":"address","internalType":"address"},{"name":"amount","type":"uint256","internalType":"uint256"},{"name":"token","type":"address","internalType":"address"}],"outputs":[],"stateMutability":"nonpayable"},{"type":"function","name":"totalDeposit","inputs":[],"outputs":[{"name":"","type":"uint256","internalType":"uint256"}],"stateMutability":"view"},{"type":"function","name":"userTokenBalances","inputs":[{"name":"","type":"address","internalType":"address"},{"name":"","type":"address","internalType":"address"}],"outputs":[{"name":"","type":"uint256","internalType":"uint256"}],"stateMutability":"view"},{"type":"function","name":"withdraw","inputs":[{"name":"amount","type":"uint256","internalType":"uint256"}],"outputs":[],"stateMutability":"nonpayable"},{"type":"event","name":"PermitDeposit","inputs":[{"name":"owner","type":"address","indexed":true,"internalType":"address"},{"name":"amount","type":"uint256","indexed":false,"internalType":"uint256"},{"name":"deadline","type":"uint256","indexed":false,"internalType":"uint256"}],"anonymous":false},{"type":"error","name":"PermitDepositExpiredSignature","inputs":[{"name":"deadline","type":"uint256","internalType":"uint256"}]},{"type":"error","name":"PermitDepositInvalidAmount","inputs":[{"name":"amount","type":"uint256","internalType":"uint256"}]},{"type":"error","name":"PermitDepositInvalidSigner","inputs":[{"name":"signer","type":"address","internalType":"address"},{"name":"owner","type":"address","internalType":"address"}]}],"bytecode":{"object":"0x608060405234801561000f575f5ffd5b5060405161199038038061199083398181016040528101906100319190610169565b8080335f5f6101000a81548173ffffffffffffffffffffffffffffffffffffffff021916908373ffffffffffffffffffffffffffffffffffffffff1602179055508060035f6101000a81548173ffffffffffffffffffffffffffffffffffffffff021916908373ffffffffffffffffffffffffffffffffffffffff160217905550503360055f6101000a81548173ffffffffffffffffffffffffffffffffffffffff021916908373ffffffffffffffffffffffffffffffffffffffff1602179055505050610194565b5f5ffd5b5f73ffffffffffffffffffffffffffffffffffffffff82169050919050565b5f610127826100fe565b9050919050565b5f6101388261011d565b9050919050565b6101488161012e565b8114610152575f5ffd5b50565b5f815190506101638161013f565b92915050565b5f6020828403121561017e5761017d6100fa565b5b5f61018b84828501610155565b91505092915050565b6117ef806101a15f395ff3fe608060405234801561000f575f5ffd5b50600436106100f3575f3560e01c80633644e515116100955780638f7b1bca116100645780638f7b1bca14610283578063b6b55f251461029f578063f6153ccd146102bb578063fc0c546a146102d9576100f3565b80633644e515146101e757806345f2d105146102055780637ecebe00146102355780638da5cb5b14610265576100f3565b80632b86ed2f116100d15780632b86ed2f146101615780632d0335ab1461017d5780632e1a7d4d146101ad57806330adf81f146101c9576100f3565b806313af4035146100f7578063140189781461011357806327e235e314610131575b5f5ffd5b610111600480360381019061010c9190610f59565b6102f7565b005b61011b61041e565b6040516101289190610f93565b60405180910390f35b61014b60048036038101906101469190610f59565b610443565b6040516101589190610fc4565b60405180910390f35b61017b60048036038101906101769190611007565b610458565b005b61019760048036038101906101929190610f59565b610559565b6040516101a49190610fc4565b60405180910390f35b6101c760048036038101906101c29190611057565b61059f565b005b6101d1610768565b6040516101de919061109a565b60405180910390f35b6101ef61078c565b6040516101fc919061109a565b60405180910390f35b61021f600480360381019061021a91906110b3565b610859565b60405161022c9190610fc4565b60405180910390f35b61024f600480360381019061024a9190610f59565b610879565b60405161025c9190610fc4565b60405180910390f35b61026d61088e565b60405161027a9190610f93565b60405180910390f35b61029d60048036038101906102989190611151565b6108b2565b005b6102b960048036038101906102b49190611057565b610d2b565b005b6102c3610d37565b6040516102d09190610fc4565b60405180910390f35b6102e1610d3d565b6040516102ee9190611235565b60405180910390f35b5f5f9054906101000a900473ffffffffffffffffffffffffffffffffffffffff1673ffffffffffffffffffffffffffffffffffffffff163373ffffffffffffffffffffffffffffffffffffffff16148061039d575060055f9054906101000a900473ffffffffffffffffffffffffffffffffffffffff1673ffffffffffffffffffffffffffffffffffffffff163373ffffffffffffffffffffffffffffffffffffffff16145b6103dc576040517f08c379a00000000000000000000000000000000000000000000000000000000081526004016103d3906112a8565b60405180910390fd5b805f5f6101000a81548173ffffffffffffffffffffffffffffffffffffffff021916908373ffffffffffffffffffffffffffffffffffffffff16021790555050565b60055f9054906101000a900473ffffffffffffffffffffffffffffffffffffffff1681565b6001602052805f5260405f205f915090505481565b8073ffffffffffffffffffffffffffffffffffffffff163373ffffffffffffffffffffffffffffffffffffffff16146104c6576040517f08c379a00000000000000000000000000000000000000000000000000000000081526004016104bd90611310565b60405180910390fd5b8160045f8573ffffffffffffffffffffffffffffffffffffffff1673ffffffffffffffffffffffffffffffffffffffff1681526020019081526020015f205f8373ffffffffffffffffffffffffffffffffffffffff1673ffffffffffffffffffffffffffffffffffffffff1681526020019081526020015f205f82825461054d919061135b565b92505081905550505050565b5f60065f8373ffffffffffffffffffffffffffffffffffffffff1673ffffffffffffffffffffffffffffffffffffffff1681526020019081526020015f20549050919050565b8060015f3373ffffffffffffffffffffffffffffffffffffffff1673ffffffffffffffffffffffffffffffffffffffff1681526020019081526020015f2054101561061f576040517f08c379a0000000000000000000000000000000000000000000000000000000008152600401610616906113d8565b60405180910390fd5b8060015f3373ffffffffffffffffffffffffffffffffffffffff1673ffffffffffffffffffffffffffffffffffffffff1681526020019081526020015f205f82825461066b91906113f6565b925050819055508060025f82825461068391906113f6565b9250508190555060035f9054906101000a900473ffffffffffffffffffffffffffffffffffffffff1673ffffffffffffffffffffffffffffffffffffffff1663a9059cbb33836040518363ffffffff1660e01b81526004016106e6929190611429565b6020604051808303815f875af1158015610702573d5f5f3e3d5ffd5b505050506040513d601f19601f820116820180604052508101906107269190611485565b610765576040517f08c379a000000000000000000000000000000000000000000000000000000000815260040161075c906114fa565b60405180910390fd5b50565b7fd3445ae723d3622133544ea22d23f3a973b674b2d72df6c2d55e759bd0eed7cb81565b5f7f8b73c3c69bb8fe3d512ecc4cf759cc79239f7b179b0ffacaa9a75d522b39400f6040518060400160405280600b81526020017f546f6b656e42616e6b5633000000000000000000000000000000000000000000815250805190602001206040518060400160405280600181526020017f310000000000000000000000000000000000000000000000000000000000000081525080519060200120463060405160200161083e959493929190611518565b60405160208183030381529060405280519060200120905090565b6004602052815f5260405f20602052805f5260405f205f91509150505481565b6006602052805f5260405f205f915090505481565b5f5f9054906101000a900473ffffffffffffffffffffffffffffffffffffffff1681565b5f85036108f657846040517f3a93159e0000000000000000000000000000000000000000000000000000000081526004016108ed9190610fc4565b60405180910390fd5b8342111561093b57836040517f1e83122a0000000000000000000000000000000000000000000000000000000081526004016109329190610fc4565b60405180910390fd5b5f7fd3445ae723d3622133544ea22d23f3a973b674b2d72df6c2d55e759bd0eed7cb8787876040516020016109739493929190611569565b6040516020818303038152906040528051906020012090505f61099461078c565b826040516020016109a6929190611620565b6040516020818303038152906040528051906020012090505f6001828787876040515f81526020016040526040516109e19493929190611665565b6020604051602081039080840390855afa158015610a01573d5f5f3e3d5ffd5b5050506020604051035190508873ffffffffffffffffffffffffffffffffffffffff168173ffffffffffffffffffffffffffffffffffffffff1614610a7f5780896040517fc533faca000000000000000000000000000000000000000000000000000000008152600401610a769291906116a8565b60405180910390fd5b5f60035f9054906101000a900473ffffffffffffffffffffffffffffffffffffffff1690508073ffffffffffffffffffffffffffffffffffffffff166323b872dd8b308c6040518463ffffffff1660e01b8152600401610ae1939291906116cf565b6020604051808303815f875af1158015610afd573d5f5f3e3d5ffd5b505050506040513d601f19601f82011682018060405250810190610b219190611485565b610b60576040517f08c379a0000000000000000000000000000000000000000000000000000000008152600401610b57906114fa565b60405180910390fd5b8860015f8c73ffffffffffffffffffffffffffffffffffffffff1673ffffffffffffffffffffffffffffffffffffffff1681526020019081526020015f205f828254610bac919061135b565b925050819055508860025f828254610bc4919061135b565b925050819055505f73ffffffffffffffffffffffffffffffffffffffff1660035f9054906101000a900473ffffffffffffffffffffffffffffffffffffffff1673ffffffffffffffffffffffffffffffffffffffff1614610ccf578860045f8c73ffffffffffffffffffffffffffffffffffffffff1673ffffffffffffffffffffffffffffffffffffffff1681526020019081526020015f205f60035f9054906101000a900473ffffffffffffffffffffffffffffffffffffffff1673ffffffffffffffffffffffffffffffffffffffff1673ffffffffffffffffffffffffffffffffffffffff1681526020019081526020015f205f828254610cc7919061135b565b925050819055505b8973ffffffffffffffffffffffffffffffffffffffff167f17ec270357dbb4df33522ba8cffb4d405e5948795ef252102d4cb1fabe1373f48a8a604051610d17929190611704565b60405180910390a250505050505050505050565b610d3481610d62565b50565b60025481565b60035f9054906101000a900473ffffffffffffffffffffffffffffffffffffffff1681565b610d6b81610d6e565b50565b5f8111610db0576040517f08c379a0000000000000000000000000000000000000000000000000000000008152600401610da79061179b565b60405180910390fd5b60035f9054906101000a900473ffffffffffffffffffffffffffffffffffffffff1673ffffffffffffffffffffffffffffffffffffffff166323b872dd3330846040518463ffffffff1660e01b8152600401610e0e939291906116cf565b6020604051808303815f875af1158015610e2a573d5f5f3e3d5ffd5b505050506040513d601f19601f82011682018060405250810190610e4e9190611485565b610e8d576040517f08c379a0000000000000000000000000000000000000000000000000000000008152600401610e84906114fa565b60405180910390fd5b8060015f3373ffffffffffffffffffffffffffffffffffffffff1673ffffffffffffffffffffffffffffffffffffffff1681526020019081526020015f205f828254610ed9919061135b565b925050819055508060025f828254610ef1919061135b565b9250508190555050565b5f5ffd5b5f73ffffffffffffffffffffffffffffffffffffffff82169050919050565b5f610f2882610eff565b9050919050565b610f3881610f1e565b8114610f42575f5ffd5b50565b5f81359050610f5381610f2f565b92915050565b5f60208284031215610f6e57610f6d610efb565b5b5f610f7b84828501610f45565b91505092915050565b610f8d81610f1e565b82525050565b5f602082019050610fa65f830184610f84565b92915050565b5f819050919050565b610fbe81610fac565b82525050565b5f602082019050610fd75f830184610fb5565b92915050565b610fe681610fac565b8114610ff0575f5ffd5b50565b5f8135905061100181610fdd565b92915050565b5f5f5f6060848603121561101e5761101d610efb565b5b5f61102b86828701610f45565b935050602061103c86828701610ff3565b925050604061104d86828701610f45565b9150509250925092565b5f6020828403121561106c5761106b610efb565b5b5f61107984828501610ff3565b91505092915050565b5f819050919050565b61109481611082565b82525050565b5f6020820190506110ad5f83018461108b565b92915050565b5f5f604083850312156110c9576110c8610efb565b5b5f6110d685828601610f45565b92505060206110e785828601610f45565b9150509250929050565b5f60ff82169050919050565b611106816110f1565b8114611110575f5ffd5b50565b5f81359050611121816110fd565b92915050565b61113081611082565b811461113a575f5ffd5b50565b5f8135905061114b81611127565b92915050565b5f5f5f5f5f5f60c0878903121561116b5761116a610efb565b5b5f61117889828a01610f45565b965050602061118989828a01610ff3565b955050604061119a89828a01610ff3565b94505060606111ab89828a01611113565b93505060806111bc89828a0161113d565b92505060a06111cd89828a0161113d565b9150509295509295509295565b5f819050919050565b5f6111fd6111f86111f384610eff565b6111da565b610eff565b9050919050565b5f61120e826111e3565b9050919050565b5f61121f82611204565b9050919050565b61122f81611215565b82525050565b5f6020820190506112485f830184611226565b92915050565b5f82825260208201905092915050565b7f4f6e6c79206f776e65722063616e20736574206e6577206f776e6572000000005f82015250565b5f611292601c8361124e565b915061129d8261125e565b602082019050919050565b5f6020820190508181035f8301526112bf81611286565b9050919050565b7f4f6e6c7920746f6b656e20636f6e74726163742063616e2063616c6c000000005f82015250565b5f6112fa601c8361124e565b9150611305826112c6565b602082019050919050565b5f6020820190508181035f830152611327816112ee565b9050919050565b7f4e487b71000000000000000000000000000000000000000000000000000000005f52601160045260245ffd5b5f61136582610fac565b915061137083610fac565b92508282019050808211156113885761138761132e565b5b92915050565b7f496e73756666696369656e742062616c616e636520746f2077697468647261775f82015250565b5f6113c260208361124e565b91506113cd8261138e565b602082019050919050565b5f6020820190508181035f8301526113ef816113b6565b9050919050565b5f61140082610fac565b915061140b83610fac565b92508282039050818111156114235761142261132e565b5b92915050565b5f60408201905061143c5f830185610f84565b6114496020830184610fb5565b9392505050565b5f8115159050919050565b61146481611450565b811461146e575f5ffd5b50565b5f8151905061147f8161145b565b92915050565b5f6020828403121561149a57611499610efb565b5b5f6114a784828501611471565b91505092915050565b7f5472616e73666572206661696c656400000000000000000000000000000000005f82015250565b5f6114e4600f8361124e565b91506114ef826114b0565b602082019050919050565b5f6020820190508181035f830152611511816114d8565b9050919050565b5f60a08201905061152b5f83018861108b565b611538602083018761108b565b611545604083018661108b565b6115526060830185610fb5565b61155f6080830184610f84565b9695505050505050565b5f60808201905061157c5f83018761108b565b6115896020830186610f84565b6115966040830185610fb5565b6115a36060830184610fb5565b95945050505050565b5f81905092915050565b7f19010000000000000000000000000000000000000000000000000000000000005f82015250565b5f6115ea6002836115ac565b91506115f5826115b6565b600282019050919050565b5f819050919050565b61161a61161582611082565b611600565b82525050565b5f61162a826115de565b91506116368285611609565b6020820191506116468284611609565b6020820191508190509392505050565b61165f816110f1565b82525050565b5f6080820190506116785f83018761108b565b6116856020830186611656565b611692604083018561108b565b61169f606083018461108b565b95945050505050565b5f6040820190506116bb5f830185610f84565b6116c86020830184610f84565b9392505050565b5f6060820190506116e25f830186610f84565b6116ef6020830185610f84565b6116fc6040830184610fb5565b949350505050565b5f6040820190506117175f830185610fb5565b6117246020830184610fb5565b9392505050565b7f4465706f73697420616d6f756e74206d757374206265206772656174657220745f8201527f68616e2030000000000000000000000000000000000000000000000000000000602082015250565b5f61178560258361124e565b91506117908261172b565b604082019050919050565b5f6020820190508181035f8301526117b281611779565b905091905056fea2646970667358221220f81bd85ebfa888b079031717c8e676d11d9107172582886ed5f89d12af0c2ab164736f6c634300081e0033","linkReferences":{}},"methodIdentifiers":{"DOMAIN_SEPARATOR()":"3644e515","PERMIT_TYPEHASH()":"30adf81f","balances(address)":"27e235e3","deposit(uint256)":"b6b55f25","getNonce(address)":"2d0335ab","nonces(address)":"7ecebe00","owner()":"8da5cb5b","permitDeposit(address,uint256,uint256,uint8,bytes32,bytes32)":"8f7b1bca","setOwner(address)":"13af4035","token()":"fc0c546a","tokenBankOwner()":"14018978","tokensReceived(address,uint256,address)":"2b86ed2f","totalDeposit()":"f6153ccd","userTokenBalances(address,address)":"45f2d105","withdraw(uint256)":"2e1a7d4d"},"id":37}