{"abi":[{"type":"constructor","inputs":[{"name":"_token","type":"address","internalType":"contract TokenV3"}],"stateMutability":"nonpayable"},{"type":"function","name":"DOMAIN_SEPARATOR","inputs":[],"outputs":[{"name":"","type":"bytes32","internalType":"bytes32"}],"stateMutability":"view"},{"type":"function","name":"PERMIT2_TYPEHASH","inputs":[],"outputs":[{"name":"","type":"bytes32","internalType":"bytes32"}],"stateMutability":"view"},{"type":"function","name":"PERMIT_TYPEHASH","inputs":[],"outputs":[{"name":"","type":"bytes32","internalType":"bytes32"}],"stateMutability":"view"},{"type":"function","name":"balances","inputs":[{"name":"","type":"address","internalType":"address"}],"outputs":[{"name":"","type":"uint256","internalType":"uint256"}],"stateMutability":"view"},{"type":"function","name":"deposit","inputs":[{"name":"amount","type":"uint256","internalType":"uint256"}],"outputs":[],"stateMutability":"nonpayable"},{"type":"function","name":"depositWithPermit2","inputs":[{"name":"owner","type":"address","internalType":"address"},{"name":"tokenAddress","type":"address","internalType":"address"},{"name":"amount","type":"uint256","internalType":"uint256"},{"name":"deadline","type":"uint256","internalType":"uint256"},{"name":"v","type":"uint8","internalType":"uint8"},{"name":"r","type":"bytes32","internalType":"bytes32"},{"name":"s","type":"bytes32","internalType":"bytes32"}],"outputs":[],"stateMutability":"nonpayable"},{"type":"function","name":"getNonce","inputs":[{"name":"owner","type":"address","internalType":"address"}],"outputs":[{"name":"","type":"uint256","internalType":"uint256"}],"stateMutability":"view"},{"type":"function","name":"nonces","inputs":[{"name":"","type":"address","internalType":"address"}],"outputs":[{"name":"","type":"uint256","internalType":"uint256"}],"stateMutability":"view"},{"type":"function","name":"owner","inputs":[],"outputs":[{"name":"","type":"address","internalType":"address"}],"stateMutability":"view"},{"type":"function","name":"permitDeposit","inputs":[{"name":"owner","type":"address","internalType":"address"},{"name":"amount","type":"uint256","internalType":"uint256"},{"name":"deadline","type":"uint256","internalType":"uint256"},{"name":"v","type":"uint8","internalType":"uint8"},{"name":"r","type":"bytes32","internalType":"bytes32"},{"name":"s","type":"bytes32","internalType":"bytes32"}],"outputs":[],"stateMutability":"nonpayable"},{"type":"function","name":"permitDepositWithTokenPermit","inputs":[{"name":"owner","type":"address","internalType":"address"},{"name":"amount","type":"uint256","internalType":"uint256"},{"name":"deadline","type":"uint256","internalType":"uint256"},{"name":"v","type":"uint8","internalType":"uint8"},{"name":"r","type":"bytes32","internalType":"bytes32"},{"name":"s","type":"bytes32","internalType":"bytes32"}],"outputs":[],"stateMutability":"nonpayable"},{"type":"function","name":"setOwner","inputs":[{"name":"newOwner","type":"address","internalType":"address"}],"outputs":[],"stateMutability":"nonpayable"},{"type":"function","name":"token","inputs":[],"outputs":[{"name":"","type":"address","internalType":"contract IERC20"}],"stateMutability":"view"},{"type":"function","name":"tokenBankOwner","inputs":[],"outputs":[{"name":"","type":"address","internalType":"address"}],"stateMutability":"view"},{"type":"function","name":"tokensReceived","inputs":[{"name":"from","type":"address","internalType":"address"},{"name":"amount","type":"uint256","internalType":"uint256"},{"name":"token","type":"address","internalType":"address"}],"outputs":[],"stateMutability":"nonpayable"},{"type":"function","name":"totalDeposit","inputs":[],"outputs":[{"name":"","type":"uint256","internalType":"uint256"}],"stateMutability":"view"},{"type":"function","name":"tryPermit","inputs":[{"name":"tokenAddress","type":"address","internalType":"address"},{"name":"owner","type":"address","internalType":"address"},{"name":"spender","type":"address","internalType":"address"},{"name":"value","type":"uint256","internalType":"uint256"},{"name":"deadline","type":"uint256","internalType":"uint256"},{"name":"v","type":"uint8","internalType":"uint8"},{"name":"r","type":"bytes32","internalType":"bytes32"},{"name":"s","type":"bytes32","internalType":"bytes32"}],"outputs":[],"stateMutability":"nonpayable"},{"type":"function","name":"userTokenBalances","inputs":[{"name":"","type":"address","internalType":"address"},{"name":"","type":"address","internalType":"address"}],"outputs":[{"name":"","type":"uint256","internalType":"uint256"}],"stateMutability":"view"},{"type":"function","name":"withdraw","inputs":[{"name":"amount","type":"uint256","internalType":"uint256"}],"outputs":[],"stateMutability":"nonpayable"},{"type":"event","name":"DepositWithPermit2","inputs":[{"name":"owner","type":"address","indexed":true,"internalType":"address"},{"name":"token","type":"address","indexed":true,"internalType":"address"},{"name":"amount","type":"uint256","indexed":false,"internalType":"uint256"},{"name":"deadline","type":"uint256","indexed":false,"internalType":"uint256"}],"anonymous":false},{"type":"event","name":"PermitDeposit","inputs":[{"name":"owner","type":"address","indexed":true,"internalType":"address"},{"name":"amount","type":"uint256","indexed":false,"internalType":"uint256"},{"name":"deadline","type":"uint256","indexed":false,"internalType":"uint256"}],"anonymous":false},{"type":"error","name":"InsufficientAllowance","inputs":[{"name":"owner","type":"address","internalType":"address"},{"name":"allowance","type":"uint256","internalType":"uint256"},{"name":"amount","type":"uint256","internalType":"uint256"}]},{"type":"error","name":"InsufficientTokenBalance","inputs":[{"name":"owner","type":"address","internalType":"address"},{"name":"balance","type":"uint256","internalType":"uint256"},{"name":"amount","type":"uint256","internalType":"uint256"}]},{"type":"error","name":"Permit2InvalidToken","inputs":[{"name":"token","type":"address","internalType":"address"}]},{"type":"error","name":"Permit2InvalidValue","inputs":[{"name":"value","type":"uint256","internalType":"uint256"}]},{"type":"error","name":"PermitDepositExpiredSignature","inputs":[{"name":"deadline","type":"uint256","internalType":"uint256"}]},{"type":"error","name":"PermitDepositInvalidAmount","inputs":[{"name":"amount","type":"uint256","internalType":"uint256"}]},{"type":"error","name":"PermitDepositInvalidSigner","inputs":[{"name":"signer","type":"address","internalType":"address"},{"name":"owner","type":"address","internalType":"address"}]}],"bytecode":{"object":"0x608060405234801561000f575f5ffd5b5060405161239e38038061239e83398181016040528101906100319190610169565b8080335f5f6101000a81548173ffffffffffffffffffffffffffffffffffffffff021916908373ffffffffffffffffffffffffffffffffffffffff1602179055508060035f6101000a81548173ffffffffffffffffffffffffffffffffffffffff021916908373ffffffffffffffffffffffffffffffffffffffff160217905550503360055f6101000a81548173ffffffffffffffffffffffffffffffffffffffff021916908373ffffffffffffffffffffffffffffffffffffffff1602179055505050610194565b5f5ffd5b5f73ffffffffffffffffffffffffffffffffffffffff82169050919050565b5f610127826100fe565b9050919050565b5f6101388261011d565b9050919050565b6101488161012e565b8114610152575f5ffd5b50565b5f815190506101638161013f565b92915050565b5f6020828403121561017e5761017d6100fa565b5b5f61018b84828501610155565b91505092915050565b6121fd806101a15f395ff3fe608060405234801561000f575f5ffd5b506004361061011f575f3560e01c806345f2d105116100ab5780638f7b1bca1161006f5780638f7b1bca14610305578063b6b55f2514610321578063f6153ccd1461033d578063fc0c546a1461035b578063fcc41f57146103795761011f565b806345f2d1051461024d5780637ecebe001461027d578063836d1579146102ad578063840e7c39146102cb5780638da5cb5b146102e75761011f565b80632d0335ab116100f25780632d0335ab146101a95780632e1a7d4d146101d9578063302c5f84146101f557806330adf81f146102115780633644e5151461022f5761011f565b806313af403514610123578063140189781461013f57806327e235e31461015d5780632b86ed2f1461018d575b5f5ffd5b61013d600480360381019061013891906115ec565b610395565b005b6101476104bc565b6040516101549190611626565b60405180910390f35b610177600480360381019061017291906115ec565b6104e1565b6040516101849190611657565b60405180910390f35b6101a760048036038101906101a2919061169a565b6104f6565b005b6101c360048036038101906101be91906115ec565b6105f7565b6040516101d09190611657565b60405180910390f35b6101f360048036038101906101ee91906116ea565b61063d565b005b61020f600480360381019061020a919061177e565b610806565b005b61021961092d565b6040516102269190611816565b60405180910390f35b610237610951565b6040516102449190611816565b60405180910390f35b6102676004803603810190610262919061182f565b610a1e565b6040516102749190611657565b60405180910390f35b610297600480360381019061029291906115ec565b610a3e565b6040516102a49190611657565b60405180910390f35b6102b5610a53565b6040516102c29190611816565b60405180910390f35b6102e560048036038101906102e0919061186d565b610a77565b005b6102ef610bc3565b6040516102fc9190611626565b60405180910390f35b61031f600480360381019061031a919061177e565b610be7565b005b61033b600480360381019061033691906116ea565b610d6c565b005b610345610d78565b6040516103529190611657565b60405180910390f35b610363610d7e565b6040516103709190611979565b60405180910390f35b610393600480360381019061038e9190611992565b610da3565b005b5f5f9054906101000a900473ffffffffffffffffffffffffffffffffffffffff1673ffffffffffffffffffffffffffffffffffffffff163373ffffffffffffffffffffffffffffffffffffffff16148061043b575060055f9054906101000a900473ffffffffffffffffffffffffffffffffffffffff1673ffffffffffffffffffffffffffffffffffffffff163373ffffffffffffffffffffffffffffffffffffffff16145b61047a576040517f08c379a000000000000000000000000000000000000000000000000000000000815260040161047190611a89565b60405180910390fd5b805f5f6101000a81548173ffffffffffffffffffffffffffffffffffffffff021916908373ffffffffffffffffffffffffffffffffffffffff16021790555050565b60055f9054906101000a900473ffffffffffffffffffffffffffffffffffffffff1681565b6001602052805f5260405f205f915090505481565b8073ffffffffffffffffffffffffffffffffffffffff163373ffffffffffffffffffffffffffffffffffffffff1614610564576040517f08c379a000000000000000000000000000000000000000000000000000000000815260040161055b90611af1565b60405180910390fd5b8160045f8573ffffffffffffffffffffffffffffffffffffffff1673ffffffffffffffffffffffffffffffffffffffff1681526020019081526020015f205f8373ffffffffffffffffffffffffffffffffffffffff1673ffffffffffffffffffffffffffffffffffffffff1681526020019081526020015f205f8282546105eb9190611b3c565b92505081905550505050565b5f60065f8373ffffffffffffffffffffffffffffffffffffffff1673ffffffffffffffffffffffffffffffffffffffff1681526020019081526020015f20549050919050565b8060015f3373ffffffffffffffffffffffffffffffffffffffff1673ffffffffffffffffffffffffffffffffffffffff1681526020019081526020015f205410156106bd576040517f08c379a00000000000000000000000000000000000000000000000000000000081526004016106b490611bb9565b60405180910390fd5b8060015f3373ffffffffffffffffffffffffffffffffffffffff1673ffffffffffffffffffffffffffffffffffffffff1681526020019081526020015f205f8282546107099190611bd7565b925050819055508060025f8282546107219190611bd7565b9250508190555060035f9054906101000a900473ffffffffffffffffffffffffffffffffffffffff1673ffffffffffffffffffffffffffffffffffffffff1663a9059cbb33836040518363ffffffff1660e01b8152600401610784929190611c0a565b6020604051808303815f875af11580156107a0573d5f5f3e3d5ffd5b505050506040513d601f19601f820116820180604052508101906107c49190611c66565b610803576040517f08c379a00000000000000000000000000000000000000000000000000000000081526004016107fa90611cdb565b60405180910390fd5b50565b610811868686610e9a565b5f60035f9054906101000a900473ffffffffffffffffffffffffffffffffffffffff1690508073ffffffffffffffffffffffffffffffffffffffff1663d505accf883089898989896040518863ffffffff1660e01b815260040161087b9796959493929190611d08565b5f604051808303815f87803b158015610892575f5ffd5b505af11580156108a4573d5f5f3e3d5ffd5b505050506108d48760035f9054906101000a900473ffffffffffffffffffffffffffffffffffffffff1688610f28565b8673ffffffffffffffffffffffffffffffffffffffff167f17ec270357dbb4df33522ba8cffb4d405e5948795ef252102d4cb1fabe1373f4878760405161091c929190611d75565b60405180910390a250505050505050565b7fd3445ae723d3622133544ea22d23f3a973b674b2d72df6c2d55e759bd0eed7cb81565b5f7f8b73c3c69bb8fe3d512ecc4cf759cc79239f7b179b0ffacaa9a75d522b39400f6040518060400160405280600b81526020017f546f6b656e42616e6b5633000000000000000000000000000000000000000000815250805190602001206040518060400160405280600181526020017f3100000000000000000000000000000000000000000000000000000000000000815250805190602001204630604051602001610a03959493929190611d9c565b60405160208183030381529060405280519060200120905090565b6004602052815f5260405f20602052805f5260405f205f91509150505481565b6006602052805f5260405f205f915090505481565b7f65406601880dcfb0d2821203c8b8c0605aa3fdf3a865803d290c5b8338edc1ba81565b5f8873ffffffffffffffffffffffffffffffffffffffff1688888888888888604051602401610aac9796959493929190611d08565b6040516020818303038152906040527fd505accf000000000000000000000000000000000000000000000000000000007bffffffffffffffffffffffffffffffffffffffffffffffffffffffff19166020820180517bffffffffffffffffffffffffffffffffffffffffffffffffffffffff8381831617835250505050604051610b369190611e3f565b5f604051808303815f865af19150503d805f8114610b6f576040519150601f19603f3d011682016040523d82523d5f602084013e610b74565b606091505b5050905080610bb8576040517f08c379a0000000000000000000000000000000000000000000000000000000008152600401610baf90611e9f565b60405180910390fd5b505050505050505050565b5f5f9054906101000a900473ffffffffffffffffffffffffffffffffffffffff1681565b610bf2868686610e9a565b610c008686868686866111a7565b5f60035f9054906101000a900473ffffffffffffffffffffffffffffffffffffffff1673ffffffffffffffffffffffffffffffffffffffff1663dd62ed3e88306040518363ffffffff1660e01b8152600401610c5d929190611ebd565b602060405180830381865afa158015610c78573d5f5f3e3d5ffd5b505050506040513d601f19601f82011682018060405250810190610c9c9190611ef8565b905085811015610ce7578681876040517f192b9e4e000000000000000000000000000000000000000000000000000000008152600401610cde93929190611f23565b60405180910390fd5b610d138760035f9054906101000a900473ffffffffffffffffffffffffffffffffffffffff1688610f28565b8673ffffffffffffffffffffffffffffffffffffffff167f17ec270357dbb4df33522ba8cffb4d405e5948795ef252102d4cb1fabe1373f48787604051610d5b929190611d75565b60405180910390a250505050505050565b610d75816112f6565b50565b60025481565b60035f9054906101000a900473ffffffffffffffffffffffffffffffffffffffff1681565b610daf87878787611302565b3073ffffffffffffffffffffffffffffffffffffffff1663840e7c3987893089898989896040518963ffffffff1660e01b8152600401610df6989796959493929190611f58565b5f604051808303815f87803b158015610e0d575f5ffd5b505af1925050508015610e1e575060015b50610e2a878787610f28565b8573ffffffffffffffffffffffffffffffffffffffff168773ffffffffffffffffffffffffffffffffffffffff167ffd8e38ed9e80af20a4ca2311c2d783b7eaea91041212a6d5f0d77c407e0711b98787604051610e89929190611d75565b60405180910390a350505050505050565b5f8203610ede57816040517f3a93159e000000000000000000000000000000000000000000000000000000008152600401610ed59190611657565b60405180910390fd5b80421115610f2357806040517f1e83122a000000000000000000000000000000000000000000000000000000008152600401610f1a9190611657565b60405180910390fd5b505050565b5f8273ffffffffffffffffffffffffffffffffffffffff166370a08231856040518263ffffffff1660e01b8152600401610f629190611626565b602060405180830381865afa158015610f7d573d5f5f3e3d5ffd5b505050506040513d601f19601f82011682018060405250810190610fa19190611ef8565b905081811015610fec578381836040517febd6ced9000000000000000000000000000000000000000000000000000000008152600401610fe393929190611f23565b60405180910390fd5b8273ffffffffffffffffffffffffffffffffffffffff166323b872dd8530856040518463ffffffff1660e01b815260040161102993929190611fd4565b6020604051808303815f875af1158015611045573d5f5f3e3d5ffd5b505050506040513d601f19601f820116820180604052508101906110699190611c66565b6110a8576040517f08c379a000000000000000000000000000000000000000000000000000000000815260040161109f90611cdb565b60405180910390fd5b8160015f8673ffffffffffffffffffffffffffffffffffffffff1673ffffffffffffffffffffffffffffffffffffffff1681526020019081526020015f205f8282546110f49190611b3c565b925050819055508160025f82825461110c9190611b3c565b925050819055508160045f8673ffffffffffffffffffffffffffffffffffffffff1673ffffffffffffffffffffffffffffffffffffffff1681526020019081526020015f205f8573ffffffffffffffffffffffffffffffffffffffff1673ffffffffffffffffffffffffffffffffffffffff1681526020019081526020015f205f82825461119a9190611b3c565b9250508190555050505050565b5f7fd3445ae723d3622133544ea22d23f3a973b674b2d72df6c2d55e759bd0eed7cb8787876040516020016111df9493929190612009565b6040516020818303038152906040528051906020012090505f611200610951565b826040516020016112129291906120c0565b6040516020818303038152906040528051906020012090505f6001828787876040515f815260200160405260405161124d94939291906120f6565b6020604051602081039080840390855afa15801561126d573d5f5f3e3d5ffd5b5050506020604051035190508873ffffffffffffffffffffffffffffffffffffffff168173ffffffffffffffffffffffffffffffffffffffff16146112eb5780896040517fc533faca0000000000000000000000000000000000000000000000000000000081526004016112e2929190611ebd565b60405180910390fd5b505050505050505050565b6112ff81611401565b50565b5f73ffffffffffffffffffffffffffffffffffffffff168373ffffffffffffffffffffffffffffffffffffffff160361137257826040517fe8c86d070000000000000000000000000000000000000000000000000000000081526004016113699190611626565b60405180910390fd5b5f82036113b657816040517ffc30cbf60000000000000000000000000000000000000000000000000000000081526004016113ad9190611657565b60405180910390fd5b804211156113fb57806040517f1e83122a0000000000000000000000000000000000000000000000000000000081526004016113f29190611657565b60405180910390fd5b50505050565b5f8111611443576040517f08c379a000000000000000000000000000000000000000000000000000000000815260040161143a906121a9565b60405180910390fd5b60035f9054906101000a900473ffffffffffffffffffffffffffffffffffffffff1673ffffffffffffffffffffffffffffffffffffffff166323b872dd3330846040518463ffffffff1660e01b81526004016114a193929190611fd4565b6020604051808303815f875af11580156114bd573d5f5f3e3d5ffd5b505050506040513d601f19601f820116820180604052508101906114e19190611c66565b611520576040517f08c379a000000000000000000000000000000000000000000000000000000000815260040161151790611cdb565b60405180910390fd5b8060015f3373ffffffffffffffffffffffffffffffffffffffff1673ffffffffffffffffffffffffffffffffffffffff1681526020019081526020015f205f82825461156c9190611b3c565b925050819055508060025f8282546115849190611b3c565b9250508190555050565b5f5ffd5b5f73ffffffffffffffffffffffffffffffffffffffff82169050919050565b5f6115bb82611592565b9050919050565b6115cb816115b1565b81146115d5575f5ffd5b50565b5f813590506115e6816115c2565b92915050565b5f602082840312156116015761160061158e565b5b5f61160e848285016115d8565b91505092915050565b611620816115b1565b82525050565b5f6020820190506116395f830184611617565b92915050565b5f819050919050565b6116518161163f565b82525050565b5f60208201905061166a5f830184611648565b92915050565b6116798161163f565b8114611683575f5ffd5b50565b5f8135905061169481611670565b92915050565b5f5f5f606084860312156116b1576116b061158e565b5b5f6116be868287016115d8565b93505060206116cf86828701611686565b92505060406116e0868287016115d8565b9150509250925092565b5f602082840312156116ff576116fe61158e565b5b5f61170c84828501611686565b91505092915050565b5f60ff82169050919050565b61172a81611715565b8114611734575f5ffd5b50565b5f8135905061174581611721565b92915050565b5f819050919050565b61175d8161174b565b8114611767575f5ffd5b50565b5f8135905061177881611754565b92915050565b5f5f5f5f5f5f60c087890312156117985761179761158e565b5b5f6117a589828a016115d8565b96505060206117b689828a01611686565b95505060406117c789828a01611686565b94505060606117d889828a01611737565b93505060806117e989828a0161176a565b92505060a06117fa89828a0161176a565b9150509295509295509295565b6118108161174b565b82525050565b5f6020820190506118295f830184611807565b92915050565b5f5f604083850312156118455761184461158e565b5b5f611852858286016115d8565b9250506020611863858286016115d8565b9150509250929050565b5f5f5f5f5f5f5f5f610100898b03121561188a5761188961158e565b5b5f6118978b828c016115d8565b98505060206118a88b828c016115d8565b97505060406118b98b828c016115d8565b96505060606118ca8b828c01611686565b95505060806118db8b828c01611686565b94505060a06118ec8b828c01611737565b93505060c06118fd8b828c0161176a565b92505060e061190e8b828c0161176a565b9150509295985092959890939650565b5f819050919050565b5f61194161193c61193784611592565b61191e565b611592565b9050919050565b5f61195282611927565b9050919050565b5f61196382611948565b9050919050565b61197381611959565b82525050565b5f60208201905061198c5f83018461196a565b92915050565b5f5f5f5f5f5f5f60e0888a0312156119ad576119ac61158e565b5b5f6119ba8a828b016115d8565b97505060206119cb8a828b016115d8565b96505060406119dc8a828b01611686565b95505060606119ed8a828b01611686565b94505060806119fe8a828b01611737565b93505060a0611a0f8a828b0161176a565b92505060c0611a208a828b0161176a565b91505092959891949750929550565b5f82825260208201905092915050565b7f4f6e6c79206f776e65722063616e20736574206e6577206f776e6572000000005f82015250565b5f611a73601c83611a2f565b9150611a7e82611a3f565b602082019050919050565b5f6020820190508181035f830152611aa081611a67565b9050919050565b7f4f6e6c7920746f6b656e20636f6e74726163742063616e2063616c6c000000005f82015250565b5f611adb601c83611a2f565b9150611ae682611aa7565b602082019050919050565b5f6020820190508181035f830152611b0881611acf565b9050919050565b7f4e487b71000000000000000000000000000000000000000000000000000000005f52601160045260245ffd5b5f611b468261163f565b9150611b518361163f565b9250828201905080821115611b6957611b68611b0f565b5b92915050565b7f496e73756666696369656e742062616c616e636520746f2077697468647261775f82015250565b5f611ba3602083611a2f565b9150611bae82611b6f565b602082019050919050565b5f6020820190508181035f830152611bd081611b97565b9050919050565b5f611be18261163f565b9150611bec8361163f565b9250828203905081811115611c0457611c03611b0f565b5b92915050565b5f604082019050611c1d5f830185611617565b611c2a6020830184611648565b9392505050565b5f8115159050919050565b611c4581611c31565b8114611c4f575f5ffd5b50565b5f81519050611c6081611c3c565b92915050565b5f60208284031215611c7b57611c7a61158e565b5b5f611c8884828501611c52565b91505092915050565b7f5472616e73666572206661696c656400000000000000000000000000000000005f82015250565b5f611cc5600f83611a2f565b9150611cd082611c91565b602082019050919050565b5f6020820190508181035f830152611cf281611cb9565b9050919050565b611d0281611715565b82525050565b5f60e082019050611d1b5f83018a611617565b611d286020830189611617565b611d356040830188611648565b611d426060830187611648565b611d4f6080830186611cf9565b611d5c60a0830185611807565b611d6960c0830184611807565b98975050505050505050565b5f604082019050611d885f830185611648565b611d956020830184611648565b9392505050565b5f60a082019050611daf5f830188611807565b611dbc6020830187611807565b611dc96040830186611807565b611dd66060830185611648565b611de36080830184611617565b9695505050505050565b5f81519050919050565b5f81905092915050565b8281835e5f83830152505050565b5f611e1982611ded565b611e238185611df7565b9350611e33818560208601611e01565b80840191505092915050565b5f611e4a8284611e0f565b915081905092915050565b7f5065726d6974206661696c6564000000000000000000000000000000000000005f82015250565b5f611e89600d83611a2f565b9150611e9482611e55565b602082019050919050565b5f6020820190508181035f830152611eb681611e7d565b9050919050565b5f604082019050611ed05f830185611617565b611edd6020830184611617565b9392505050565b5f81519050611ef281611670565b92915050565b5f60208284031215611f0d57611f0c61158e565b5b5f611f1a84828501611ee4565b91505092915050565b5f606082019050611f365f830186611617565b611f436020830185611648565b611f506040830184611648565b949350505050565b5f61010082019050611f6c5f83018b611617565b611f79602083018a611617565b611f866040830189611617565b611f936060830188611648565b611fa06080830187611648565b611fad60a0830186611cf9565b611fba60c0830185611807565b611fc760e0830184611807565b9998505050505050505050565b5f606082019050611fe75f830186611617565b611ff46020830185611617565b6120016040830184611648565b949350505050565b5f60808201905061201c5f830187611807565b6120296020830186611617565b6120366040830185611648565b6120436060830184611648565b95945050505050565b5f81905092915050565b7f19010000000000000000000000000000000000000000000000000000000000005f82015250565b5f61208a60028361204c565b915061209582612056565b600282019050919050565b5f819050919050565b6120ba6120b58261174b565b6120a0565b82525050565b5f6120ca8261207e565b91506120d682856120a9565b6020820191506120e682846120a9565b6020820191508190509392505050565b5f6080820190506121095f830187611807565b6121166020830186611cf9565b6121236040830185611807565b6121306060830184611807565b95945050505050565b7f4465706f73697420616d6f756e74206d757374206265206772656174657220745f8201527f68616e2030000000000000000000000000000000000000000000000000000000602082015250565b5f612193602583611a2f565b915061219e82612139565b604082019050919050565b5f6020820190508181035f8301526121c081612187565b905091905056fea2646970667358221220880c9fa3d24906902542f27835758084fe5aba9bb10be3e9f2c88571a52e659b64736f6c634300081e0033","linkReferences":{}},"methodIdentifiers":{"DOMAIN_SEPARATOR()":"3644e515","PERMIT2_TYPEHASH()":"836d1579","PERMIT_TYPEHASH()":"30adf81f","balances(address)":"27e235e3","deposit(uint256)":"b6b55f25","depositWithPermit2(address,address,uint256,uint256,uint8,bytes32,bytes32)":"fcc41f57","getNonce(address)":"2d0335ab","nonces(address)":"7ecebe00","owner()":"8da5cb5b","permitDeposit(address,uint256,uint256,uint8,bytes32,bytes32)":"8f7b1bca","permitDepositWithTokenPermit(address,uint256,uint256,uint8,bytes32,bytes32)":"302c5f84","setOwner(address)":"13af4035","token()":"fc0c546a","tokenBankOwner()":"14018978","tokensReceived(address,uint256,address)":"2b86ed2f","totalDeposit()":"f6153ccd","tryPermit(address,address,address,uint256,uint256,uint8,bytes32,bytes32)":"840e7c39","userTokenBalances(address,address)":"45f2d105","withdraw(uint256)":"2e1a7d4d"},"id":68}