{"abi":[{"type":"constructor","inputs":[{"name":"_token","type":"address","internalType":"contract TokenV3"}],"stateMutability":"nonpayable"},{"type":"function","name":"DOMAIN_SEPARATOR","inputs":[],"outputs":[{"name":"","type":"bytes32","internalType":"bytes32"}],"stateMutability":"view"},{"type":"function","name":"PERMIT2_TYPEHASH","inputs":[],"outputs":[{"name":"","type":"bytes32","internalType":"bytes32"}],"stateMutability":"view"},{"type":"function","name":"PERMIT_TYPEHASH","inputs":[],"outputs":[{"name":"","type":"bytes32","internalType":"bytes32"}],"stateMutability":"view"},{"type":"function","name":"balances","inputs":[{"name":"","type":"address","internalType":"address"}],"outputs":[{"name":"","type":"uint256","internalType":"uint256"}],"stateMutability":"view"},{"type":"function","name":"deposit","inputs":[{"name":"amount","type":"uint256","internalType":"uint256"}],"outputs":[],"stateMutability":"nonpayable"},{"type":"function","name":"depositWithPermit2","inputs":[{"name":"owner","type":"address","internalType":"address"},{"name":"tokenAddress","type":"address","internalType":"address"},{"name":"amount","type":"uint256","internalType":"uint256"},{"name":"deadline","type":"uint256","internalType":"uint256"},{"name":"v","type":"uint8","internalType":"uint8"},{"name":"r","type":"bytes32","internalType":"bytes32"},{"name":"s","type":"bytes32","internalType":"bytes32"}],"outputs":[],"stateMutability":"nonpayable"},{"type":"function","name":"getNonce","inputs":[{"name":"owner","type":"address","internalType":"address"}],"outputs":[{"name":"","type":"uint256","internalType":"uint256"}],"stateMutability":"view"},{"type":"function","name":"nonces","inputs":[{"name":"","type":"address","internalType":"address"}],"outputs":[{"name":"","type":"uint256","internalType":"uint256"}],"stateMutability":"view"},{"type":"function","name":"owner","inputs":[],"outputs":[{"name":"","type":"address","internalType":"address"}],"stateMutability":"view"},{"type":"function","name":"permitDeposit","inputs":[{"name":"owner","type":"address","internalType":"address"},{"name":"amount","type":"uint256","internalType":"uint256"},{"name":"deadline","type":"uint256","internalType":"uint256"},{"name":"v","type":"uint8","internalType":"uint8"},{"name":"r","type":"bytes32","internalType":"bytes32"},{"name":"s","type":"bytes32","internalType":"bytes32"}],"outputs":[],"stateMutability":"nonpayable"},{"type":"function","name":"permitDepositWithTokenPermit","inputs":[{"name":"owner","type":"address","internalType":"address"},{"name":"amount","type":"uint256","internalType":"uint256"},{"name":"deadline","type":"uint256","internalType":"uint256"},{"name":"tokenV","type":"uint8","internalType":"uint8"},{"name":"tokenR","type":"bytes32","internalType":"bytes32"},{"name":"tokenS","type":"bytes32","internalType":"bytes32"},{"name":"bankV","type":"uint8","internalType":"uint8"},{"name":"bankR","type":"bytes32","internalType":"bytes32"},{"name":"bankS","type":"bytes32","internalType":"bytes32"}],"outputs":[],"stateMutability":"nonpayable"},{"type":"function","name":"setOwner","inputs":[{"name":"newOwner","type":"address","internalType":"address"}],"outputs":[],"stateMutability":"nonpayable"},{"type":"function","name":"token","inputs":[],"outputs":[{"name":"","type":"address","internalType":"contract IERC20"}],"stateMutability":"view"},{"type":"function","name":"tokenBankOwner","inputs":[],"outputs":[{"name":"","type":"address","internalType":"address"}],"stateMutability":"view"},{"type":"function","name":"tokensReceived","inputs":[{"name":"from","type":"address","internalType":"address"},{"name":"amount","type":"uint256","internalType":"uint256"},{"name":"token","type":"address","internalType":"address"}],"outputs":[],"stateMutability":"nonpayable"},{"type":"function","name":"totalDeposit","inputs":[],"outputs":[{"name":"","type":"uint256","internalType":"uint256"}],"stateMutability":"view"},{"type":"function","name":"tryPermit","inputs":[{"name":"tokenAddress","type":"address","internalType":"address"},{"name":"owner","type":"address","internalType":"address"},{"name":"spender","type":"address","internalType":"address"},{"name":"value","type":"uint256","internalType":"uint256"},{"name":"deadline","type":"uint256","internalType":"uint256"},{"name":"v","type":"uint8","internalType":"uint8"},{"name":"r","type":"bytes32","internalType":"bytes32"},{"name":"s","type":"bytes32","internalType":"bytes32"}],"outputs":[],"stateMutability":"nonpayable"},{"type":"function","name":"userTokenBalances","inputs":[{"name":"","type":"address","internalType":"address"},{"name":"","type":"address","internalType":"address"}],"outputs":[{"name":"","type":"uint256","internalType":"uint256"}],"stateMutability":"view"},{"type":"function","name":"withdraw","inputs":[{"name":"amount","type":"uint256","internalType":"uint256"}],"outputs":[],"stateMutability":"nonpayable"},{"type":"event","name":"DepositWithPermit2","inputs":[{"name":"owner","type":"address","indexed":true,"internalType":"address"},{"name":"token","type":"address","indexed":true,"internalType":"address"},{"name":"amount","type":"uint256","indexed":false,"internalType":"uint256"},{"name":"deadline","type":"uint256","indexed":false,"internalType":"uint256"}],"anonymous":false},{"type":"event","name":"PermitDeposit","inputs":[{"name":"owner","type":"address","indexed":true,"internalType":"address"},{"name":"amount","type":"uint256","indexed":false,"internalType":"uint256"},{"name":"deadline","type":"uint256","indexed":false,"internalType":"uint256"}],"anonymous":false},{"type":"error","name":"Permit2InvalidToken","inputs":[{"name":"token","type":"address","internalType":"address"}]},{"type":"error","name":"Permit2InvalidValue","inputs":[{"name":"value","type":"uint256","internalType":"uint256"}]},{"type":"error","name":"PermitDepositExpiredSignature","inputs":[{"name":"deadline","type":"uint256","internalType":"uint256"}]},{"type":"error","name":"PermitDepositInvalidAmount","inputs":[{"name":"amount","type":"uint256","internalType":"uint256"}]},{"type":"error","name":"PermitDepositInvalidSigner","inputs":[{"name":"signer","type":"address","internalType":"address"},{"name":"owner","type":"address","internalType":"address"}]}],"bytecode":{"object":"0x608060405234801561000f575f5ffd5b506040516127e53803806127e583398181016040528101906100319190610169565b8080335f5f6101000a81548173ffffffffffffffffffffffffffffffffffffffff021916908373ffffffffffffffffffffffffffffffffffffffff1602179055508060035f6101000a81548173ffffffffffffffffffffffffffffffffffffffff021916908373ffffffffffffffffffffffffffffffffffffffff160217905550503360055f6101000a81548173ffffffffffffffffffffffffffffffffffffffff021916908373ffffffffffffffffffffffffffffffffffffffff1602179055505050610194565b5f5ffd5b5f73ffffffffffffffffffffffffffffffffffffffff82169050919050565b5f610127826100fe565b9050919050565b5f6101388261011d565b9050919050565b6101488161012e565b8114610152575f5ffd5b50565b5f815190506101638161013f565b92915050565b5f6020828403121561017e5761017d6100fa565b5b5f61018b84828501610155565b91505092915050565b612644806101a15f395ff3fe608060405234801561000f575f5ffd5b506004361061011f575f3560e01c806345f2d105116100ab5780638f7b1bca1161006f5780638f7b1bca14610305578063b6b55f2514610321578063f6153ccd1461033d578063fc0c546a1461035b578063fcc41f57146103795761011f565b806345f2d1051461024d5780637ecebe001461027d578063836d1579146102ad578063840e7c39146102cb5780638da5cb5b146102e75761011f565b80632d0335ab116100f25780632d0335ab146101a95780632e1a7d4d146101d957806330adf81f146101f55780633644e5151461021357806341245ed8146102315761011f565b806313af403514610123578063140189781461013f57806327e235e31461015d5780632b86ed2f1461018d575b5f5ffd5b61013d600480360381019061013891906119e3565b610395565b005b6101476104bc565b6040516101549190611a1d565b60405180910390f35b610177600480360381019061017291906119e3565b6104e1565b6040516101849190611a4e565b60405180910390f35b6101a760048036038101906101a29190611a91565b6104f6565b005b6101c360048036038101906101be91906119e3565b6105f7565b6040516101d09190611a4e565b60405180910390f35b6101f360048036038101906101ee9190611ae1565b61063d565b005b6101fd610806565b60405161020a9190611b24565b60405180910390f35b61021b61082a565b6040516102289190611b24565b60405180910390f35b61024b60048036038101906102469190611b9d565b6108f7565b005b61026760048036038101906102629190611c61565b610de5565b6040516102749190611a4e565b60405180910390f35b610297600480360381019061029291906119e3565b610e05565b6040516102a49190611a4e565b60405180910390f35b6102b5610e1a565b6040516102c29190611b24565b60405180910390f35b6102e560048036038101906102e09190611c9f565b610e3e565b005b6102ef610f8a565b6040516102fc9190611a1d565b60405180910390f35b61031f600480360381019061031a9190611d50565b610fae565b005b61033b60048036038101906103369190611ae1565b611427565b005b610345611433565b6040516103529190611a4e565b60405180910390f35b610363611439565b6040516103709190611e34565b60405180910390f35b610393600480360381019061038e9190611e4d565b61145e565b005b5f5f9054906101000a900473ffffffffffffffffffffffffffffffffffffffff1673ffffffffffffffffffffffffffffffffffffffff163373ffffffffffffffffffffffffffffffffffffffff16148061043b575060055f9054906101000a900473ffffffffffffffffffffffffffffffffffffffff1673ffffffffffffffffffffffffffffffffffffffff163373ffffffffffffffffffffffffffffffffffffffff16145b61047a576040517f08c379a000000000000000000000000000000000000000000000000000000000815260040161047190611f44565b60405180910390fd5b805f5f6101000a81548173ffffffffffffffffffffffffffffffffffffffff021916908373ffffffffffffffffffffffffffffffffffffffff16021790555050565b60055f9054906101000a900473ffffffffffffffffffffffffffffffffffffffff1681565b6001602052805f5260405f205f915090505481565b8073ffffffffffffffffffffffffffffffffffffffff163373ffffffffffffffffffffffffffffffffffffffff1614610564576040517f08c379a000000000000000000000000000000000000000000000000000000000815260040161055b90611fac565b60405180910390fd5b8160045f8573ffffffffffffffffffffffffffffffffffffffff1673ffffffffffffffffffffffffffffffffffffffff1681526020019081526020015f205f8373ffffffffffffffffffffffffffffffffffffffff1673ffffffffffffffffffffffffffffffffffffffff1681526020019081526020015f205f8282546105eb9190611ff7565b92505081905550505050565b5f60065f8373ffffffffffffffffffffffffffffffffffffffff1673ffffffffffffffffffffffffffffffffffffffff1681526020019081526020015f20549050919050565b8060015f3373ffffffffffffffffffffffffffffffffffffffff1673ffffffffffffffffffffffffffffffffffffffff1681526020019081526020015f205410156106bd576040517f08c379a00000000000000000000000000000000000000000000000000000000081526004016106b490612074565b60405180910390fd5b8060015f3373ffffffffffffffffffffffffffffffffffffffff1673ffffffffffffffffffffffffffffffffffffffff1681526020019081526020015f205f8282546107099190612092565b925050819055508060025f8282546107219190612092565b9250508190555060035f9054906101000a900473ffffffffffffffffffffffffffffffffffffffff1673ffffffffffffffffffffffffffffffffffffffff1663a9059cbb33836040518363ffffffff1660e01b81526004016107849291906120c5565b6020604051808303815f875af11580156107a0573d5f5f3e3d5ffd5b505050506040513d601f19601f820116820180604052508101906107c49190612121565b610803576040517f08c379a00000000000000000000000000000000000000000000000000000000081526004016107fa90612196565b60405180910390fd5b50565b7fd3445ae723d3622133544ea22d23f3a973b674b2d72df6c2d55e759bd0eed7cb81565b5f7f8b73c3c69bb8fe3d512ecc4cf759cc79239f7b179b0ffacaa9a75d522b39400f6040518060400160405280600b81526020017f546f6b656e42616e6b5633000000000000000000000000000000000000000000815250805190602001206040518060400160405280600181526020017f31000000000000000000000000000000000000000000000000000000000000008152508051906020012046306040516020016108dc9594939291906121b4565b60405160208183030381529060405280519060200120905090565b5f880361093b57876040517f3a93159e0000000000000000000000000000000000000000000000000000000081526004016109329190611a4e565b60405180910390fd5b8642111561098057866040517f1e83122a0000000000000000000000000000000000000000000000000000000081526004016109779190611a4e565b60405180910390fd5b5f60035f9054906101000a900473ffffffffffffffffffffffffffffffffffffffff1690508073ffffffffffffffffffffffffffffffffffffffff1663d505accf8b308c8c8c8c8c6040518863ffffffff1660e01b81526004016109ea9796959493929190612214565b5f604051808303815f87803b158015610a01575f5ffd5b505af1158015610a13573d5f5f3e3d5ffd5b505050505f7fd3445ae723d3622133544ea22d23f3a973b674b2d72df6c2d55e759bd0eed7cb8b8b8b604051602001610a4f9493929190612281565b6040516020818303038152906040528051906020012090505f610a7061082a565b82604051602001610a82929190612338565b6040516020818303038152906040528051906020012090505f6001828888886040515f8152602001604052604051610abd949392919061236e565b6020604051602081039080840390855afa158015610add573d5f5f3e3d5ffd5b5050506020604051035190508c73ffffffffffffffffffffffffffffffffffffffff168173ffffffffffffffffffffffffffffffffffffffff1614610b5b57808d6040517fc533faca000000000000000000000000000000000000000000000000000000008152600401610b529291906123b1565b60405180910390fd5b8373ffffffffffffffffffffffffffffffffffffffff166323b872dd8e308f6040518463ffffffff1660e01b8152600401610b98939291906123d8565b6020604051808303815f875af1158015610bb4573d5f5f3e3d5ffd5b505050506040513d601f19601f82011682018060405250810190610bd89190612121565b610c17576040517f08c379a0000000000000000000000000000000000000000000000000000000008152600401610c0e90612196565b60405180910390fd5b8b60015f8f73ffffffffffffffffffffffffffffffffffffffff1673ffffffffffffffffffffffffffffffffffffffff1681526020019081526020015f205f828254610c639190611ff7565b925050819055508b60025f828254610c7b9190611ff7565b925050819055505f73ffffffffffffffffffffffffffffffffffffffff1660035f9054906101000a900473ffffffffffffffffffffffffffffffffffffffff1673ffffffffffffffffffffffffffffffffffffffff1614610d86578b60045f8f73ffffffffffffffffffffffffffffffffffffffff1673ffffffffffffffffffffffffffffffffffffffff1681526020019081526020015f205f60035f9054906101000a900473ffffffffffffffffffffffffffffffffffffffff1673ffffffffffffffffffffffffffffffffffffffff1673ffffffffffffffffffffffffffffffffffffffff1681526020019081526020015f205f828254610d7e9190611ff7565b925050819055505b8c73ffffffffffffffffffffffffffffffffffffffff167f17ec270357dbb4df33522ba8cffb4d405e5948795ef252102d4cb1fabe1373f48d8d604051610dce92919061240d565b60405180910390a250505050505050505050505050565b6004602052815f5260405f20602052805f5260405f205f91509150505481565b6006602052805f5260405f205f915090505481565b7f65406601880dcfb0d2821203c8b8c0605aa3fdf3a865803d290c5b8338edc1ba81565b5f8873ffffffffffffffffffffffffffffffffffffffff1688888888888888604051602401610e739796959493929190612214565b6040516020818303038152906040527fd505accf000000000000000000000000000000000000000000000000000000007bffffffffffffffffffffffffffffffffffffffffffffffffffffffff19166020820180517bffffffffffffffffffffffffffffffffffffffffffffffffffffffff8381831617835250505050604051610efd9190612486565b5f604051808303815f865af19150503d805f8114610f36576040519150601f19603f3d011682016040523d82523d5f602084013e610f3b565b606091505b5050905080610f7f576040517f08c379a0000000000000000000000000000000000000000000000000000000008152600401610f76906124e6565b60405180910390fd5b505050505050505050565b5f5f9054906101000a900473ffffffffffffffffffffffffffffffffffffffff1681565b5f8503610ff257846040517f3a93159e000000000000000000000000000000000000000000000000000000008152600401610fe99190611a4e565b60405180910390fd5b8342111561103757836040517f1e83122a00000000000000000000000000000000000000000000000000000000815260040161102e9190611a4e565b60405180910390fd5b5f7fd3445ae723d3622133544ea22d23f3a973b674b2d72df6c2d55e759bd0eed7cb87878760405160200161106f9493929190612281565b6040516020818303038152906040528051906020012090505f61109061082a565b826040516020016110a2929190612338565b6040516020818303038152906040528051906020012090505f6001828787876040515f81526020016040526040516110dd949392919061236e565b6020604051602081039080840390855afa1580156110fd573d5f5f3e3d5ffd5b5050506020604051035190508873ffffffffffffffffffffffffffffffffffffffff168173ffffffffffffffffffffffffffffffffffffffff161461117b5780896040517fc533faca0000000000000000000000000000000000000000000000000000000081526004016111729291906123b1565b60405180910390fd5b5f60035f9054906101000a900473ffffffffffffffffffffffffffffffffffffffff1690508073ffffffffffffffffffffffffffffffffffffffff166323b872dd8b308c6040518463ffffffff1660e01b81526004016111dd939291906123d8565b6020604051808303815f875af11580156111f9573d5f5f3e3d5ffd5b505050506040513d601f19601f8201168201806040525081019061121d9190612121565b61125c576040517f08c379a000000000000000000000000000000000000000000000000000000000815260040161125390612196565b60405180910390fd5b8860015f8c73ffffffffffffffffffffffffffffffffffffffff1673ffffffffffffffffffffffffffffffffffffffff1681526020019081526020015f205f8282546112a89190611ff7565b925050819055508860025f8282546112c09190611ff7565b925050819055505f73ffffffffffffffffffffffffffffffffffffffff1660035f9054906101000a900473ffffffffffffffffffffffffffffffffffffffff1673ffffffffffffffffffffffffffffffffffffffff16146113cb578860045f8c73ffffffffffffffffffffffffffffffffffffffff1673ffffffffffffffffffffffffffffffffffffffff1681526020019081526020015f205f60035f9054906101000a900473ffffffffffffffffffffffffffffffffffffffff1673ffffffffffffffffffffffffffffffffffffffff1673ffffffffffffffffffffffffffffffffffffffff1681526020019081526020015f205f8282546113c39190611ff7565b925050819055505b8973ffffffffffffffffffffffffffffffffffffffff167f17ec270357dbb4df33522ba8cffb4d405e5948795ef252102d4cb1fabe1373f48a8a60405161141392919061240d565b60405180910390a250505050505050505050565b611430816117ec565b50565b60025481565b60035f9054906101000a900473ffffffffffffffffffffffffffffffffffffffff1681565b5f73ffffffffffffffffffffffffffffffffffffffff168673ffffffffffffffffffffffffffffffffffffffff16036114ce57856040517fe8c86d070000000000000000000000000000000000000000000000000000000081526004016114c59190611a1d565b60405180910390fd5b5f850361151257846040517ffc30cbf60000000000000000000000000000000000000000000000000000000081526004016115099190611a4e565b60405180910390fd5b8342111561155757836040517f1e83122a00000000000000000000000000000000000000000000000000000000815260040161154e9190611a4e565b60405180910390fd5b3073ffffffffffffffffffffffffffffffffffffffff1663840e7c3987893089898989896040518963ffffffff1660e01b815260040161159e989796959493929190612504565b5f604051808303815f87803b1580156115b5575f5ffd5b505af19250505080156115c6575060015b508573ffffffffffffffffffffffffffffffffffffffff166323b872dd8830886040518463ffffffff1660e01b8152600401611604939291906123d8565b6020604051808303815f875af1158015611620573d5f5f3e3d5ffd5b505050506040513d601f19601f820116820180604052508101906116449190612121565b611683576040517f08c379a000000000000000000000000000000000000000000000000000000000815260040161167a90612196565b60405180910390fd5b8460015f8973ffffffffffffffffffffffffffffffffffffffff1673ffffffffffffffffffffffffffffffffffffffff1681526020019081526020015f205f8282546116cf9190611ff7565b925050819055508460025f8282546116e79190611ff7565b925050819055508460045f8973ffffffffffffffffffffffffffffffffffffffff1673ffffffffffffffffffffffffffffffffffffffff1681526020019081526020015f205f8873ffffffffffffffffffffffffffffffffffffffff1673ffffffffffffffffffffffffffffffffffffffff1681526020019081526020015f205f8282546117759190611ff7565b925050819055508573ffffffffffffffffffffffffffffffffffffffff168773ffffffffffffffffffffffffffffffffffffffff167ffd8e38ed9e80af20a4ca2311c2d783b7eaea91041212a6d5f0d77c407e0711b987876040516117db92919061240d565b60405180910390a350505050505050565b6117f5816117f8565b50565b5f811161183a576040517f08c379a0000000000000000000000000000000000000000000000000000000008152600401611831906125f0565b60405180910390fd5b60035f9054906101000a900473ffffffffffffffffffffffffffffffffffffffff1673ffffffffffffffffffffffffffffffffffffffff166323b872dd3330846040518463ffffffff1660e01b8152600401611898939291906123d8565b6020604051808303815f875af11580156118b4573d5f5f3e3d5ffd5b505050506040513d601f19601f820116820180604052508101906118d89190612121565b611917576040517f08c379a000000000000000000000000000000000000000000000000000000000815260040161190e90612196565b60405180910390fd5b8060015f3373ffffffffffffffffffffffffffffffffffffffff1673ffffffffffffffffffffffffffffffffffffffff1681526020019081526020015f205f8282546119639190611ff7565b925050819055508060025f82825461197b9190611ff7565b9250508190555050565b5f5ffd5b5f73ffffffffffffffffffffffffffffffffffffffff82169050919050565b5f6119b282611989565b9050919050565b6119c2816119a8565b81146119cc575f5ffd5b50565b5f813590506119dd816119b9565b92915050565b5f602082840312156119f8576119f7611985565b5b5f611a05848285016119cf565b91505092915050565b611a17816119a8565b82525050565b5f602082019050611a305f830184611a0e565b92915050565b5f819050919050565b611a4881611a36565b82525050565b5f602082019050611a615f830184611a3f565b92915050565b611a7081611a36565b8114611a7a575f5ffd5b50565b5f81359050611a8b81611a67565b92915050565b5f5f5f60608486031215611aa857611aa7611985565b5b5f611ab5868287016119cf565b9350506020611ac686828701611a7d565b9250506040611ad7868287016119cf565b9150509250925092565b5f60208284031215611af657611af5611985565b5b5f611b0384828501611a7d565b91505092915050565b5f819050919050565b611b1e81611b0c565b82525050565b5f602082019050611b375f830184611b15565b92915050565b5f60ff82169050919050565b611b5281611b3d565b8114611b5c575f5ffd5b50565b5f81359050611b6d81611b49565b92915050565b611b7c81611b0c565b8114611b86575f5ffd5b50565b5f81359050611b9781611b73565b92915050565b5f5f5f5f5f5f5f5f5f6101208a8c031215611bbb57611bba611985565b5b5f611bc88c828d016119cf565b9950506020611bd98c828d01611a7d565b9850506040611bea8c828d01611a7d565b9750506060611bfb8c828d01611b5f565b9650506080611c0c8c828d01611b89565b95505060a0611c1d8c828d01611b89565b94505060c0611c2e8c828d01611b5f565b93505060e0611c3f8c828d01611b89565b925050610100611c518c828d01611b89565b9150509295985092959850929598565b5f5f60408385031215611c7757611c76611985565b5b5f611c84858286016119cf565b9250506020611c95858286016119cf565b9150509250929050565b5f5f5f5f5f5f5f5f610100898b031215611cbc57611cbb611985565b5b5f611cc98b828c016119cf565b9850506020611cda8b828c016119cf565b9750506040611ceb8b828c016119cf565b9650506060611cfc8b828c01611a7d565b9550506080611d0d8b828c01611a7d565b94505060a0611d1e8b828c01611b5f565b93505060c0611d2f8b828c01611b89565b92505060e0611d408b828c01611b89565b9150509295985092959890939650565b5f5f5f5f5f5f60c08789031215611d6a57611d69611985565b5b5f611d7789828a016119cf565b9650506020611d8889828a01611a7d565b9550506040611d9989828a01611a7d565b9450506060611daa89828a01611b5f565b9350506080611dbb89828a01611b89565b92505060a0611dcc89828a01611b89565b9150509295509295509295565b5f819050919050565b5f611dfc611df7611df284611989565b611dd9565b611989565b9050919050565b5f611e0d82611de2565b9050919050565b5f611e1e82611e03565b9050919050565b611e2e81611e14565b82525050565b5f602082019050611e475f830184611e25565b92915050565b5f5f5f5f5f5f5f60e0888a031215611e6857611e67611985565b5b5f611e758a828b016119cf565b9750506020611e868a828b016119cf565b9650506040611e978a828b01611a7d565b9550506060611ea88a828b01611a7d565b9450506080611eb98a828b01611b5f565b93505060a0611eca8a828b01611b89565b92505060c0611edb8a828b01611b89565b91505092959891949750929550565b5f82825260208201905092915050565b7f4f6e6c79206f776e65722063616e20736574206e6577206f776e6572000000005f82015250565b5f611f2e601c83611eea565b9150611f3982611efa565b602082019050919050565b5f6020820190508181035f830152611f5b81611f22565b9050919050565b7f4f6e6c7920746f6b656e20636f6e74726163742063616e2063616c6c000000005f82015250565b5f611f96601c83611eea565b9150611fa182611f62565b602082019050919050565b5f6020820190508181035f830152611fc381611f8a565b9050919050565b7f4e487b71000000000000000000000000000000000000000000000000000000005f52601160045260245ffd5b5f61200182611a36565b915061200c83611a36565b925082820190508082111561202457612023611fca565b5b92915050565b7f496e73756666696369656e742062616c616e636520746f2077697468647261775f82015250565b5f61205e602083611eea565b91506120698261202a565b602082019050919050565b5f6020820190508181035f83015261208b81612052565b9050919050565b5f61209c82611a36565b91506120a783611a36565b92508282039050818111156120bf576120be611fca565b5b92915050565b5f6040820190506120d85f830185611a0e565b6120e56020830184611a3f565b9392505050565b5f8115159050919050565b612100816120ec565b811461210a575f5ffd5b50565b5f8151905061211b816120f7565b92915050565b5f6020828403121561213657612135611985565b5b5f6121438482850161210d565b91505092915050565b7f5472616e73666572206661696c656400000000000000000000000000000000005f82015250565b5f612180600f83611eea565b915061218b8261214c565b602082019050919050565b5f6020820190508181035f8301526121ad81612174565b9050919050565b5f60a0820190506121c75f830188611b15565b6121d46020830187611b15565b6121e16040830186611b15565b6121ee6060830185611a3f565b6121fb6080830184611a0e565b9695505050505050565b61220e81611b3d565b82525050565b5f60e0820190506122275f83018a611a0e565b6122346020830189611a0e565b6122416040830188611a3f565b61224e6060830187611a3f565b61225b6080830186612205565b61226860a0830185611b15565b61227560c0830184611b15565b98975050505050505050565b5f6080820190506122945f830187611b15565b6122a16020830186611a0e565b6122ae6040830185611a3f565b6122bb6060830184611a3f565b95945050505050565b5f81905092915050565b7f19010000000000000000000000000000000000000000000000000000000000005f82015250565b5f6123026002836122c4565b915061230d826122ce565b600282019050919050565b5f819050919050565b61233261232d82611b0c565b612318565b82525050565b5f612342826122f6565b915061234e8285612321565b60208201915061235e8284612321565b6020820191508190509392505050565b5f6080820190506123815f830187611b15565b61238e6020830186612205565b61239b6040830185611b15565b6123a86060830184611b15565b95945050505050565b5f6040820190506123c45f830185611a0e565b6123d16020830184611a0e565b9392505050565b5f6060820190506123eb5f830186611a0e565b6123f86020830185611a0e565b6124056040830184611a3f565b949350505050565b5f6040820190506124205f830185611a3f565b61242d6020830184611a3f565b9392505050565b5f81519050919050565b5f81905092915050565b8281835e5f83830152505050565b5f61246082612434565b61246a818561243e565b935061247a818560208601612448565b80840191505092915050565b5f6124918284612456565b915081905092915050565b7f5065726d6974206661696c6564000000000000000000000000000000000000005f82015250565b5f6124d0600d83611eea565b91506124db8261249c565b602082019050919050565b5f6020820190508181035f8301526124fd816124c4565b9050919050565b5f610100820190506125185f83018b611a0e565b612525602083018a611a0e565b6125326040830189611a0e565b61253f6060830188611a3f565b61254c6080830187611a3f565b61255960a0830186612205565b61256660c0830185611b15565b61257360e0830184611b15565b9998505050505050505050565b7f4465706f73697420616d6f756e74206d757374206265206772656174657220745f8201527f68616e2030000000000000000000000000000000000000000000000000000000602082015250565b5f6125da602583611eea565b91506125e582612580565b604082019050919050565b5f6020820190508181035f830152612607816125ce565b905091905056fea2646970667358221220f0250b7c0622589ea867616e5fdb7ac674ae5947d63c8888e089dc82005030fe64736f6c634300081e0033","linkReferences":{}},"methodIdentifiers":{"DOMAIN_SEPARATOR()":"3644e515","PERMIT2_TYPEHASH()":"836d1579","PERMIT_TYPEHASH()":"30adf81f","balances(address)":"27e235e3","deposit(uint256)":"b6b55f25","depositWithPermit2(address,address,uint256,uint256,uint8,bytes32,bytes32)":"fcc41f57","getNonce(address)":"2d0335ab","nonces(address)":"7ecebe00","owner()":"8da5cb5b","permitDeposit(address,uint256,uint256,uint8,bytes32,bytes32)":"8f7b1bca","permitDepositWithTokenPermit(address,uint256,uint256,uint8,bytes32,bytes32,uint8,bytes32,bytes32)":"41245ed8","setOwner(address)":"13af4035","token()":"fc0c546a","tokenBankOwner()":"14018978","tokensReceived(address,uint256,address)":"2b86ed2f","totalDeposit()":"f6153ccd","tryPermit(address,address,address,uint256,uint256,uint8,bytes32,bytes32)":"840e7c39","userTokenBalances(address,address)":"45f2d105","withdraw(uint256)":"2e1a7d4d"},"id":37}