{"abi":[{"type":"constructor","inputs":[{"name":"_token","type":"address","internalType":"contract TokenV3"}],"stateMutability":"nonpayable"},{"type":"function","name":"DOMAIN_SEPARATOR","inputs":[],"outputs":[{"name":"","type":"bytes32","internalType":"bytes32"}],"stateMutability":"view"},{"type":"function","name":"PERMIT2_TYPEHASH","inputs":[],"outputs":[{"name":"","type":"bytes32","internalType":"bytes32"}],"stateMutability":"view"},{"type":"function","name":"PERMIT_TYPEHASH","inputs":[],"outputs":[{"name":"","type":"bytes32","internalType":"bytes32"}],"stateMutability":"view"},{"type":"function","name":"balances","inputs":[{"name":"","type":"address","internalType":"address"}],"outputs":[{"name":"","type":"uint256","internalType":"uint256"}],"stateMutability":"view"},{"type":"function","name":"deposit","inputs":[{"name":"amount","type":"uint256","internalType":"uint256"}],"outputs":[],"stateMutability":"nonpayable"},{"type":"function","name":"depositWithPermit2","inputs":[{"name":"owner","type":"address","internalType":"address"},{"name":"tokenAddress","type":"address","internalType":"address"},{"name":"amount","type":"uint256","internalType":"uint256"},{"name":"deadline","type":"uint256","internalType":"uint256"},{"name":"v","type":"uint8","internalType":"uint8"},{"name":"r","type":"bytes32","internalType":"bytes32"},{"name":"s","type":"bytes32","internalType":"bytes32"}],"outputs":[],"stateMutability":"nonpayable"},{"type":"function","name":"getNonce","inputs":[{"name":"owner","type":"address","internalType":"address"}],"outputs":[{"name":"","type":"uint256","internalType":"uint256"}],"stateMutability":"view"},{"type":"function","name":"nonces","inputs":[{"name":"","type":"address","internalType":"address"}],"outputs":[{"name":"","type":"uint256","internalType":"uint256"}],"stateMutability":"view"},{"type":"function","name":"owner","inputs":[],"outputs":[{"name":"","type":"address","internalType":"address"}],"stateMutability":"view"},{"type":"function","name":"permitDeposit","inputs":[{"name":"owner","type":"address","internalType":"address"},{"name":"amount","type":"uint256","internalType":"uint256"},{"name":"deadline","type":"uint256","internalType":"uint256"},{"name":"v","type":"uint8","internalType":"uint8"},{"name":"r","type":"bytes32","internalType":"bytes32"},{"name":"s","type":"bytes32","internalType":"bytes32"}],"outputs":[],"stateMutability":"nonpayable"},{"type":"function","name":"permitDepositWithTokenPermit","inputs":[{"name":"owner","type":"address","internalType":"address"},{"name":"amount","type":"uint256","internalType":"uint256"},{"name":"deadline","type":"uint256","internalType":"uint256"},{"name":"v","type":"uint8","internalType":"uint8"},{"name":"r","type":"bytes32","internalType":"bytes32"},{"name":"s","type":"bytes32","internalType":"bytes32"}],"outputs":[],"stateMutability":"nonpayable"},{"type":"function","name":"setOwner","inputs":[{"name":"newOwner","type":"address","internalType":"address"}],"outputs":[],"stateMutability":"nonpayable"},{"type":"function","name":"token","inputs":[],"outputs":[{"name":"","type":"address","internalType":"contract IERC20"}],"stateMutability":"view"},{"type":"function","name":"tokenBankOwner","inputs":[],"outputs":[{"name":"","type":"address","internalType":"address"}],"stateMutability":"view"},{"type":"function","name":"tokensReceived","inputs":[{"name":"from","type":"address","internalType":"address"},{"name":"amount","type":"uint256","internalType":"uint256"},{"name":"token","type":"address","internalType":"address"}],"outputs":[],"stateMutability":"nonpayable"},{"type":"function","name":"totalDeposit","inputs":[],"outputs":[{"name":"","type":"uint256","internalType":"uint256"}],"stateMutability":"view"},{"type":"function","name":"tryPermit","inputs":[{"name":"tokenAddress","type":"address","internalType":"address"},{"name":"owner","type":"address","internalType":"address"},{"name":"spender","type":"address","internalType":"address"},{"name":"value","type":"uint256","internalType":"uint256"},{"name":"deadline","type":"uint256","internalType":"uint256"},{"name":"v","type":"uint8","internalType":"uint8"},{"name":"r","type":"bytes32","internalType":"bytes32"},{"name":"s","type":"bytes32","internalType":"bytes32"}],"outputs":[],"stateMutability":"nonpayable"},{"type":"function","name":"userTokenBalances","inputs":[{"name":"","type":"address","internalType":"address"},{"name":"","type":"address","internalType":"address"}],"outputs":[{"name":"","type":"uint256","internalType":"uint256"}],"stateMutability":"view"},{"type":"function","name":"withdraw","inputs":[{"name":"amount","type":"uint256","internalType":"uint256"}],"outputs":[],"stateMutability":"nonpayable"},{"type":"event","name":"DepositWithPermit2","inputs":[{"name":"owner","type":"address","indexed":true,"internalType":"address"},{"name":"token","type":"address","indexed":true,"internalType":"address"},{"name":"amount","type":"uint256","indexed":false,"internalType":"uint256"},{"name":"deadline","type":"uint256","indexed":false,"internalType":"uint256"}],"anonymous":false},{"type":"event","name":"PermitDeposit","inputs":[{"name":"owner","type":"address","indexed":true,"internalType":"address"},{"name":"amount","type":"uint256","indexed":false,"internalType":"uint256"},{"name":"deadline","type":"uint256","indexed":false,"internalType":"uint256"}],"anonymous":false},{"type":"error","name":"InsufficientAllowance","inputs":[{"name":"owner","type":"address","internalType":"address"},{"name":"allowance","type":"uint256","internalType":"uint256"},{"name":"amount","type":"uint256","internalType":"uint256"}]},{"type":"error","name":"InsufficientTokenBalance","inputs":[{"name":"owner","type":"address","internalType":"address"},{"name":"balance","type":"uint256","internalType":"uint256"},{"name":"amount","type":"uint256","internalType":"uint256"}]},{"type":"error","name":"Permit2InvalidToken","inputs":[{"name":"token","type":"address","internalType":"address"}]},{"type":"error","name":"Permit2InvalidValue","inputs":[{"name":"value","type":"uint256","internalType":"uint256"}]},{"type":"error","name":"PermitDepositExpiredSignature","inputs":[{"name":"deadline","type":"uint256","internalType":"uint256"}]},{"type":"error","name":"PermitDepositInvalidAmount","inputs":[{"name":"amount","type":"uint256","internalType":"uint256"}]},{"type":"error","name":"PermitDepositInvalidSigner","inputs":[{"name":"signer","type":"address","internalType":"address"},{"name":"owner","type":"address","internalType":"address"}]}],"bytecode":{"object":"0x608060405234801561000f575f5ffd5b506040516123dc3803806123dc83398181016040528101906100319190610169565b8080335f5f6101000a81548173ffffffffffffffffffffffffffffffffffffffff021916908373ffffffffffffffffffffffffffffffffffffffff1602179055508060035f6101000a81548173ffffffffffffffffffffffffffffffffffffffff021916908373ffffffffffffffffffffffffffffffffffffffff160217905550503360055f6101000a81548173ffffffffffffffffffffffffffffffffffffffff021916908373ffffffffffffffffffffffffffffffffffffffff1602179055505050610194565b5f5ffd5b5f73ffffffffffffffffffffffffffffffffffffffff82169050919050565b5f610127826100fe565b9050919050565b5f6101388261011d565b9050919050565b6101488161012e565b8114610152575f5ffd5b50565b5f815190506101638161013f565b92915050565b5f6020828403121561017e5761017d6100fa565b5b5f61018b84828501610155565b91505092915050565b61223b806101a15f395ff3fe608060405234801561000f575f5ffd5b506004361061011f575f3560e01c806345f2d105116100ab5780638f7b1bca1161006f5780638f7b1bca14610305578063b6b55f2514610321578063f6153ccd1461033d578063fc0c546a1461035b578063fcc41f57146103795761011f565b806345f2d1051461024d5780637ecebe001461027d578063836d1579146102ad578063840e7c39146102cb5780638da5cb5b146102e75761011f565b80632d0335ab116100f25780632d0335ab146101a95780632e1a7d4d146101d9578063302c5f84146101f557806330adf81f146102115780633644e5151461022f5761011f565b806313af403514610123578063140189781461013f57806327e235e31461015d5780632b86ed2f1461018d575b5f5ffd5b61013d6004803603810190610138919061162a565b610395565b005b6101476104bc565b6040516101549190611664565b60405180910390f35b6101776004803603810190610172919061162a565b6104e1565b6040516101849190611695565b60405180910390f35b6101a760048036038101906101a291906116d8565b6104f6565b005b6101c360048036038101906101be919061162a565b6105f7565b6040516101d09190611695565b60405180910390f35b6101f360048036038101906101ee9190611728565b61063d565b005b61020f600480360381019061020a91906117bc565b610806565b005b61021961092d565b6040516102269190611854565b60405180910390f35b610237610951565b6040516102449190611854565b60405180910390f35b6102676004803603810190610262919061186d565b610a1e565b6040516102749190611695565b60405180910390f35b6102976004803603810190610292919061162a565b610a3e565b6040516102a49190611695565b60405180910390f35b6102b5610a53565b6040516102c29190611854565b60405180910390f35b6102e560048036038101906102e091906118ab565b610a77565b005b6102ef610bc3565b6040516102fc9190611664565b60405180910390f35b61031f600480360381019061031a91906117bc565b610be7565b005b61033b60048036038101906103369190611728565b610d6c565b005b610345610d78565b6040516103529190611695565b60405180910390f35b610363610d7e565b60405161037091906119b7565b60405180910390f35b610393600480360381019061038e91906119d0565b610da3565b005b5f5f9054906101000a900473ffffffffffffffffffffffffffffffffffffffff1673ffffffffffffffffffffffffffffffffffffffff163373ffffffffffffffffffffffffffffffffffffffff16148061043b575060055f9054906101000a900473ffffffffffffffffffffffffffffffffffffffff1673ffffffffffffffffffffffffffffffffffffffff163373ffffffffffffffffffffffffffffffffffffffff16145b61047a576040517f08c379a000000000000000000000000000000000000000000000000000000000815260040161047190611ac7565b60405180910390fd5b805f5f6101000a81548173ffffffffffffffffffffffffffffffffffffffff021916908373ffffffffffffffffffffffffffffffffffffffff16021790555050565b60055f9054906101000a900473ffffffffffffffffffffffffffffffffffffffff1681565b6001602052805f5260405f205f915090505481565b8073ffffffffffffffffffffffffffffffffffffffff163373ffffffffffffffffffffffffffffffffffffffff1614610564576040517f08c379a000000000000000000000000000000000000000000000000000000000815260040161055b90611b2f565b60405180910390fd5b8160045f8573ffffffffffffffffffffffffffffffffffffffff1673ffffffffffffffffffffffffffffffffffffffff1681526020019081526020015f205f8373ffffffffffffffffffffffffffffffffffffffff1673ffffffffffffffffffffffffffffffffffffffff1681526020019081526020015f205f8282546105eb9190611b7a565b92505081905550505050565b5f60065f8373ffffffffffffffffffffffffffffffffffffffff1673ffffffffffffffffffffffffffffffffffffffff1681526020019081526020015f20549050919050565b8060015f3373ffffffffffffffffffffffffffffffffffffffff1673ffffffffffffffffffffffffffffffffffffffff1681526020019081526020015f205410156106bd576040517f08c379a00000000000000000000000000000000000000000000000000000000081526004016106b490611bf7565b60405180910390fd5b8060015f3373ffffffffffffffffffffffffffffffffffffffff1673ffffffffffffffffffffffffffffffffffffffff1681526020019081526020015f205f8282546107099190611c15565b925050819055508060025f8282546107219190611c15565b9250508190555060035f9054906101000a900473ffffffffffffffffffffffffffffffffffffffff1673ffffffffffffffffffffffffffffffffffffffff1663a9059cbb33836040518363ffffffff1660e01b8152600401610784929190611c48565b6020604051808303815f875af11580156107a0573d5f5f3e3d5ffd5b505050506040513d601f19601f820116820180604052508101906107c49190611ca4565b610803576040517f08c379a00000000000000000000000000000000000000000000000000000000081526004016107fa90611d19565b60405180910390fd5b50565b610811868686610ed8565b5f60035f9054906101000a900473ffffffffffffffffffffffffffffffffffffffff1690508073ffffffffffffffffffffffffffffffffffffffff1663d505accf883089898989896040518863ffffffff1660e01b815260040161087b9796959493929190611d46565b5f604051808303815f87803b158015610892575f5ffd5b505af11580156108a4573d5f5f3e3d5ffd5b505050506108d48760035f9054906101000a900473ffffffffffffffffffffffffffffffffffffffff1688610f66565b8673ffffffffffffffffffffffffffffffffffffffff167f17ec270357dbb4df33522ba8cffb4d405e5948795ef252102d4cb1fabe1373f4878760405161091c929190611db3565b60405180910390a250505050505050565b7fd3445ae723d3622133544ea22d23f3a973b674b2d72df6c2d55e759bd0eed7cb81565b5f7f8b73c3c69bb8fe3d512ecc4cf759cc79239f7b179b0ffacaa9a75d522b39400f6040518060400160405280600b81526020017f546f6b656e42616e6b5633000000000000000000000000000000000000000000815250805190602001206040518060400160405280600181526020017f3100000000000000000000000000000000000000000000000000000000000000815250805190602001204630604051602001610a03959493929190611dda565b60405160208183030381529060405280519060200120905090565b6004602052815f5260405f20602052805f5260405f205f91509150505481565b6006602052805f5260405f205f915090505481565b7f65406601880dcfb0d2821203c8b8c0605aa3fdf3a865803d290c5b8338edc1ba81565b5f8873ffffffffffffffffffffffffffffffffffffffff1688888888888888604051602401610aac9796959493929190611d46565b6040516020818303038152906040527fd505accf000000000000000000000000000000000000000000000000000000007bffffffffffffffffffffffffffffffffffffffffffffffffffffffff19166020820180517bffffffffffffffffffffffffffffffffffffffffffffffffffffffff8381831617835250505050604051610b369190611e7d565b5f604051808303815f865af19150503d805f8114610b6f576040519150601f19603f3d011682016040523d82523d5f602084013e610b74565b606091505b5050905080610bb8576040517f08c379a0000000000000000000000000000000000000000000000000000000008152600401610baf90611edd565b60405180910390fd5b505050505050505050565b5f5f9054906101000a900473ffffffffffffffffffffffffffffffffffffffff1681565b610bf2868686610ed8565b610c008686868686866111e5565b5f60035f9054906101000a900473ffffffffffffffffffffffffffffffffffffffff1673ffffffffffffffffffffffffffffffffffffffff1663dd62ed3e88306040518363ffffffff1660e01b8152600401610c5d929190611efb565b602060405180830381865afa158015610c78573d5f5f3e3d5ffd5b505050506040513d601f19601f82011682018060405250810190610c9c9190611f36565b905085811015610ce7578681876040517f192b9e4e000000000000000000000000000000000000000000000000000000008152600401610cde93929190611f61565b60405180910390fd5b610d138760035f9054906101000a900473ffffffffffffffffffffffffffffffffffffffff1688610f66565b8673ffffffffffffffffffffffffffffffffffffffff167f17ec270357dbb4df33522ba8cffb4d405e5948795ef252102d4cb1fabe1373f48787604051610d5b929190611db3565b60405180910390a250505050505050565b610d7581611334565b50565b60025481565b60035f9054906101000a900473ffffffffffffffffffffffffffffffffffffffff1681565b610daf87878787611340565b3073ffffffffffffffffffffffffffffffffffffffff1663840e7c3987893089898989896040518963ffffffff1660e01b8152600401610df6989796959493929190611f96565b5f604051808303815f87803b158015610e0d575f5ffd5b505af1925050508015610e1e575060015b610e5d576040517f08c379a0000000000000000000000000000000000000000000000000000000008152600401610e5490611edd565b60405180910390fd5b610e68878787610f66565b8573ffffffffffffffffffffffffffffffffffffffff168773ffffffffffffffffffffffffffffffffffffffff167ffd8e38ed9e80af20a4ca2311c2d783b7eaea91041212a6d5f0d77c407e0711b98787604051610ec7929190611db3565b60405180910390a350505050505050565b5f8203610f1c57816040517f3a93159e000000000000000000000000000000000000000000000000000000008152600401610f139190611695565b60405180910390fd5b80421115610f6157806040517f1e83122a000000000000000000000000000000000000000000000000000000008152600401610f589190611695565b60405180910390fd5b505050565b5f8273ffffffffffffffffffffffffffffffffffffffff166370a08231856040518263ffffffff1660e01b8152600401610fa09190611664565b602060405180830381865afa158015610fbb573d5f5f3e3d5ffd5b505050506040513d601f19601f82011682018060405250810190610fdf9190611f36565b90508181101561102a578381836040517febd6ced900000000000000000000000000000000000000000000000000000000815260040161102193929190611f61565b60405180910390fd5b8273ffffffffffffffffffffffffffffffffffffffff166323b872dd8530856040518463ffffffff1660e01b815260040161106793929190612012565b6020604051808303815f875af1158015611083573d5f5f3e3d5ffd5b505050506040513d601f19601f820116820180604052508101906110a79190611ca4565b6110e6576040517f08c379a00000000000000000000000000000000000000000000000000000000081526004016110dd90611d19565b60405180910390fd5b8160015f8673ffffffffffffffffffffffffffffffffffffffff1673ffffffffffffffffffffffffffffffffffffffff1681526020019081526020015f205f8282546111329190611b7a565b925050819055508160025f82825461114a9190611b7a565b925050819055508160045f8673ffffffffffffffffffffffffffffffffffffffff1673ffffffffffffffffffffffffffffffffffffffff1681526020019081526020015f205f8573ffffffffffffffffffffffffffffffffffffffff1673ffffffffffffffffffffffffffffffffffffffff1681526020019081526020015f205f8282546111d89190611b7a565b9250508190555050505050565b5f7fd3445ae723d3622133544ea22d23f3a973b674b2d72df6c2d55e759bd0eed7cb87878760405160200161121d9493929190612047565b6040516020818303038152906040528051906020012090505f61123e610951565b826040516020016112509291906120fe565b6040516020818303038152906040528051906020012090505f6001828787876040515f815260200160405260405161128b9493929190612134565b6020604051602081039080840390855afa1580156112ab573d5f5f3e3d5ffd5b5050506020604051035190508873ffffffffffffffffffffffffffffffffffffffff168173ffffffffffffffffffffffffffffffffffffffff16146113295780896040517fc533faca000000000000000000000000000000000000000000000000000000008152600401611320929190611efb565b60405180910390fd5b505050505050505050565b61133d8161143f565b50565b5f73ffffffffffffffffffffffffffffffffffffffff168373ffffffffffffffffffffffffffffffffffffffff16036113b057826040517fe8c86d070000000000000000000000000000000000000000000000000000000081526004016113a79190611664565b60405180910390fd5b5f82036113f457816040517ffc30cbf60000000000000000000000000000000000000000000000000000000081526004016113eb9190611695565b60405180910390fd5b8042111561143957806040517f1e83122a0000000000000000000000000000000000000000000000000000000081526004016114309190611695565b60405180910390fd5b50505050565b5f8111611481576040517f08c379a0000000000000000000000000000000000000000000000000000000008152600401611478906121e7565b60405180910390fd5b60035f9054906101000a900473ffffffffffffffffffffffffffffffffffffffff1673ffffffffffffffffffffffffffffffffffffffff166323b872dd3330846040518463ffffffff1660e01b81526004016114df93929190612012565b6020604051808303815f875af11580156114fb573d5f5f3e3d5ffd5b505050506040513d601f19601f8201168201806040525081019061151f9190611ca4565b61155e576040517f08c379a000000000000000000000000000000000000000000000000000000000815260040161155590611d19565b60405180910390fd5b8060015f3373ffffffffffffffffffffffffffffffffffffffff1673ffffffffffffffffffffffffffffffffffffffff1681526020019081526020015f205f8282546115aa9190611b7a565b925050819055508060025f8282546115c29190611b7a565b9250508190555050565b5f5ffd5b5f73ffffffffffffffffffffffffffffffffffffffff82169050919050565b5f6115f9826115d0565b9050919050565b611609816115ef565b8114611613575f5ffd5b50565b5f8135905061162481611600565b92915050565b5f6020828403121561163f5761163e6115cc565b5b5f61164c84828501611616565b91505092915050565b61165e816115ef565b82525050565b5f6020820190506116775f830184611655565b92915050565b5f819050919050565b61168f8161167d565b82525050565b5f6020820190506116a85f830184611686565b92915050565b6116b78161167d565b81146116c1575f5ffd5b50565b5f813590506116d2816116ae565b92915050565b5f5f5f606084860312156116ef576116ee6115cc565b5b5f6116fc86828701611616565b935050602061170d868287016116c4565b925050604061171e86828701611616565b9150509250925092565b5f6020828403121561173d5761173c6115cc565b5b5f61174a848285016116c4565b91505092915050565b5f60ff82169050919050565b61176881611753565b8114611772575f5ffd5b50565b5f813590506117838161175f565b92915050565b5f819050919050565b61179b81611789565b81146117a5575f5ffd5b50565b5f813590506117b681611792565b92915050565b5f5f5f5f5f5f60c087890312156117d6576117d56115cc565b5b5f6117e389828a01611616565b96505060206117f489828a016116c4565b955050604061180589828a016116c4565b945050606061181689828a01611775565b935050608061182789828a016117a8565b92505060a061183889828a016117a8565b9150509295509295509295565b61184e81611789565b82525050565b5f6020820190506118675f830184611845565b92915050565b5f5f60408385031215611883576118826115cc565b5b5f61189085828601611616565b92505060206118a185828601611616565b9150509250929050565b5f5f5f5f5f5f5f5f610100898b0312156118c8576118c76115cc565b5b5f6118d58b828c01611616565b98505060206118e68b828c01611616565b97505060406118f78b828c01611616565b96505060606119088b828c016116c4565b95505060806119198b828c016116c4565b94505060a061192a8b828c01611775565b93505060c061193b8b828c016117a8565b92505060e061194c8b828c016117a8565b9150509295985092959890939650565b5f819050919050565b5f61197f61197a611975846115d0565b61195c565b6115d0565b9050919050565b5f61199082611965565b9050919050565b5f6119a182611986565b9050919050565b6119b181611997565b82525050565b5f6020820190506119ca5f8301846119a8565b92915050565b5f5f5f5f5f5f5f60e0888a0312156119eb576119ea6115cc565b5b5f6119f88a828b01611616565b9750506020611a098a828b01611616565b9650506040611a1a8a828b016116c4565b9550506060611a2b8a828b016116c4565b9450506080611a3c8a828b01611775565b93505060a0611a4d8a828b016117a8565b92505060c0611a5e8a828b016117a8565b91505092959891949750929550565b5f82825260208201905092915050565b7f4f6e6c79206f776e65722063616e20736574206e6577206f776e6572000000005f82015250565b5f611ab1601c83611a6d565b9150611abc82611a7d565b602082019050919050565b5f6020820190508181035f830152611ade81611aa5565b9050919050565b7f4f6e6c7920746f6b656e20636f6e74726163742063616e2063616c6c000000005f82015250565b5f611b19601c83611a6d565b9150611b2482611ae5565b602082019050919050565b5f6020820190508181035f830152611b4681611b0d565b9050919050565b7f4e487b71000000000000000000000000000000000000000000000000000000005f52601160045260245ffd5b5f611b848261167d565b9150611b8f8361167d565b9250828201905080821115611ba757611ba6611b4d565b5b92915050565b7f496e73756666696369656e742062616c616e636520746f2077697468647261775f82015250565b5f611be1602083611a6d565b9150611bec82611bad565b602082019050919050565b5f6020820190508181035f830152611c0e81611bd5565b9050919050565b5f611c1f8261167d565b9150611c2a8361167d565b9250828203905081811115611c4257611c41611b4d565b5b92915050565b5f604082019050611c5b5f830185611655565b611c686020830184611686565b9392505050565b5f8115159050919050565b611c8381611c6f565b8114611c8d575f5ffd5b50565b5f81519050611c9e81611c7a565b92915050565b5f60208284031215611cb957611cb86115cc565b5b5f611cc684828501611c90565b91505092915050565b7f5472616e73666572206661696c656400000000000000000000000000000000005f82015250565b5f611d03600f83611a6d565b9150611d0e82611ccf565b602082019050919050565b5f6020820190508181035f830152611d3081611cf7565b9050919050565b611d4081611753565b82525050565b5f60e082019050611d595f83018a611655565b611d666020830189611655565b611d736040830188611686565b611d806060830187611686565b611d8d6080830186611d37565b611d9a60a0830185611845565b611da760c0830184611845565b98975050505050505050565b5f604082019050611dc65f830185611686565b611dd36020830184611686565b9392505050565b5f60a082019050611ded5f830188611845565b611dfa6020830187611845565b611e076040830186611845565b611e146060830185611686565b611e216080830184611655565b9695505050505050565b5f81519050919050565b5f81905092915050565b8281835e5f83830152505050565b5f611e5782611e2b565b611e618185611e35565b9350611e71818560208601611e3f565b80840191505092915050565b5f611e888284611e4d565b915081905092915050565b7f5065726d6974206661696c6564000000000000000000000000000000000000005f82015250565b5f611ec7600d83611a6d565b9150611ed282611e93565b602082019050919050565b5f6020820190508181035f830152611ef481611ebb565b9050919050565b5f604082019050611f0e5f830185611655565b611f1b6020830184611655565b9392505050565b5f81519050611f30816116ae565b92915050565b5f60208284031215611f4b57611f4a6115cc565b5b5f611f5884828501611f22565b91505092915050565b5f606082019050611f745f830186611655565b611f816020830185611686565b611f8e6040830184611686565b949350505050565b5f61010082019050611faa5f83018b611655565b611fb7602083018a611655565b611fc46040830189611655565b611fd16060830188611686565b611fde6080830187611686565b611feb60a0830186611d37565b611ff860c0830185611845565b61200560e0830184611845565b9998505050505050505050565b5f6060820190506120255f830186611655565b6120326020830185611655565b61203f6040830184611686565b949350505050565b5f60808201905061205a5f830187611845565b6120676020830186611655565b6120746040830185611686565b6120816060830184611686565b95945050505050565b5f81905092915050565b7f19010000000000000000000000000000000000000000000000000000000000005f82015250565b5f6120c860028361208a565b91506120d382612094565b600282019050919050565b5f819050919050565b6120f86120f382611789565b6120de565b82525050565b5f612108826120bc565b915061211482856120e7565b60208201915061212482846120e7565b6020820191508190509392505050565b5f6080820190506121475f830187611845565b6121546020830186611d37565b6121616040830185611845565b61216e6060830184611845565b95945050505050565b7f4465706f73697420616d6f756e74206d757374206265206772656174657220745f8201527f68616e2030000000000000000000000000000000000000000000000000000000602082015250565b5f6121d1602583611a6d565b91506121dc82612177565b604082019050919050565b5f6020820190508181035f8301526121fe816121c5565b905091905056fea26469706673582212208c443d042c418bd68dc03b99e95f37c6627e8221eef29e6076dcf424d9f008c864736f6c634300081e0033","linkReferences":{}},"methodIdentifiers":{"DOMAIN_SEPARATOR()":"3644e515","PERMIT2_TYPEHASH()":"836d1579","PERMIT_TYPEHASH()":"30adf81f","balances(address)":"27e235e3","deposit(uint256)":"b6b55f25","depositWithPermit2(address,address,uint256,uint256,uint8,bytes32,bytes32)":"fcc41f57","getNonce(address)":"2d0335ab","nonces(address)":"7ecebe00","owner()":"8da5cb5b","permitDeposit(address,uint256,uint256,uint8,bytes32,bytes32)":"8f7b1bca","permitDepositWithTokenPermit(address,uint256,uint256,uint8,bytes32,bytes32)":"302c5f84","setOwner(address)":"13af4035","token()":"fc0c546a","tokenBankOwner()":"14018978","tokensReceived(address,uint256,address)":"2b86ed2f","totalDeposit()":"f6153ccd","tryPermit(address,address,address,uint256,uint256,uint8,bytes32,bytes32)":"840e7c39","userTokenBalances(address,address)":"45f2d105","withdraw(uint256)":"2e1a7d4d"},"id":91}