{"abi":[{"type":"constructor","inputs":[{"name":"name_","type":"string","internalType":"string"},{"name":"symbol_","type":"string","internalType":"string"},{"name":"baseURI_","type":"string","internalType":"string"}],"stateMutability":"nonpayable"},{"type":"function","name":"approve","inputs":[{"name":"to","type":"address","internalType":"address"},{"name":"tokenId","type":"uint256","internalType":"uint256"}],"outputs":[],"stateMutability":"nonpayable"},{"type":"function","name":"balanceOf","inputs":[{"name":"owner","type":"address","internalType":"address"}],"outputs":[{"name":"","type":"uint256","internalType":"uint256"}],"stateMutability":"view"},{"type":"function","name":"getApproved","inputs":[{"name":"tokenId","type":"uint256","internalType":"uint256"}],"outputs":[{"name":"","type":"address","internalType":"address"}],"stateMutability":"view"},{"type":"function","name":"isApprovedForAll","inputs":[{"name":"owner","type":"address","internalType":"address"},{"name":"operator","type":"address","internalType":"address"}],"outputs":[{"name":"","type":"bool","internalType":"bool"}],"stateMutability":"view"},{"type":"function","name":"mint","inputs":[{"name":"to","type":"address","internalType":"address"},{"name":"tokenId","type":"uint256","internalType":"uint256"}],"outputs":[],"stateMutability":"nonpayable"},{"type":"function","name":"name","inputs":[],"outputs":[{"name":"","type":"string","internalType":"string"}],"stateMutability":"view"},{"type":"function","name":"nextTokenId","inputs":[],"outputs":[{"name":"","type":"uint256","internalType":"uint256"}],"stateMutability":"view"},{"type":"function","name":"ownerOf","inputs":[{"name":"tokenId","type":"uint256","internalType":"uint256"}],"outputs":[{"name":"","type":"address","internalType":"address"}],"stateMutability":"view"},{"type":"function","name":"safeTransferFrom","inputs":[{"name":"from","type":"address","internalType":"address"},{"name":"to","type":"address","internalType":"address"},{"name":"tokenId","type":"uint256","internalType":"uint256"}],"outputs":[],"stateMutability":"nonpayable"},{"type":"function","name":"safeTransferFrom","inputs":[{"name":"from","type":"address","internalType":"address"},{"name":"to","type":"address","internalType":"address"},{"name":"tokenId","type":"uint256","internalType":"uint256"},{"name":"data","type":"bytes","internalType":"bytes"}],"outputs":[],"stateMutability":"nonpayable"},{"type":"function","name":"setApprovalForAll","inputs":[{"name":"operator","type":"address","internalType":"address"},{"name":"approved","type":"bool","internalType":"bool"}],"outputs":[],"stateMutability":"nonpayable"},{"type":"function","name":"supportsInterface","inputs":[{"name":"interfaceId","type":"bytes4","internalType":"bytes4"}],"outputs":[{"name":"","type":"bool","internalType":"bool"}],"stateMutability":"view"},{"type":"function","name":"symbol","inputs":[],"outputs":[{"name":"","type":"string","internalType":"string"}],"stateMutability":"view"},{"type":"function","name":"tokenURI","inputs":[{"name":"tokenId","type":"uint256","internalType":"uint256"}],"outputs":[{"name":"","type":"string","internalType":"string"}],"stateMutability":"view"},{"type":"function","name":"transferFrom","inputs":[{"name":"from","type":"address","internalType":"address"},{"name":"to","type":"address","internalType":"address"},{"name":"tokenId","type":"uint256","internalType":"uint256"}],"outputs":[],"stateMutability":"nonpayable"},{"type":"event","name":"Approval","inputs":[{"name":"owner","type":"address","indexed":true,"internalType":"address"},{"name":"approved","type":"address","indexed":true,"internalType":"address"},{"name":"tokenId","type":"uint256","indexed":true,"internalType":"uint256"}],"anonymous":false},{"type":"event","name":"ApprovalForAll","inputs":[{"name":"owner","type":"address","indexed":true,"internalType":"address"},{"name":"operator","type":"address","indexed":true,"internalType":"address"},{"name":"approved","type":"bool","indexed":false,"internalType":"bool"}],"anonymous":false},{"type":"event","name":"BatchMetadataUpdate","inputs":[{"name":"_fromTokenId","type":"uint256","indexed":false,"internalType":"uint256"},{"name":"_toTokenId","type":"uint256","indexed":false,"internalType":"uint256"}],"anonymous":false},{"type":"event","name":"MetadataUpdate","inputs":[{"name":"_tokenId","type":"uint256","indexed":false,"internalType":"uint256"}],"anonymous":false},{"type":"event","name":"Transfer","inputs":[{"name":"from","type":"address","indexed":true,"internalType":"address"},{"name":"to","type":"address","indexed":true,"internalType":"address"},{"name":"tokenId","type":"uint256","indexed":true,"internalType":"uint256"}],"anonymous":false},{"type":"error","name":"ERC721IncorrectOwner","inputs":[{"name":"sender","type":"address","internalType":"address"},{"name":"tokenId","type":"uint256","internalType":"uint256"},{"name":"owner","type":"address","internalType":"address"}]},{"type":"error","name":"ERC721InsufficientApproval","inputs":[{"name":"operator","type":"address","internalType":"address"},{"name":"tokenId","type":"uint256","internalType":"uint256"}]},{"type":"error","name":"ERC721InvalidApprover","inputs":[{"name":"approver","type":"address","internalType":"address"}]},{"type":"error","name":"ERC721InvalidOperator","inputs":[{"name":"operator","type":"address","internalType":"address"}]},{"type":"error","name":"ERC721InvalidOwner","inputs":[{"name":"owner","type":"address","internalType":"address"}]},{"type":"error","name":"ERC721InvalidReceiver","inputs":[{"name":"receiver","type":"address","internalType":"address"}]},{"type":"error","name":"ERC721InvalidSender","inputs":[{"name":"sender","type":"address","internalType":"address"}]},{"type":"error","name":"ERC721NonexistentToken","inputs":[{"name":"tokenId","type":"uint256","internalType":"uint256"}]}],"bytecode":{"object":"0x60806040526001600755348015610014575f5ffd5b506040516126ce3803806126ce833981810160405281019061003691906101c0565b8282815f90816100469190610474565b5080600190816100569190610474565b5050506100688161007060201b60201c565b505050610543565b50565b5f604051905090565b5f5ffd5b5f5ffd5b5f5ffd5b5f5ffd5b5f601f19601f8301169050919050565b7f4e487b71000000000000000000000000000000000000000000000000000000005f52604160045260245ffd5b6100d28261008c565b810181811067ffffffffffffffff821117156100f1576100f061009c565b5b80604052505050565b5f610103610073565b905061010f82826100c9565b919050565b5f67ffffffffffffffff82111561012e5761012d61009c565b5b6101378261008c565b9050602081019050919050565b8281835e5f83830152505050565b5f61016461015f84610114565b6100fa565b9050828152602081018484840111156101805761017f610088565b5b61018b848285610144565b509392505050565b5f82601f8301126101a7576101a6610084565b5b81516101b7848260208601610152565b91505092915050565b5f5f5f606084860312156101d7576101d661007c565b5b5f84015167ffffffffffffffff8111156101f4576101f3610080565b5b61020086828701610193565b935050602084015167ffffffffffffffff81111561022157610220610080565b5b61022d86828701610193565b925050604084015167ffffffffffffffff81111561024e5761024d610080565b5b61025a86828701610193565b9150509250925092565b5f81519050919050565b7f4e487b71000000000000000000000000000000000000000000000000000000005f52602260045260245ffd5b5f60028204905060018216806102b257607f821691505b6020821081036102c5576102c461026e565b5b50919050565b5f819050815f5260205f209050919050565b5f6020601f8301049050919050565b5f82821b905092915050565b5f600883026103277fffffffffffffffffffffffffffffffffffffffffffffffffffffffffffffffff826102ec565b61033186836102ec565b95508019841693508086168417925050509392505050565b5f819050919050565b5f819050919050565b5f61037561037061036b84610349565b610352565b610349565b9050919050565b5f819050919050565b61038e8361035b565b6103a261039a8261037c565b8484546102f8565b825550505050565b5f5f905090565b6103b96103aa565b6103c4818484610385565b505050565b5b818110156103e7576103dc5f826103b1565b6001810190506103ca565b5050565b601f82111561042c576103fd816102cb565b610406846102dd565b81016020851015610415578190505b610429610421856102dd565b8301826103c9565b50505b505050565b5f82821c905092915050565b5f61044c5f1984600802610431565b1980831691505092915050565b5f610464838361043d565b9150826002028217905092915050565b61047d82610264565b67ffffffffffffffff8111156104965761049561009c565b5b6104a0825461029b565b6104ab8282856103eb565b5f60209050601f8311600181146104dc575f84156104ca578287015190505b6104d48582610459565b86555061053b565b601f1984166104ea866102cb565b5f5b82811015610511578489015182556001820191506020850194506020810190506104ec565b8683101561052e578489015161052a601f89168261043d565b8355505b6001600288020188555050505b505050505050565b61217e806105505f395ff3fe608060405234801561000f575f5ffd5b50600436106100f3575f3560e01c80636352211e11610095578063a22cb46511610064578063a22cb46514610281578063b88d4fde1461029d578063c87b56dd146102b9578063e985e9c5146102e9576100f3565b80636352211e146101e557806370a082311461021557806375794a3c1461024557806395d89b4114610263576100f3565b8063095ea7b3116100d1578063095ea7b31461017557806323b872dd1461019157806340c10f19146101ad57806342842e0e146101c9576100f3565b806301ffc9a7146100f757806306fdde0314610127578063081812fc14610145575b5f5ffd5b610111600480360381019061010c91906118a6565b610319565b60405161011e91906118eb565b60405180910390f35b61012f610379565b60405161013c9190611974565b60405180910390f35b61015f600480360381019061015a91906119c7565b610408565b60405161016c9190611a31565b60405180910390f35b61018f600480360381019061018a9190611a74565b610423565b005b6101ab60048036038101906101a69190611ab2565b610439565b005b6101c760048036038101906101c29190611a74565b610538565b005b6101e360048036038101906101de9190611ab2565b61067f565b005b6101ff60048036038101906101fa91906119c7565b61069e565b60405161020c9190611a31565b60405180910390f35b61022f600480360381019061022a9190611b02565b6106af565b60405161023c9190611b3c565b60405180910390f35b61024d610765565b60405161025a9190611b3c565b60405180910390f35b61026b61076e565b6040516102789190611974565b60405180910390f35b61029b60048036038101906102969190611b7f565b6107fe565b005b6102b760048036038101906102b29190611ce9565b610814565b005b6102d360048036038101906102ce91906119c7565b610839565b6040516102e09190611974565b60405180910390f35b61030360048036038101906102fe9190611d69565b610944565b60405161031091906118eb565b60405180910390f35b5f634906490660e01b7bffffffffffffffffffffffffffffffffffffffffffffffffffffffff1916827bffffffffffffffffffffffffffffffffffffffffffffffffffffffff191614806103725750610371826109d2565b5b9050919050565b60605f805461038790611dd4565b80601f01602080910402602001604051908101604052809291908181526020018280546103b390611dd4565b80156103fe5780601f106103d5576101008083540402835291602001916103fe565b820191905f5260205f20905b8154815290600101906020018083116103e157829003601f168201915b5050505050905090565b5f61041282610ab3565b5061041c82610b39565b9050919050565b6104358282610430610b72565b610b79565b5050565b5f73ffffffffffffffffffffffffffffffffffffffff168273ffffffffffffffffffffffffffffffffffffffff16036104a9575f6040517f64a0ae920000000000000000000000000000000000000000000000000000000081526004016104a09190611a31565b60405180910390fd5b5f6104bc83836104b7610b72565b610b8b565b90508373ffffffffffffffffffffffffffffffffffffffff168173ffffffffffffffffffffffffffffffffffffffff1614610532578382826040517f64283d7b00000000000000000000000000000000000000000000000000000000815260040161052993929190611e04565b60405180910390fd5b50505050565b5f73ffffffffffffffffffffffffffffffffffffffff168273ffffffffffffffffffffffffffffffffffffffff16036105a6576040517f08c379a000000000000000000000000000000000000000000000000000000000815260040161059d90611e83565b60405180910390fd5b3073ffffffffffffffffffffffffffffffffffffffff16636352211e826040518263ffffffff1660e01b81526004016105df9190611b3c565b602060405180830381865afa92505050801561061957506040513d601f19601f820116820180604052508101906106169190611eb5565b60015b1561065a57506040517f08c379a000000000000000000000000000000000000000000000000000000000815260040161065190611f2a565b60405180910390fd5b6106648282610d96565b60075f81548092919061067690611f75565b91905055505050565b61069983838360405180602001604052805f815250610814565b505050565b5f6106a882610ab3565b9050919050565b5f5f73ffffffffffffffffffffffffffffffffffffffff168273ffffffffffffffffffffffffffffffffffffffff1603610720575f6040517f89c62b640000000000000000000000000000000000000000000000000000000081526004016107179190611a31565b60405180910390fd5b60035f8373ffffffffffffffffffffffffffffffffffffffff1673ffffffffffffffffffffffffffffffffffffffff1681526020019081526020015f20549050919050565b5f600754905090565b60606001805461077d90611dd4565b80601f01602080910402602001604051908101604052809291908181526020018280546107a990611dd4565b80156107f45780601f106107cb576101008083540402835291602001916107f4565b820191905f5260205f20905b8154815290600101906020018083116107d757829003601f168201915b5050505050905090565b610810610809610b72565b8383610e89565b5050565b61081f848484610439565b61083361082a610b72565b85858585610ff2565b50505050565b606061084482610ab3565b505f60065f8481526020019081526020015f20805461086290611dd4565b80601f016020809104026020016040519081016040528092919081815260200182805461088e90611dd4565b80156108d95780601f106108b0576101008083540402835291602001916108d9565b820191905f5260205f20905b8154815290600101906020018083116108bc57829003601f168201915b505050505090505f6108e961119e565b90505f8151036108fd57819250505061093f565b5f82511115610931578082604051602001610919929190611ff6565b6040516020818303038152906040529250505061093f565b61093a846111db565b925050505b919050565b5f60055f8473ffffffffffffffffffffffffffffffffffffffff1673ffffffffffffffffffffffffffffffffffffffff1681526020019081526020015f205f8373ffffffffffffffffffffffffffffffffffffffff1673ffffffffffffffffffffffffffffffffffffffff1681526020019081526020015f205f9054906101000a900460ff16905092915050565b5f7f80ac58cd000000000000000000000000000000000000000000000000000000007bffffffffffffffffffffffffffffffffffffffffffffffffffffffff1916827bffffffffffffffffffffffffffffffffffffffffffffffffffffffff19161480610a9c57507f5b5e139f000000000000000000000000000000000000000000000000000000007bffffffffffffffffffffffffffffffffffffffffffffffffffffffff1916827bffffffffffffffffffffffffffffffffffffffffffffffffffffffff1916145b80610aac5750610aab82611241565b5b9050919050565b5f5f610abe836112aa565b90505f73ffffffffffffffffffffffffffffffffffffffff168173ffffffffffffffffffffffffffffffffffffffff1603610b3057826040517f7e273289000000000000000000000000000000000000000000000000000000008152600401610b279190611b3c565b60405180910390fd5b80915050919050565b5f60045f8381526020019081526020015f205f9054906101000a900473ffffffffffffffffffffffffffffffffffffffff169050919050565b5f33905090565b610b8683838360016112e3565b505050565b5f5f610b96846112aa565b90505f73ffffffffffffffffffffffffffffffffffffffff168373ffffffffffffffffffffffffffffffffffffffff1614610bd757610bd68184866114a2565b5b5f73ffffffffffffffffffffffffffffffffffffffff168173ffffffffffffffffffffffffffffffffffffffff1614610c6257610c165f855f5f6112e3565b600160035f8373ffffffffffffffffffffffffffffffffffffffff1673ffffffffffffffffffffffffffffffffffffffff1681526020019081526020015f205f82825403925050819055505b5f73ffffffffffffffffffffffffffffffffffffffff168573ffffffffffffffffffffffffffffffffffffffff1614610ce157600160035f8773ffffffffffffffffffffffffffffffffffffffff1673ffffffffffffffffffffffffffffffffffffffff1681526020019081526020015f205f82825401925050819055505b8460025f8681526020019081526020015f205f6101000a81548173ffffffffffffffffffffffffffffffffffffffff021916908373ffffffffffffffffffffffffffffffffffffffff160217905550838573ffffffffffffffffffffffffffffffffffffffff168273ffffffffffffffffffffffffffffffffffffffff167fddf252ad1be2c89b69c2b068fc378daa952ba7f163c4a11628f55a4df523b3ef60405160405180910390a4809150509392505050565b5f73ffffffffffffffffffffffffffffffffffffffff168273ffffffffffffffffffffffffffffffffffffffff1603610e06575f6040517f64a0ae92000000000000000000000000000000000000000000000000000000008152600401610dfd9190611a31565b60405180910390fd5b5f610e1283835f610b8b565b90505f73ffffffffffffffffffffffffffffffffffffffff168173ffffffffffffffffffffffffffffffffffffffff1614610e84575f6040517f73c6ac6e000000000000000000000000000000000000000000000000000000008152600401610e7b9190611a31565b60405180910390fd5b505050565b5f73ffffffffffffffffffffffffffffffffffffffff168273ffffffffffffffffffffffffffffffffffffffff1603610ef957816040517f5b08ba18000000000000000000000000000000000000000000000000000000008152600401610ef09190611a31565b60405180910390fd5b8060055f8573ffffffffffffffffffffffffffffffffffffffff1673ffffffffffffffffffffffffffffffffffffffff1681526020019081526020015f205f8473ffffffffffffffffffffffffffffffffffffffff1673ffffffffffffffffffffffffffffffffffffffff1681526020019081526020015f205f6101000a81548160ff0219169083151502179055508173ffffffffffffffffffffffffffffffffffffffff168373ffffffffffffffffffffffffffffffffffffffff167f17307eab39ab6107e8899845ad3d59bd9653f200f220920489ca2b5937696c3183604051610fe591906118eb565b60405180910390a3505050565b5f8373ffffffffffffffffffffffffffffffffffffffff163b1115611197578273ffffffffffffffffffffffffffffffffffffffff1663150b7a02868685856040518563ffffffff1660e01b8152600401611050949392919061206b565b6020604051808303815f875af192505050801561108b57506040513d601f19601f8201168201806040525081019061108891906120c9565b60015b61110c573d805f81146110b9576040519150601f19603f3d011682016040523d82523d5f602084013e6110be565b606091505b505f81510361110457836040517f64a0ae920000000000000000000000000000000000000000000000000000000081526004016110fb9190611a31565b60405180910390fd5b805181602001fd5b63150b7a0260e01b7bffffffffffffffffffffffffffffffffffffffffffffffffffffffff1916817bffffffffffffffffffffffffffffffffffffffffffffffffffffffff19161461119557836040517f64a0ae9200000000000000000000000000000000000000000000000000000000815260040161118c9190611a31565b60405180910390fd5b505b5050505050565b60606040518060400160405280601681526020017f68747470733a2f2f7777772e676f6f676c652e636f6d00000000000000000000815250905090565b60606111e682610ab3565b505f6111f061119e565b90505f81511161120e5760405180602001604052805f815250611239565b8061121884611565565b604051602001611229929190611ff6565b6040516020818303038152906040525b915050919050565b5f7f01ffc9a7000000000000000000000000000000000000000000000000000000007bffffffffffffffffffffffffffffffffffffffffffffffffffffffff1916827bffffffffffffffffffffffffffffffffffffffffffffffffffffffff1916149050919050565b5f60025f8381526020019081526020015f205f9054906101000a900473ffffffffffffffffffffffffffffffffffffffff169050919050565b808061131b57505f73ffffffffffffffffffffffffffffffffffffffff168273ffffffffffffffffffffffffffffffffffffffff1614155b1561144d575f61132a84610ab3565b90505f73ffffffffffffffffffffffffffffffffffffffff168373ffffffffffffffffffffffffffffffffffffffff161415801561139457508273ffffffffffffffffffffffffffffffffffffffff168173ffffffffffffffffffffffffffffffffffffffff1614155b80156113a757506113a58184610944565b155b156113e957826040517fa9fbf51f0000000000000000000000000000000000000000000000000000000081526004016113e09190611a31565b60405180910390fd5b811561144b57838573ffffffffffffffffffffffffffffffffffffffff168273ffffffffffffffffffffffffffffffffffffffff167f8c5be1e5ebec7d5bd14f71427d1e84f3dd0314c0f7b2291e5b200ac8c7c3b92560405160405180910390a45b505b8360045f8581526020019081526020015f205f6101000a81548173ffffffffffffffffffffffffffffffffffffffff021916908373ffffffffffffffffffffffffffffffffffffffff16021790555050505050565b6114ad83838361162f565b611560575f73ffffffffffffffffffffffffffffffffffffffff168373ffffffffffffffffffffffffffffffffffffffff160361152157806040517f7e2732890000000000000000000000000000000000000000000000000000000081526004016115189190611b3c565b60405180910390fd5b81816040517f177e802f0000000000000000000000000000000000000000000000000000000081526004016115579291906120f4565b60405180910390fd5b505050565b60605f6001611573846116ef565b0190505f8167ffffffffffffffff81111561159157611590611bc5565b5b6040519080825280601f01601f1916602001820160405280156115c35781602001600182028036833780820191505090505b5090505f82602001820190505b600115611624578080600190039150507f3031323334353637383961626364656600000000000000000000000000000000600a86061a8153600a85816116195761161861211b565b5b0494505f85036115d0575b819350505050919050565b5f5f73ffffffffffffffffffffffffffffffffffffffff168373ffffffffffffffffffffffffffffffffffffffff16141580156116e657508273ffffffffffffffffffffffffffffffffffffffff168473ffffffffffffffffffffffffffffffffffffffff1614806116a757506116a68484610944565b5b806116e557508273ffffffffffffffffffffffffffffffffffffffff166116cd83610b39565b73ffffffffffffffffffffffffffffffffffffffff16145b5b90509392505050565b5f5f5f90507a184f03e93ff9f4daa797ed6e38ed64bf6a1f010000000000000000831061174b577a184f03e93ff9f4daa797ed6e38ed64bf6a1f01000000000000000083816117415761174061211b565b5b0492506040810190505b6d04ee2d6d415b85acef81000000008310611788576d04ee2d6d415b85acef8100000000838161177e5761177d61211b565b5b0492506020810190505b662386f26fc1000083106117b757662386f26fc1000083816117ad576117ac61211b565b5b0492506010810190505b6305f5e10083106117e0576305f5e10083816117d6576117d561211b565b5b0492506008810190505b61271083106118055761271083816117fb576117fa61211b565b5b0492506004810190505b60648310611828576064838161181e5761181d61211b565b5b0492506002810190505b600a8310611837576001810190505b80915050919050565b5f604051905090565b5f5ffd5b5f5ffd5b5f7fffffffff0000000000000000000000000000000000000000000000000000000082169050919050565b61188581611851565b811461188f575f5ffd5b50565b5f813590506118a08161187c565b92915050565b5f602082840312156118bb576118ba611849565b5b5f6118c884828501611892565b91505092915050565b5f8115159050919050565b6118e5816118d1565b82525050565b5f6020820190506118fe5f8301846118dc565b92915050565b5f81519050919050565b5f82825260208201905092915050565b8281835e5f83830152505050565b5f601f19601f8301169050919050565b5f61194682611904565b611950818561190e565b935061196081856020860161191e565b6119698161192c565b840191505092915050565b5f6020820190508181035f83015261198c818461193c565b905092915050565b5f819050919050565b6119a681611994565b81146119b0575f5ffd5b50565b5f813590506119c18161199d565b92915050565b5f602082840312156119dc576119db611849565b5b5f6119e9848285016119b3565b91505092915050565b5f73ffffffffffffffffffffffffffffffffffffffff82169050919050565b5f611a1b826119f2565b9050919050565b611a2b81611a11565b82525050565b5f602082019050611a445f830184611a22565b92915050565b611a5381611a11565b8114611a5d575f5ffd5b50565b5f81359050611a6e81611a4a565b92915050565b5f5f60408385031215611a8a57611a89611849565b5b5f611a9785828601611a60565b9250506020611aa8858286016119b3565b9150509250929050565b5f5f5f60608486031215611ac957611ac8611849565b5b5f611ad686828701611a60565b9350506020611ae786828701611a60565b9250506040611af8868287016119b3565b9150509250925092565b5f60208284031215611b1757611b16611849565b5b5f611b2484828501611a60565b91505092915050565b611b3681611994565b82525050565b5f602082019050611b4f5f830184611b2d565b92915050565b611b5e816118d1565b8114611b68575f5ffd5b50565b5f81359050611b7981611b55565b92915050565b5f5f60408385031215611b9557611b94611849565b5b5f611ba285828601611a60565b9250506020611bb385828601611b6b565b9150509250929050565b5f5ffd5b5f5ffd5b7f4e487b71000000000000000000000000000000000000000000000000000000005f52604160045260245ffd5b611bfb8261192c565b810181811067ffffffffffffffff82111715611c1a57611c19611bc5565b5b80604052505050565b5f611c2c611840565b9050611c388282611bf2565b919050565b5f67ffffffffffffffff821115611c5757611c56611bc5565b5b611c608261192c565b9050602081019050919050565b828183375f83830152505050565b5f611c8d611c8884611c3d565b611c23565b905082815260208101848484011115611ca957611ca8611bc1565b5b611cb4848285611c6d565b509392505050565b5f82601f830112611cd057611ccf611bbd565b5b8135611ce0848260208601611c7b565b91505092915050565b5f5f5f5f60808587031215611d0157611d00611849565b5b5f611d0e87828801611a60565b9450506020611d1f87828801611a60565b9350506040611d30878288016119b3565b925050606085013567ffffffffffffffff811115611d5157611d5061184d565b5b611d5d87828801611cbc565b91505092959194509250565b5f5f60408385031215611d7f57611d7e611849565b5b5f611d8c85828601611a60565b9250506020611d9d85828601611a60565b9150509250929050565b7f4e487b71000000000000000000000000000000000000000000000000000000005f52602260045260245ffd5b5f6002820490506001821680611deb57607f821691505b602082108103611dfe57611dfd611da7565b5b50919050565b5f606082019050611e175f830186611a22565b611e246020830185611b2d565b611e316040830184611a22565b949350505050565b7f4552433732313a206d696e7420746f20746865207a65726f20616464726573735f82015250565b5f611e6d60208361190e565b9150611e7882611e39565b602082019050919050565b5f6020820190508181035f830152611e9a81611e61565b9050919050565b5f81519050611eaf81611a4a565b92915050565b5f60208284031215611eca57611ec9611849565b5b5f611ed784828501611ea1565b91505092915050565b7f4552433732313a20746f6b656e20616c7265616479206d696e746564000000005f82015250565b5f611f14601c8361190e565b9150611f1f82611ee0565b602082019050919050565b5f6020820190508181035f830152611f4181611f08565b9050919050565b7f4e487b71000000000000000000000000000000000000000000000000000000005f52601160045260245ffd5b5f611f7f82611994565b91507fffffffffffffffffffffffffffffffffffffffffffffffffffffffffffffffff8203611fb157611fb0611f48565b5b600182019050919050565b5f81905092915050565b5f611fd082611904565b611fda8185611fbc565b9350611fea81856020860161191e565b80840191505092915050565b5f6120018285611fc6565b915061200d8284611fc6565b91508190509392505050565b5f81519050919050565b5f82825260208201905092915050565b5f61203d82612019565b6120478185612023565b935061205781856020860161191e565b6120608161192c565b840191505092915050565b5f60808201905061207e5f830187611a22565b61208b6020830186611a22565b6120986040830185611b2d565b81810360608301526120aa8184612033565b905095945050505050565b5f815190506120c38161187c565b92915050565b5f602082840312156120de576120dd611849565b5b5f6120eb848285016120b5565b91505092915050565b5f6040820190506121075f830185611a22565b6121146020830184611b2d565b9392505050565b7f4e487b71000000000000000000000000000000000000000000000000000000005f52601260045260245ffdfea2646970667358221220751518ed10d851370be91d9aa2342b49a66893d67ef86bf30abb1c883a9bd4a664736f6c634300081e0033","linkReferences":{}},"methodIdentifiers":{"approve(address,uint256)":"095ea7b3","balanceOf(address)":"70a08231","getApproved(uint256)":"081812fc","isApprovedForAll(address,address)":"e985e9c5","mint(address,uint256)":"40c10f19","name()":"06fdde03","nextTokenId()":"75794a3c","ownerOf(uint256)":"6352211e","safeTransferFrom(address,address,uint256)":"42842e0e","safeTransferFrom(address,address,uint256,bytes)":"b88d4fde","setApprovalForAll(address,bool)":"a22cb465","supportsInterface(bytes4)":"01ffc9a7","symbol()":"95d89b41","tokenURI(uint256)":"c87b56dd","transferFrom(address,address,uint256)":"23b872dd"},"id":60}