{"abi":[{"type":"fallback","stateMutability":"nonpayable"},{"type":"function","name":"getData","inputs":[],"outputs":[{"name":"","type":"uint256","internalType":"uint256"}],"stateMutability":"pure"}],"bytecode":{"object":"0x6080604052348015600e575f5ffd5b5061016e8061001c5f395ff3fe608060405234801561000f575f5ffd5b506004361061002d575f3560e01c80633bc5de30146100695761002e565b5b6040517f08c379a0000000000000000000000000000000000000000000000000000000008152600401610060906100e9565b60405180910390fd5b610071610087565b60405161007e919061011f565b60405180910390f35b5f602a905090565b5f82825260208201905092915050565b7f73746174696363616c6c2066756e6374696f6e206661696c65640000000000005f82015250565b5f6100d3601a8361008f565b91506100de8261009f565b602082019050919050565b5f6020820190508181035f830152610100816100c7565b9050919050565b5f819050919050565b61011981610107565b82525050565b5f6020820190506101325f830184610110565b9291505056fea26469706673582212203bb574005593d8630242bc329a4c414f8bfa54e3bc9c91bb07cecede5a6e709d64736f6c634300081e0033","linkReferences":{}},"methodIdentifiers":{"getData()":"3bc5de30"},"id":61}