{"abi":[{"type":"receive","stateMutability":"payable"},{"type":"function","name":"sendEther","inputs":[{"name":"to","type":"address","internalType":"address"},{"name":"value","type":"uint256","internalType":"uint256"}],"outputs":[{"name":"","type":"bool","internalType":"bool"}],"stateMutability":"nonpayable"}],"bytecode":{"object":"0x608060405234601c57600e6020565b61030661002b823961030690f35b6026565b60405190565b5f80fdfe60806040526004361015610018575b3661012f576102ae565b6100225f35610031565b63c1756a2c0361000e576100f9565b60e01c90565b60405190565b5f80fd5b5f80fd5b60018060a01b031690565b61005990610045565b90565b61006581610050565b0361006c57565b5f80fd5b9050359061007d8261005c565b565b90565b61008b8161007f565b0361009257565b5f80fd5b905035906100a382610082565b565b91906040838203126100cd57806100c16100ca925f8601610070565b93602001610096565b90565b610041565b151590565b6100e0906100d2565b9052565b91906100f7905f602085019401906100d7565b565b3461012a5761012661011561010f3660046100a5565b9061021b565b61011d610037565b918291826100e4565b0390f35b61003d565b5f80fd5b5f90565b905090565b6101475f8092610137565b0190565b6101549061013c565b90565b601f801991011690565b634e487b7160e01b5f52604160045260245ffd5b9061017f90610157565b810190811067ffffffffffffffff82111761019957604052565b610161565b906101b16101aa610037565b9283610175565b565b67ffffffffffffffff81116101d1576101cd602091610157565b0190565b610161565b906101e86101e3836101b3565b61019e565b918252565b606090565b3d5f1461020d576102023d6101d6565b903d5f602084013e5b565b6102156101ed565b9061020b565b5f918291610227610133565b5090610231610037565b908161023c8161014b565b03925af16102486101f2565b5090565b60209181520190565b5f7f73656e644574686572206661696c656400000000000000000000000000000000910152565b610289601060209261024c565b61029281610255565b0190565b6102ab9060208101905f81830391015261027c565b90565b6102b6610037565b62461bcd60e51b8152806102cc60048201610296565b0390fdfea2646970667358221220c2b302d6991cce09b2c561387fc523c9d586acdc3539af29d58fa628451a153d64736f6c634300081e0033","linkReferences":{}},"methodIdentifiers":{"sendEther(address,uint256)":"c1756a2c"},"id":55}