{"abi":[{"type":"receive","stateMutability":"payable"},{"type":"function","name":"sendEther","inputs":[{"name":"to","type":"address","internalType":"address"},{"name":"value","type":"uint256","internalType":"uint256"}],"outputs":[{"name":"","type":"bool","internalType":"bool"}],"stateMutability":"nonpayable"}],"bytecode":{"object":"0x6080604052348015600e575f5ffd5b506103058061001c5f395ff3fe608060405260043610610021575f3560e01c8063c1756a2c1461006557610061565b36610061576040517f08c379a00000000000000000000000000000000000000000000000000000000081526004016100589061016e565b60405180910390fd5b5f5ffd5b348015610070575f5ffd5b5061008b6004803603810190610086919061021d565b6100a1565b6040516100989190610275565b60405180910390f35b5f5f8373ffffffffffffffffffffffffffffffffffffffff16836040516100c7906102bb565b5f6040518083038185875af1925050503d805f8114610101576040519150601f19603f3d011682016040523d82523d5f602084013e610106565b606091505b505090508091505092915050565b5f82825260208201905092915050565b7f73656e644574686572206661696c6564000000000000000000000000000000005f82015250565b5f610158601083610114565b915061016382610124565b602082019050919050565b5f6020820190508181035f8301526101858161014c565b9050919050565b5f5ffd5b5f73ffffffffffffffffffffffffffffffffffffffff82169050919050565b5f6101b982610190565b9050919050565b6101c9816101af565b81146101d3575f5ffd5b50565b5f813590506101e4816101c0565b92915050565b5f819050919050565b6101fc816101ea565b8114610206575f5ffd5b50565b5f81359050610217816101f3565b92915050565b5f5f604083850312156102335761023261018c565b5b5f610240858286016101d6565b925050602061025185828601610209565b9150509250929050565b5f8115159050919050565b61026f8161025b565b82525050565b5f6020820190506102885f830184610266565b92915050565b5f81905092915050565b50565b5f6102a65f8361028e565b91506102b182610298565b5f82019050919050565b5f6102c58261029b565b915081905091905056fea26469706673582212204bb23ae46453fafb47ba1cd8de21c515d6fcd1f701d176266515c9a7de205b7664736f6c634300081e0033","linkReferences":{}},"methodIdentifiers":{"sendEther(address,uint256)":"c1756a2c"},"id":78}