{"abi":[{"type":"function","name":"callGetData","inputs":[{"name":"callee","type":"address","internalType":"address"}],"outputs":[{"name":"data","type":"uint256","internalType":"uint256"}],"stateMutability":"view"}],"bytecode":{"object":"0x6080604052348015600e575f5ffd5b506103cb8061001c5f395ff3fe608060405234801561000f575f5ffd5b5060043610610029575f3560e01c80638a868a691461002d575b5f5ffd5b61004760048036038101906100429190610204565b61005d565b6040516100549190610247565b60405180910390f35b5f5f5f8373ffffffffffffffffffffffffffffffffffffffff166040516024016040516020818303038152906040527f3bc5de30000000000000000000000000000000000000000000000000000000007bffffffffffffffffffffffffffffffffffffffffffffffffffffffff19166020820180517bffffffffffffffffffffffffffffffffffffffffffffffffffffffff838183161783525050505060405161010791906102b2565b5f60405180830381855afa9150503d805f811461013f576040519150601f19603f3d011682016040523d82523d5f602084013e610144565b606091505b509150915081610189576040517f08c379a000000000000000000000000000000000000000000000000000000000815260040161018090610322565b60405180910390fd5b8080602001905181019061019d919061036a565b92505050919050565b5f5ffd5b5f73ffffffffffffffffffffffffffffffffffffffff82169050919050565b5f6101d3826101aa565b9050919050565b6101e3816101c9565b81146101ed575f5ffd5b50565b5f813590506101fe816101da565b92915050565b5f60208284031215610219576102186101a6565b5b5f610226848285016101f0565b91505092915050565b5f819050919050565b6102418161022f565b82525050565b5f60208201905061025a5f830184610238565b92915050565b5f81519050919050565b5f81905092915050565b8281835e5f83830152505050565b5f61028c82610260565b610296818561026a565b93506102a6818560208601610274565b80840191505092915050565b5f6102bd8284610282565b915081905092915050565b5f82825260208201905092915050565b7f73746174696363616c6c206661696c65640000000000000000000000000000005f82015250565b5f61030c6011836102c8565b9150610317826102d8565b602082019050919050565b5f6020820190508181035f83015261033981610300565b9050919050565b6103498161022f565b8114610353575f5ffd5b50565b5f8151905061036481610340565b92915050565b5f6020828403121561037f5761037e6101a6565b5b5f61038c84828501610356565b9150509291505056fea2646970667358221220ba9fbd4de5f2d9e193a21ce6c71f7fcb01f0c5af9f6cb15497ad3c1e075cdbad64736f6c634300081e0033","linkReferences":{}},"methodIdentifiers":{"callGetData(address)":"8a868a69"},"id":58}