{"abi":[{"type":"function","name":"callGetData","inputs":[{"name":"callee","type":"address","internalType":"address"}],"outputs":[{"name":"data","type":"uint256","internalType":"uint256"}],"stateMutability":"view"}],"bytecode":{"object":"0x608060405234601c57600e6020565b61033f61002b823961033f90f35b6026565b60405190565b5f80fdfe60806040526004361015610013575b6100f2565b61001d5f3561002c565b638a868a690361000e576100bd565b60e01c90565b60405190565b5f80fd5b5f80fd5b60018060a01b031690565b61005490610040565b90565b6100608161004b565b0361006757565b5f80fd5b9050359061007882610057565b565b9060208282031261009357610090915f0161006b565b90565b61003c565b90565b6100a490610098565b9052565b91906100bb905f6020850194019061009b565b565b346100ed576100e96100d86100d336600461007a565b610293565b6100e0610032565b918291826100a8565b0390f35b610038565b5f80fd5b5f90565b5f0190565b601f801991011690565b634e487b7160e01b5f52604160045260245ffd5b90610127906100ff565b810190811067ffffffffffffffff82111761014157604052565b610109565b90610159610152610032565b928361011d565b565b67ffffffffffffffff8111610179576101756020916100ff565b0190565b610109565b9061019061018b8361015b565b610146565b918252565b606090565b3d5f146101b5576101aa3d61017e565b903d5f602084013e5b565b6101bd610195565b906101b3565b60209181520190565b5f7f73746174696363616c6c206661696c6564000000000000000000000000000000910152565b61020060116020926101c3565b610209816101cc565b0190565b6102229060208101905f8183039101526101f3565b90565b1561022c57565b610234610032565b62461bcd60e51b81528061024a6004820161020d565b0390fd5b61025781610098565b0361025e57565b5f80fd5b9050519061026f8261024e565b565b9060208282031261028a57610287915f01610262565b90565b61003c565b5190565b5f80610306926102a16100f6565b506102aa610032565b6102d6816102c76004602083016303bc5de360e41b8152016100fa565b6020820181038252038261011d565b602081019051915afa6102f06102ea61019a565b91610225565b60206102fb8261028f565b818301019101610271565b9056fea26469706673582212204234011e20b341eede6f1a69b0e1a5fb390234029e3a0e8fd063b718ed41022164736f6c634300081e0033","linkReferences":{}},"methodIdentifiers":{"callGetData(address)":"8a868a69"},"id":55}