{"abi":[{"type":"fallback","stateMutability":"nonpayable"},{"type":"function","name":"getData","inputs":[],"outputs":[{"name":"","type":"uint256","internalType":"uint256"}],"stateMutability":"pure"}],"bytecode":{"object":"0x608060405234601c57600e6020565b6101a561002b82396101a590f35b6026565b60405190565b5f80fdfe60806040526004361015610019575b341561014d5761003e565b6100235f35610032565b633bc5de300361000e5761007a565b60e01c90565b60405190565b5f80fd5b5f80fd5b5f91031261005057565b610042565b90565b61006190610055565b9052565b9190610078905f60208501940190610058565b565b346100aa5761008a366004610046565b6100a66100956100d5565b61009d610038565b91829182610065565b0390f35b61003e565b5f90565b90565b90565b6100cd6100c86100d2926100b3565b6100b6565b610055565b90565b6100dd6100af565b506100e8602a6100b9565b90565b60209181520190565b5f7f73746174696363616c6c2066756e6374696f6e206661696c6564000000000000910152565b610128601a6020926100eb565b610131816100f4565b0190565b61014a9060208101905f81830391015261011b565b90565b610155610038565b62461bcd60e51b81528061016b60048201610135565b0390fdfea2646970667358221220c4d866067335bd599a3a62509ac44c7fdf53e238ec12354f2141017394f8f22664736f6c634300081e0033","linkReferences":{}},"methodIdentifiers":{"getData()":"3bc5de30"},"id":55}