{"abi":[{"type":"function","name":"decodeMultiple","inputs":[{"name":"data","type":"bytes","internalType":"bytes"}],"outputs":[{"name":"","type":"uint256","internalType":"uint256"},{"name":"","type":"string","internalType":"string"}],"stateMutability":"pure"},{"type":"function","name":"decodeUint","inputs":[{"name":"data","type":"bytes","internalType":"bytes"}],"outputs":[{"name":"","type":"uint256","internalType":"uint256"}],"stateMutability":"pure"}],"bytecode":{"object":"0x6080604052348015600e575f5ffd5b506104b58061001c5f395ff3fe608060405234801561000f575f5ffd5b5060043610610034575f3560e01c80632f6222fc146100385780636ff2470114610069575b5f5ffd5b610052600480360381019061004d919061022c565b610099565b6040516100609291906102eb565b60405180910390f35b610083600480360381019061007e919061022c565b6100c3565b6040516100909190610319565b60405180910390f35b5f60605f5f848060200190518101906100b291906103fa565b915091508181935093505050915091565b5f818060200190518101906100d89190610454565b9050919050565b5f604051905090565b5f5ffd5b5f5ffd5b5f5ffd5b5f5ffd5b5f601f19601f8301169050919050565b7f4e487b71000000000000000000000000000000000000000000000000000000005f52604160045260245ffd5b61013e826100f8565b810181811067ffffffffffffffff8211171561015d5761015c610108565b5b80604052505050565b5f61016f6100df565b905061017b8282610135565b919050565b5f67ffffffffffffffff82111561019a57610199610108565b5b6101a3826100f8565b9050602081019050919050565b828183375f83830152505050565b5f6101d06101cb84610180565b610166565b9050828152602081018484840111156101ec576101eb6100f4565b5b6101f78482856101b0565b509392505050565b5f82601f830112610213576102126100f0565b5b81356102238482602086016101be565b91505092915050565b5f60208284031215610241576102406100e8565b5b5f82013567ffffffffffffffff81111561025e5761025d6100ec565b5b61026a848285016101ff565b91505092915050565b5f819050919050565b61028581610273565b82525050565b5f81519050919050565b5f82825260208201905092915050565b8281835e5f83830152505050565b5f6102bd8261028b565b6102c78185610295565b93506102d78185602086016102a5565b6102e0816100f8565b840191505092915050565b5f6040820190506102fe5f83018561027c565b818103602083015261031081846102b3565b90509392505050565b5f60208201905061032c5f83018461027c565b92915050565b61033b81610273565b8114610345575f5ffd5b50565b5f8151905061035681610332565b92915050565b5f67ffffffffffffffff82111561037657610375610108565b5b61037f826100f8565b9050602081019050919050565b5f61039e6103998461035c565b610166565b9050828152602081018484840111156103ba576103b96100f4565b5b6103c58482856102a5565b509392505050565b5f82601f8301126103e1576103e06100f0565b5b81516103f184826020860161038c565b91505092915050565b5f5f604083850312156104105761040f6100e8565b5b5f61041d85828601610348565b925050602083015167ffffffffffffffff81111561043e5761043d6100ec565b5b61044a858286016103cd565b9150509250929050565b5f60208284031215610469576104686100e8565b5b5f61047684828501610348565b9150509291505056fea2646970667358221220aa6e6ce6764f7f4310b6f7c4df0c30d05a80270c04cf082bb4c6c2f0a7ae966f64736f6c634300081e0033","linkReferences":{}},"methodIdentifiers":{"decodeMultiple(bytes)":"2f6222fc","decodeUint(bytes)":"6ff24701"},"id":75}