{"abi":[{"type":"function","name":"decodeMultiple","inputs":[{"name":"data","type":"bytes","internalType":"bytes"}],"outputs":[{"name":"","type":"uint256","internalType":"uint256"},{"name":"","type":"string","internalType":"string"}],"stateMutability":"pure"},{"type":"function","name":"decodeUint","inputs":[{"name":"data","type":"bytes","internalType":"bytes"}],"outputs":[{"name":"","type":"uint256","internalType":"uint256"}],"stateMutability":"pure"}],"bytecode":{"object":"0x608060405234601c57600e6020565b61041461002b823961041490f35b6026565b60405190565b5f80fdfe60806040526004361015610013575b610273565b61001d5f3561003c565b80632f6222fc1461003757636ff247010361000e5761023e565b6101f3565b60e01c90565b60405190565b5f80fd5b5f80fd5b5f80fd5b5f80fd5b5f80fd5b601f801991011690565b634e487b7160e01b5f52604160045260245ffd5b906100849061005c565b810190811067ffffffffffffffff82111761009e57604052565b610066565b906100b66100af610042565b928361007a565b565b67ffffffffffffffff81116100d6576100d260209161005c565b0190565b610066565b90825f939282370152565b909291926100fb6100f6826100b8565b6100a3565b9381855260208501908284011161011757610115926100db565b565b610058565b9080601f8301121561013a57816020610137933591016100e6565b90565b610054565b9060208282031261016f575f82013567ffffffffffffffff811161016a57610167920161011c565b90565b610050565b61004c565b90565b61018090610174565b9052565b5190565b60209181520190565b90825f9392825e0152565b6101bb6101c46020936101c9936101b281610184565b93848093610188565b95869101610191565b61005c565b0190565b916101f0926101e360408201935f830190610177565b602081840391015261019c565b90565b346102245761020b61020636600461013f565b610368565b90610220610217610042565b928392836101cd565b0390f35b610048565b919061023c905f60208501940190610177565b565b3461026e5761026a61025961025436600461013f565b6103b8565b610261610042565b91829182610229565b0390f35b610048565b5f80fd5b5f90565b606090565b61028981610174565b0361029057565b5f80fd5b905051906102a182610280565b565b67ffffffffffffffff81116102c1576102bd60209161005c565b0190565b610066565b909291926102db6102d6826102a3565b6100a3565b938185526020850190828401116102f7576102f592610191565b565b610058565b9080601f8301121561031a57816020610317935191016102c6565b90565b610054565b91909160408184031261035f57610338835f8301610294565b92602082015167ffffffffffffffff811161035a5761035792016102fc565b90565b610050565b61004c565b5190565b61039490610374610277565b5061037d61027b565b50602061038982610364565b81830101910161031f565b91909190565b906020828203126103b3576103b0915f01610294565b90565b61004c565b6103db906103c4610277565b5060206103d082610364565b81830101910161039a565b9056fea264697066735822122034c858a638e0ddd8a79268b133b1c02e6ab5c2873743aa890050f96ff01ff0c264736f6c634300081e0033","linkReferences":{}},"methodIdentifiers":{"decodeMultiple(bytes)":"2f6222fc","decodeUint(bytes)":"6ff24701"},"id":48}