{"abi":[{"type":"function","name":"encodeMultiple","inputs":[{"name":"num","type":"uint256","internalType":"uint256"},{"name":"text","type":"string","internalType":"string"}],"outputs":[{"name":"","type":"bytes","internalType":"bytes"}],"stateMutability":"pure"},{"type":"function","name":"encodeUint","inputs":[{"name":"value","type":"uint256","internalType":"uint256"}],"outputs":[{"name":"","type":"bytes","internalType":"bytes"}],"stateMutability":"pure"}],"bytecode":{"object":"0x6080604052348015600e575f5ffd5b506104508061001c5f395ff3fe608060405234801561000f575f5ffd5b5060043610610034575f3560e01c8063a2b23d1814610038578063d30c0a6414610068575b5f5ffd5b610052600480360381019061004d919061026d565b610098565b60405161005f9190610327565b60405180910390f35b610082600480360381019061007d9190610347565b6100c4565b60405161008f9190610327565b60405180910390f35b606082826040516020016100ad9291906103d3565b604051602081830303815290604052905092915050565b6060816040516020016100d79190610401565b6040516020818303038152906040529050919050565b5f604051905090565b5f5ffd5b5f5ffd5b5f819050919050565b610110816100fe565b811461011a575f5ffd5b50565b5f8135905061012b81610107565b92915050565b5f5ffd5b5f5ffd5b5f601f19601f8301169050919050565b7f4e487b71000000000000000000000000000000000000000000000000000000005f52604160045260245ffd5b61017f82610139565b810181811067ffffffffffffffff8211171561019e5761019d610149565b5b80604052505050565b5f6101b06100ed565b90506101bc8282610176565b919050565b5f67ffffffffffffffff8211156101db576101da610149565b5b6101e482610139565b9050602081019050919050565b828183375f83830152505050565b5f61021161020c846101c1565b6101a7565b90508281526020810184848401111561022d5761022c610135565b5b6102388482856101f1565b509392505050565b5f82601f83011261025457610253610131565b5b81356102648482602086016101ff565b91505092915050565b5f5f60408385031215610283576102826100f6565b5b5f6102908582860161011d565b925050602083013567ffffffffffffffff8111156102b1576102b06100fa565b5b6102bd85828601610240565b9150509250929050565b5f81519050919050565b5f82825260208201905092915050565b8281835e5f83830152505050565b5f6102f9826102c7565b61030381856102d1565b93506103138185602086016102e1565b61031c81610139565b840191505092915050565b5f6020820190508181035f83015261033f81846102ef565b905092915050565b5f6020828403121561035c5761035b6100f6565b5b5f6103698482850161011d565b91505092915050565b61037b816100fe565b82525050565b5f81519050919050565b5f82825260208201905092915050565b5f6103a582610381565b6103af818561038b565b93506103bf8185602086016102e1565b6103c881610139565b840191505092915050565b5f6040820190506103e65f830185610372565b81810360208301526103f8818461039b565b90509392505050565b5f6020820190506104145f830184610372565b9291505056fea2646970667358221220bd78dd23a297eef02f22e31be8cc80f7d4c03442638fa5f474dc815ae03bd18d64736f6c634300081e0033","linkReferences":{}},"methodIdentifiers":{"encodeMultiple(uint256,string)":"a2b23d18","encodeUint(uint256)":"d30c0a64"},"id":54}