{"abi":[{"type":"function","name":"encodeMultiple","inputs":[{"name":"num","type":"uint256","internalType":"uint256"},{"name":"text","type":"string","internalType":"string"}],"outputs":[{"name":"","type":"bytes","internalType":"bytes"}],"stateMutability":"pure"},{"type":"function","name":"encodeUint","inputs":[{"name":"value","type":"uint256","internalType":"uint256"}],"outputs":[{"name":"","type":"bytes","internalType":"bytes"}],"stateMutability":"pure"}],"bytecode":{"object":"0x608060405234601c57600e6020565b6103c561002b82396103c590f35b6026565b60405190565b5f80fdfe60806040526004361015610013575b610294565b61001d5f3561003c565b8063a2b23d18146100375763d30c0a640361000e5761025f565b61020b565b60e01c90565b60405190565b5f80fd5b5f80fd5b5f80fd5b90565b61006081610054565b0361006757565b5f80fd5b9050359061007882610057565b565b5f80fd5b5f80fd5b601f801991011690565b634e487b7160e01b5f52604160045260245ffd5b906100aa90610082565b810190811067ffffffffffffffff8211176100c457604052565b61008c565b906100dc6100d5610042565b92836100a0565b565b67ffffffffffffffff81116100fc576100f8602091610082565b0190565b61008c565b90825f939282370152565b9092919261012161011c826100de565b6100c9565b9381855260208501908284011161013d5761013b92610101565b565b61007e565b9080601f830112156101605781602061015d9335910161010c565b90565b61007a565b9190916040818403126101a55761017e835f830161006b565b92602082013567ffffffffffffffff81116101a05761019d9201610142565b90565b610050565b61004c565b5190565b60209181520190565b90825f9392825e0152565b6101e16101ea6020936101ef936101d8816101aa565b938480936101ae565b958691016101b7565b610082565b0190565b6102089160208201915f8184039101526101c2565b90565b3461023c57610238610227610221366004610165565b9061030e565b61022f610042565b918291826101f3565b0390f35b610048565b9060208282031261025a57610257915f0161006b565b90565b61004c565b3461028f5761028b61027a610275366004610241565b610359565b610282610042565b918291826101f3565b0390f35b610048565b5f80fd5b606090565b6102a690610054565b9052565b5190565b60209181520190565b6102d66102df6020936102e4936102cd816102aa565b938480936102ae565b958691016101b7565b610082565b0190565b9161030b926102fe60408201935f83019061029d565b60208184039101526102b7565b90565b6103419061031a610298565b50610332610326610042565b938492602084016102e8565b602082018103825203826100a0565b90565b9190610357905f6020850194019061029d565b565b61038c61037d91610368610298565b50610371610042565b92839160208301610344565b602082018103825203826100a0565b9056fea2646970667358221220634d9510f47b65f542162305db4204a6aefe6b379f68153ab182efd3f024710964736f6c634300081e0033","linkReferences":{}},"methodIdentifiers":{"encodeMultiple(uint256,string)":"a2b23d18","encodeUint(uint256)":"d30c0a64"},"id":48}