{"abi":[{"type":"constructor","inputs":[],"stateMutability":"nonpayable"},{"type":"receive","stateMutability":"payable"},{"type":"function","name":"adminWithdraw","inputs":[{"name":"bank","type":"address","internalType":"contract IBank"}],"outputs":[],"stateMutability":"nonpayable"},{"type":"function","name":"changeOwner","inputs":[{"name":"_newOwner","type":"address","internalType":"address"}],"outputs":[],"stateMutability":"nonpayable"},{"type":"function","name":"owner","inputs":[],"outputs":[{"name":"","type":"address","internalType":"address"}],"stateMutability":"view"}],"bytecode":{"object":"0x6080604052348015600e575f5ffd5b50335f5f6101000a81548173ffffffffffffffffffffffffffffffffffffffff021916908373ffffffffffffffffffffffffffffffffffffffff1602179055506107598061005b5f395ff3fe608060405260043610610037575f3560e01c80638da5cb5b14610042578063a28835b61461006c578063a6f9dae1146100945761003e565b3661003e57005b5f5ffd5b34801561004d575f5ffd5b506100566100bc565b6040516100639190610436565b60405180910390f35b348015610077575f5ffd5b50610092600480360381019061008d919061048e565b6100e0565b005b34801561009f575f5ffd5b506100ba60048036038101906100b591906104e3565b6102b9565b005b5f5f9054906101000a900473ffffffffffffffffffffffffffffffffffffffff1681565b5f5f9054906101000a900473ffffffffffffffffffffffffffffffffffffffff1673ffffffffffffffffffffffffffffffffffffffff163373ffffffffffffffffffffffffffffffffffffffff161461016e576040517f08c379a00000000000000000000000000000000000000000000000000000000081526004016101659061058e565b60405180910390fd5b5f73ffffffffffffffffffffffffffffffffffffffff168173ffffffffffffffffffffffffffffffffffffffff16036101dc576040517f08c379a00000000000000000000000000000000000000000000000000000000081526004016101d3906105f6565b60405180910390fd5b5f8173ffffffffffffffffffffffffffffffffffffffff163111610235576040517f08c379a000000000000000000000000000000000000000000000000000000000815260040161022c9061065e565b60405180910390fd5b8073ffffffffffffffffffffffffffffffffffffffff1663f3fef3a35f308473ffffffffffffffffffffffffffffffffffffffff16316040518463ffffffff1660e01b8152600401610288929190610694565b5f604051808303818588803b15801561029f575f5ffd5b505af11580156102b1573d5f5f3e3d5ffd5b505050505050565b5f5f9054906101000a900473ffffffffffffffffffffffffffffffffffffffff1673ffffffffffffffffffffffffffffffffffffffff163373ffffffffffffffffffffffffffffffffffffffff1614610347576040517f08c379a000000000000000000000000000000000000000000000000000000000815260040161033e9061058e565b60405180910390fd5b5f73ffffffffffffffffffffffffffffffffffffffff168173ffffffffffffffffffffffffffffffffffffffff16036103b5576040517f08c379a00000000000000000000000000000000000000000000000000000000081526004016103ac90610705565b60405180910390fd5b805f5f6101000a81548173ffffffffffffffffffffffffffffffffffffffff021916908373ffffffffffffffffffffffffffffffffffffffff16021790555050565b5f73ffffffffffffffffffffffffffffffffffffffff82169050919050565b5f610420826103f7565b9050919050565b61043081610416565b82525050565b5f6020820190506104495f830184610427565b92915050565b5f5ffd5b5f61045d82610416565b9050919050565b61046d81610453565b8114610477575f5ffd5b50565b5f8135905061048881610464565b92915050565b5f602082840312156104a3576104a261044f565b5b5f6104b08482850161047a565b91505092915050565b6104c281610416565b81146104cc575f5ffd5b50565b5f813590506104dd816104b9565b92915050565b5f602082840312156104f8576104f761044f565b5b5f610505848285016104cf565b91505092915050565b5f82825260208201905092915050565b7f4f6e6c79206f776e65722063616e2063616c6c20746869732066756e6374696f5f8201527f6e00000000000000000000000000000000000000000000000000000000000000602082015250565b5f61057860218361050e565b91506105838261051e565b604082019050919050565b5f6020820190508181035f8301526105a58161056c565b9050919050565b7f42616e6b20616464726573732063616e6e6f74206265207a65726f00000000005f82015250565b5f6105e0601b8361050e565b91506105eb826105ac565b602082019050919050565b5f6020820190508181035f83015261060d816105d4565b9050919050565b7f42616e6b20686173206e6f2062616c616e636520746f207769746864726177005f82015250565b5f610648601f8361050e565b915061065382610614565b602082019050919050565b5f6020820190508181035f8301526106758161063c565b9050919050565b5f819050919050565b61068e8161067c565b82525050565b5f6040820190506106a75f830185610427565b6106b46020830184610685565b9392505050565b7f4e6577206f776e65722063616e6e6f74206265207a65726f20616464726573735f82015250565b5f6106ef60208361050e565b91506106fa826106bb565b602082019050919050565b5f6020820190508181035f83015261071c816106e3565b905091905056fea26469706673582212205254a21b4ba642f7de2933e2dc21e6b5af34cb1ff67f2ef97e3a2ed941928fac64736f6c634300081e0033","linkReferences":{}},"methodIdentifiers":{"adminWithdraw(address)":"a28835b6","changeOwner(address)":"a6f9dae1","owner()":"8da5cb5b"},"id":2}