{"abi":[{"type":"constructor","inputs":[],"stateMutability":"nonpayable"},{"type":"receive","stateMutability":"payable"},{"type":"function","name":"adminWithdraw","inputs":[{"name":"bank","type":"address","internalType":"contract IBank"}],"outputs":[],"stateMutability":"nonpayable"},{"type":"function","name":"changeOwner","inputs":[{"name":"_newOwner","type":"address","internalType":"address"}],"outputs":[],"stateMutability":"nonpayable"},{"type":"function","name":"owner","inputs":[],"outputs":[{"name":"","type":"address","internalType":"address"}],"stateMutability":"view"}],"bytecode":{"object":"0x608060405234602257600e60a3565b60146026565b6107bf6100ae82396107bf90f35b602c565b60405190565b5f80fd5b5f1b90565b90604460018060a01b03916030565b9181191691161790565b60018060a01b031690565b90565b606b6067606f92604e565b6059565b604e565b90565b607990605c565b90565b6083906072565b90565b90565b9060996095609f92607c565b6086565b82546035565b9055565b60ab335f6089565b56fe60806040526004361015610015575b3661021b57005b61001f5f3561004e565b80638da5cb5b14610049578063a28835b6146100445763a6f9dae10361000e576101e8565b610174565b6100ed565b60e01c90565b60405190565b5f80fd5b5f80fd5b5f91031261006c57565b61005e565b1c90565b60018060a01b031690565b6100909060086100959302610071565b610075565b90565b906100a39154610080565b90565b6100b15f5f90610098565b90565b60018060a01b031690565b6100c8906100b4565b90565b6100d4906100bf565b9052565b91906100eb905f602085019401906100cb565b565b3461011d576100fd366004610062565b6101196101086100a6565b610110610054565b918291826100d8565b0390f35b61005a565b61012b906100bf565b90565b61013781610122565b0361013e57565b5f80fd5b9050359061014f8261012e565b565b9060208282031261016a57610167915f01610142565b90565b61005e565b5f0190565b346101a25761018c610187366004610151565b610643565b610194610054565b8061019e8161016f565b0390f35b61005a565b6101b0816100bf565b036101b757565b5f80fd5b905035906101c8826101a7565b565b906020828203126101e3576101e0915f016101bb565b90565b61005e565b34610216576102006101fb3660046101ca565b61077e565b610208610054565b806102128161016f565b0390f35b61005a565b5f80fd5b5f1c90565b6102306102359161021f565b610075565b90565b6102429054610224565b90565b60209181520190565b60207f6e00000000000000000000000000000000000000000000000000000000000000917f4f6e6c79206f776e65722063616e2063616c6c20746869732066756e6374696f5f8201520152565b6102a86021604092610245565b6102b18161024e565b0190565b6102ca9060208101905f81830391015261029b565b90565b156102d457565b6102dc610054565b62461bcd60e51b8152806102f2600482016102b5565b0390fd5b6103239061031e3361031861031261030d5f610238565b6100bf565b916100bf565b146102cd565b610556565b565b90565b61033c610337610341926100b4565b610325565b6100b4565b90565b61034d90610328565b90565b61035990610344565b90565b90565b61037361036e6103789261035c565b610325565b6100b4565b90565b6103849061035f565b90565b5f7f42616e6b20616464726573732063616e6e6f74206265207a65726f0000000000910152565b6103bb601b602092610245565b6103c481610387565b0190565b6103dd9060208101905f8183039101526103ae565b90565b156103e757565b6103ef610054565b62461bcd60e51b815280610405600482016103c8565b0390fd5b90565b61042061041b6104259261035c565b610325565b610409565b90565b5f7f42616e6b20686173206e6f2062616c616e636520746f20776974686472617700910152565b61045c601f602092610245565b61046581610428565b0190565b61047e9060208101905f81830391015261044f565b90565b1561048857565b610490610054565b62461bcd60e51b8152806104a660048201610469565b0390fd5b6104b390610344565b90565b5f80fd5b601f801991011690565b634e487b7160e01b5f52604160045260245ffd5b906104e2906104ba565b810190811067ffffffffffffffff8211176104fc57604052565b6104c4565b60e01b90565b5f91031261051157565b61005e565b61051f90610409565b9052565b91602061054492949361053d60408201965f8301906100cb565b0190610516565b565b61054e610054565b3d5f823e3d90fd5b61058361056282610350565b61057c6105766105715f61037b565b6100bf565b916100bf565b14156103e0565b6105a861058f82610350565b316105a261059c5f61040c565b91610409565b11610481565b6105b181610350565b9063f3fef3a3906105ca6105c4306104aa565b91610350565b3192803b1561063e576105f05f80946105fb6105e4610054565b97889687958694610501565b845260048401610523565b03925af180156106395761060d575b50565b61062c905f3d8111610632575b61062481836104d8565b810190610507565b5f61060a565b503d61061a565b610546565b6104b6565b61064c906102f6565b565b61067b906106763361067061066a6106655f610238565b6100bf565b916100bf565b146102cd565b61074d565b565b5f7f4e6577206f776e65722063616e6e6f74206265207a65726f2061646472657373910152565b6106b060208092610245565b6106b98161067d565b0190565b6106d29060208101905f8183039101526106a4565b90565b156106dc57565b6106e4610054565b62461bcd60e51b8152806106fa600482016106bd565b0390fd5b5f1b90565b9061071460018060a01b03916106fe565b9181191691161790565b61072790610344565b90565b90565b9061074261073d6107499261071e565b61072a565b8254610703565b9055565b61077c906107768161076f6107696107645f61037b565b6100bf565b916100bf565b14156106d5565b5f61072d565b565b6107879061064e565b56fea2646970667358221220fd11ece9464c92a301e71b84f714e45e587663e8efc1ca11caf7bda902297db564736f6c634300081e0033","linkReferences":{}},"methodIdentifiers":{"adminWithdraw(address)":"a28835b6","changeOwner(address)":"a6f9dae1","owner()":"8da5cb5b"},"id":45}