{"abi":[{"type":"function","name":"getFunctionSelector1","inputs":[],"outputs":[{"name":"","type":"bytes4","internalType":"bytes4"}],"stateMutability":"pure"},{"type":"function","name":"getFunctionSelector2","inputs":[],"outputs":[{"name":"","type":"bytes4","internalType":"bytes4"}],"stateMutability":"pure"},{"type":"function","name":"getValue","inputs":[],"outputs":[{"name":"","type":"uint256","internalType":"uint256"}],"stateMutability":"view"},{"type":"function","name":"setValue","inputs":[{"name":"value","type":"uint256","internalType":"uint256"}],"outputs":[],"stateMutability":"nonpayable"}],"bytecode":{"object":"0x6080604052348015600e575f5ffd5b506102368061001c5f395ff3fe608060405234801561000f575f5ffd5b506004361061004a575f3560e01c8063209652551461004e578063552410771461006c578063674b3f6314610088578063674e0fcc146100a6575b5f5ffd5b6100566100c4565b604051610063919061013b565b60405180910390f35b61008660048036038101906100819190610182565b6100cc565b005b6100906100d5565b60405161009d91906101e7565b60405180910390f35b6100ae6100fc565b6040516100bb91906101e7565b60405180910390f35b5f5f54905090565b805f8190555050565b5f7f209652555fbf4ddd9bd2dab56f1bf9337657d553db79a552edf55d94497ead96905090565b5f7f5524107728b6898cfcb4f9c8c4692293f130d6580f855e9f0718b1fa98cbecbd905090565b5f819050919050565b61013581610123565b82525050565b5f60208201905061014e5f83018461012c565b92915050565b5f5ffd5b61016181610123565b811461016b575f5ffd5b50565b5f8135905061017c81610158565b92915050565b5f6020828403121561019757610196610154565b5b5f6101a48482850161016e565b91505092915050565b5f7fffffffff0000000000000000000000000000000000000000000000000000000082169050919050565b6101e1816101ad565b82525050565b5f6020820190506101fa5f8301846101d8565b9291505056fea2646970667358221220d690814cb7e787fc40e12fcddaa7422cac36f8cd072f6db925a85f15d0a74a6164736f6c634300081e0033","linkReferences":{}},"methodIdentifiers":{"getFunctionSelector1()":"674b3f63","getFunctionSelector2()":"674e0fcc","getValue()":"20965255","setValue(uint256)":"55241077"},"id":78}