{"abi":[{"type":"function","name":"getFunctionSelector1","inputs":[],"outputs":[{"name":"","type":"bytes4","internalType":"bytes4"}],"stateMutability":"pure"},{"type":"function","name":"getFunctionSelector2","inputs":[],"outputs":[{"name":"","type":"bytes4","internalType":"bytes4"}],"stateMutability":"pure"},{"type":"function","name":"getValue","inputs":[],"outputs":[{"name":"","type":"uint256","internalType":"uint256"}],"stateMutability":"view"},{"type":"function","name":"setValue","inputs":[{"name":"value","type":"uint256","internalType":"uint256"}],"outputs":[],"stateMutability":"nonpayable"}],"bytecode":{"object":"0x608060405234601c57600e6020565b61034961002b823961034990f35b6026565b60405190565b5f80fdfe60806040526004361015610013575b6101ea565b61001d5f3561005c565b806320965255146100575780635524107714610052578063674b3f631461004d5763674e0fcc0361000e576101b5565b610180565b61011f565b6100a4565b60e01c90565b60405190565b5f80fd5b5f80fd5b5f91031261007a57565b61006c565b90565b61008b9061007f565b9052565b91906100a2905f60208501940190610082565b565b346100d4576100b4366004610070565b6100d06100bf61021b565b6100c7610062565b9182918261008f565b0390f35b610068565b6100e28161007f565b036100e957565b5f80fd5b905035906100fa826100d9565b565b9060208282031261011557610112915f016100ed565b90565b61006c565b5f0190565b3461014d576101376101323660046100fc565b61028d565b61013f610062565b806101498161011a565b0390f35b610068565b63ffffffff60e01b1690565b61016790610152565b9052565b919061017e905f6020850194019061015e565b565b346101b057610190366004610070565b6101ac61019b6102a9565b6101a3610062565b9182918261016b565b0390f35b610068565b346101e5576101c5366004610070565b6101e16101d06102de565b6101d8610062565b9182918261016b565b0390f35b610068565b5f80fd5b5f90565b5f1c90565b90565b61020661020b916101f2565b6101f7565b90565b61021890546101fa565b90565b6102236101ee565b5061022d5f61020e565b90565b5f1b90565b906102415f1991610230565b9181191691161790565b90565b61026261025d6102679261007f565b61024b565b61007f565b90565b90565b9061028261027d6102899261024e565b61026a565b8254610235565b9055565b610297905f61026d565b565b5f90565b6102a690610152565b90565b6102b1610299565b506102db7f209652555fbf4ddd9bd2dab56f1bf9337657d553db79a552edf55d94497ead9661029d565b90565b6102e6610299565b506103107f5524107728b6898cfcb4f9c8c4692293f130d6580f855e9f0718b1fa98cbecbd61029d565b9056fea26469706673582212209498c899b6e282815e0ddfd36790619c6e0ea97782c3c39bd03e96361aac9a8664736f6c634300081e0033","linkReferences":{}},"methodIdentifiers":{"getFunctionSelector1()":"674b3f63","getFunctionSelector2()":"674e0fcc","getValue()":"20965255","setValue(uint256)":"55241077"},"id":49}