{"abi":[{"type":"constructor","inputs":[{"name":"_token","type":"address","internalType":"contract ERC20V2"}],"stateMutability":"nonpayable"},{"type":"function","name":"approveOrder","inputs":[{"name":"accountId","type":"uint256","internalType":"uint256"},{"name":"orderId","type":"uint256","internalType":"uint256"}],"outputs":[],"stateMutability":"nonpayable"},{"type":"function","name":"balances","inputs":[{"name":"","type":"address","internalType":"address"}],"outputs":[{"name":"","type":"uint256","internalType":"uint256"}],"stateMutability":"view"},{"type":"function","name":"cancelOrder","inputs":[{"name":"accountId","type":"uint256","internalType":"uint256"},{"name":"orderId","type":"uint256","internalType":"uint256"}],"outputs":[],"stateMutability":"nonpayable"},{"type":"function","name":"createBankWithdrawOrder","inputs":[{"name":"accountId","type":"uint256","internalType":"uint256"},{"name":"amount","type":"uint256","internalType":"uint256"},{"name":"deadline","type":"uint256","internalType":"uint256"}],"outputs":[],"stateMutability":"nonpayable"},{"type":"function","name":"createSafeBankAccount","inputs":[{"name":"owners","type":"address[]","internalType":"address[]"},{"name":"requiredSignatures","type":"uint256","internalType":"uint256"}],"outputs":[{"name":"","type":"uint256","internalType":"uint256"}],"stateMutability":"nonpayable"},{"type":"function","name":"createWithdrawOrder","inputs":[{"name":"accountId","type":"uint256","internalType":"uint256"},{"name":"token","type":"address","internalType":"address"},{"name":"amount","type":"uint256","internalType":"uint256"},{"name":"to","type":"address","internalType":"address"},{"name":"deadline","type":"uint256","internalType":"uint256"}],"outputs":[],"stateMutability":"nonpayable"},{"type":"function","name":"deposit","inputs":[{"name":"amount","type":"uint256","internalType":"uint256"}],"outputs":[],"stateMutability":"nonpayable"},{"type":"function","name":"depositToSafeBank","inputs":[{"name":"accountId","type":"uint256","internalType":"uint256"},{"name":"token","type":"address","internalType":"address"},{"name":"amount","type":"uint256","internalType":"uint256"}],"outputs":[],"stateMutability":"nonpayable"},{"type":"function","name":"executeBankWithdrawOrder","inputs":[{"name":"accountId","type":"uint256","internalType":"uint256"},{"name":"orderId","type":"uint256","internalType":"uint256"}],"outputs":[],"stateMutability":"nonpayable"},{"type":"function","name":"executeOrder","inputs":[{"name":"accountId","type":"uint256","internalType":"uint256"},{"name":"orderId","type":"uint256","internalType":"uint256"}],"outputs":[],"stateMutability":"nonpayable"},{"type":"function","name":"getOrder","inputs":[{"name":"accountId","type":"uint256","internalType":"uint256"},{"name":"orderId","type":"uint256","internalType":"uint256"}],"outputs":[{"name":"id","type":"uint256","internalType":"uint256"},{"name":"owner","type":"address","internalType":"address"},{"name":"amount","type":"uint256","internalType":"uint256"},{"name":"token","type":"address","internalType":"address"},{"name":"to","type":"address","internalType":"address"},{"name":"deadline","type":"uint256","internalType":"uint256"},{"name":"isCancelled","type":"bool","internalType":"bool"},{"name":"isApproved","type":"bool","internalType":"bool"},{"name":"isRejected","type":"bool","internalType":"bool"},{"name":"isExecuted","type":"bool","internalType":"bool"},{"name":"approvalCount","type":"uint256","internalType":"uint256"}],"stateMutability":"view"},{"type":"function","name":"getSafeBankAccount","inputs":[{"name":"accountId","type":"uint256","internalType":"uint256"}],"outputs":[{"name":"id","type":"uint256","internalType":"uint256"},{"name":"owners","type":"address[]","internalType":"address[]"},{"name":"requiredSignatures","type":"uint256","internalType":"uint256"},{"name":"orderCount","type":"uint256","internalType":"uint256"}],"stateMutability":"view"},{"type":"function","name":"getTokenBalance","inputs":[{"name":"accountId","type":"uint256","internalType":"uint256"},{"name":"token","type":"address","internalType":"address"}],"outputs":[{"name":"","type":"uint256","internalType":"uint256"}],"stateMutability":"view"},{"type":"function","name":"hasApproved","inputs":[{"name":"accountId","type":"uint256","internalType":"uint256"},{"name":"orderId","type":"uint256","internalType":"uint256"},{"name":"owner","type":"address","internalType":"address"}],"outputs":[{"name":"","type":"bool","internalType":"bool"}],"stateMutability":"view"},{"type":"function","name":"isOwner","inputs":[{"name":"accountId","type":"uint256","internalType":"uint256"},{"name":"owner","type":"address","internalType":"address"}],"outputs":[{"name":"","type":"bool","internalType":"bool"}],"stateMutability":"view"},{"type":"function","name":"nextAccountId","inputs":[],"outputs":[{"name":"","type":"uint256","internalType":"uint256"}],"stateMutability":"view"},{"type":"function","name":"owner","inputs":[],"outputs":[{"name":"","type":"address","internalType":"address"}],"stateMutability":"view"},{"type":"function","name":"rejectOrder","inputs":[{"name":"accountId","type":"uint256","internalType":"uint256"},{"name":"orderId","type":"uint256","internalType":"uint256"}],"outputs":[],"stateMutability":"nonpayable"},{"type":"function","name":"safeBankAccounts","inputs":[{"name":"","type":"uint256","internalType":"uint256"}],"outputs":[{"name":"id","type":"uint256","internalType":"uint256"},{"name":"requiredSignatures","type":"uint256","internalType":"uint256"},{"name":"orderCount","type":"uint256","internalType":"uint256"}],"stateMutability":"view"},{"type":"function","name":"setBankOwnerToSafeBank","inputs":[{"name":"accountId","type":"uint256","internalType":"uint256"}],"outputs":[],"stateMutability":"nonpayable"},{"type":"function","name":"setOwner","inputs":[{"name":"newOwner","type":"address","internalType":"address"}],"outputs":[],"stateMutability":"nonpayable"},{"type":"function","name":"token","inputs":[],"outputs":[{"name":"","type":"address","internalType":"contract IERC20"}],"stateMutability":"view"},{"type":"function","name":"tokenBankOwner","inputs":[],"outputs":[{"name":"","type":"address","internalType":"address"}],"stateMutability":"view"},{"type":"function","name":"tokensReceived","inputs":[{"name":"from","type":"address","internalType":"address"},{"name":"amount","type":"uint256","internalType":"uint256"},{"name":"token","type":"address","internalType":"address"}],"outputs":[],"stateMutability":"nonpayable"},{"type":"function","name":"totalDeposit","inputs":[],"outputs":[{"name":"","type":"uint256","internalType":"uint256"}],"stateMutability":"view"},{"type":"function","name":"userTokenBalances","inputs":[{"name":"","type":"address","internalType":"address"},{"name":"","type":"address","internalType":"address"}],"outputs":[{"name":"","type":"uint256","internalType":"uint256"}],"stateMutability":"view"},{"type":"function","name":"withdraw","inputs":[{"name":"amount","type":"uint256","internalType":"uint256"}],"outputs":[],"stateMutability":"nonpayable"},{"type":"event","name":"OrderApproved","inputs":[{"name":"accountId","type":"uint256","indexed":true,"internalType":"uint256"},{"name":"orderId","type":"uint256","indexed":true,"internalType":"uint256"},{"name":"approver","type":"address","indexed":false,"internalType":"address"}],"anonymous":false},{"type":"event","name":"OrderCancelled","inputs":[{"name":"accountId","type":"uint256","indexed":true,"internalType":"uint256"},{"name":"orderId","type":"uint256","indexed":true,"internalType":"uint256"}],"anonymous":false},{"type":"event","name":"OrderCreated","inputs":[{"name":"accountId","type":"uint256","indexed":true,"internalType":"uint256"},{"name":"orderId","type":"uint256","indexed":true,"internalType":"uint256"},{"name":"owner","type":"address","indexed":false,"internalType":"address"},{"name":"amount","type":"uint256","indexed":false,"internalType":"uint256"},{"name":"token","type":"address","indexed":false,"internalType":"address"},{"name":"to","type":"address","indexed":false,"internalType":"address"}],"anonymous":false},{"type":"event","name":"OrderExecuted","inputs":[{"name":"accountId","type":"uint256","indexed":true,"internalType":"uint256"},{"name":"orderId","type":"uint256","indexed":true,"internalType":"uint256"}],"anonymous":false},{"type":"event","name":"OrderRejected","inputs":[{"name":"accountId","type":"uint256","indexed":true,"internalType":"uint256"},{"name":"orderId","type":"uint256","indexed":true,"internalType":"uint256"},{"name":"rejector","type":"address","indexed":false,"internalType":"address"}],"anonymous":false},{"type":"event","name":"SafeBankAccountCreated","inputs":[{"name":"accountId","type":"uint256","indexed":true,"internalType":"uint256"},{"name":"owners","type":"address[]","indexed":false,"internalType":"address[]"},{"name":"requiredSignatures","type":"uint256","indexed":false,"internalType":"uint256"}],"anonymous":false},{"type":"event","name":"TokenDeposited","inputs":[{"name":"accountId","type":"uint256","indexed":true,"internalType":"uint256"},{"name":"token","type":"address","indexed":false,"internalType":"address"},{"name":"amount","type":"uint256","indexed":false,"internalType":"uint256"}],"anonymous":false},{"type":"event","name":"TokenWithdrawn","inputs":[{"name":"accountId","type":"uint256","indexed":true,"internalType":"uint256"},{"name":"token","type":"address","indexed":false,"internalType":"address"},{"name":"amount","type":"uint256","indexed":false,"internalType":"uint256"},{"name":"to","type":"address","indexed":false,"internalType":"address"}],"anonymous":false}],"bytecode":{"object":"0x60806040526001600755348015610014575f5ffd5b506040516142243803806142248339818101604052810190610036919061016e565b8080335f5f6101000a81548173ffffffffffffffffffffffffffffffffffffffff021916908373ffffffffffffffffffffffffffffffffffffffff1602179055508060035f6101000a81548173ffffffffffffffffffffffffffffffffffffffff021916908373ffffffffffffffffffffffffffffffffffffffff160217905550503360055f6101000a81548173ffffffffffffffffffffffffffffffffffffffff021916908373ffffffffffffffffffffffffffffffffffffffff1602179055505050610199565b5f5ffd5b5f73ffffffffffffffffffffffffffffffffffffffff82169050919050565b5f61012c82610103565b9050919050565b5f61013d82610122565b9050919050565b61014d81610133565b8114610157575f5ffd5b50565b5f8151905061016881610144565b92915050565b5f60208284031215610183576101826100ff565b5b5f6101908482850161015a565b91505092915050565b61407e806101a65f395ff3fe608060405234801561000f575f5ffd5b50600436106101a7575f3560e01c80635a5d096c116100f7578063b6ed063211610095578063ef57e2d21161006f578063ef57e2d2146104ce578063f6153ccd146104fe578063f9f729251461051c578063fc0c546a1461054e576101a7565b8063b6ed063214610466578063bad4fbbc14610482578063ef46e0ca146104b2576101a7565b806360c53871116100d157806360c53871146103dd5780638da5cb5b146103f9578063925bea6714610417578063b6b55f251461044a576101a7565b80635a5d096c146103575780635d717a8c146103875780635e1a3573146103a3576101a7565b806327e235e311610164578063390724621161013e57806339072462146102d15780634194ad98146102ef5780634198bb7b1461030b57806345f2d10514610327576101a7565b806327e235e3146102695780632b86ed2f146102995780632e1a7d4d146102b5576101a7565b80630386505b146101ab57806308dae23c146101c75780630f0c6093146101f757806313af403514610213578063140189781461022f5780631e4e0a0b1461024d575b5f5ffd5b6101c560048036038101906101c09190612b4f565b61056c565b005b6101e160048036038101906101dc9190612bc6565b6108dc565b6040516101ee9190612c30565b60405180910390f35b610211600480360381019061020c9190612c49565b610954565b005b61022d60048036038101906102289190612c99565b610b02565b005b610237610c29565b6040516102449190612cd3565b60405180910390f35b61026760048036038101906102629190612cec565b610c4e565b005b610283600480360381019061027e9190612c99565b610fe9565b6040516102909190612d39565b60405180910390f35b6102b360048036038101906102ae9190612d52565b610ffe565b005b6102cf60048036038101906102ca9190612da2565b6110ff565b005b6102d961110b565b6040516102e69190612d39565b60405180910390f35b61030960048036038101906103049190612dcd565b611111565b005b61032560048036038101906103209190612cec565b6113d1565b005b610341600480360381019061033c9190612e1d565b611718565b60405161034e9190612d39565b60405180910390f35b610371600480360381019061036c9190612e5b565b611738565b60405161037e9190612c30565b60405180910390f35b6103a1600480360381019061039c9190612cec565b61179d565b005b6103bd60048036038101906103b89190612cec565b6119a4565b6040516103d49b9a99989796959493929190612e99565b60405180910390f35b6103f760048036038101906103f29190612da2565b611ac7565b005b610401611bb8565b60405161040e9190612cd3565b60405180910390f35b610431600480360381019061042c9190612da2565b611bdc565b6040516104419493929190612ff9565b60405180910390f35b610464600480360381019061045f9190612da2565b611c9c565b005b610480600480360381019061047b9190612cec565b611ca8565b005b61049c60048036038101906104979190613193565b611ea9565b6040516104a99190612d39565b60405180910390f35b6104cc60048036038101906104c79190612cec565b612231565b005b6104e860048036038101906104e39190612e5b565b6126a5565b6040516104f59190612d39565b60405180910390f35b6105066126fe565b6040516105139190612d39565b60405180910390f35b61053660048036038101906105319190612da2565b612704565b604051610545939291906131ed565b60405180910390f35b61055661272a565b604051610563919061327d565b60405180910390f35b5f60065f8781526020019081526020015f2090505f815f0154036105c5576040517f08c379a00000000000000000000000000000000000000000000000000000000081526004016105bc906132f0565b60405180910390fd5b806003015f3373ffffffffffffffffffffffffffffffffffffffff1673ffffffffffffffffffffffffffffffffffffffff1681526020019081526020015f205f9054906101000a900460ff16610650576040517f08c379a000000000000000000000000000000000000000000000000000000000815260040161064790613358565b60405180910390fd5b83816006015f8773ffffffffffffffffffffffffffffffffffffffff1673ffffffffffffffffffffffffffffffffffffffff1681526020019081526020015f205410156106d2576040517f08c379a00000000000000000000000000000000000000000000000000000000081526004016106c9906133c0565b60405180910390fd5b5f73ffffffffffffffffffffffffffffffffffffffff168373ffffffffffffffffffffffffffffffffffffffff1603610740576040517f08c379a000000000000000000000000000000000000000000000000000000000815260040161073790613428565b60405180910390fd5b428211610782576040517f08c379a000000000000000000000000000000000000000000000000000000000815260040161077990613490565b60405180910390fd5b5f816005015f815480929190610797906134db565b9190505590505f826004015f8381526020019081526020015f20905081815f018190555033816001015f6101000a81548173ffffffffffffffffffffffffffffffffffffffff021916908373ffffffffffffffffffffffffffffffffffffffff16021790555085816002018190555086816003015f6101000a81548173ffffffffffffffffffffffffffffffffffffffff021916908373ffffffffffffffffffffffffffffffffffffffff16021790555084816004015f6101000a81548173ffffffffffffffffffffffffffffffffffffffff021916908373ffffffffffffffffffffffffffffffffffffffff16021790555083816005018190555081887fec836a9c0173152cd03659794418817fb760fbd364a506d82c00e63aaa5c91f633898b8a6040516108ca9493929190613522565b60405180910390a35050505050505050565b5f60065f8581526020019081526020015f206004015f8481526020019081526020015f206007015f8373ffffffffffffffffffffffffffffffffffffffff1673ffffffffffffffffffffffffffffffffffffffff1681526020019081526020015f205f9054906101000a900460ff1690509392505050565b5f60065f8581526020019081526020015f2090505f815f0154036109ad576040517f08c379a00000000000000000000000000000000000000000000000000000000081526004016109a4906132f0565b60405180910390fd5b5f82116109ef576040517f08c379a00000000000000000000000000000000000000000000000000000000081526004016109e6906135af565b60405180910390fd5b8273ffffffffffffffffffffffffffffffffffffffff166323b872dd3330856040518463ffffffff1660e01b8152600401610a2c939291906135cd565b6020604051808303815f875af1158015610a48573d5f5f3e3d5ffd5b505050506040513d601f19601f82011682018060405250810190610a6c919061362c565b5081816006015f8573ffffffffffffffffffffffffffffffffffffffff1673ffffffffffffffffffffffffffffffffffffffff1681526020019081526020015f205f828254610abb9190613657565b92505081905550837f756280617abfd1bdc475830a3a4d03cea884ac63c5b517fcc23209de9ea01de38484604051610af492919061368a565b60405180910390a250505050565b5f5f9054906101000a900473ffffffffffffffffffffffffffffffffffffffff1673ffffffffffffffffffffffffffffffffffffffff163373ffffffffffffffffffffffffffffffffffffffff161480610ba8575060055f9054906101000a900473ffffffffffffffffffffffffffffffffffffffff1673ffffffffffffffffffffffffffffffffffffffff163373ffffffffffffffffffffffffffffffffffffffff16145b610be7576040517f08c379a0000000000000000000000000000000000000000000000000000000008152600401610bde906136fb565b60405180910390fd5b805f5f6101000a81548173ffffffffffffffffffffffffffffffffffffffff021916908373ffffffffffffffffffffffffffffffffffffffff16021790555050565b60055f9054906101000a900473ffffffffffffffffffffffffffffffffffffffff1681565b5f60065f8481526020019081526020015f2090505f816004015f8481526020019081526020015f2090505f825f015403610cbd576040517f08c379a0000000000000000000000000000000000000000000000000000000008152600401610cb4906132f0565b60405180910390fd5b5f815f015403610d02576040517f08c379a0000000000000000000000000000000000000000000000000000000008152600401610cf990613763565b60405180910390fd5b806006015f9054906101000a900460ff16158015610d2f57508060060160039054906101000a900460ff16155b610d6e576040517f08c379a0000000000000000000000000000000000000000000000000000000008152600401610d65906137cb565b60405180910390fd5b8060050154421115610db5576040517f08c379a0000000000000000000000000000000000000000000000000000000008152600401610dac90613833565b60405180910390fd5b816002015481600801541015610e00576040517f08c379a0000000000000000000000000000000000000000000000000000000008152600401610df79061389b565b60405180910390fd5b60035f9054906101000a900473ffffffffffffffffffffffffffffffffffffffff1673ffffffffffffffffffffffffffffffffffffffff16816003015f9054906101000a900473ffffffffffffffffffffffffffffffffffffffff1673ffffffffffffffffffffffffffffffffffffffff1614610eb2576040517f08c379a0000000000000000000000000000000000000000000000000000000008152600401610ea990613903565b60405180910390fd5b610ebf816002015461274f565b8060020154826006015f60035f9054906101000a900473ffffffffffffffffffffffffffffffffffffffff1673ffffffffffffffffffffffffffffffffffffffff1673ffffffffffffffffffffffffffffffffffffffff1681526020019081526020015f205f828254610f329190613657565b9250508190555060018160060160036101000a81548160ff02191690831515021790555082847f9947370f1e808dd40de986fca744d8715d4d7aa575359f77a7bdeeb887f590ea60405160405180910390a3837f756280617abfd1bdc475830a3a4d03cea884ac63c5b517fcc23209de9ea01de360035f9054906101000a900473ffffffffffffffffffffffffffffffffffffffff168360020154604051610fdb92919061368a565b60405180910390a250505050565b6001602052805f5260405f205f915090505481565b8073ffffffffffffffffffffffffffffffffffffffff163373ffffffffffffffffffffffffffffffffffffffff161461106c576040517f08c379a00000000000000000000000000000000000000000000000000000000081526004016110639061396b565b60405180910390fd5b8160045f8573ffffffffffffffffffffffffffffffffffffffff1673ffffffffffffffffffffffffffffffffffffffff1681526020019081526020015f205f8373ffffffffffffffffffffffffffffffffffffffff1673ffffffffffffffffffffffffffffffffffffffff1681526020019081526020015f205f8282546110f39190613657565b92505081905550505050565b6111088161274f565b50565b60075481565b5f60065f8581526020019081526020015f2090505f815f01540361116a576040517f08c379a0000000000000000000000000000000000000000000000000000000008152600401611161906132f0565b60405180910390fd5b806003015f3373ffffffffffffffffffffffffffffffffffffffff1673ffffffffffffffffffffffffffffffffffffffff1681526020019081526020015f205f9054906101000a900460ff166111f5576040517f08c379a00000000000000000000000000000000000000000000000000000000081526004016111ec90613358565b60405180910390fd5b428211611237576040517f08c379a000000000000000000000000000000000000000000000000000000000815260040161122e90613490565b60405180910390fd5b5f816005015f81548092919061124c906134db565b9190505590505f826004015f8381526020019081526020015f20905081815f018190555033816001015f6101000a81548173ffffffffffffffffffffffffffffffffffffffff021916908373ffffffffffffffffffffffffffffffffffffffff16021790555084816002018190555060035f9054906101000a900473ffffffffffffffffffffffffffffffffffffffff16816003015f6101000a81548173ffffffffffffffffffffffffffffffffffffffff021916908373ffffffffffffffffffffffffffffffffffffffff16021790555030816004015f6101000a81548173ffffffffffffffffffffffffffffffffffffffff021916908373ffffffffffffffffffffffffffffffffffffffff16021790555083816005018190555081867fec836a9c0173152cd03659794418817fb760fbd364a506d82c00e63aaa5c91f6338860035f9054906101000a900473ffffffffffffffffffffffffffffffffffffffff16306040516113c19493929190613522565b60405180910390a3505050505050565b5f60065f8481526020019081526020015f2090505f816004015f8481526020019081526020015f2090505f825f015403611440576040517f08c379a0000000000000000000000000000000000000000000000000000000008152600401611437906132f0565b60405180910390fd5b5f815f015403611485576040517f08c379a000000000000000000000000000000000000000000000000000000000815260040161147c90613763565b60405180910390fd5b816003015f3373ffffffffffffffffffffffffffffffffffffffff1673ffffffffffffffffffffffffffffffffffffffff1681526020019081526020015f205f9054906101000a900460ff16611510576040517f08c379a0000000000000000000000000000000000000000000000000000000008152600401611507906139d3565b60405180910390fd5b806006015f9054906101000a900460ff1615801561153d57508060060160039054906101000a900460ff16155b61157c576040517f08c379a0000000000000000000000000000000000000000000000000000000008152600401611573906137cb565b60405180910390fd5b80600501544211156115c3576040517f08c379a00000000000000000000000000000000000000000000000000000000081526004016115ba90613833565b60405180910390fd5b806007015f3373ffffffffffffffffffffffffffffffffffffffff1673ffffffffffffffffffffffffffffffffffffffff1681526020019081526020015f205f9054906101000a900460ff161561164f576040517f08c379a000000000000000000000000000000000000000000000000000000000815260040161164690613a3b565b60405180910390fd5b6001816007015f3373ffffffffffffffffffffffffffffffffffffffff1673ffffffffffffffffffffffffffffffffffffffff1681526020019081526020015f205f6101000a81548160ff021916908315150217905550806008015f8154809291906116ba906134db565b919050555082847fe30073a4ca5538e907aa20ba342b350ad7104c33eeb54ef3d0b1eb0ddd7e180a336040516116f09190612cd3565b60405180910390a38160020154816008015410611712576117118484612231565b5b50505050565b6004602052815f5260405f20602052805f5260405f205f91509150505481565b5f60065f8481526020019081526020015f206003015f8373ffffffffffffffffffffffffffffffffffffffff1673ffffffffffffffffffffffffffffffffffffffff1681526020019081526020015f205f9054906101000a900460ff16905092915050565b5f60065f8481526020019081526020015f2090505f816004015f8481526020019081526020015f2090505f825f01540361180c576040517f08c379a0000000000000000000000000000000000000000000000000000000008152600401611803906132f0565b60405180910390fd5b5f815f015403611851576040517f08c379a000000000000000000000000000000000000000000000000000000000815260040161184890613763565b60405180910390fd5b816003015f3373ffffffffffffffffffffffffffffffffffffffff1673ffffffffffffffffffffffffffffffffffffffff1681526020019081526020015f205f9054906101000a900460ff166118dc576040517f08c379a00000000000000000000000000000000000000000000000000000000081526004016118d390613aa3565b60405180910390fd5b806006015f9054906101000a900460ff1615801561190957508060060160039054906101000a900460ff16155b611948576040517f08c379a000000000000000000000000000000000000000000000000000000000815260040161193f906137cb565b60405180910390fd5b60018160060160026101000a81548160ff02191690831515021790555082847f9d2a0fc3fb05ac46a47680d07a1786979e80422d6f753e96b6819eb70a5487ef336040516119969190612cd3565b60405180910390a350505050565b5f5f5f5f5f5f5f5f5f5f5f5f60065f8f81526020019081526020015f2090505f816004015f8f81526020019081526020015f209050805f0154816001015f9054906101000a900473ffffffffffffffffffffffffffffffffffffffff168260020154836003015f9054906101000a900473ffffffffffffffffffffffffffffffffffffffff16846004015f9054906101000a900473ffffffffffffffffffffffffffffffffffffffff168560050154866006015f9054906101000a900460ff168760060160019054906101000a900460ff168860060160029054906101000a900460ff168960060160039054906101000a900460ff168a600801549c509c509c509c509c509c509c509c509c509c509c5050509295989b509295989b9093969950565b5f60065f8381526020019081526020015f2090505f815f015403611b20576040517f08c379a0000000000000000000000000000000000000000000000000000000008152600401611b17906132f0565b60405180910390fd5b806003015f3373ffffffffffffffffffffffffffffffffffffffff1673ffffffffffffffffffffffffffffffffffffffff1681526020019081526020015f205f9054906101000a900460ff16611bab576040517f08c379a0000000000000000000000000000000000000000000000000000000008152600401611ba290613b0b565b60405180910390fd5b611bb430610b02565b5050565b5f5f9054906101000a900473ffffffffffffffffffffffffffffffffffffffff1681565b5f60605f5f5f60065f8781526020019081526020015f209050805f0154816001018260020154836005015482805480602002602001604051908101604052809291908181526020018280548015611c8557602002820191905f5260205f20905b815f9054906101000a900473ffffffffffffffffffffffffffffffffffffffff1673ffffffffffffffffffffffffffffffffffffffff1681526020019060010190808311611c3c575b505050505092509450945094509450509193509193565b611ca581612918565b50565b5f60065f8481526020019081526020015f2090505f816004015f8481526020019081526020015f2090505f825f015403611d17576040517f08c379a0000000000000000000000000000000000000000000000000000000008152600401611d0e906132f0565b60405180910390fd5b5f815f015403611d5c576040517f08c379a0000000000000000000000000000000000000000000000000000000008152600401611d5390613763565b60405180910390fd5b3373ffffffffffffffffffffffffffffffffffffffff16816001015f9054906101000a900473ffffffffffffffffffffffffffffffffffffffff1673ffffffffffffffffffffffffffffffffffffffff1614611ded576040517f08c379a0000000000000000000000000000000000000000000000000000000008152600401611de490613b73565b60405180910390fd5b806006015f9054906101000a900460ff16158015611e1a57508060060160039054906101000a900460ff16155b611e59576040517f08c379a0000000000000000000000000000000000000000000000000000000008152600401611e50906137cb565b60405180910390fd5b6001816006015f6101000a81548160ff02191690831515021790555082847faa2a006d186dc89a3d6851834c85d16226329ac40bcad6531a5756a38ed1c90f60405160405180910390a350505050565b5f600283511015611eef576040517f08c379a0000000000000000000000000000000000000000000000000000000008152600401611ee690613bdb565b60405180910390fd5b6002821015611f33576040517f08c379a0000000000000000000000000000000000000000000000000000000008152600401611f2a90613c43565b60405180910390fd5b8251821115611f77576040517f08c379a0000000000000000000000000000000000000000000000000000000008152600401611f6e90613cd1565b60405180910390fd5b5f60075f815480929190611f8a906134db565b9190505590505f60065f8381526020019081526020015f20905081815f01819055508381600201819055505f5f90505b85518110156121eb575f73ffffffffffffffffffffffffffffffffffffffff16868281518110611fed57611fec613cef565b5b602002602001015173ffffffffffffffffffffffffffffffffffffffff160361204b576040517f08c379a000000000000000000000000000000000000000000000000000000000815260040161204290613d66565b60405180910390fd5b816003015f87838151811061206357612062613cef565b5b602002602001015173ffffffffffffffffffffffffffffffffffffffff1673ffffffffffffffffffffffffffffffffffffffff1681526020019081526020015f205f9054906101000a900460ff16156120f1576040517f08c379a00000000000000000000000000000000000000000000000000000000081526004016120e890613dce565b60405180910390fd5b8160010186828151811061210857612107613cef565b5b6020026020010151908060018154018082558091505060019003905f5260205f20015f9091909190916101000a81548173ffffffffffffffffffffffffffffffffffffffff021916908373ffffffffffffffffffffffffffffffffffffffff1602179055506001826003015f88848151811061218757612186613cef565b5b602002602001015173ffffffffffffffffffffffffffffffffffffffff1673ffffffffffffffffffffffffffffffffffffffff1681526020019081526020015f205f6101000a81548160ff0219169083151502179055508080600101915050611fba565b50817f670f3351b51a1fca84220579fc05817194ae1f297d939c63f97dab1297cd519e868660405161221e929190613dec565b60405180910390a2819250505092915050565b5f60065f8481526020019081526020015f2090505f816004015f8481526020019081526020015f2090505f825f0154036122a0576040517f08c379a0000000000000000000000000000000000000000000000000000000008152600401612297906132f0565b60405180910390fd5b5f815f0154036122e5576040517f08c379a00000000000000000000000000000000000000000000000000000000081526004016122dc90613763565b60405180910390fd5b806006015f9054906101000a900460ff1615801561231257508060060160039054906101000a900460ff16155b612351576040517f08c379a0000000000000000000000000000000000000000000000000000000008152600401612348906137cb565b60405180910390fd5b8060050154421115612398576040517f08c379a000000000000000000000000000000000000000000000000000000000815260040161238f90613833565b60405180910390fd5b8160020154816008015410156123e3576040517f08c379a00000000000000000000000000000000000000000000000000000000081526004016123da9061389b565b60405180910390fd5b8060020154826006015f836003015f9054906101000a900473ffffffffffffffffffffffffffffffffffffffff1673ffffffffffffffffffffffffffffffffffffffff1673ffffffffffffffffffffffffffffffffffffffff1681526020019081526020015f2054101561248c576040517f08c379a000000000000000000000000000000000000000000000000000000000815260040161248390613e64565b60405180910390fd5b8060020154826006015f836003015f9054906101000a900473ffffffffffffffffffffffffffffffffffffffff1673ffffffffffffffffffffffffffffffffffffffff1673ffffffffffffffffffffffffffffffffffffffff1681526020019081526020015f205f8282546125019190613e82565b92505081905550806003015f9054906101000a900473ffffffffffffffffffffffffffffffffffffffff1673ffffffffffffffffffffffffffffffffffffffff1663a9059cbb826004015f9054906101000a900473ffffffffffffffffffffffffffffffffffffffff1683600201546040518363ffffffff1660e01b815260040161258d92919061368a565b6020604051808303815f875af11580156125a9573d5f5f3e3d5ffd5b505050506040513d601f19601f820116820180604052508101906125cd919061362c565b5060018160060160036101000a81548160ff02191690831515021790555082847f9947370f1e808dd40de986fca744d8715d4d7aa575359f77a7bdeeb887f590ea60405160405180910390a3837f5cd01431ee96667b785a36df459729ec8ea474b000811969531deacea79c5381826003015f9054906101000a900473ffffffffffffffffffffffffffffffffffffffff168360020154846004015f9054906101000a900473ffffffffffffffffffffffffffffffffffffffff1660405161269793929190613eb5565b60405180910390a250505050565b5f60065f8481526020019081526020015f206006015f8373ffffffffffffffffffffffffffffffffffffffff1673ffffffffffffffffffffffffffffffffffffffff1681526020019081526020015f2054905092915050565b60025481565b6006602052805f5260405f205f91509050805f0154908060020154908060050154905083565b60035f9054906101000a900473ffffffffffffffffffffffffffffffffffffffff1681565b8060015f3373ffffffffffffffffffffffffffffffffffffffff1673ffffffffffffffffffffffffffffffffffffffff1681526020019081526020015f205410156127cf576040517f08c379a00000000000000000000000000000000000000000000000000000000081526004016127c690613f34565b60405180910390fd5b8060015f3373ffffffffffffffffffffffffffffffffffffffff1673ffffffffffffffffffffffffffffffffffffffff1681526020019081526020015f205f82825461281b9190613e82565b925050819055508060025f8282546128339190613e82565b9250508190555060035f9054906101000a900473ffffffffffffffffffffffffffffffffffffffff1673ffffffffffffffffffffffffffffffffffffffff1663a9059cbb33836040518363ffffffff1660e01b815260040161289692919061368a565b6020604051808303815f875af11580156128b2573d5f5f3e3d5ffd5b505050506040513d601f19601f820116820180604052508101906128d6919061362c565b612915576040517f08c379a000000000000000000000000000000000000000000000000000000000815260040161290c90613f9c565b60405180910390fd5b50565b61292181612924565b50565b5f8111612966576040517f08c379a000000000000000000000000000000000000000000000000000000000815260040161295d9061402a565b60405180910390fd5b60035f9054906101000a900473ffffffffffffffffffffffffffffffffffffffff1673ffffffffffffffffffffffffffffffffffffffff166323b872dd3330846040518463ffffffff1660e01b81526004016129c4939291906135cd565b6020604051808303815f875af11580156129e0573d5f5f3e3d5ffd5b505050506040513d601f19601f82011682018060405250810190612a04919061362c565b612a43576040517f08c379a0000000000000000000000000000000000000000000000000000000008152600401612a3a90613f9c565b60405180910390fd5b8060015f3373ffffffffffffffffffffffffffffffffffffffff1673ffffffffffffffffffffffffffffffffffffffff1681526020019081526020015f205f828254612a8f9190613657565b925050819055508060025f828254612aa79190613657565b9250508190555050565b5f604051905090565b5f5ffd5b5f5ffd5b5f819050919050565b612ad481612ac2565b8114612ade575f5ffd5b50565b5f81359050612aef81612acb565b92915050565b5f73ffffffffffffffffffffffffffffffffffffffff82169050919050565b5f612b1e82612af5565b9050919050565b612b2e81612b14565b8114612b38575f5ffd5b50565b5f81359050612b4981612b25565b92915050565b5f5f5f5f5f60a08688031215612b6857612b67612aba565b5b5f612b7588828901612ae1565b9550506020612b8688828901612b3b565b9450506040612b9788828901612ae1565b9350506060612ba888828901612b3b565b9250506080612bb988828901612ae1565b9150509295509295909350565b5f5f5f60608486031215612bdd57612bdc612aba565b5b5f612bea86828701612ae1565b9350506020612bfb86828701612ae1565b9250506040612c0c86828701612b3b565b9150509250925092565b5f8115159050919050565b612c2a81612c16565b82525050565b5f602082019050612c435f830184612c21565b92915050565b5f5f5f60608486031215612c6057612c5f612aba565b5b5f612c6d86828701612ae1565b9350506020612c7e86828701612b3b565b9250506040612c8f86828701612ae1565b9150509250925092565b5f60208284031215612cae57612cad612aba565b5b5f612cbb84828501612b3b565b91505092915050565b612ccd81612b14565b82525050565b5f602082019050612ce65f830184612cc4565b92915050565b5f5f60408385031215612d0257612d01612aba565b5b5f612d0f85828601612ae1565b9250506020612d2085828601612ae1565b9150509250929050565b612d3381612ac2565b82525050565b5f602082019050612d4c5f830184612d2a565b92915050565b5f5f5f60608486031215612d6957612d68612aba565b5b5f612d7686828701612b3b565b9350506020612d8786828701612ae1565b9250506040612d9886828701612b3b565b9150509250925092565b5f60208284031215612db757612db6612aba565b5b5f612dc484828501612ae1565b91505092915050565b5f5f5f60608486031215612de457612de3612aba565b5b5f612df186828701612ae1565b9350506020612e0286828701612ae1565b9250506040612e1386828701612ae1565b9150509250925092565b5f5f60408385031215612e3357612e32612aba565b5b5f612e4085828601612b3b565b9250506020612e5185828601612b3b565b9150509250929050565b5f5f60408385031215612e7157612e70612aba565b5b5f612e7e85828601612ae1565b9250506020612e8f85828601612b3b565b9150509250929050565b5f61016082019050612ead5f83018e612d2a565b612eba602083018d612cc4565b612ec7604083018c612d2a565b612ed4606083018b612cc4565b612ee1608083018a612cc4565b612eee60a0830189612d2a565b612efb60c0830188612c21565b612f0860e0830187612c21565b612f16610100830186612c21565b612f24610120830185612c21565b612f32610140830184612d2a565b9c9b505050505050505050505050565b5f81519050919050565b5f82825260208201905092915050565b5f819050602082019050919050565b612f7481612b14565b82525050565b5f612f858383612f6b565b60208301905092915050565b5f602082019050919050565b5f612fa782612f42565b612fb18185612f4c565b9350612fbc83612f5c565b805f5b83811015612fec578151612fd38882612f7a565b9750612fde83612f91565b925050600181019050612fbf565b5085935050505092915050565b5f60808201905061300c5f830187612d2a565b818103602083015261301e8186612f9d565b905061302d6040830185612d2a565b61303a6060830184612d2a565b95945050505050565b5f5ffd5b5f601f19601f8301169050919050565b7f4e487b71000000000000000000000000000000000000000000000000000000005f52604160045260245ffd5b61308d82613047565b810181811067ffffffffffffffff821117156130ac576130ab613057565b5b80604052505050565b5f6130be612ab1565b90506130ca8282613084565b919050565b5f67ffffffffffffffff8211156130e9576130e8613057565b5b602082029050602081019050919050565b5f5ffd5b5f61311061310b846130cf565b6130b5565b90508083825260208201905060208402830185811115613133576131326130fa565b5b835b8181101561315c57806131488882612b3b565b845260208401935050602081019050613135565b5050509392505050565b5f82601f83011261317a57613179613043565b5b813561318a8482602086016130fe565b91505092915050565b5f5f604083850312156131a9576131a8612aba565b5b5f83013567ffffffffffffffff8111156131c6576131c5612abe565b5b6131d285828601613166565b92505060206131e385828601612ae1565b9150509250929050565b5f6060820190506132005f830186612d2a565b61320d6020830185612d2a565b61321a6040830184612d2a565b949350505050565b5f819050919050565b5f61324561324061323b84612af5565b613222565b612af5565b9050919050565b5f6132568261322b565b9050919050565b5f6132678261324c565b9050919050565b6132778161325d565b82525050565b5f6020820190506132905f83018461326e565b92915050565b5f82825260208201905092915050565b7f4163636f756e7420646f6573206e6f74206578697374000000000000000000005f82015250565b5f6132da601683613296565b91506132e5826132a6565b602082019050919050565b5f6020820190508181035f830152613307816132ce565b9050919050565b7f4f6e6c79206f776e65722063616e20637265617465206f7264657273000000005f82015250565b5f613342601c83613296565b915061334d8261330e565b602082019050919050565b5f6020820190508181035f83015261336f81613336565b9050919050565b7f496e73756666696369656e7420746f6b656e2062616c616e63650000000000005f82015250565b5f6133aa601a83613296565b91506133b582613376565b602082019050919050565b5f6020820190508181035f8301526133d78161339e565b9050919050565b7f496e76616c696420726563697069656e742061646472657373000000000000005f82015250565b5f613412601983613296565b915061341d826133de565b602082019050919050565b5f6020820190508181035f83015261343f81613406565b9050919050565b7f446561646c696e65206d75737420626520696e207468652066757475726500005f82015250565b5f61347a601e83613296565b915061348582613446565b602082019050919050565b5f6020820190508181035f8301526134a78161346e565b9050919050565b7f4e487b71000000000000000000000000000000000000000000000000000000005f52601160045260245ffd5b5f6134e582612ac2565b91507fffffffffffffffffffffffffffffffffffffffffffffffffffffffffffffffff8203613517576135166134ae565b5b600182019050919050565b5f6080820190506135355f830187612cc4565b6135426020830186612d2a565b61354f6040830185612cc4565b61355c6060830184612cc4565b95945050505050565b7f416d6f756e74206d7573742062652067726561746572207468616e20300000005f82015250565b5f613599601d83613296565b91506135a482613565565b602082019050919050565b5f6020820190508181035f8301526135c68161358d565b9050919050565b5f6060820190506135e05f830186612cc4565b6135ed6020830185612cc4565b6135fa6040830184612d2a565b949350505050565b61360b81612c16565b8114613615575f5ffd5b50565b5f8151905061362681613602565b92915050565b5f6020828403121561364157613640612aba565b5b5f61364e84828501613618565b91505092915050565b5f61366182612ac2565b915061366c83612ac2565b9250828201905080821115613684576136836134ae565b5b92915050565b5f60408201905061369d5f830185612cc4565b6136aa6020830184612d2a565b9392505050565b7f4f6e6c79206f776e65722063616e20736574206e6577206f776e6572000000005f82015250565b5f6136e5601c83613296565b91506136f0826136b1565b602082019050919050565b5f6020820190508181035f830152613712816136d9565b9050919050565b7f4f7264657220646f6573206e6f742065786973740000000000000000000000005f82015250565b5f61374d601483613296565b915061375882613719565b602082019050919050565b5f6020820190508181035f83015261377a81613741565b9050919050565b7f4f72646572206973206e6f7420616374697665000000000000000000000000005f82015250565b5f6137b5601383613296565b91506137c082613781565b602082019050919050565b5f6020820190508181035f8301526137e2816137a9565b9050919050565b7f4f726465722065787069726564000000000000000000000000000000000000005f82015250565b5f61381d600d83613296565b9150613828826137e9565b602082019050919050565b5f6020820190508181035f83015261384a81613811565b9050919050565b7f496e73756666696369656e7420617070726f76616c73000000000000000000005f82015250565b5f613885601683613296565b915061389082613851565b602082019050919050565b5f6020820190508181035f8301526138b281613879565b9050919050565b7f4e6f7420612062616e6b207769746864726177206f72646572000000000000005f82015250565b5f6138ed601983613296565b91506138f8826138b9565b602082019050919050565b5f6020820190508181035f83015261391a816138e1565b9050919050565b7f4f6e6c7920746f6b656e20636f6e74726163742063616e2063616c6c000000005f82015250565b5f613955601c83613296565b915061396082613921565b602082019050919050565b5f6020820190508181035f83015261398281613949565b9050919050565b7f4f6e6c79206f776e65722063616e20617070726f7665000000000000000000005f82015250565b5f6139bd601683613296565b91506139c882613989565b602082019050919050565b5f6020820190508181035f8301526139ea816139b1565b9050919050565b7f416c726561647920617070726f766564000000000000000000000000000000005f82015250565b5f613a25601083613296565b9150613a30826139f1565b602082019050919050565b5f6020820190508181035f830152613a5281613a19565b9050919050565b7f4f6e6c79206f776e65722063616e2072656a65637400000000000000000000005f82015250565b5f613a8d601583613296565b9150613a9882613a59565b602082019050919050565b5f6020820190508181035f830152613aba81613a81565b9050919050565b7f4f6e6c79206f776e65722063616e207365742062616e6b206f776e65720000005f82015250565b5f613af5601d83613296565b9150613b0082613ac1565b602082019050919050565b5f6020820190508181035f830152613b2281613ae9565b9050919050565b7f4f6e6c79206f72646572206f776e65722063616e2063616e63656c00000000005f82015250565b5f613b5d601b83613296565b9150613b6882613b29565b602082019050919050565b5f6020820190508181035f830152613b8a81613b51565b9050919050565b7f4174206c656173742032206f776e6572732072657175697265640000000000005f82015250565b5f613bc5601a83613296565b9150613bd082613b91565b602082019050919050565b5f6020820190508181035f830152613bf281613bb9565b9050919050565b7f4174206c656173742032207369676e61747572657320726571756972656400005f82015250565b5f613c2d601e83613296565b9150613c3882613bf9565b602082019050919050565b5f6020820190508181035f830152613c5a81613c21565b9050919050565b7f5265717569726564207369676e6174757265732063616e6e6f742065786365655f8201527f64206f776e65727320636f756e74000000000000000000000000000000000000602082015250565b5f613cbb602e83613296565b9150613cc682613c61565b604082019050919050565b5f6020820190508181035f830152613ce881613caf565b9050919050565b7f4e487b71000000000000000000000000000000000000000000000000000000005f52603260045260245ffd5b7f496e76616c6964206f776e6572206164647265737300000000000000000000005f82015250565b5f613d50601583613296565b9150613d5b82613d1c565b602082019050919050565b5f6020820190508181035f830152613d7d81613d44565b9050919050565b7f4475706c6963617465206f776e657200000000000000000000000000000000005f82015250565b5f613db8600f83613296565b9150613dc382613d84565b602082019050919050565b5f6020820190508181035f830152613de581613dac565b9050919050565b5f6040820190508181035f830152613e048185612f9d565b9050613e136020830184612d2a565b9392505050565b7f496e73756666696369656e742062616c616e63650000000000000000000000005f82015250565b5f613e4e601483613296565b9150613e5982613e1a565b602082019050919050565b5f6020820190508181035f830152613e7b81613e42565b9050919050565b5f613e8c82612ac2565b9150613e9783612ac2565b9250828203905081811115613eaf57613eae6134ae565b5b92915050565b5f606082019050613ec85f830186612cc4565b613ed56020830185612d2a565b613ee26040830184612cc4565b949350505050565b7f496e73756666696369656e742062616c616e636520746f2077697468647261775f82015250565b5f613f1e602083613296565b9150613f2982613eea565b602082019050919050565b5f6020820190508181035f830152613f4b81613f12565b9050919050565b7f5472616e73666572206661696c656400000000000000000000000000000000005f82015250565b5f613f86600f83613296565b9150613f9182613f52565b602082019050919050565b5f6020820190508181035f830152613fb381613f7a565b9050919050565b7f4465706f73697420616d6f756e74206d757374206265206772656174657220745f8201527f68616e2030000000000000000000000000000000000000000000000000000000602082015250565b5f614014602583613296565b915061401f82613fba565b604082019050919050565b5f6020820190508181035f83015261404181614008565b905091905056fea264697066735822122036b6ed00b0b5fe3aea1f7e59713eb22f0fdd745283b90ba27cde41008adee76b64736f6c634300081e0033","linkReferences":{}},"methodIdentifiers":{"approveOrder(uint256,uint256)":"4198bb7b","balances(address)":"27e235e3","cancelOrder(uint256,uint256)":"b6ed0632","createBankWithdrawOrder(uint256,uint256,uint256)":"4194ad98","createSafeBankAccount(address[],uint256)":"bad4fbbc","createWithdrawOrder(uint256,address,uint256,address,uint256)":"0386505b","deposit(uint256)":"b6b55f25","depositToSafeBank(uint256,address,uint256)":"0f0c6093","executeBankWithdrawOrder(uint256,uint256)":"1e4e0a0b","executeOrder(uint256,uint256)":"ef46e0ca","getOrder(uint256,uint256)":"5e1a3573","getSafeBankAccount(uint256)":"925bea67","getTokenBalance(uint256,address)":"ef57e2d2","hasApproved(uint256,uint256,address)":"08dae23c","isOwner(uint256,address)":"5a5d096c","nextAccountId()":"39072462","owner()":"8da5cb5b","rejectOrder(uint256,uint256)":"5d717a8c","safeBankAccounts(uint256)":"f9f72925","setBankOwnerToSafeBank(uint256)":"60c53871","setOwner(address)":"13af4035","token()":"fc0c546a","tokenBankOwner()":"14018978","tokensReceived(address,uint256,address)":"2b86ed2f","totalDeposit()":"f6153ccd","userTokenBalances(address,address)":"45f2d105","withdraw(uint256)":"2e1a7d4d"},"id":66}