{"abi":[{"type":"constructor","inputs":[{"name":"_token","type":"address","internalType":"contract ERC20V2"}],"stateMutability":"nonpayable"},{"type":"function","name":"approveOrder","inputs":[{"name":"accountId","type":"uint256","internalType":"uint256"},{"name":"orderId","type":"uint256","internalType":"uint256"}],"outputs":[],"stateMutability":"nonpayable"},{"type":"function","name":"balances","inputs":[{"name":"","type":"address","internalType":"address"}],"outputs":[{"name":"","type":"uint256","internalType":"uint256"}],"stateMutability":"view"},{"type":"function","name":"cancelOrder","inputs":[{"name":"accountId","type":"uint256","internalType":"uint256"},{"name":"orderId","type":"uint256","internalType":"uint256"}],"outputs":[],"stateMutability":"nonpayable"},{"type":"function","name":"createBankWithdrawOrder","inputs":[{"name":"accountId","type":"uint256","internalType":"uint256"},{"name":"amount","type":"uint256","internalType":"uint256"},{"name":"deadline","type":"uint256","internalType":"uint256"}],"outputs":[],"stateMutability":"nonpayable"},{"type":"function","name":"createSafeBankAccount","inputs":[{"name":"owners","type":"address[]","internalType":"address[]"},{"name":"requiredSignatures","type":"uint256","internalType":"uint256"}],"outputs":[{"name":"","type":"uint256","internalType":"uint256"}],"stateMutability":"nonpayable"},{"type":"function","name":"createWithdrawOrder","inputs":[{"name":"accountId","type":"uint256","internalType":"uint256"},{"name":"token","type":"address","internalType":"address"},{"name":"amount","type":"uint256","internalType":"uint256"},{"name":"to","type":"address","internalType":"address"},{"name":"deadline","type":"uint256","internalType":"uint256"}],"outputs":[],"stateMutability":"nonpayable"},{"type":"function","name":"deposit","inputs":[{"name":"amount","type":"uint256","internalType":"uint256"}],"outputs":[],"stateMutability":"nonpayable"},{"type":"function","name":"depositToSafeBank","inputs":[{"name":"accountId","type":"uint256","internalType":"uint256"},{"name":"token","type":"address","internalType":"address"},{"name":"amount","type":"uint256","internalType":"uint256"}],"outputs":[],"stateMutability":"nonpayable"},{"type":"function","name":"executeBankWithdrawOrder","inputs":[{"name":"accountId","type":"uint256","internalType":"uint256"},{"name":"orderId","type":"uint256","internalType":"uint256"}],"outputs":[],"stateMutability":"nonpayable"},{"type":"function","name":"executeOrder","inputs":[{"name":"accountId","type":"uint256","internalType":"uint256"},{"name":"orderId","type":"uint256","internalType":"uint256"}],"outputs":[],"stateMutability":"nonpayable"},{"type":"function","name":"getOrder","inputs":[{"name":"accountId","type":"uint256","internalType":"uint256"},{"name":"orderId","type":"uint256","internalType":"uint256"}],"outputs":[{"name":"id","type":"uint256","internalType":"uint256"},{"name":"owner","type":"address","internalType":"address"},{"name":"amount","type":"uint256","internalType":"uint256"},{"name":"token","type":"address","internalType":"address"},{"name":"to","type":"address","internalType":"address"},{"name":"deadline","type":"uint256","internalType":"uint256"},{"name":"isCancelled","type":"bool","internalType":"bool"},{"name":"isApproved","type":"bool","internalType":"bool"},{"name":"isRejected","type":"bool","internalType":"bool"},{"name":"isExecuted","type":"bool","internalType":"bool"},{"name":"approvalCount","type":"uint256","internalType":"uint256"}],"stateMutability":"view"},{"type":"function","name":"getSafeBankAccount","inputs":[{"name":"accountId","type":"uint256","internalType":"uint256"}],"outputs":[{"name":"id","type":"uint256","internalType":"uint256"},{"name":"owners","type":"address[]","internalType":"address[]"},{"name":"requiredSignatures","type":"uint256","internalType":"uint256"},{"name":"orderCount","type":"uint256","internalType":"uint256"}],"stateMutability":"view"},{"type":"function","name":"getTokenBalance","inputs":[{"name":"accountId","type":"uint256","internalType":"uint256"},{"name":"token","type":"address","internalType":"address"}],"outputs":[{"name":"","type":"uint256","internalType":"uint256"}],"stateMutability":"view"},{"type":"function","name":"hasApproved","inputs":[{"name":"accountId","type":"uint256","internalType":"uint256"},{"name":"orderId","type":"uint256","internalType":"uint256"},{"name":"owner","type":"address","internalType":"address"}],"outputs":[{"name":"","type":"bool","internalType":"bool"}],"stateMutability":"view"},{"type":"function","name":"isOwner","inputs":[{"name":"accountId","type":"uint256","internalType":"uint256"},{"name":"owner","type":"address","internalType":"address"}],"outputs":[{"name":"","type":"bool","internalType":"bool"}],"stateMutability":"view"},{"type":"function","name":"nextAccountId","inputs":[],"outputs":[{"name":"","type":"uint256","internalType":"uint256"}],"stateMutability":"view"},{"type":"function","name":"owner","inputs":[],"outputs":[{"name":"","type":"address","internalType":"address"}],"stateMutability":"view"},{"type":"function","name":"rejectOrder","inputs":[{"name":"accountId","type":"uint256","internalType":"uint256"},{"name":"orderId","type":"uint256","internalType":"uint256"}],"outputs":[],"stateMutability":"nonpayable"},{"type":"function","name":"safeBankAccounts","inputs":[{"name":"","type":"uint256","internalType":"uint256"}],"outputs":[{"name":"id","type":"uint256","internalType":"uint256"},{"name":"requiredSignatures","type":"uint256","internalType":"uint256"},{"name":"orderCount","type":"uint256","internalType":"uint256"}],"stateMutability":"view"},{"type":"function","name":"setBankOwnerToSafeBank","inputs":[{"name":"accountId","type":"uint256","internalType":"uint256"}],"outputs":[],"stateMutability":"nonpayable"},{"type":"function","name":"setOwner","inputs":[{"name":"newOwner","type":"address","internalType":"address"}],"outputs":[],"stateMutability":"nonpayable"},{"type":"function","name":"token","inputs":[],"outputs":[{"name":"","type":"address","internalType":"contract IERC20"}],"stateMutability":"view"},{"type":"function","name":"tokenBankOwner","inputs":[],"outputs":[{"name":"","type":"address","internalType":"address"}],"stateMutability":"view"},{"type":"function","name":"tokensReceived","inputs":[{"name":"from","type":"address","internalType":"address"},{"name":"amount","type":"uint256","internalType":"uint256"},{"name":"token","type":"address","internalType":"address"}],"outputs":[],"stateMutability":"nonpayable"},{"type":"function","name":"totalDeposit","inputs":[],"outputs":[{"name":"","type":"uint256","internalType":"uint256"}],"stateMutability":"view"},{"type":"function","name":"userTokenBalances","inputs":[{"name":"","type":"address","internalType":"address"},{"name":"","type":"address","internalType":"address"}],"outputs":[{"name":"","type":"uint256","internalType":"uint256"}],"stateMutability":"view"},{"type":"function","name":"withdraw","inputs":[{"name":"amount","type":"uint256","internalType":"uint256"}],"outputs":[],"stateMutability":"nonpayable"},{"type":"event","name":"OrderApproved","inputs":[{"name":"accountId","type":"uint256","indexed":true,"internalType":"uint256"},{"name":"orderId","type":"uint256","indexed":true,"internalType":"uint256"},{"name":"approver","type":"address","indexed":false,"internalType":"address"}],"anonymous":false},{"type":"event","name":"OrderCancelled","inputs":[{"name":"accountId","type":"uint256","indexed":true,"internalType":"uint256"},{"name":"orderId","type":"uint256","indexed":true,"internalType":"uint256"}],"anonymous":false},{"type":"event","name":"OrderCreated","inputs":[{"name":"accountId","type":"uint256","indexed":true,"internalType":"uint256"},{"name":"orderId","type":"uint256","indexed":true,"internalType":"uint256"},{"name":"owner","type":"address","indexed":false,"internalType":"address"},{"name":"amount","type":"uint256","indexed":false,"internalType":"uint256"},{"name":"token","type":"address","indexed":false,"internalType":"address"},{"name":"to","type":"address","indexed":false,"internalType":"address"}],"anonymous":false},{"type":"event","name":"OrderExecuted","inputs":[{"name":"accountId","type":"uint256","indexed":true,"internalType":"uint256"},{"name":"orderId","type":"uint256","indexed":true,"internalType":"uint256"}],"anonymous":false},{"type":"event","name":"OrderRejected","inputs":[{"name":"accountId","type":"uint256","indexed":true,"internalType":"uint256"},{"name":"orderId","type":"uint256","indexed":true,"internalType":"uint256"},{"name":"rejector","type":"address","indexed":false,"internalType":"address"}],"anonymous":false},{"type":"event","name":"SafeBankAccountCreated","inputs":[{"name":"accountId","type":"uint256","indexed":true,"internalType":"uint256"},{"name":"owners","type":"address[]","indexed":false,"internalType":"address[]"},{"name":"requiredSignatures","type":"uint256","indexed":false,"internalType":"uint256"}],"anonymous":false},{"type":"event","name":"TokenDeposited","inputs":[{"name":"accountId","type":"uint256","indexed":true,"internalType":"uint256"},{"name":"token","type":"address","indexed":false,"internalType":"address"},{"name":"amount","type":"uint256","indexed":false,"internalType":"uint256"}],"anonymous":false},{"type":"event","name":"TokenWithdrawn","inputs":[{"name":"accountId","type":"uint256","indexed":true,"internalType":"uint256"},{"name":"token","type":"address","indexed":false,"internalType":"address"},{"name":"amount","type":"uint256","indexed":false,"internalType":"uint256"},{"name":"to","type":"address","indexed":false,"internalType":"address"}],"anonymous":false}],"bytecode":{"object":"0x60806040523461002f57610019610014610100565b610184565b610021610034565b6139eb61028a82396139eb90f35b61003a565b60405190565b5f80fd5b601f801991011690565b634e487b7160e01b5f52604160045260245ffd5b906100669061003e565b810190811060018060401b0382111761007e57604052565b610048565b9061009661008f610034565b928361005c565b565b5f80fd5b60018060a01b031690565b6100b09061009c565b90565b6100bc906100a7565b90565b6100c8816100b3565b036100cf57565b5f80fd5b905051906100e0826100bf565b565b906020828203126100fb576100f8915f016100d3565b90565b610098565b61011e613c758038038061011381610083565b9283398101906100e2565b90565b5f1b90565b906101325f1991610121565b9181191691161790565b90565b90565b90565b61015961015461015e9261013c565b610142565b61013f565b90565b90565b9061017961017461018092610145565b610161565b8254610126565b9055565b61018d90610225565b61019960016007610164565b565b6101af6101aa6101b49261009c565b610142565b61009c565b90565b6101c09061019b565b90565b6101cc906101b7565b90565b906101e060018060a01b0391610121565b9181191691161790565b6101f39061019b565b90565b6101ff906101ea565b90565b90565b9061021a610215610221926101f6565b610202565b82546101cf565b9055565b610231610236916101c3565b610272565b610241336005610205565b565b61024c906101b7565b90565b90565b9061026761026261026e92610243565b61024f565b82546101cf565b9055565b61028790610280335f610205565b6003610252565b56fe60806040526004361015610013575b610f74565b61001d5f356101cc565b80630386505b146101c757806308dae23c146101c25780630f0c6093146101bd57806313af4035146101b857806314018978146101b35780631e4e0a0b146101ae57806327e235e3146101a95780632b86ed2f146101a45780632e1a7d4d1461019f578063390724621461019a5780634194ad98146101955780634198bb7b1461019057806345f2d1051461018b5780635a5d096c146101865780635d717a8c146101815780635e1a35731461017c57806360c53871146101775780638da5cb5b14610172578063925bea671461016d578063b6b55f2514610168578063b6ed063214610163578063bad4fbbc1461015e578063ef46e0ca14610159578063ef57e2d214610154578063f6153ccd1461014f578063f9f729251461014a5763fc0c546a0361000e57610f3f565b610e99565b610da8565b610d63565b610d2f565b610cf9565b610b85565b610b52565b610b19565b610a1b565b6109da565b610997565b6108bf565b610889565b610826565b61078e565b61075a565b6106eb565b6106a9565b610657565b6105e8565b610503565b6104a1565b6103f9565b6103a7565b610337565b61029f565b60e01c90565b60405190565b5f80fd5b5f80fd5b5f80fd5b90565b6101f0816101e4565b036101f757565b5f80fd5b90503590610208826101e7565b565b60018060a01b031690565b61021e9061020a565b90565b61022a81610215565b0361023157565b5f80fd5b9050359061024282610221565b565b919060a0838203126102955761025c815f85016101fb565b9261026a8260208301610235565b9261029261027b84604085016101fb565b936102898160608601610235565b936080016101fb565b90565b6101dc565b5f0190565b346102d1576102bb6102b2366004610244565b93929092611395565b6102c36101d2565b806102cd8161029a565b0390f35b6101d8565b909160608284031261030b576103086102f1845f85016101fb565b936102ff81602086016101fb565b93604001610235565b90565b6101dc565b151590565b61031e90610310565b9052565b9190610335905f60208501940190610315565b565b346103685761036461035361034d3660046102d6565b9161153f565b61035b6101d2565b91829182610322565b0390f35b6101d8565b90916060828403126103a25761039f610388845f85016101fb565b936103968160208601610235565b936040016101fb565b90565b6101dc565b346103d6576103c06103ba36600461036d565b916116ed565b6103c86101d2565b806103d28161029a565b0390f35b6101d8565b906020828203126103f4576103f1915f01610235565b90565b6101dc565b346104275761041161040c3660046103db565b6118e7565b6104196101d2565b806104238161029a565b0390f35b6101d8565b5f91031261043657565b6101dc565b1c90565b60018060a01b031690565b61045a90600861045f930261043b565b61043f565b90565b9061046d915461044a565b90565b61047c60055f90610462565b90565b61048890610215565b9052565b919061049f905f6020850194019061047f565b565b346104d1576104b136600461042c565b6104cd6104bc610470565b6104c46101d2565b9182918261048c565b0390f35b6101d8565b91906040838203126104fe57806104f26104fb925f86016101fb565b936020016101fb565b90565b6101dc565b346105325761051c6105163660046104d6565b90611c67565b6105246101d2565b8061052e8161029a565b0390f35b6101d8565b90565b61054e6105496105539261020a565b610537565b61020a565b90565b61055f9061053a565b90565b61056b90610556565b90565b9061057890610562565b5f5260205260405f2090565b90565b61059790600861059c930261043b565b610584565b90565b906105aa9154610587565b90565b6105c3906105be6001915f9261056e565b61059f565b90565b6105cf906101e4565b9052565b91906105e6905f602085019401906105c6565b565b34610618576106146106036105fe3660046103db565b6105ad565b61060b6101d2565b918291826105d3565b0390f35b6101d8565b90916060828403126106525761064f610638845f8501610235565b9361064681602086016101fb565b93604001610235565b90565b6101dc565b346106865761067061066a36600461061d565b91611f4f565b6106786101d2565b806106828161029a565b0390f35b6101d8565b906020828203126106a4576106a1915f016101fb565b90565b6101dc565b346106d7576106c16106bc36600461068b565b611f9e565b6106c96101d2565b806106d38161029a565b0390f35b6101d8565b6106e860075f9061059f565b90565b3461071b576106fb36600461042c565b6107176107066106dc565b61070e6101d2565b918291826105d3565b0390f35b6101d8565b90916060828403126107555761075261073b845f85016101fb565b9361074981602086016101fb565b936040016101fb565b90565b6101dc565b346107895761077361076d366004610720565b91611fa9565b61077b6101d2565b806107858161029a565b0390f35b6101d8565b346107bd576107a76107a13660046104d6565b90612262565b6107af6101d2565b806107b98161029a565b0390f35b6101d8565b91906040838203126107ea57806107de6107e7925f8601610235565b93602001610235565b90565b6101dc565b906107f990610562565b5f5260205260405f2090565b61081e610823926108196004935f946107ef565b61056e565b61059f565b90565b346108575761085361084261083c3660046107c2565b90610805565b61084a6101d2565b918291826105d3565b0390f35b6101d8565b91906040838203126108845780610878610881925f86016101fb565b93602001610235565b90565b6101dc565b346108ba576108b66108a561089f36600461085c565b90612453565b6108ad6101d2565b91829182610322565b0390f35b6101d8565b346108ee576108d86108d23660046104d6565b9061253e565b6108e06101d2565b806108ea8161029a565b0390f35b6101d8565b98969492909b9a99979593916101608a019c5f8b01610911916105c6565b60208a0161091e9161047f565b6040890161092b916105c6565b606088016109389161047f565b608087016109459161047f565b60a08601610952916105c6565b60c0850161095f91610315565b60e0840161096c91610315565b610100830161097a91610315565b610120820161098891610315565b61014001610995916105c6565b565b346109d5576109d16109b36109ad3660046104d6565b906126cc565b976109c89b999b9791979692969593956101d2565b9b8c9b8c6108f3565b0390f35b6101d8565b34610a08576109f26109ed36600461068b565b612873565b6109fa6101d2565b80610a048161029a565b0390f35b6101d8565b610a185f5f90610462565b90565b34610a4b57610a2b36600461042c565b610a47610a36610a0d565b610a3e6101d2565b9182918261048c565b0390f35b6101d8565b5190565b60209181520190565b60200190565b610a6c90610215565b9052565b90610a7d81602093610a63565b0190565b60200190565b90610aa4610a9e610a9784610a50565b8093610a54565b92610a5d565b905f5b818110610ab45750505090565b909192610acd610ac76001928651610a70565b94610a81565b9101919091610aa7565b610b10610b05606093610b1796989795610af860808601925f8701906105c6565b8482036020860152610a87565b9660408301906105c6565b01906105c6565b565b34610b4d57610b49610b34610b2f36600461068b565b61299d565b90610b409492946101d2565b94859485610ad7565b0390f35b6101d8565b34610b8057610b6a610b6536600461068b565b612a0b565b610b726101d2565b80610b7c8161029a565b0390f35b6101d8565b34610bb457610b9e610b983660046104d6565b90612a98565b610ba66101d2565b80610bb08161029a565b0390f35b6101d8565b5f80fd5b601f801991011690565b634e487b7160e01b5f52604160045260245ffd5b90610be590610bbd565b810190811067ffffffffffffffff821117610bff57604052565b610bc7565b90610c17610c106101d2565b9283610bdb565b565b67ffffffffffffffff8111610c315760208091020190565b610bc7565b5f80fd5b90929192610c4f610c4a82610c19565b610c04565b9381855260208086019202830192818411610c8c57915b838310610c735750505050565b60208091610c818486610235565b815201920191610c66565b610c36565b9080601f83011215610caf57816020610cac93359101610c3a565b90565b610bb9565b9190604083820312610cf4575f8301359067ffffffffffffffff8211610cef57610ce381610cec938601610c91565b936020016101fb565b90565b6101e0565b6101dc565b34610d2a57610d26610d15610d0f366004610cb4565b90612fd7565b610d1d6101d2565b918291826105d3565b0390f35b6101d8565b34610d5e57610d48610d423660046104d6565b906132b7565b610d506101d2565b80610d5a8161029a565b0390f35b6101d8565b34610d9457610d90610d7f610d7936600461085c565b906135c0565b610d876101d2565b918291826105d3565b0390f35b6101d8565b610da560025f9061059f565b90565b34610dd857610db836600461042c565b610dd4610dc3610d99565b610dcb6101d2565b918291826105d3565b0390f35b6101d8565b610df1610dec610df6926101e4565b610537565b6101e4565b90565b90610e0390610ddd565b5f5260205260405f2090565b5f1c90565b610e20610e2591610e0f565b610584565b90565b610e329054610e14565b90565b610e40906006610df9565b610e4b5f8201610e28565b91610e646005610e5d60028501610e28565b9301610e28565b90565b604090610e90610e979496959396610e8660608401985f8501906105c6565b60208301906105c6565b01906105c6565b565b34610ecc57610ec8610eb4610eaf36600461068b565b610e35565b610ebf9391936101d2565b93849384610e67565b0390f35b6101d8565b60018060a01b031690565b610eec906008610ef1930261043b565b610ed1565b90565b90610eff9154610edc565b90565b610f0e60035f90610ef4565b90565b610f1a90610556565b90565b610f2690610f11565b9052565b9190610f3d905f60208501940190610f1d565b565b34610f6f57610f4f36600461042c565b610f6b610f5a610f02565b610f626101d2565b91829182610f2a565b0390f35b6101d8565b5f80fd5b90565b90565b610f92610f8d610f9792610f7b565b610537565b6101e4565b90565b60209181520190565b5f7f4163636f756e7420646f6573206e6f7420657869737400000000000000000000910152565b610fd76016602092610f9a565b610fe081610fa3565b0190565b610ff99060208101905f818303910152610fca565b90565b1561100357565b61100b6101d2565b62461bcd60e51b81528061102160048201610fe4565b0390fd5b9061102f90610562565b5f5260205260405f2090565b60ff1690565b61104d61105291610e0f565b61103b565b90565b61105f9054611041565b90565b5f7f4f6e6c79206f776e65722063616e20637265617465206f726465727300000000910152565b611096601c602092610f9a565b61109f81611062565b0190565b6110b89060208101905f818303910152611089565b90565b156110c257565b6110ca6101d2565b62461bcd60e51b8152806110e0600482016110a3565b0390fd5b5f7f496e73756666696369656e7420746f6b656e2062616c616e6365000000000000910152565b611118601a602092610f9a565b611121816110e4565b0190565b61113a9060208101905f81830391015261110b565b90565b1561114457565b61114c6101d2565b62461bcd60e51b81528061116260048201611125565b0390fd5b61117a61117561117f92610f7b565b610537565b61020a565b90565b61118b90611166565b90565b5f7f496e76616c696420726563697069656e74206164647265737300000000000000910152565b6111c26019602092610f9a565b6111cb8161118e565b0190565b6111e49060208101905f8183039101526111b5565b90565b156111ee57565b6111f66101d2565b62461bcd60e51b81528061120c600482016111cf565b0390fd5b5f7f446561646c696e65206d75737420626520696e20746865206675747572650000910152565b611244601e602092610f9a565b61124d81611210565b0190565b6112669060208101905f818303910152611237565b90565b1561127057565b6112786101d2565b62461bcd60e51b81528061128e60048201611251565b0390fd5b634e487b7160e01b5f52601160045260245ffd5b6112af906101e4565b5f1981146112bd5760010190565b611292565b5f1b90565b906112d35f19916112c2565b9181191691161790565b90565b906112f56112f06112fc92610ddd565b6112dd565b82546112c7565b9055565b9061130a90610ddd565b5f5260205260405f2090565b90565b9061132a60018060a01b03916112c2565b9181191691161790565b90565b9061134c61134761135392610562565b611334565b8254611319565b9055565b61138c61139394611382606094989795611378608086019a5f87019061047f565b60208501906105c6565b604083019061047f565b019061047f565b565b939192936114e86113b06113ab60068490610df9565b610f78565b936113d86113bf5f8701610e28565b6113d16113cb5f610f7e565b916101e4565b1415610ffc565b6113f66113f16113ec600388013390611025565b611055565b6110bb565b61142861140f61140a60068801879061056e565b610e28565b61142161141b896101e4565b916101e4565b101561113d565b61144d8761144661144061143b5f611182565b610215565b91610215565b14156111e7565b6114698161146361145d426101e4565b916101e4565b11611269565b60056114a061149b600483890161149261148282610e28565b9161148c836112a6565b906112e0565b98018890611300565b611316565b916114ad875f85016112e0565b6114ba3360018501611337565b6114c788600285016112e0565b6114d48660038501611337565b6114e18960048501611337565b91016112e0565b91926115363391929561152461151e7fec836a9c0173152cd03659794418817fb760fbd364a506d82c00e63aaa5c91f696610ddd565b96610ddd565b9661152d6101d2565b94859485611357565b0390a3565b5f90565b91600761156861156e9360046115626115739761155a61153b565b506006610df9565b01611300565b01611025565b611055565b90565b5f7f416d6f756e74206d7573742062652067726561746572207468616e2030000000910152565b6115aa601d602092610f9a565b6115b381611576565b0190565b6115cc9060208101905f81830391015261159d565b90565b156115d657565b6115de6101d2565b62461bcd60e51b8152806115f4600482016115b7565b0390fd5b6116019061053a565b90565b61160d906115f8565b90565b61161990610556565b90565b60e01b90565b61162b81610310565b0361163257565b5f80fd5b9050519061164382611622565b565b9060208282031261165e5761165b915f01611636565b90565b6101dc565b60409061168c611693949695939661168260608401985f85019061047f565b602083019061047f565b01906105c6565b565b61169d6101d2565b3d5f823e3d90fd5b6116b46116ba919392936101e4565b926101e4565b82018092116116c557565b611292565b9160206116eb9294936116e460408201965f83019061047f565b01906105c6565b565b6117016116fc60068390610df9565b610f78565b61172861170f5f8301610e28565b61172161171b5f610f7e565b916101e4565b1415610ffc565b6117448461173e6117385f610f7e565b916101e4565b116115cf565b61175561175084611604565b610f11565b9060206323b872dd9233906117865f61176d30611610565b966117918b61177a6101d2565b998a978896879561161c565b855260048501611663565b03925af191821561183f576117cd92611813575b506117c76117b86006879301869061056e565b916117c283610e28565b6116a5565b906112e0565b90916117f97f756280617abfd1bdc475830a3a4d03cea884ac63c5b517fcc23209de9ea01de392610ddd565b9261180e6118056101d2565b928392836116ca565b0390a2565b6118339060203d8111611838575b61182b8183610bdb565b810190611645565b6117a5565b503d611821565b611695565b61185061185591610e0f565b61043f565b90565b6118629054611844565b90565b5f7f4f6e6c79206f776e65722063616e20736574206e6577206f776e657200000000910152565b611899601c602092610f9a565b6118a281611865565b0190565b6118bb9060208101905f81830391015261188c565b90565b156118c557565b6118cd6101d2565b62461bcd60e51b8152806118e3600482016118a6565b0390fd5b61191d90336119066119006118fb5f611858565b610215565b91610215565b14801561191f575b611917906118be565b5f611337565b565b506119173361193f6119396119346005611858565b610215565b91610215565b14905061190e565b5f7f4f7264657220646f6573206e6f74206578697374000000000000000000000000910152565b61197b6014602092610f9a565b61198481611947565b0190565b61199d9060208101905f81830391015261196e565b90565b156119a757565b6119af6101d2565b62461bcd60e51b8152806119c560048201611988565b0390fd5b60181c90565b6119db6119e0916119c9565b61103b565b90565b6119ed90546119cf565b90565b5f7f4f72646572206973206e6f742061637469766500000000000000000000000000910152565b611a246013602092610f9a565b611a2d816119f0565b0190565b611a469060208101905f818303910152611a17565b90565b15611a5057565b611a586101d2565b62461bcd60e51b815280611a6e60048201611a31565b0390fd5b5f7f4f72646572206578706972656400000000000000000000000000000000000000910152565b611aa6600d602092610f9a565b611aaf81611a72565b0190565b611ac89060208101905f818303910152611a99565b90565b15611ad257565b611ada6101d2565b62461bcd60e51b815280611af060048201611ab3565b0390fd5b5f7f496e73756666696369656e7420617070726f76616c7300000000000000000000910152565b611b286016602092610f9a565b611b3181611af4565b0190565b611b4a9060208101905f818303910152611b1b565b90565b15611b5457565b611b5c6101d2565b62461bcd60e51b815280611b7260048201611b35565b0390fd5b611b82611b8791610e0f565b610ed1565b90565b611b949054611b76565b90565b5f7f4e6f7420612062616e6b207769746864726177206f7264657200000000000000910152565b611bcb6019602092610f9a565b611bd481611b97565b0190565b611bed9060208101905f818303910152611bbe565b90565b15611bf757565b611bff6101d2565b62461bcd60e51b815280611c1560048201611bd8565b0390fd5b60181b90565b90611c2e63ff00000091611c19565b9181191691161790565b611c4190610310565b90565b90565b90611c5c611c57611c6392611c38565b611c44565b8254611c1f565b9055565b611c7b611c7660068390610df9565b610f78565b91611df2611c95611c90600486018490611300565b611316565b93611cbd611ca45f8301610e28565b611cb6611cb05f610f7e565b916101e4565b1415610ffc565b611ce4611ccb5f8701610e28565b611cdd611cd75f610f7e565b916101e4565b14156119a0565b611cf9611cf360068701611055565b15610310565b80611ead575b611d0890611a49565b611d3042611d29611d23611d1e60058a01610e28565b6101e4565b916101e4565b1115611acb565b611d63611d3f60088701610e28565b611d5c611d56611d5160028601610e28565b6101e4565b916101e4565b1015611b4d565b611d9b611d7260038701611858565b611d95611d8f611d8a611d856003611b8a565b610f11565b610215565b91610215565b14611bf0565b611daf611daa60028701610e28565b6136ed565b611dec611ddd6006611dc360028901610e28565b9301611dd7611dd26003611b8a565b610f11565b9061056e565b91611de783610e28565b6116a5565b906112e0565b611e00600160068501611c47565b8190611e35611e2f7f9947370f1e808dd40de986fca744d8715d4d7aa575359f77a7bdeeb887f590ea93610ddd565b91610ddd565b91611e3e6101d2565b80611e488161029a565b0390a3611e696002611e62611e5d6003611b8a565b610f11565b9301610e28565b611e937f756280617abfd1bdc475830a3a4d03cea884ac63c5b517fcc23209de9ea01de392610ddd565b92611ea8611e9f6101d2565b928392836116ca565b0390a2565b50611d08611ec6611ec0600688016119e3565b15610310565b9050611cff565b5f7f4f6e6c7920746f6b656e20636f6e74726163742063616e2063616c6c00000000910152565b611f01601c602092610f9a565b611f0a81611ecd565b0190565b611f239060208101905f818303910152611ef4565b90565b15611f2d57565b611f356101d2565b62461bcd60e51b815280611f4b60048201611f0e565b0390fd5b90611f87611f9c93611f82611f9693611f7a33611f74611f6e86610215565b91610215565b14611f26565b9460046107ef565b61056e565b91611f9183610e28565b6116a5565b906112e0565b565b611fa7906136ed565b565b9190916120bd611fc3611fbe60068490610df9565b610f78565b92611feb611fd25f8601610e28565b611fe4611fde5f610f7e565b916101e4565b1415610ffc565b612009612004611fff600387013390611025565b611055565b6110bb565b6120258161201f612019426101e4565b916101e4565b11611269565b600561205c612057600483880161204e61203e82610e28565b91612048836112a6565b906112e0565b97018790611300565b611316565b91612069865f85016112e0565b6120763360018501611337565b61208387600285016112e0565b6120a16120986120936003611b8a565b610f11565b60038501611337565b6120b66120ad30611610565b60048501611337565b91016112e0565b33926120d16120cc6003611b8a565b610f11565b936121236120de30611610565b61211161210b7fec836a9c0173152cd03659794418817fb760fbd364a506d82c00e63aaa5c91f696610ddd565b96610ddd565b9661211a6101d2565b94859485611357565b0390a3565b5f7f4f6e6c79206f776e65722063616e20617070726f766500000000000000000000910152565b61215c6016602092610f9a565b61216581612128565b0190565b61217e9060208101905f81830391015261214f565b90565b1561218857565b6121906101d2565b62461bcd60e51b8152806121a660048201612169565b0390fd5b5f7f416c726561647920617070726f76656400000000000000000000000000000000910152565b6121de6010602092610f9a565b6121e7816121aa565b0190565b6122009060208101905f8183039101526121d1565b90565b1561220a57565b6122126101d2565b62461bcd60e51b815280612228600482016121eb565b0390fd5b9061223860ff916112c2565b9181191691161790565b9061225761225261225e92611c38565b611c44565b825461222c565b9055565b9061227761227260068490610df9565b610f78565b61241861241261240d6002612406600861229d612298600489018a90611300565b611316565b6122c46122ab5f8a01610e28565b6122bd6122b75f610f7e565b916101e4565b1415610ffc565b6122eb6122d25f8301610e28565b6122e46122de5f610f7e565b916101e4565b14156119a0565b6123096123046122ff60038b013390611025565b611055565b612181565b61231e61231860068301611055565b15610310565b80612433575b61232d90611a49565b6123554261234e61234861234360058601610e28565b6101e4565b916101e4565b1115611acb565b61237c61237761237161236c600785013390611025565b611055565b15610310565b612203565b612394600161238f600784013390611025565b612242565b6123b18282016123ab6123a682610e28565b6112a6565b906112e0565b898933916123fd6123eb6123e57fe30073a4ca5538e907aa20ba342b350ad7104c33eeb54ef3d0b1eb0ddd7e180a93610ddd565b93610ddd565b936123f46101d2565b9182918261048c565b0390a301610e28565b9401610e28565b6101e4565b916101e4565b1015612423575b5050565b61242c916132b7565b5f8061241f565b5061232d61244c612446600684016119e3565b15610310565b9050612324565b61247b9160036124706124769361246861153b565b506006610df9565b01611025565b611055565b90565b5f7f4f6e6c79206f776e65722063616e2072656a6563740000000000000000000000910152565b6124b26015602092610f9a565b6124bb8161247e565b0190565b6124d49060208101905f8183039101526124a5565b90565b156124de57565b6124e66101d2565b62461bcd60e51b8152806124fc600482016124bf565b0390fd5b60101b90565b9061251462ff000091612500565b9181191691161790565b9061253361252e61253a92611c38565b611c44565b8254612506565b9055565b61260661255561255060068490610df9565b610f78565b6125d76125d26125cd6003612576612571600487018a90611300565b611316565b9461259e6125855f8301610e28565b6125976125915f610f7e565b916101e4565b1415610ffc565b6125c56125ac5f8801610e28565b6125be6125b85f610f7e565b916101e4565b14156119a0565b013390611025565b611055565b6124d7565b6125ec6125e660068301611055565b15610310565b80612656575b6125fb90611a49565b60066001910161251e565b90339161265161263f6126397f9d2a0fc3fb05ac46a47680d07a1786979e80422d6f753e96b6819eb70a5487ef93610ddd565b93610ddd565b936126486101d2565b9182918261048c565b0390a3565b506125fb61266f612669600684016119e3565b15610310565b90506125f2565b5f90565b5f90565b60081c90565b6126906126959161267e565b61103b565b90565b6126a29054612684565b90565b60101c90565b6126b76126bc916126a5565b61103b565b90565b6126c990546126ab565b90565b61275691600461274b612746612751946126e4612676565b506126ed61267a565b506126f6612676565b506126ff61267a565b5061270861267a565b50612711612676565b5061271a61153b565b5061272361153b565b5061272c61153b565b5061273561153b565b5061273e612676565b506006610df9565b610f78565b01611300565b611316565b906127625f8301610e28565b9161276f60018201611858565b9261277c60028301610e28565b9261278960038401611858565b9261279660048201611858565b926127a360058301610e28565b926127b060068401611055565b926127bd60068201612698565b926127ca600683016126bf565b926127e360086127dc600686016119e3565b9401610e28565b919a99989796959493929190565b5f7f4f6e6c79206f776e65722063616e207365742062616e6b206f776e6572000000910152565b612825601d602092610f9a565b61282e816127f1565b0190565b6128479060208101905f818303910152612818565b90565b1561285157565b6128596101d2565b62461bcd60e51b81528061286f60048201612832565b0390fd5b6128c56128c0600361289161288c6128ca956006610df9565b610f78565b6128b861289f5f8301610e28565b6128b16128ab5f610f7e565b916101e4565b1415610ffc565b013390611025565b611055565b61284a565b6128db6128d630611610565b6118e7565b565b606090565b5490565b60209181520190565b5f5260205f2090565b6129029054611844565b90565b60010190565b9061292861292261291b846128e2565b80936128e6565b926128ef565b905f5b8181106129385750505090565b90919261295861295260019261294d876128f8565b610a70565b94612905565b910191909161292b565b9061296c9161290b565b90565b9061298f6129889261297f6101d2565b93848092612962565b0383610bdb565b565b61299a9061296f565b90565b6129cf6129d4916129ac612676565b506129b56128dd565b506129be612676565b506129c7612676565b506006610df9565b610f78565b6129df5f8201610e28565b6001820192612a066129ff60056129f860028701610e28565b9501610e28565b9294612991565b929190565b612a14906137f6565b565b5f7f4f6e6c79206f72646572206f776e65722063616e2063616e63656c0000000000910152565b612a4a601b602092610f9a565b612a5381612a16565b0190565b612a6c9060208101905f818303910152612a3d565b90565b15612a7657565b612a7e6101d2565b62461bcd60e51b815280612a9460048201612a57565b0390fd5b612b69612aaf612aaa60068490610df9565b610f78565b612aec612ad35f612acc612ac7600486018990611300565b611316565b9301610e28565b612ae5612adf5f610f7e565b916101e4565b1415610ffc565b612b13612afa5f8301610e28565b612b0c612b065f610f7e565b916101e4565b14156119a0565b612b3a612b2260018301611858565b612b34612b2e33610215565b91610215565b14612a6f565b612b4f612b4960068301611055565b15610310565b80612bb5575b612b5e90611a49565b600660019101612242565b90612b9d612b977faa2a006d186dc89a3d6851834c85d16226329ac40bcad6531a5756a38ed1c90f93610ddd565b91610ddd565b91612ba66101d2565b80612bb08161029a565b0390a3565b50612b5e612bce612bc8600684016119e3565b15610310565b9050612b55565b90565b612bec612be7612bf192612bd5565b610537565b6101e4565b90565b5f7f4174206c656173742032206f776e657273207265717569726564000000000000910152565b612c28601a602092610f9a565b612c3181612bf4565b0190565b612c4a9060208101905f818303910152612c1b565b90565b15612c5457565b612c5c6101d2565b62461bcd60e51b815280612c7260048201612c35565b0390fd5b5f7f4174206c656173742032207369676e6174757265732072657175697265640000910152565b612caa601e602092610f9a565b612cb381612c76565b0190565b612ccc9060208101905f818303910152612c9d565b90565b15612cd657565b612cde6101d2565b62461bcd60e51b815280612cf460048201612cb7565b0390fd5b60207f64206f776e65727320636f756e74000000000000000000000000000000000000917f5265717569726564207369676e6174757265732063616e6e6f742065786365655f8201520152565b612d52602e604092610f9a565b612d5b81612cf8565b0190565b612d749060208101905f818303910152612d45565b90565b15612d7e57565b612d866101d2565b62461bcd60e51b815280612d9c60048201612d5f565b0390fd5b6001612dac91016101e4565b90565b634e487b7160e01b5f52603260045260245ffd5b90612dcd82610a50565b811015612dde576020809102010190565b612daf565b612ded9051610215565b90565b5f7f496e76616c6964206f776e657220616464726573730000000000000000000000910152565b612e246015602092610f9a565b612e2d81612df0565b0190565b612e469060208101905f818303910152612e17565b90565b15612e5057565b612e586101d2565b62461bcd60e51b815280612e6e60048201612e31565b0390fd5b5f7f4475706c6963617465206f776e65720000000000000000000000000000000000910152565b612ea6600f602092610f9a565b612eaf81612e72565b0190565b612ec89060208101905f818303910152612e99565b90565b15612ed257565b612eda6101d2565b62461bcd60e51b815280612ef060048201612eb3565b0390fd5b90565b5f5260205f2090565b5490565b612f0d81612f00565b821015612f2757612f1f600191612ef7565b910201905f90565b612daf565b1b90565b91906008612f50910291612f4a60018060a01b0384612f2c565b92612f2c565b9181191691161790565b9190612f70612f6b612f7893610562565b611334565b908354612f30565b9055565b9081549168010000000000000000831015612fac5782612fa4916001612faa95018155612f04565b90612f5a565b565b610bc7565b92916020612fcd612fd59360408701908782035f890152610a87565b9401906105c6565b565b91612fe0612676565b50613007612fed84610a50565b613000612ffa6002612bd8565b916101e4565b1015612c4d565b6130258261301e6130186002612bd8565b916101e4565b1015612ccf565b61304a8261304361303d61303887610a50565b6101e4565b916101e4565b1115612d77565b6130546007610e28565b613067613060826112a6565b60076112e0565b9061307c61307760068490610df9565b610f78565b91613089815f85016112e0565b61309684600285016112e0565b61309f5f610f7e565b5b806130bb6130b56130b089610a50565b6101e4565b916101e4565b10156131915761318c906130fc6130db6130d6898490612dc3565b612de3565b6130f56130ef6130ea5f611182565b610215565b91610215565b1415612e49565b61313561313061312a6131256003890161311f61311a8d8890612dc3565b612de3565b90611025565b611055565b15610310565b612ecb565b61315d61314460018701612ef4565b6131576131528a8590612dc3565b612de3565b90612f7c565b61318760016131826003880161317c6131778c8790612dc3565b612de3565b90611025565b612242565b612da0565b6130a0565b50929150928290916131c37f670f3351b51a1fca84220579fc05817194ae1f297d939c63f97dab1297cd519e92610ddd565b926131d86131cf6101d2565b92839283612fb1565b0390a290565b5f7f496e73756666696369656e742062616c616e6365000000000000000000000000910152565b6132126014602092610f9a565b61321b816131de565b0190565b6132349060208101905f818303910152613205565b90565b1561323e57565b6132466101d2565b62461bcd60e51b81528061325c6004820161321f565b0390fd5b61326f613275919392936101e4565b926101e4565b820391821161328057565b611292565b6040906132ae6132b594969593966132a460608401985f85019061047f565b60208301906105c6565b019061047f565b565b6132cb6132c660068390610df9565b610f78565b916134386132e56132e0600486018490611300565b611316565b9361330d6132f45f8301610e28565b6133066133005f610f7e565b916101e4565b1415610ffc565b61333461331b5f8701610e28565b61332d6133275f610f7e565b916101e4565b14156119a0565b61334961334360068701611055565b15610310565b806135a0575b61335890611a49565b6133804261337961337361336e60058a01610e28565b6101e4565b916101e4565b1115611acb565b6133b361338f60088701610e28565b6133ac6133a66133a160028601610e28565b6101e4565b916101e4565b1015611b4d565b6133fb6133d76133d2600684016133cc60038a01611858565b9061056e565b610e28565b6133f46133ee6133e960028a01610e28565b6101e4565b916101e4565b1015613237565b613432613423600661340f60028901610e28565b930161341d60038901611858565b9061056e565b9161342d83610e28565b613260565b906112e0565b61345461344f61344a60038601611858565b611604565b610f11565b602063a9059cbb9161346860048701611858565b906134915f61347960028a01610e28565b9561349c6134856101d2565b9788968795869461161c565b8452600484016116ca565b03925af1801561359b5761356f575b506134ba600160068501611c47565b81906134ef6134e97f9947370f1e808dd40de986fca744d8715d4d7aa575359f77a7bdeeb887f590ea93610ddd565b91610ddd565b916134f86101d2565b806135028161029a565b0390a361351160038301611858565b9161352a600461352360028401610e28565b9201611858565b9261356a6135587f5cd01431ee96667b785a36df459729ec8ea474b000811969531deacea79c538194610ddd565b946135616101d2565b93849384613285565b0390a2565b61358f9060203d8111613594575b6135878183610bdb565b810190611645565b6134ab565b503d61357d565b611695565b506133586135b96135b3600688016119e3565b15610310565b905061334f565b6135e79160066135dc6135e2936135d5612676565b5082610df9565b0161056e565b610e28565b90565b5f7f496e73756666696369656e742062616c616e636520746f207769746864726177910152565b61361d60208092610f9a565b613626816135ea565b0190565b61363f9060208101905f818303910152613611565b90565b1561364957565b6136516101d2565b62461bcd60e51b8152806136676004820161362a565b0390fd5b5f7f5472616e73666572206661696c65640000000000000000000000000000000000910152565b61369f600f602092610f9a565b6136a88161366b565b0190565b6136c19060208101905f818303910152613692565b90565b156136cb57565b6136d36101d2565b62461bcd60e51b8152806136e9600482016136ac565b0390fd5b61371d6137046136ff6001339061056e565b610e28565b613716613710846101e4565b916101e4565b1015613642565b6137458161373f6137306001339061056e565b9161373a83610e28565b613260565b906112e0565b61376261375b826137566002610e28565b613260565b60026112e0565b60206137766137716003611b8a565b610f11565b9163a9059cbb9261379b5f3393956137a661378f6101d2565b9788968795869461161c565b8452600484016116ca565b03925af180156137f1576137c1915f916137c3575b506136c4565b565b6137e4915060203d81116137ea575b6137dc8183610bdb565b810190611645565b5f6137bb565b503d6137d2565b611695565b6137ff906138b5565b565b60207f68616e2030000000000000000000000000000000000000000000000000000000917f4465706f73697420616d6f756e74206d757374206265206772656174657220745f8201520152565b61385b6025604092610f9a565b61386481613801565b0190565b61387d9060208101905f81830391015261384e565b90565b1561388757565b61388f6101d2565b62461bcd60e51b8152806138a560048201613868565b0390fd5b6138b290610556565b90565b6138d1816138cb6138c55f610f7e565b916101e4565b11613880565b6138e36138de6003611b8a565b610f11565b9060206323b872dd9233906139145f6138fb306138a9565b9661391f876139086101d2565b998a978896879561161c565b855260048501611663565b03925af19081156139b05761394261397992613980945f91613982575b506136c4565b61396a816139646139556001339061056e565b9161395f83610e28565b6116a5565b906112e0565b6139746002610e28565b6116a5565b60026112e0565b565b6139a3915060203d81116139a9575b61399b8183610bdb565b810190611645565b5f61393c565b503d613991565b61169556fea26469706673582212203aad24ecfac4000b3fcaed1e8c3c26cc78e0ce69f897d2456bab255e571d858f64736f6c634300081e0033","linkReferences":{}},"methodIdentifiers":{"approveOrder(uint256,uint256)":"4198bb7b","balances(address)":"27e235e3","cancelOrder(uint256,uint256)":"b6ed0632","createBankWithdrawOrder(uint256,uint256,uint256)":"4194ad98","createSafeBankAccount(address[],uint256)":"bad4fbbc","createWithdrawOrder(uint256,address,uint256,address,uint256)":"0386505b","deposit(uint256)":"b6b55f25","depositToSafeBank(uint256,address,uint256)":"0f0c6093","executeBankWithdrawOrder(uint256,uint256)":"1e4e0a0b","executeOrder(uint256,uint256)":"ef46e0ca","getOrder(uint256,uint256)":"5e1a3573","getSafeBankAccount(uint256)":"925bea67","getTokenBalance(uint256,address)":"ef57e2d2","hasApproved(uint256,uint256,address)":"08dae23c","isOwner(uint256,address)":"5a5d096c","nextAccountId()":"39072462","owner()":"8da5cb5b","rejectOrder(uint256,uint256)":"5d717a8c","safeBankAccounts(uint256)":"f9f72925","setBankOwnerToSafeBank(uint256)":"60c53871","setOwner(address)":"13af4035","token()":"fc0c546a","tokenBankOwner()":"14018978","tokensReceived(address,uint256,address)":"2b86ed2f","totalDeposit()":"f6153ccd","userTokenBalances(address,address)":"45f2d105","withdraw(uint256)":"2e1a7d4d"},"id":60}