{"abi":[{"type":"constructor","inputs":[{"name":"_paymentToken","type":"address","internalType":"contract IERC20"},{"name":"_nftContract","type":"address","internalType":"contract ERC721"}],"stateMutability":"nonpayable"},{"type":"function","name":"buyNFT","inputs":[{"name":"tokenId","type":"uint256","internalType":"uint256"},{"name":"price","type":"uint256","internalType":"uint256"}],"outputs":[{"name":"","type":"bool","internalType":"bool"}],"stateMutability":"nonpayable"},{"type":"function","name":"list","inputs":[{"name":"tokenId","type":"uint256","internalType":"uint256"},{"name":"price","type":"uint256","internalType":"uint256"}],"outputs":[{"name":"","type":"bool","internalType":"bool"}],"stateMutability":"nonpayable"},{"type":"function","name":"nftContract","inputs":[],"outputs":[{"name":"","type":"address","internalType":"contract ERC721"}],"stateMutability":"view"},{"type":"function","name":"owner","inputs":[],"outputs":[{"name":"","type":"address","internalType":"address"}],"stateMutability":"view"},{"type":"function","name":"paymentToken","inputs":[],"outputs":[{"name":"","type":"address","internalType":"contract IERC20"}],"stateMutability":"view"},{"type":"function","name":"tokenIdToPrice","inputs":[{"name":"","type":"uint256","internalType":"uint256"}],"outputs":[{"name":"","type":"uint256","internalType":"uint256"}],"stateMutability":"view"}],"bytecode":{"object":"0x608060405234801561000f575f5ffd5b50604051610edc380380610edc833981810160405281019061003191906101a1565b335f5f6101000a81548173ffffffffffffffffffffffffffffffffffffffff021916908373ffffffffffffffffffffffffffffffffffffffff1602179055508160025f6101000a81548173ffffffffffffffffffffffffffffffffffffffff021916908373ffffffffffffffffffffffffffffffffffffffff1602179055508060035f6101000a81548173ffffffffffffffffffffffffffffffffffffffff021916908373ffffffffffffffffffffffffffffffffffffffff16021790555050506101df565b5f5ffd5b5f73ffffffffffffffffffffffffffffffffffffffff82169050919050565b5f610124826100fb565b9050919050565b5f6101358261011a565b9050919050565b6101458161012b565b811461014f575f5ffd5b50565b5f815190506101608161013c565b92915050565b5f6101708261011a565b9050919050565b61018081610166565b811461018a575f5ffd5b50565b5f8151905061019b81610177565b92915050565b5f5f604083850312156101b7576101b66100f7565b5b5f6101c485828601610152565b92505060206101d58582860161018d565b9150509250929050565b610cf0806101ec5f395ff3fe608060405234801561000f575f5ffd5b5060043610610060575f3560e01c80631d85bf03146100645780633013ce291461009457806350fd7367146100b25780638da5cb5b146100e2578063d56d229d14610100578063f4812eb91461011e575b5f5ffd5b61007e6004803603810190610079919061076b565b61014e565b60405161008b91906107c3565b60405180910390f35b61009c61041b565b6040516100a99190610856565b60405180910390f35b6100cc60048036038101906100c7919061076b565b610440565b6040516100d991906107c3565b60405180910390f35b6100ea6106d6565b6040516100f7919061088f565b60405180910390f35b6101086106fa565b60405161011591906108c8565b60405180910390f35b610138600480360381019061013391906108e1565b61071f565b604051610145919061091b565b60405180910390f35b5f5f60015f8581526020019081526020015f2054036101a2576040517f08c379a00000000000000000000000000000000000000000000000000000000081526004016101999061098e565b60405180910390fd5b60015f8481526020019081526020015f20548210156101f6576040517f08c379a00000000000000000000000000000000000000000000000000000000081526004016101ed906109f6565b60405180910390fd5b60025f9054906101000a900473ffffffffffffffffffffffffffffffffffffffff1673ffffffffffffffffffffffffffffffffffffffff166323b872dd3330856040518463ffffffff1660e01b815260040161025493929190610a14565b6020604051808303815f875af1158015610270573d5f5f3e3d5ffd5b505050506040513d601f19601f820116820180604052508101906102949190610a73565b6102d3576040517f08c379a00000000000000000000000000000000000000000000000000000000081526004016102ca90610ae8565b60405180910390fd5b5f60035f9054906101000a900473ffffffffffffffffffffffffffffffffffffffff1673ffffffffffffffffffffffffffffffffffffffff16636352211e856040518263ffffffff1660e01b815260040161032e919061091b565b602060405180830381865afa158015610349573d5f5f3e3d5ffd5b505050506040513d601f19601f8201168201806040525081019061036d9190610b30565b905060035f9054906101000a900473ffffffffffffffffffffffffffffffffffffffff1673ffffffffffffffffffffffffffffffffffffffff166323b872dd8233876040518463ffffffff1660e01b81526004016103cd93929190610a14565b5f604051808303815f87803b1580156103e4575f5ffd5b505af11580156103f6573d5f5f3e3d5ffd5b505050505f60015f8681526020019081526020015f2081905550600191505092915050565b60025f9054906101000a900473ffffffffffffffffffffffffffffffffffffffff1681565b5f5f60015f8581526020019081526020015f205414610494576040517f08c379a000000000000000000000000000000000000000000000000000000000815260040161048b90610ba5565b60405180910390fd5b5f82116104d6576040517f08c379a00000000000000000000000000000000000000000000000000000000081526004016104cd906109f6565b60405180910390fd5b3373ffffffffffffffffffffffffffffffffffffffff1660035f9054906101000a900473ffffffffffffffffffffffffffffffffffffffff1673ffffffffffffffffffffffffffffffffffffffff16636352211e856040518263ffffffff1660e01b8152600401610547919061091b565b602060405180830381865afa158015610562573d5f5f3e3d5ffd5b505050506040513d601f19601f820116820180604052508101906105869190610b30565b73ffffffffffffffffffffffffffffffffffffffff16146105dc576040517f08c379a00000000000000000000000000000000000000000000000000000000081526004016105d390610c0d565b60405180910390fd5b60035f9054906101000a900473ffffffffffffffffffffffffffffffffffffffff1673ffffffffffffffffffffffffffffffffffffffff1663e985e9c533306040518363ffffffff1660e01b8152600401610638929190610c2b565b602060405180830381865afa158015610653573d5f5f3e3d5ffd5b505050506040513d601f19601f820116820180604052508101906106779190610a73565b6106b6576040517f08c379a00000000000000000000000000000000000000000000000000000000081526004016106ad90610c9c565b60405180910390fd5b8160015f8581526020019081526020015f20819055506001905092915050565b5f5f9054906101000a900473ffffffffffffffffffffffffffffffffffffffff1681565b60035f9054906101000a900473ffffffffffffffffffffffffffffffffffffffff1681565b6001602052805f5260405f205f915090505481565b5f5ffd5b5f819050919050565b61074a81610738565b8114610754575f5ffd5b50565b5f8135905061076581610741565b92915050565b5f5f6040838503121561078157610780610734565b5b5f61078e85828601610757565b925050602061079f85828601610757565b9150509250929050565b5f8115159050919050565b6107bd816107a9565b82525050565b5f6020820190506107d65f8301846107b4565b92915050565b5f73ffffffffffffffffffffffffffffffffffffffff82169050919050565b5f819050919050565b5f61081e610819610814846107dc565b6107fb565b6107dc565b9050919050565b5f61082f82610804565b9050919050565b5f61084082610825565b9050919050565b61085081610836565b82525050565b5f6020820190506108695f830184610847565b92915050565b5f610879826107dc565b9050919050565b6108898161086f565b82525050565b5f6020820190506108a25f830184610880565b92915050565b5f6108b282610825565b9050919050565b6108c2816108a8565b82525050565b5f6020820190506108db5f8301846108b9565b92915050565b5f602082840312156108f6576108f5610734565b5b5f61090384828501610757565b91505092915050565b61091581610738565b82525050565b5f60208201905061092e5f83018461090c565b92915050565b5f82825260208201905092915050565b7f746f6b656e4964206973206e6f74206c697374656400000000000000000000005f82015250565b5f610978601583610934565b915061098382610944565b602082019050919050565b5f6020820190508181035f8301526109a58161096c565b9050919050565b7f7072696365206973206e6f7420656e6f756768000000000000000000000000005f82015250565b5f6109e0601383610934565b91506109eb826109ac565b602082019050919050565b5f6020820190508181035f830152610a0d816109d4565b9050919050565b5f606082019050610a275f830186610880565b610a346020830185610880565b610a41604083018461090c565b949350505050565b610a52816107a9565b8114610a5c575f5ffd5b50565b5f81519050610a6d81610a49565b92915050565b5f60208284031215610a8857610a87610734565b5b5f610a9584828501610a5f565b91505092915050565b7f546f6b656e207472616e73666572206661696c656400000000000000000000005f82015250565b5f610ad2601583610934565b9150610add82610a9e565b602082019050919050565b5f6020820190508181035f830152610aff81610ac6565b9050919050565b610b0f8161086f565b8114610b19575f5ffd5b50565b5f81519050610b2a81610b06565b92915050565b5f60208284031215610b4557610b44610734565b5b5f610b5284828501610b1c565b91505092915050565b7f4e465420697320616c7265616479206c697374656400000000000000000000005f82015250565b5f610b8f601583610934565b9150610b9a82610b5b565b602082019050919050565b5f6020820190508181035f830152610bbc81610b83565b9050919050565b7f4e6f7420746865206f776e6572206f662074686973204e4654000000000000005f82015250565b5f610bf7601983610934565b9150610c0282610bc3565b602082019050919050565b5f6020820190508181035f830152610c2481610beb565b9050919050565b5f604082019050610c3e5f830185610880565b610c4b6020830184610880565b9392505050565b7f4e4654206e6f7420617070726f766564000000000000000000000000000000005f82015250565b5f610c86601083610934565b9150610c9182610c52565b602082019050919050565b5f6020820190508181035f830152610cb381610c7a565b905091905056fea26469706673582212203046ca927ef362b6b845acc17ba1dc5d441d5b63702f7a6c5f5854f58dc1bf5264736f6c634300081e0033","linkReferences":{}},"methodIdentifiers":{"buyNFT(uint256,uint256)":"1d85bf03","list(uint256,uint256)":"50fd7367","nftContract()":"d56d229d","owner()":"8da5cb5b","paymentToken()":"3013ce29","tokenIdToPrice(uint256)":"f4812eb9"},"id":61}