{"abi":[{"type":"constructor","inputs":[{"name":"_paymentTokenAddress","type":"address","internalType":"address"}],"stateMutability":"nonpayable"},{"type":"function","name":"buy","inputs":[{"name":"_listingId","type":"string","internalType":"string"}],"outputs":[],"stateMutability":"nonpayable"},{"type":"function","name":"changeListingActive","inputs":[{"name":"_listingId","type":"string","internalType":"string"},{"name":"_isActive","type":"bool","internalType":"bool"}],"outputs":[],"stateMutability":"nonpayable"},{"type":"function","name":"list","inputs":[{"name":"_nftContract","type":"address","internalType":"address"},{"name":"_tokenId","type":"uint256","internalType":"uint256"},{"name":"_price","type":"uint256","internalType":"uint256"}],"outputs":[],"stateMutability":"nonpayable"},{"type":"function","name":"listings","inputs":[{"name":"","type":"string","internalType":"string"}],"outputs":[{"name":"seller","type":"address","internalType":"address"},{"name":"nftContract","type":"address","internalType":"address"},{"name":"tokenId","type":"uint256","internalType":"uint256"},{"name":"price","type":"uint256","internalType":"uint256"},{"name":"isActive","type":"bool","internalType":"bool"}],"stateMutability":"view"},{"type":"function","name":"paymentToken","inputs":[],"outputs":[{"name":"","type":"address","internalType":"contract IExtendedERC20"}],"stateMutability":"view"},{"type":"function","name":"tokensReceived","inputs":[{"name":"from","type":"address","internalType":"address"},{"name":"amount","type":"uint256","internalType":"uint256"},{"name":"data","type":"bytes","internalType":"bytes"}],"outputs":[{"name":"","type":"bool","internalType":"bool"}],"stateMutability":"nonpayable"},{"type":"event","name":"NFTListed","inputs":[{"name":"listingId","type":"string","indexed":true,"internalType":"string"},{"name":"seller","type":"address","indexed":true,"internalType":"address"},{"name":"nftContract","type":"address","indexed":true,"internalType":"address"},{"name":"tokenId","type":"uint256","indexed":false,"internalType":"uint256"},{"name":"price","type":"uint256","indexed":false,"internalType":"uint256"}],"anonymous":false},{"type":"event","name":"NFTListingCancelled","inputs":[{"name":"listingId","type":"string","indexed":true,"internalType":"string"}],"anonymous":false},{"type":"event","name":"NFTSold","inputs":[{"name":"listingId","type":"string","indexed":true,"internalType":"string"},{"name":"buyer","type":"address","indexed":true,"internalType":"address"},{"name":"seller","type":"address","indexed":true,"internalType":"address"},{"name":"nftContract","type":"address","indexed":false,"internalType":"address"},{"name":"tokenId","type":"uint256","indexed":false,"internalType":"uint256"},{"name":"price","type":"uint256","indexed":false,"internalType":"uint256"}],"anonymous":false}],"bytecode":{"object":"0x608060405234801561000f575f5ffd5b5060405161212c38038061212c83398181016040528101906100319190610142565b5f73ffffffffffffffffffffffffffffffffffffffff168173ffffffffffffffffffffffffffffffffffffffff160361009f576040517f08c379a0000000000000000000000000000000000000000000000000000000008152600401610096906101ed565b60405180910390fd5b805f5f6101000a81548173ffffffffffffffffffffffffffffffffffffffff021916908373ffffffffffffffffffffffffffffffffffffffff1602179055505061020b565b5f5ffd5b5f73ffffffffffffffffffffffffffffffffffffffff82169050919050565b5f610111826100e8565b9050919050565b61012181610107565b811461012b575f5ffd5b50565b5f8151905061013c81610118565b92915050565b5f60208284031215610157576101566100e4565b5b5f6101648482850161012e565b91505092915050565b5f82825260208201905092915050565b7f4e46544d61726b65743a207061796d656e7420746f6b656e20616464726573735f8201527f2063616e6e6f74206265207a65726f0000000000000000000000000000000000602082015250565b5f6101d7602f8361016d565b91506101e28261017d565b604082019050919050565b5f6020820190508181035f830152610204816101cb565b9050919050565b611f14806102185f395ff3fe608060405234801561000f575f5ffd5b5060043610610060575f3560e01c80633013ce29146100645780634736e29514610082578063492cc7691461009e57806377dec6c3146100ba578063d0314263146100ee578063dda342bb1461011e575b5f5ffd5b61006c61013a565b6040516100799190611227565b60405180910390f35b61009c600480360381019061009791906113c2565b61015e565b005b6100b860048036038101906100b3919061141c565b6102c1565b005b6100d460048036038101906100cf919061141c565b610672565b6040516100e59594939291906114aa565b60405180910390f35b610108600480360381019061010391906115ac565b610706565b604051610115919061161d565b60405180910390f35b61013860048036038101906101339190611636565b610b82565b005b5f5f9054906101000a900473ffffffffffffffffffffffffffffffffffffffff1681565b5f60018360405161016f91906116d8565b90815260200160405180910390209050806004015f9054906101000a900460ff166101cf576040517f08c379a00000000000000000000000000000000000000000000000000000000081526004016101c690611748565b60405180910390fd5b3373ffffffffffffffffffffffffffffffffffffffff16815f015f9054906101000a900473ffffffffffffffffffffffffffffffffffffffff1673ffffffffffffffffffffffffffffffffffffffff161461025f576040517f08c379a0000000000000000000000000000000000000000000000000000000008152600401610256906117b0565b60405180910390fd5b81816004015f6101000a81548160ff0219169083151502179055508260405161028891906116d8565b60405180910390207f28e1139e4b977e0dddf7deadd8adf0f03483577c0c4bc9fa740df4ad2dfee90160405160405180910390a2505050565b5f6001826040516102d291906116d8565b90815260200160405180910390209050806004015f9054906101000a900460ff16610332576040517f08c379a000000000000000000000000000000000000000000000000000000000815260040161032990611748565b60405180910390fd5b80600301545f5f9054906101000a900473ffffffffffffffffffffffffffffffffffffffff1673ffffffffffffffffffffffffffffffffffffffff166370a08231336040518263ffffffff1660e01b815260040161039091906117ce565b602060405180830381865afa1580156103ab573d5f5f3e3d5ffd5b505050506040513d601f19601f820116820180604052508101906103cf91906117fb565b1015610410576040517f08c379a000000000000000000000000000000000000000000000000000000000815260040161040790611896565b60405180910390fd5b5f816004015f6101000a81548160ff0219169083151502179055505f5f9054906101000a900473ffffffffffffffffffffffffffffffffffffffff1673ffffffffffffffffffffffffffffffffffffffff166323b872dd33835f015f9054906101000a900473ffffffffffffffffffffffffffffffffffffffff1684600301546040518463ffffffff1660e01b81526004016104ae939291906118b4565b6020604051808303815f875af11580156104ca573d5f5f3e3d5ffd5b505050506040513d601f19601f820116820180604052508101906104ee91906118fd565b50806001015f9054906101000a900473ffffffffffffffffffffffffffffffffffffffff1673ffffffffffffffffffffffffffffffffffffffff166323b872dd825f015f9054906101000a900473ffffffffffffffffffffffffffffffffffffffff163384600201546040518463ffffffff1660e01b8152600401610575939291906118b4565b5f604051808303815f87803b15801561058c575f5ffd5b505af115801561059e573d5f5f3e3d5ffd5b50505050805f015f9054906101000a900473ffffffffffffffffffffffffffffffffffffffff1673ffffffffffffffffffffffffffffffffffffffff163373ffffffffffffffffffffffffffffffffffffffff168360405161060091906116d8565b60405180910390207fa21b29feb46592df452c60761146cd41d48525657ed3975f06bbd7303ff40684846001015f9054906101000a900473ffffffffffffffffffffffffffffffffffffffff168560020154866003015460405161066693929190611928565b60405180910390a45050565b6001818051602081018201805184825260208301602085012081835280955050505050505f91509050805f015f9054906101000a900473ffffffffffffffffffffffffffffffffffffffff1690806001015f9054906101000a900473ffffffffffffffffffffffffffffffffffffffff1690806002015490806003015490806004015f9054906101000a900460ff16905085565b5f5f5f9054906101000a900473ffffffffffffffffffffffffffffffffffffffff1673ffffffffffffffffffffffffffffffffffffffff163373ffffffffffffffffffffffffffffffffffffffff1614610795576040517f08c379a000000000000000000000000000000000000000000000000000000000815260040161078c906119cd565b60405180910390fd5b5f83839050116107da576040517f08c379a00000000000000000000000000000000000000000000000000000000081526004016107d190611a35565b60405180910390fd5b5f83838080601f0160208091040260200160405190810160405280939291908181526020018383808284375f81840152601f19601f8201169050808301925050505050505090505f60018260405161083291906116d8565b90815260200160405180910390209050806004015f9054906101000a900460ff16610892576040517f08c379a000000000000000000000000000000000000000000000000000000000815260040161088990611748565b60405180910390fd5b80600301548610156108d9576040517f08c379a00000000000000000000000000000000000000000000000000000000081526004016108d090611896565b60405180910390fd5b5f816004015f6101000a81548160ff021916908315150217905550806001015f9054906101000a900473ffffffffffffffffffffffffffffffffffffffff1673ffffffffffffffffffffffffffffffffffffffff166323b872dd825f015f9054906101000a900473ffffffffffffffffffffffffffffffffffffffff168984600201546040518463ffffffff1660e01b815260040161097a939291906118b4565b5f604051808303815f87803b158015610991575f5ffd5b505af11580156109a3573d5f5f3e3d5ffd5b505050505f5f5f9054906101000a900473ffffffffffffffffffffffffffffffffffffffff1673ffffffffffffffffffffffffffffffffffffffff1663a9059cbb835f015f9054906101000a900473ffffffffffffffffffffffffffffffffffffffff16896040518363ffffffff1660e01b8152600401610a25929190611a53565b6020604051808303815f875af1158015610a41573d5f5f3e3d5ffd5b505050506040513d601f19601f82011682018060405250810190610a6591906118fd565b905080610aa7576040517f08c379a0000000000000000000000000000000000000000000000000000000008152600401610a9e90611aea565b60405180910390fd5b815f015f9054906101000a900473ffffffffffffffffffffffffffffffffffffffff1673ffffffffffffffffffffffffffffffffffffffff168873ffffffffffffffffffffffffffffffffffffffff1684604051610b0591906116d8565b60405180910390207fa21b29feb46592df452c60761146cd41d48525657ed3975f06bbd7303ff40684856001015f9054906101000a900473ffffffffffffffffffffffffffffffffffffffff1686600201548760030154604051610b6b93929190611928565b60405180910390a460019350505050949350505050565b5f8111610bc4576040517f08c379a0000000000000000000000000000000000000000000000000000000008152600401610bbb90611b78565b60405180910390fd5b5f73ffffffffffffffffffffffffffffffffffffffff168373ffffffffffffffffffffffffffffffffffffffff1603610c32576040517f08c379a0000000000000000000000000000000000000000000000000000000008152600401610c2990611c06565b60405180910390fd5b5f8390505f8173ffffffffffffffffffffffffffffffffffffffff16636352211e856040518263ffffffff1660e01b8152600401610c709190611c24565b602060405180830381865afa158015610c8b573d5f5f3e3d5ffd5b505050506040513d601f19601f82011682018060405250810190610caf9190611c51565b90503373ffffffffffffffffffffffffffffffffffffffff168173ffffffffffffffffffffffffffffffffffffffff1614610d1f576040517f08c379a0000000000000000000000000000000000000000000000000000000008152600401610d1690611cec565b60405180910390fd5b8173ffffffffffffffffffffffffffffffffffffffff1663e985e9c582306040518363ffffffff1660e01b8152600401610d5a929190611d0a565b602060405180830381865afa158015610d75573d5f5f3e3d5ffd5b505050506040513d601f19601f82011682018060405250810190610d9991906118fd565b80610e4657503073ffffffffffffffffffffffffffffffffffffffff168273ffffffffffffffffffffffffffffffffffffffff1663081812fc866040518263ffffffff1660e01b8152600401610def9190611c24565b602060405180830381865afa158015610e0a573d5f5f3e3d5ffd5b505050506040513d601f19601f82011682018060405250810190610e2e9190611c51565b73ffffffffffffffffffffffffffffffffffffffff16145b610e85576040517f08c379a0000000000000000000000000000000000000000000000000000000008152600401610e7c90611da1565b60405180910390fd5b5f8585604051602001610e99929190611e24565b60405160208183030381529060405290505f600182604051610ebb91906116d8565b90815260200160405180910390206040518060a00160405290815f82015f9054906101000a900473ffffffffffffffffffffffffffffffffffffffff1673ffffffffffffffffffffffffffffffffffffffff1673ffffffffffffffffffffffffffffffffffffffff168152602001600182015f9054906101000a900473ffffffffffffffffffffffffffffffffffffffff1673ffffffffffffffffffffffffffffffffffffffff1673ffffffffffffffffffffffffffffffffffffffff1681526020016002820154815260200160038201548152602001600482015f9054906101000a900460ff161515151581525050905085816040015103610ff3576040517f08c379a0000000000000000000000000000000000000000000000000000000008152600401610fea90611e99565b60405180910390fd5b6040518060a001604052808473ffffffffffffffffffffffffffffffffffffffff1681526020018873ffffffffffffffffffffffffffffffffffffffff1681526020018781526020018681526020016001151581525060018360405161105991906116d8565b90815260200160405180910390205f820151815f015f6101000a81548173ffffffffffffffffffffffffffffffffffffffff021916908373ffffffffffffffffffffffffffffffffffffffff1602179055506020820151816001015f6101000a81548173ffffffffffffffffffffffffffffffffffffffff021916908373ffffffffffffffffffffffffffffffffffffffff16021790555060408201518160020155606082015181600301556080820151816004015f6101000a81548160ff0219169083151502179055509050508673ffffffffffffffffffffffffffffffffffffffff168373ffffffffffffffffffffffffffffffffffffffff168360405161116391906116d8565b60405180910390207f32e304293162354fd031a82b16650b13445b70dd2f94ece18258ba5e092f388b898960405161119c929190611eb7565b60405180910390a450505050505050565b5f73ffffffffffffffffffffffffffffffffffffffff82169050919050565b5f819050919050565b5f6111ef6111ea6111e5846111ad565b6111cc565b6111ad565b9050919050565b5f611200826111d5565b9050919050565b5f611211826111f6565b9050919050565b61122181611207565b82525050565b5f60208201905061123a5f830184611218565b92915050565b5f604051905090565b5f5ffd5b5f5ffd5b5f5ffd5b5f5ffd5b5f601f19601f8301169050919050565b7f4e487b71000000000000000000000000000000000000000000000000000000005f52604160045260245ffd5b61129f82611259565b810181811067ffffffffffffffff821117156112be576112bd611269565b5b80604052505050565b5f6112d0611240565b90506112dc8282611296565b919050565b5f67ffffffffffffffff8211156112fb576112fa611269565b5b61130482611259565b9050602081019050919050565b828183375f83830152505050565b5f61133161132c846112e1565b6112c7565b90508281526020810184848401111561134d5761134c611255565b5b611358848285611311565b509392505050565b5f82601f83011261137457611373611251565b5b813561138484826020860161131f565b91505092915050565b5f8115159050919050565b6113a18161138d565b81146113ab575f5ffd5b50565b5f813590506113bc81611398565b92915050565b5f5f604083850312156113d8576113d7611249565b5b5f83013567ffffffffffffffff8111156113f5576113f461124d565b5b61140185828601611360565b9250506020611412858286016113ae565b9150509250929050565b5f6020828403121561143157611430611249565b5b5f82013567ffffffffffffffff81111561144e5761144d61124d565b5b61145a84828501611360565b91505092915050565b5f61146d826111ad565b9050919050565b61147d81611463565b82525050565b5f819050919050565b61149581611483565b82525050565b6114a48161138d565b82525050565b5f60a0820190506114bd5f830188611474565b6114ca6020830187611474565b6114d7604083018661148c565b6114e4606083018561148c565b6114f1608083018461149b565b9695505050505050565b61150481611463565b811461150e575f5ffd5b50565b5f8135905061151f816114fb565b92915050565b61152e81611483565b8114611538575f5ffd5b50565b5f8135905061154981611525565b92915050565b5f5ffd5b5f5ffd5b5f5f83601f84011261156c5761156b611251565b5b8235905067ffffffffffffffff8111156115895761158861154f565b5b6020830191508360018202830111156115a5576115a4611553565b5b9250929050565b5f5f5f5f606085870312156115c4576115c3611249565b5b5f6115d187828801611511565b94505060206115e28782880161153b565b935050604085013567ffffffffffffffff8111156116035761160261124d565b5b61160f87828801611557565b925092505092959194509250565b5f6020820190506116305f83018461149b565b92915050565b5f5f5f6060848603121561164d5761164c611249565b5b5f61165a86828701611511565b935050602061166b8682870161153b565b925050604061167c8682870161153b565b9150509250925092565b5f81519050919050565b5f81905092915050565b8281835e5f83830152505050565b5f6116b282611686565b6116bc8185611690565b93506116cc81856020860161169a565b80840191505092915050565b5f6116e382846116a8565b915081905092915050565b5f82825260208201905092915050565b7f4e46544d61726b65743a206c697374696e67206973206e6f74206163746976655f82015250565b5f6117326020836116ee565b915061173d826116fe565b602082019050919050565b5f6020820190508181035f83015261175f81611726565b9050919050565b7f4e46544d61726b65743a2063616c6c6572206973206e6f742073656c6c6572005f82015250565b5f61179a601f836116ee565b91506117a582611766565b602082019050919050565b5f6020820190508181035f8301526117c78161178e565b9050919050565b5f6020820190506117e15f830184611474565b92915050565b5f815190506117f581611525565b92915050565b5f602082840312156118105761180f611249565b5b5f61181d848285016117e7565b91505092915050565b7f4e46544d61726b65743a206e6f7420656e6f756768207061796d656e7420746f5f8201527f6b656e0000000000000000000000000000000000000000000000000000000000602082015250565b5f6118806023836116ee565b915061188b82611826565b604082019050919050565b5f6020820190508181035f8301526118ad81611874565b9050919050565b5f6060820190506118c75f830186611474565b6118d46020830185611474565b6118e1604083018461148c565b949350505050565b5f815190506118f781611398565b92915050565b5f6020828403121561191257611911611249565b5b5f61191f848285016118e9565b91505092915050565b5f60608201905061193b5f830186611474565b611948602083018561148c565b611955604083018461148c565b949350505050565b7f4e46544d61726b65743a2063616c6c6572206973206e6f74207061796d656e745f8201527f20746f6b656e0000000000000000000000000000000000000000000000000000602082015250565b5f6119b76026836116ee565b91506119c28261195d565b604082019050919050565b5f6020820190508181035f8301526119e4816119ab565b9050919050565b7f4e46544d61726b65743a20696e76616c69642064617461206c656e67746800005f82015250565b5f611a1f601e836116ee565b9150611a2a826119eb565b602082019050919050565b5f6020820190508181035f830152611a4c81611a13565b9050919050565b5f604082019050611a665f830185611474565b611a73602083018461148c565b9392505050565b7f4e46544d61726b65743a20746f6b656e207472616e7366657220746f2073656c5f8201527f6c6572206661696c656400000000000000000000000000000000000000000000602082015250565b5f611ad4602a836116ee565b9150611adf82611a7a565b604082019050919050565b5f6020820190508181035f830152611b0181611ac8565b9050919050565b7f4e46544d61726b65743a207072696365206d75737420626520677265617465725f8201527f207468616e207a65726f00000000000000000000000000000000000000000000602082015250565b5f611b62602a836116ee565b9150611b6d82611b08565b604082019050919050565b5f6020820190508181035f830152611b8f81611b56565b9050919050565b7f4e46544d61726b65743a206e667420636f6e74726163742061646472657373205f8201527f63616e6e6f74206265207a65726f000000000000000000000000000000000000602082015250565b5f611bf0602e836116ee565b9150611bfb82611b96565b604082019050919050565b5f6020820190508181035f830152611c1d81611be4565b9050919050565b5f602082019050611c375f83018461148c565b92915050565b5f81519050611c4b816114fb565b92915050565b5f60208284031215611c6657611c65611249565b5b5f611c7384828501611c3d565b91505092915050565b7f4e46544d61726b65743a2063616c6c6572206973206e6f7420746865206f776e5f8201527f6572000000000000000000000000000000000000000000000000000000000000602082015250565b5f611cd66022836116ee565b9150611ce182611c7c565b604082019050919050565b5f6020820190508181035f830152611d0381611cca565b9050919050565b5f604082019050611d1d5f830185611474565b611d2a6020830184611474565b9392505050565b7f4e46544d61726b65743a206d61726b6574206973206e6f7420617070726f76655f8201527f6420746f207472616e736665722074686973204e465400000000000000000000602082015250565b5f611d8b6036836116ee565b9150611d9682611d31565b604082019050919050565b5f6020820190508181035f830152611db881611d7f565b9050919050565b5f8160601b9050919050565b5f611dd582611dbf565b9050919050565b5f611de682611dcb565b9050919050565b611dfe611df982611463565b611ddc565b82525050565b5f819050919050565b611e1e611e1982611483565b611e04565b82525050565b5f611e2f8285611ded565b601482019150611e3f8284611e0d565b6020820191508190509392505050565b7f4e46544d61726b65743a206e667420697320616c7265616479206c69737465645f82015250565b5f611e836020836116ee565b9150611e8e82611e4f565b602082019050919050565b5f6020820190508181035f830152611eb081611e77565b9050919050565b5f604082019050611eca5f83018561148c565b611ed7602083018461148c565b939250505056fea2646970667358221220036d46e9ff9d3f5fb3b6b250ddca24486323ee62b75c1c7045a76bb7ec135aea64736f6c634300081e0033","linkReferences":{}},"methodIdentifiers":{"buy(string)":"492cc769","changeListingActive(string,bool)":"4736e295","list(address,uint256,uint256)":"dda342bb","listings(string)":"77dec6c3","paymentToken()":"3013ce29","tokensReceived(address,uint256,bytes)":"d0314263"},"id":87}