{"abi":[{"type":"constructor","inputs":[{"name":"_paymentTokenAddress","type":"address","internalType":"address"}],"stateMutability":"nonpayable"},{"type":"function","name":"buy","inputs":[{"name":"_listingId","type":"uint256","internalType":"uint256"}],"outputs":[],"stateMutability":"nonpayable"},{"type":"function","name":"cancelListing","inputs":[{"name":"_listingId","type":"uint256","internalType":"uint256"}],"outputs":[],"stateMutability":"nonpayable"},{"type":"function","name":"list","inputs":[{"name":"_nftContract","type":"address","internalType":"address"},{"name":"_tokenId","type":"uint256","internalType":"uint256"},{"name":"_price","type":"uint256","internalType":"uint256"}],"outputs":[],"stateMutability":"nonpayable"},{"type":"function","name":"listings","inputs":[{"name":"","type":"uint256","internalType":"uint256"}],"outputs":[{"name":"seller","type":"address","internalType":"address"},{"name":"nftContract","type":"address","internalType":"address"},{"name":"tokenId","type":"uint256","internalType":"uint256"},{"name":"price","type":"uint256","internalType":"uint256"},{"name":"isActive","type":"bool","internalType":"bool"}],"stateMutability":"view"},{"type":"function","name":"nextListingId","inputs":[],"outputs":[{"name":"","type":"uint256","internalType":"uint256"}],"stateMutability":"view"},{"type":"function","name":"paymentToken","inputs":[],"outputs":[{"name":"","type":"address","internalType":"contract IExtendedERC20"}],"stateMutability":"view"},{"type":"function","name":"tokensReceived","inputs":[{"name":"from","type":"address","internalType":"address"},{"name":"amount","type":"uint256","internalType":"uint256"},{"name":"data","type":"bytes","internalType":"bytes"}],"outputs":[{"name":"","type":"bool","internalType":"bool"}],"stateMutability":"nonpayable"},{"type":"event","name":"NFTListed","inputs":[{"name":"listingId","type":"uint256","indexed":true,"internalType":"uint256"},{"name":"seller","type":"address","indexed":true,"internalType":"address"},{"name":"nftContract","type":"address","indexed":true,"internalType":"address"},{"name":"tokenId","type":"uint256","indexed":false,"internalType":"uint256"},{"name":"price","type":"uint256","indexed":false,"internalType":"uint256"}],"anonymous":false},{"type":"event","name":"NFTListingCancelled","inputs":[{"name":"listingId","type":"uint256","indexed":true,"internalType":"uint256"}],"anonymous":false},{"type":"event","name":"NFTSold","inputs":[{"name":"listingId","type":"uint256","indexed":true,"internalType":"uint256"},{"name":"buyer","type":"address","indexed":true,"internalType":"address"},{"name":"seller","type":"address","indexed":true,"internalType":"address"},{"name":"nftContract","type":"address","indexed":false,"internalType":"address"},{"name":"tokenId","type":"uint256","indexed":false,"internalType":"uint256"},{"name":"price","type":"uint256","indexed":false,"internalType":"uint256"}],"anonymous":false}],"bytecode":{"object":"0x608060405234801561000f575f5ffd5b50604051611f12380380611f1283398181016040528101906100319190610142565b5f73ffffffffffffffffffffffffffffffffffffffff168173ffffffffffffffffffffffffffffffffffffffff160361009f576040517f08c379a0000000000000000000000000000000000000000000000000000000008152600401610096906101ed565b60405180910390fd5b805f5f6101000a81548173ffffffffffffffffffffffffffffffffffffffff021916908373ffffffffffffffffffffffffffffffffffffffff1602179055505061020b565b5f5ffd5b5f73ffffffffffffffffffffffffffffffffffffffff82169050919050565b5f610111826100e8565b9050919050565b61012181610107565b811461012b575f5ffd5b50565b5f8151905061013c81610118565b92915050565b5f60208284031215610157576101566100e4565b5b5f6101648482850161012e565b91505092915050565b5f82825260208201905092915050565b7f4e46544d61726b65743a207061796d656e7420746f6b656e20616464726573735f8201527f2063616e6e6f74206265207a65726f0000000000000000000000000000000000602082015250565b5f6101d7602f8361016d565b91506101e28261017d565b604082019050919050565b5f6020820190508181035f830152610204816101cb565b9050919050565b611cfa806102185f395ff3fe608060405234801561000f575f5ffd5b506004361061007b575f3560e01c8063d031426311610059578063d0314263146100d7578063d96a094a14610107578063dda342bb14610123578063de74e57b1461013f5761007b565b80633013ce291461007f578063305a67a81461009d578063aaccf1ec146100b9575b5f5ffd5b610087610173565b60405161009491906111ce565b60405180910390f35b6100b760048036038101906100b29190611222565b610197565b005b6100c161031b565b6040516100ce919061125c565b60405180910390f35b6100f160048036038101906100ec9190611311565b610321565b6040516100fe919061139c565b60405180910390f35b610121600480360381019061011c9190611222565b610747565b005b61013d600480360381019061013891906113b5565b610b1a565b005b61015960048036038101906101549190611222565b6110d8565b60405161016a959493929190611414565b60405180910390f35b5f5f9054906101000a900473ffffffffffffffffffffffffffffffffffffffff1681565b5f60015f8381526020019081526020015f20905060025482106101ef576040517f08c379a00000000000000000000000000000000000000000000000000000000081526004016101e6906114e5565b60405180910390fd5b806004015f9054906101000a900460ff1661023f576040517f08c379a00000000000000000000000000000000000000000000000000000000081526004016102369061154d565b60405180910390fd5b3373ffffffffffffffffffffffffffffffffffffffff16815f015f9054906101000a900473ffffffffffffffffffffffffffffffffffffffff1673ffffffffffffffffffffffffffffffffffffffff16146102cf576040517f08c379a00000000000000000000000000000000000000000000000000000000081526004016102c6906115b5565b60405180910390fd5b5f816004015f6101000a81548160ff021916908315150217905550817fc46ea9fee66461db46a6ac51d560a291533b66981fb9c09ca8948e8dc8d4247260405160405180910390a25050565b60025481565b5f5f5f9054906101000a900473ffffffffffffffffffffffffffffffffffffffff1673ffffffffffffffffffffffffffffffffffffffff163373ffffffffffffffffffffffffffffffffffffffff16146103b0576040517f08c379a00000000000000000000000000000000000000000000000000000000081526004016103a790611643565b60405180910390fd5b602083839050146103f6576040517f08c379a00000000000000000000000000000000000000000000000000000000081526004016103ed906116ab565b60405180910390fd5b5f83838101906104069190611222565b90505f60015f8381526020019081526020015f209050806004015f9054906101000a900460ff1661046c576040517f08c379a00000000000000000000000000000000000000000000000000000000081526004016104639061154d565b60405180910390fd5b80600301548610156104b3576040517f08c379a00000000000000000000000000000000000000000000000000000000081526004016104aa90611739565b60405180910390fd5b5f816004015f6101000a81548160ff021916908315150217905550806001015f9054906101000a900473ffffffffffffffffffffffffffffffffffffffff1673ffffffffffffffffffffffffffffffffffffffff166323b872dd825f015f9054906101000a900473ffffffffffffffffffffffffffffffffffffffff163384600201546040518463ffffffff1660e01b815260040161055493929190611757565b5f604051808303815f87803b15801561056b575f5ffd5b505af115801561057d573d5f5f3e3d5ffd5b505050505f5f5f9054906101000a900473ffffffffffffffffffffffffffffffffffffffff1673ffffffffffffffffffffffffffffffffffffffff1663a9059cbb835f015f9054906101000a900473ffffffffffffffffffffffffffffffffffffffff16896040518363ffffffff1660e01b81526004016105ff92919061178c565b6020604051808303815f875af115801561061b573d5f5f3e3d5ffd5b505050506040513d601f19601f8201168201806040525081019061063f91906117dd565b905080610681576040517f08c379a000000000000000000000000000000000000000000000000000000000815260040161067890611878565b60405180910390fd5b815f015f9054906101000a900473ffffffffffffffffffffffffffffffffffffffff1673ffffffffffffffffffffffffffffffffffffffff163373ffffffffffffffffffffffffffffffffffffffff16847f88f63fa89cb6cf4da421a869453f09e48f4a2e670eb9dac1f4cd89afa5333372856001015f9054906101000a900473ffffffffffffffffffffffffffffffffffffffff168660020154876003015460405161073093929190611896565b60405180910390a460019350505050949350505050565b5f60015f8381526020019081526020015f209050600254821061079f576040517f08c379a0000000000000000000000000000000000000000000000000000000008152600401610796906114e5565b60405180910390fd5b806004015f9054906101000a900460ff166107ef576040517f08c379a00000000000000000000000000000000000000000000000000000000081526004016107e69061154d565b60405180910390fd5b80600301545f5f9054906101000a900473ffffffffffffffffffffffffffffffffffffffff1673ffffffffffffffffffffffffffffffffffffffff166370a08231336040518263ffffffff1660e01b815260040161084d91906118cb565b602060405180830381865afa158015610868573d5f5f3e3d5ffd5b505050506040513d601f19601f8201168201806040525081019061088c91906118f8565b10156108cd576040517f08c379a00000000000000000000000000000000000000000000000000000000081526004016108c490611739565b60405180910390fd5b5f816004015f6101000a81548160ff0219169083151502179055505f5f9054906101000a900473ffffffffffffffffffffffffffffffffffffffff1673ffffffffffffffffffffffffffffffffffffffff166323b872dd33835f015f9054906101000a900473ffffffffffffffffffffffffffffffffffffffff1684600301546040518463ffffffff1660e01b815260040161096b93929190611757565b6020604051808303815f875af1158015610987573d5f5f3e3d5ffd5b505050506040513d601f19601f820116820180604052508101906109ab91906117dd565b50806001015f9054906101000a900473ffffffffffffffffffffffffffffffffffffffff1673ffffffffffffffffffffffffffffffffffffffff166323b872dd825f015f9054906101000a900473ffffffffffffffffffffffffffffffffffffffff163384600201546040518463ffffffff1660e01b8152600401610a3293929190611757565b5f604051808303815f87803b158015610a49575f5ffd5b505af1158015610a5b573d5f5f3e3d5ffd5b50505050805f015f9054906101000a900473ffffffffffffffffffffffffffffffffffffffff1673ffffffffffffffffffffffffffffffffffffffff163373ffffffffffffffffffffffffffffffffffffffff16837f88f63fa89cb6cf4da421a869453f09e48f4a2e670eb9dac1f4cd89afa5333372846001015f9054906101000a900473ffffffffffffffffffffffffffffffffffffffff1685600201548660030154604051610b0e93929190611896565b60405180910390a45050565b5f8111610b5c576040517f08c379a0000000000000000000000000000000000000000000000000000000008152600401610b5390611993565b60405180910390fd5b5f73ffffffffffffffffffffffffffffffffffffffff168373ffffffffffffffffffffffffffffffffffffffff1603610bca576040517f08c379a0000000000000000000000000000000000000000000000000000000008152600401610bc190611a21565b60405180910390fd5b5f5f90505b600254811015610cd0578373ffffffffffffffffffffffffffffffffffffffff1660015f8381526020019081526020015f206001015f9054906101000a900473ffffffffffffffffffffffffffffffffffffffff1673ffffffffffffffffffffffffffffffffffffffff16148015610c5a57508260015f8381526020019081526020015f2060020154145b8015610c83575060015f8281526020019081526020015f206004015f9054906101000a900460ff165b15610cc3576040517f08c379a0000000000000000000000000000000000000000000000000000000008152600401610cba90611a89565b60405180910390fd5b8080600101915050610bcf565b505f8390505f8173ffffffffffffffffffffffffffffffffffffffff16636352211e856040518263ffffffff1660e01b8152600401610d0f919061125c565b602060405180830381865afa158015610d2a573d5f5f3e3d5ffd5b505050506040513d601f19601f82011682018060405250810190610d4e9190611abb565b90503373ffffffffffffffffffffffffffffffffffffffff168173ffffffffffffffffffffffffffffffffffffffff1614610dbe576040517f08c379a0000000000000000000000000000000000000000000000000000000008152600401610db590611b56565b60405180910390fd5b8173ffffffffffffffffffffffffffffffffffffffff1663e985e9c582306040518363ffffffff1660e01b8152600401610df9929190611b74565b602060405180830381865afa158015610e14573d5f5f3e3d5ffd5b505050506040513d601f19601f82011682018060405250810190610e3891906117dd565b80610ee557503073ffffffffffffffffffffffffffffffffffffffff168273ffffffffffffffffffffffffffffffffffffffff1663081812fc866040518263ffffffff1660e01b8152600401610e8e919061125c565b602060405180830381865afa158015610ea9573d5f5f3e3d5ffd5b505050506040513d601f19601f82011682018060405250810190610ecd9190611abb565b73ffffffffffffffffffffffffffffffffffffffff16145b610f24576040517f08c379a0000000000000000000000000000000000000000000000000000000008152600401610f1b90611c0b565b60405180910390fd5b5f60025490506040518060a001604052808373ffffffffffffffffffffffffffffffffffffffff1681526020018773ffffffffffffffffffffffffffffffffffffffff1681526020018681526020018581526020016001151581525060015f8381526020019081526020015f205f820151815f015f6101000a81548173ffffffffffffffffffffffffffffffffffffffff021916908373ffffffffffffffffffffffffffffffffffffffff1602179055506020820151816001015f6101000a81548173ffffffffffffffffffffffffffffffffffffffff021916908373ffffffffffffffffffffffffffffffffffffffff16021790555060408201518160020155606082015181600301556080820151816004015f6101000a81548160ff02191690831515021790555090505060025f81548092919061106390611c56565b91905055508573ffffffffffffffffffffffffffffffffffffffff168273ffffffffffffffffffffffffffffffffffffffff16827fb0fe4922ac99799c17a4130d5c045ba2ecdf6e15b75b9ea84aaf0dc28724a42b88886040516110c8929190611c9d565b60405180910390a4505050505050565b6001602052805f5260405f205f91509050805f015f9054906101000a900473ffffffffffffffffffffffffffffffffffffffff1690806001015f9054906101000a900473ffffffffffffffffffffffffffffffffffffffff1690806002015490806003015490806004015f9054906101000a900460ff16905085565b5f73ffffffffffffffffffffffffffffffffffffffff82169050919050565b5f819050919050565b5f61119661119161118c84611154565b611173565b611154565b9050919050565b5f6111a78261117c565b9050919050565b5f6111b88261119d565b9050919050565b6111c8816111ae565b82525050565b5f6020820190506111e15f8301846111bf565b92915050565b5f5ffd5b5f5ffd5b5f819050919050565b611201816111ef565b811461120b575f5ffd5b50565b5f8135905061121c816111f8565b92915050565b5f60208284031215611237576112366111e7565b5b5f6112448482850161120e565b91505092915050565b611256816111ef565b82525050565b5f60208201905061126f5f83018461124d565b92915050565b5f61127f82611154565b9050919050565b61128f81611275565b8114611299575f5ffd5b50565b5f813590506112aa81611286565b92915050565b5f5ffd5b5f5ffd5b5f5ffd5b5f5f83601f8401126112d1576112d06112b0565b5b8235905067ffffffffffffffff8111156112ee576112ed6112b4565b5b60208301915083600182028301111561130a576113096112b8565b5b9250929050565b5f5f5f5f60608587031215611329576113286111e7565b5b5f6113368782880161129c565b94505060206113478782880161120e565b935050604085013567ffffffffffffffff811115611368576113676111eb565b5b611374878288016112bc565b925092505092959194509250565b5f8115159050919050565b61139681611382565b82525050565b5f6020820190506113af5f83018461138d565b92915050565b5f5f5f606084860312156113cc576113cb6111e7565b5b5f6113d98682870161129c565b93505060206113ea8682870161120e565b92505060406113fb8682870161120e565b9150509250925092565b61140e81611275565b82525050565b5f60a0820190506114275f830188611405565b6114346020830187611405565b611441604083018661124d565b61144e606083018561124d565b61145b608083018461138d565b9695505050505050565b5f82825260208201905092915050565b7f4e46544d61726b65743a206c697374696e6720696420646f6573206e6f7420655f8201527f7869737400000000000000000000000000000000000000000000000000000000602082015250565b5f6114cf602483611465565b91506114da82611475565b604082019050919050565b5f6020820190508181035f8301526114fc816114c3565b9050919050565b7f4e46544d61726b65743a206c697374696e67206973206e6f74206163746976655f82015250565b5f611537602083611465565b915061154282611503565b602082019050919050565b5f6020820190508181035f8301526115648161152b565b9050919050565b7f4e46544d61726b65743a2063616c6c6572206973206e6f742073656c6c6572005f82015250565b5f61159f601f83611465565b91506115aa8261156b565b602082019050919050565b5f6020820190508181035f8301526115cc81611593565b9050919050565b7f4e46544d61726b65743a2063616c6c6572206973206e6f74207061796d656e745f8201527f20746f6b656e0000000000000000000000000000000000000000000000000000602082015250565b5f61162d602683611465565b9150611638826115d3565b604082019050919050565b5f6020820190508181035f83015261165a81611621565b9050919050565b7f4e46544d61726b65743a20696e76616c69642064617461206c656e67746800005f82015250565b5f611695601e83611465565b91506116a082611661565b602082019050919050565b5f6020820190508181035f8301526116c281611689565b9050919050565b7f4e46544d61726b65743a206e6f7420656e6f756768207061796d656e7420746f5f8201527f6b656e0000000000000000000000000000000000000000000000000000000000602082015250565b5f611723602383611465565b915061172e826116c9565b604082019050919050565b5f6020820190508181035f83015261175081611717565b9050919050565b5f60608201905061176a5f830186611405565b6117776020830185611405565b611784604083018461124d565b949350505050565b5f60408201905061179f5f830185611405565b6117ac602083018461124d565b9392505050565b6117bc81611382565b81146117c6575f5ffd5b50565b5f815190506117d7816117b3565b92915050565b5f602082840312156117f2576117f16111e7565b5b5f6117ff848285016117c9565b91505092915050565b7f4e46544d61726b65743a20746f6b656e207472616e7366657220746f2073656c5f8201527f6c6572206661696c656400000000000000000000000000000000000000000000602082015250565b5f611862602a83611465565b915061186d82611808565b604082019050919050565b5f6020820190508181035f83015261188f81611856565b9050919050565b5f6060820190506118a95f830186611405565b6118b6602083018561124d565b6118c3604083018461124d565b949350505050565b5f6020820190506118de5f830184611405565b92915050565b5f815190506118f2816111f8565b92915050565b5f6020828403121561190d5761190c6111e7565b5b5f61191a848285016118e4565b91505092915050565b7f4e46544d61726b65743a207072696365206d75737420626520677265617465725f8201527f207468616e207a65726f00000000000000000000000000000000000000000000602082015250565b5f61197d602a83611465565b915061198882611923565b604082019050919050565b5f6020820190508181035f8301526119aa81611971565b9050919050565b7f4e46544d61726b65743a206e667420636f6e74726163742061646472657373205f8201527f63616e6e6f74206265207a65726f000000000000000000000000000000000000602082015250565b5f611a0b602e83611465565b9150611a16826119b1565b604082019050919050565b5f6020820190508181035f830152611a38816119ff565b9050919050565b7f4e46544d61726b65743a206e667420697320616c7265616479206c69737465645f82015250565b5f611a73602083611465565b9150611a7e82611a3f565b602082019050919050565b5f6020820190508181035f830152611aa081611a67565b9050919050565b5f81519050611ab581611286565b92915050565b5f60208284031215611ad057611acf6111e7565b5b5f611add84828501611aa7565b91505092915050565b7f4e46544d61726b65743a2063616c6c6572206973206e6f7420746865206f776e5f8201527f6572000000000000000000000000000000000000000000000000000000000000602082015250565b5f611b40602283611465565b9150611b4b82611ae6565b604082019050919050565b5f6020820190508181035f830152611b6d81611b34565b9050919050565b5f604082019050611b875f830185611405565b611b946020830184611405565b9392505050565b7f4e46544d61726b65743a206d61726b6574206973206e6f7420617070726f76655f8201527f6420746f207472616e736665722074686973204e465400000000000000000000602082015250565b5f611bf5603683611465565b9150611c0082611b9b565b604082019050919050565b5f6020820190508181035f830152611c2281611be9565b9050919050565b7f4e487b71000000000000000000000000000000000000000000000000000000005f52601160045260245ffd5b5f611c60826111ef565b91507fffffffffffffffffffffffffffffffffffffffffffffffffffffffffffffffff8203611c9257611c91611c29565b5b600182019050919050565b5f604082019050611cb05f83018561124d565b611cbd602083018461124d565b939250505056fea26469706673582212200fc33621f7d48d9ec66e27352e6e3821aab28ef78222c6e54791144b6f54be7564736f6c634300081e0033","linkReferences":{}},"methodIdentifiers":{"buy(uint256)":"d96a094a","cancelListing(uint256)":"305a67a8","list(address,uint256,uint256)":"dda342bb","listings(uint256)":"de74e57b","nextListingId()":"aaccf1ec","paymentToken()":"3013ce29","tokensReceived(address,uint256,bytes)":"d0314263"},"id":35}