{"abi":[{"type":"constructor","inputs":[{"name":"_paymentTokenAddress","type":"address","internalType":"address"}],"stateMutability":"nonpayable"},{"type":"function","name":"buy","inputs":[{"name":"_listingId","type":"uint256","internalType":"uint256"}],"outputs":[],"stateMutability":"nonpayable"},{"type":"function","name":"cancelListing","inputs":[{"name":"_listingId","type":"uint256","internalType":"uint256"}],"outputs":[],"stateMutability":"nonpayable"},{"type":"function","name":"list","inputs":[{"name":"_nftContract","type":"address","internalType":"address"},{"name":"_tokenId","type":"uint256","internalType":"uint256"},{"name":"_price","type":"uint256","internalType":"uint256"}],"outputs":[],"stateMutability":"nonpayable"},{"type":"function","name":"listings","inputs":[{"name":"","type":"uint256","internalType":"uint256"}],"outputs":[{"name":"seller","type":"address","internalType":"address"},{"name":"nftContract","type":"address","internalType":"address"},{"name":"tokenId","type":"uint256","internalType":"uint256"},{"name":"price","type":"uint256","internalType":"uint256"},{"name":"isActive","type":"bool","internalType":"bool"}],"stateMutability":"view"},{"type":"function","name":"nextListingId","inputs":[],"outputs":[{"name":"","type":"uint256","internalType":"uint256"}],"stateMutability":"view"},{"type":"function","name":"paymentToken","inputs":[],"outputs":[{"name":"","type":"address","internalType":"contract IExtendedERC20"}],"stateMutability":"view"},{"type":"function","name":"tokensReceived","inputs":[{"name":"from","type":"address","internalType":"address"},{"name":"amount","type":"uint256","internalType":"uint256"},{"name":"data","type":"bytes","internalType":"bytes"}],"outputs":[{"name":"","type":"bool","internalType":"bool"}],"stateMutability":"nonpayable"},{"type":"event","name":"NFTListed","inputs":[{"name":"listingId","type":"uint256","indexed":true,"internalType":"uint256"},{"name":"seller","type":"address","indexed":true,"internalType":"address"},{"name":"nftContract","type":"address","indexed":true,"internalType":"address"},{"name":"tokenId","type":"uint256","indexed":false,"internalType":"uint256"},{"name":"price","type":"uint256","indexed":false,"internalType":"uint256"}],"anonymous":false},{"type":"event","name":"NFTListingCancelled","inputs":[{"name":"listingId","type":"uint256","indexed":true,"internalType":"uint256"}],"anonymous":false},{"type":"event","name":"NFTSold","inputs":[{"name":"listingId","type":"uint256","indexed":true,"internalType":"uint256"},{"name":"buyer","type":"address","indexed":true,"internalType":"address"},{"name":"seller","type":"address","indexed":true,"internalType":"address"},{"name":"nftContract","type":"address","indexed":false,"internalType":"address"},{"name":"tokenId","type":"uint256","indexed":false,"internalType":"uint256"},{"name":"price","type":"uint256","indexed":false,"internalType":"uint256"}],"anonymous":false}],"bytecode":{"object":"0x60806040523461002f576100196100146100f4565b610277565b610021610034565b611c326102b18239611c3290f35b61003a565b60405190565b5f80fd5b601f801991011690565b634e487b7160e01b5f52604160045260245ffd5b906100669061003e565b810190811060018060401b0382111761007e57604052565b610048565b9061009661008f610034565b928361005c565b565b5f80fd5b60018060a01b031690565b6100b09061009c565b90565b6100bc816100a7565b036100c357565b5f80fd5b905051906100d4826100b3565b565b906020828203126100ef576100ec915f016100c7565b90565b610098565b610112611ee38038038061010781610083565b9283398101906100d6565b90565b90565b90565b61012f61012a61013492610115565b610118565b61009c565b90565b6101409061011b565b90565b60209181520190565b60207f2063616e6e6f74206265207a65726f0000000000000000000000000000000000917f4e46544d61726b65743a207061796d656e7420746f6b656e20616464726573735f8201520152565b6101a6602f604092610143565b6101af8161014c565b0190565b6101c89060208101905f818303910152610199565b90565b156101d257565b6101da610034565b62461bcd60e51b8152806101f0600482016101b3565b0390fd5b61020861020361020d9261009c565b610118565b61009c565b90565b610219906101f4565b90565b61022590610210565b90565b5f1b90565b9061023e60018060a01b0391610228565b9181191691161790565b61025190610210565b90565b90565b9061026c61026761027392610248565b610254565b825461022d565b9055565b6102a86102ae916102a38161029c6102966102915f610137565b6100a7565b916100a7565b14156101cb565b61021c565b5f610257565b56fe60806040526004361015610013575b6105f1565b61001d5f3561008c565b80633013ce2914610087578063305a67a814610082578063aaccf1ec1461007d578063d031426314610078578063d96a094a14610073578063dda342bb1461006e5763de74e57b0361000e576105b8565b610433565b6103c6565b61038d565b610265565b6101d8565b610156565b60e01c90565b60405190565b5f80fd5b5f80fd5b5f9103126100aa57565b61009c565b1c90565b60018060a01b031690565b6100ce9060086100d393026100af565b6100b3565b90565b906100e191546100be565b90565b6100ef5f5f906100d6565b90565b60018060a01b031690565b90565b61011461010f610119926100f2565b6100fd565b6100f2565b90565b61012590610100565b90565b6101319061011c565b90565b61013d90610128565b9052565b9190610154905f60208501940190610134565b565b34610186576101663660046100a0565b6101826101716100e4565b610179610092565b91829182610141565b0390f35b610098565b5f80fd5b90565b61019b8161018f565b036101a257565b5f80fd5b905035906101b382610192565b565b906020828203126101ce576101cb915f016101a6565b90565b61009c565b5f0190565b34610206576101f06101eb3660046101b5565b6107f6565b6101f8610092565b80610202816101d3565b0390f35b610098565b90565b61021e90600861022393026100af565b61020b565b90565b90610231915461020e565b90565b61024060025f90610226565b90565b61024c9061018f565b9052565b9190610263905f60208501940190610243565b565b34610295576102753660046100a0565b610291610280610234565b610288610092565b91829182610250565b0390f35b610098565b6102a3906100f2565b90565b6102af8161029a565b036102b657565b5f80fd5b905035906102c7826102a6565b565b5f80fd5b5f80fd5b5f80fd5b909182601f8301121561030f5781359167ffffffffffffffff831161030a57602001926001830284011161030557565b6102d1565b6102cd565b6102c9565b916060838303126103615761032b825f85016102ba565b9261033983602083016101a6565b92604082013567ffffffffffffffff811161035c5761035892016102d5565b9091565b61018b565b61009c565b151590565b61037490610366565b9052565b919061038b905f6020850194019061036b565b565b346103c1576103bd6103ac6103a3366004610314565b92919091610ce2565b6103b4610092565b91829182610378565b0390f35b610098565b346103f4576103de6103d93660046101b5565b610fc6565b6103e6610092565b806103f0816101d3565b0390f35b610098565b909160608284031261042e5761042b610414845f85016102ba565b9361042281602086016101a6565b936040016101a6565b90565b61009c565b346104625761044c6104463660046103f9565b91611813565b610454610092565b8061045e816101d3565b0390f35b610098565b61047b6104766104809261018f565b6100fd565b61018f565b90565b9061048d90610467565b5f5260205260405f2090565b5f1c90565b60018060a01b031690565b6104b56104ba91610499565b61049e565b90565b6104c790546104a9565b90565b6104d66104db91610499565b61020b565b90565b6104e890546104ca565b90565b60ff1690565b6104fd61050291610499565b6104eb565b90565b61050f90546104f1565b90565b61051d906001610483565b6105285f82016104bd565b91610535600183016104bd565b91610542600282016104de565b9161055b6004610554600385016104de565b9301610505565b90565b6105679061029a565b9052565b909594926105b6946105a56105af9261059b60809661059160a088019c5f89019061055e565b602087019061055e565b6040850190610243565b6060830190610243565b019061036b565b565b346105ec576105e86105d36105ce3660046101b5565b610512565b916105df959395610092565b9586958661056b565b0390f35b610098565b5f80fd5b90565b60209181520190565b60207f7869737400000000000000000000000000000000000000000000000000000000917f4e46544d61726b65743a206c697374696e6720696420646f6573206e6f7420655f8201520152565b61065b60246040926105f8565b61066481610601565b0190565b61067d9060208101905f81830391015261064e565b90565b1561068757565b61068f610092565b62461bcd60e51b8152806106a560048201610668565b0390fd5b5f7f4e46544d61726b65743a206c697374696e67206973206e6f7420616374697665910152565b6106dc602080926105f8565b6106e5816106a9565b0190565b6106fe9060208101905f8183039101526106d0565b90565b1561070857565b610710610092565b62461bcd60e51b815280610726600482016106e9565b0390fd5b5f7f4e46544d61726b65743a2063616c6c6572206973206e6f742073656c6c657200910152565b61075e601f6020926105f8565b6107678161072a565b0190565b6107809060208101905f818303910152610751565b90565b1561078a57565b610792610092565b62461bcd60e51b8152806107a86004820161076b565b0390fd5b5f1b90565b906107bd60ff916107ac565b9181191691161790565b6107d090610366565b90565b90565b906107eb6107e66107f2926107c7565b6107d3565b82546107b1565b9055565b61087661080d61080860018490610483565b6105f5565b6108328361082c61082661082160026104de565b61018f565b9161018f565b10610680565b61084661084160048301610505565b610701565b61086c6108545f83016104bd565b6108666108603361029a565b9161029a565b14610783565b60045f91016107d6565b6108a07fc46ea9fee66461db46a6ac51d560a291533b66981fb9c09ca8948e8dc8d4247291610467565b906108a9610092565b806108b3816101d3565b0390a2565b5f90565b6108c86108cd91610499565b6100b3565b90565b6108da90546108bc565b90565b60207f20746f6b656e0000000000000000000000000000000000000000000000000000917f4e46544d61726b65743a2063616c6c6572206973206e6f74207061796d656e745f8201520152565b61093760266040926105f8565b610940816108dd565b0190565b6109599060208101905f81830391015261092a565b90565b1561096357565b61096b610092565b62461bcd60e51b81528061098160048201610944565b0390fd5b5090565b90565b6109a061099b6109a592610989565b6100fd565b61018f565b90565b5f7f4e46544d61726b65743a20696e76616c69642064617461206c656e6774680000910152565b6109dc601e6020926105f8565b6109e5816109a8565b0190565b6109fe9060208101905f8183039101526109cf565b90565b15610a0857565b610a10610092565b62461bcd60e51b815280610a26600482016109e9565b0390fd5b60207f6b656e0000000000000000000000000000000000000000000000000000000000917f4e46544d61726b65743a206e6f7420656e6f756768207061796d656e7420746f5f8201520152565b610a8460236040926105f8565b610a8d81610a2a565b0190565b610aa69060208101905f818303910152610a77565b90565b15610ab057565b610ab8610092565b62461bcd60e51b815280610ace60048201610a91565b0390fd5b610adb90610100565b90565b610ae790610ad2565b90565b610af39061011c565b90565b5f80fd5b601f801991011690565b634e487b7160e01b5f52604160045260245ffd5b90610b2290610afa565b810190811067ffffffffffffffff821117610b3c57604052565b610b04565b60e01b90565b5f910312610b5157565b61009c565b604090610b7f610b869496959396610b7560608401985f85019061055e565b602083019061055e565b0190610243565b565b610b90610092565b3d5f823e3d90fd5b610ba181610366565b03610ba857565b5f80fd5b90505190610bb982610b98565b565b90602082820312610bd457610bd1915f01610bac565b90565b61009c565b916020610bfa929493610bf360408201965f83019061055e565b0190610243565b565b60207f6c6572206661696c656400000000000000000000000000000000000000000000917f4e46544d61726b65743a20746f6b656e207472616e7366657220746f2073656c5f8201520152565b610c56602a6040926105f8565b610c5f81610bfc565b0190565b610c789060208101905f818303910152610c49565b90565b15610c8257565b610c8a610092565b62461bcd60e51b815280610ca060048201610c63565b0390fd5b610cad9061011c565b90565b604090610cd9610ce09496959396610ccf60608401985f85019061055e565b6020830190610243565b0190610243565b565b9192610d4e9193610cf16108b8565b50610d1e33610d18610d12610d0d610d085f6108d0565b610128565b61029a565b9161029a565b1461095c565b610d45610d2c828490610985565b610d3f610d39602061098c565b9161018f565b14610a01565b908101906101b5565b610d62610d5d60018390610483565b6105f5565b92610d77610d7260048601610505565b610701565b610d9f81610d98610d92610d8d600389016104de565b61018f565b9161018f565b1015610aa9565b610dac5f600486016107d6565b610dc8610dc3610dbe600187016104bd565b610ade565b610aea565b6323b872dd610dd85f87016104bd565b8592610de6600289016104de565b92813b15610f7f575f610e0c91610e178296610e00610092565b98899788968795610b41565b855260048501610b56565b03925af18015610f7a57610f4e575b506020610e3a610e355f6108d0565b610128565b9163a9059cbb92610e695f610e50818a016104bd565b9395610e74610e5d610092565b97889687958694610b41565b845260048401610bd9565b03925af18015610f4957610e8f915f91610f1b575b50610c7b565b90610e9b5f84016104bd565b91610ea8600185016104bd565b93610ec16003610eba600284016104de565b92016104de565b94610f13610f01610efb610ef57f88f63fa89cb6cf4da421a869453f09e48f4a2e670eb9dac1f4cd89afa533337296610467565b96610ca4565b96610ca4565b96610f0a610092565b93849384610cb0565b0390a4600190565b610f3c915060203d8111610f42575b610f348183610b18565b810190610bbb565b5f610e89565b503d610f2a565b610b88565b610f6d905f3d8111610f73575b610f658183610b18565b810190610b47565b5f610e26565b503d610f5b565b610b88565b610af6565b90505190610f9182610192565b565b90602082820312610fac57610fa9915f01610f84565b90565b61009c565b9190610fc4905f6020850194019061055e565b565b610fda610fd560018390610483565b6105f5565b9061100081610ffa610ff4610fef60026104de565b61018f565b9161018f565b10610680565b61101461100f60048401610505565b610701565b611054602061102a6110255f6108d0565b610128565b6370a0823190611049339261103d610092565b95869485938493610b41565b835260048301610fb1565b03915afa801561129d5761108e915f9161126f575b5061108761108161107c600387016104de565b61018f565b9161018f565b1015610aa9565b61109b5f600484016107d6565b6110ac6110a75f6108d0565b610128565b60206323b872dd9133906110e95f6110c58189016104bd565b956110f46110d560038b016104de565b6110dd610092565b98899788968795610b41565b855260048501610b56565b03925af1801561126a5761123e575b5061112061111b611116600185016104bd565b610ade565b610aea565b6323b872dd6111305f85016104bd565b339261113e600287016104de565b92813b15611239575f6111649161116f8296611158610092565b98899788968795610b41565b855260048501610b56565b03925af1801561123457611208575b503361118b5f84016104bd565b91611198600185016104bd565b936111b160036111aa600284016104de565b92016104de565b946112036111f16111eb6111e57f88f63fa89cb6cf4da421a869453f09e48f4a2e670eb9dac1f4cd89afa533337296610467565b96610ca4565b96610ca4565b966111fa610092565b93849384610cb0565b0390a4565b611227905f3d811161122d575b61121f8183610b18565b810190610b47565b5f61117e565b503d611215565b610b88565b610af6565b61125e9060203d8111611263575b6112568183610b18565b810190610bbb565b611103565b503d61124c565b610b88565b611290915060203d8111611296575b6112888183610b18565b810190610f93565b5f611069565b503d61127e565b610b88565b90565b6112b96112b46112be926112a2565b6100fd565b61018f565b90565b60207f207468616e207a65726f00000000000000000000000000000000000000000000917f4e46544d61726b65743a207072696365206d75737420626520677265617465725f8201520152565b61131b602a6040926105f8565b611324816112c1565b0190565b61133d9060208101905f81830391015261130e565b90565b1561134757565b61134f610092565b62461bcd60e51b81528061136560048201611328565b0390fd5b61137d611378611382926112a2565b6100fd565b6100f2565b90565b61138e90611369565b90565b60207f63616e6e6f74206265207a65726f000000000000000000000000000000000000917f4e46544d61726b65743a206e667420636f6e74726163742061646472657373205f8201520152565b6113eb602e6040926105f8565b6113f481611391565b0190565b61140d9060208101905f8183039101526113de565b90565b1561141757565b61141f610092565b62461bcd60e51b815280611435600482016113f8565b0390fd5b6001611445910161018f565b90565b5f7f4e46544d61726b65743a206e667420697320616c7265616479206c6973746564910152565b61147b602080926105f8565b61148481611448565b0190565b61149d9060208101905f81830391015261146f565b90565b905051906114ad826102a6565b565b906020828203126114c8576114c5915f016114a0565b90565b61009c565b60207f6572000000000000000000000000000000000000000000000000000000000000917f4e46544d61726b65743a2063616c6c6572206973206e6f7420746865206f776e5f8201520152565b61152760226040926105f8565b611530816114cd565b0190565b6115499060208101905f81830391015261151a565b90565b1561155357565b61155b610092565b62461bcd60e51b81528061157160048201611534565b0390fd5b61157e9061011c565b90565b9160206115a292949361159b60408201965f83019061055e565b019061055e565b565b60207f6420746f207472616e736665722074686973204e465400000000000000000000917f4e46544d61726b65743a206d61726b6574206973206e6f7420617070726f76655f8201520152565b6115fe60366040926105f8565b611607816115a4565b0190565b6116209060208101905f8183039101526115f1565b90565b1561162a57565b611632610092565b62461bcd60e51b8152806116486004820161160b565b0390fd5b9061165f611658610092565b9283610b18565b565b61166b60a061164c565b90565b906116789061029a565b9052565b906116869061018f565b9052565b9061169490610366565b9052565b6116a2905161029a565b90565b906116b660018060a01b03916107ac565b9181191691161790565b90565b906116d86116d36116df92610ca4565b6116c0565b82546116a5565b9055565b6116ed905161018f565b90565b906116fc5f19916107ac565b9181191691161790565b90565b9061171e61171961172592610467565b611706565b82546116f0565b9055565b6117339051610366565b90565b906117ac608060046117b2946117595f82016117535f8801611698565b906116c3565b6117726001820161176c60208801611698565b906116c3565b61178b60028201611785604088016116e3565b90611709565b6117a46003820161179e606088016116e3565b90611709565b019201611729565b906107d6565b565b906117be91611736565b565b634e487b7160e01b5f52601160045260245ffd5b6117dd9061018f565b5f1981146117eb5760010190565b6117c0565b91602061181192949361180a60408201965f830190610243565b0190610243565b565b9091926118328461182c6118265f6112a5565b9161018f565b11611340565b6118578261185061184a6118455f611385565b61029a565b9161029a565b1415611410565b6118605f6112a5565b5b8061187d61187761187260026104de565b61018f565b9161018f565b1015611939576118996001611893818490610483565b016104bd565b6118ab6118a58561029a565b9161029a565b1480611909575b806118ec575b6118ca576118c590611439565b611861565b6118d2610092565b62461bcd60e51b8152806118e860048201611488565b0390fd5b5061190460046118fe60018490610483565b01610505565b6118b8565b50611921600261191b60018490610483565b016104de565b61193361192d8661018f565b9161018f565b146118b2565b5092919061194681610ade565b61197e602061195483610aea565b636352211e906119738792611967610092565b95869485938493610b41565b835260048301610250565b03915afa908115611bf7575f91611bc9575b50906119ae826119a86119a23361029a565b9161029a565b1461154c565b6119b781610aea565b602063e985e9c59184906119e56119cd30611575565b946119f06119d9610092565b96879586948594610b41565b845260048401611581565b03915afa908115611bc4575f91611b96575b508015611af4575b611a149150611623565b611a1e60026104de565b611a7e82611a6d85611a6488611a5b8b91611a52600195611a49611a40611661565b995f8b0161166e565b6020890161166e565b6040870161167c565b6060850161167c565b6080830161168a565b611a7960018490610483565b6117b4565b611a9a611a93611a8e60026104de565b6117d4565b6002611709565b90919293611ada611ad4611ace7fb0fe4922ac99799c17a4130d5c045ba2ecdf6e15b75b9ea84aaf0dc28724a42b94610467565b94610ca4565b94610ca4565b94611aef611ae6610092565b928392836117f0565b0390a4565b506020611b03611b2d92610aea565b63081812fc90611b228792611b16610092565b95869485938493610b41565b835260048301610250565b03915afa8015611b9157611a14915f91611b63575b50611b5d611b57611b5230611575565b61029a565b9161029a565b14611a0a565b611b84915060203d8111611b8a575b611b7c8183610b18565b8101906114af565b5f611b42565b503d611b72565b610b88565b611bb7915060203d8111611bbd575b611baf8183610b18565b810190610bbb565b5f611a02565b503d611ba5565b610b88565b611bea915060203d8111611bf0575b611be28183610b18565b8101906114af565b5f611990565b503d611bd8565b610b8856fea2646970667358221220eff0ba19d7728aa190b88f64fcff40adef1418e791723c21dfd2c47f6ca05e6064736f6c634300081e0033","linkReferences":{}},"methodIdentifiers":{"buy(uint256)":"d96a094a","cancelListing(uint256)":"305a67a8","list(address,uint256,uint256)":"dda342bb","listings(uint256)":"de74e57b","nextListingId()":"aaccf1ec","paymentToken()":"3013ce29","tokensReceived(address,uint256,bytes)":"d0314263"},"id":58}