{"abi":[{"type":"function","name":"getData","inputs":[],"outputs":[{"name":"","type":"string","internalType":"string"}],"stateMutability":"view"},{"type":"function","name":"setData","inputs":[{"name":"newData","type":"string","internalType":"string"}],"outputs":[],"stateMutability":"nonpayable"}],"bytecode":{"object":"0x608060405234601c57600e6020565b6105d661002b82396105d690f35b6026565b60405190565b5f80fdfe60806040526004361015610013575b610251565b61001d5f3561003c565b80633bc5de3014610037576347064d6a0361000e5761021e565b6100ca565b60e01c90565b60405190565b5f80fd5b5f80fd5b5f91031261005a57565b61004c565b5190565b60209181520190565b90825f9392825e0152565b601f801991011690565b6100a06100a96020936100ae936100978161005f565b93848093610063565b9586910161006c565b610077565b0190565b6100c79160208201915f818403910152610081565b90565b346100fa576100da366004610050565b6100f66100e5610371565b6100ed610042565b918291826100b2565b0390f35b610048565b5f80fd5b5f80fd5b5f80fd5b634e487b7160e01b5f52604160045260245ffd5b9061012990610077565b810190811067ffffffffffffffff82111761014357604052565b61010b565b9061015b610154610042565b928361011f565b565b67ffffffffffffffff811161017b57610177602091610077565b0190565b61010b565b90825f939282370152565b909291926101a061019b8261015d565b610148565b938185526020850190828401116101bc576101ba92610180565b565b610107565b9080601f830112156101df578160206101dc9335910161018b565b90565b610103565b90602082820312610214575f82013567ffffffffffffffff811161020f5761020c92016101c1565b90565b6100ff565b61004c565b5f0190565b3461024c576102366102313660046101e4565b610594565b61023e610042565b8061024881610219565b0390f35b610048565b5f80fd5b606090565b634e487b7160e01b5f52602260045260245ffd5b906001600283049216801561028e575b602083101461028957565b61025a565b91607f169161027e565b60209181520190565b5f5260205f2090565b905f92918054906102c46102bd8361026e565b8094610298565b916001811690815f1461031b57506001146102df575b505050565b6102ec91929394506102a1565b915f925b81841061030357505001905f80806102da565b600181602092959395548486015201910192906102f0565b92949550505060ff19168252151560200201905f80806102da565b90610340916102aa565b90565b9061036361035c92610353610042565b93848092610336565b038361011f565b565b61036e90610343565b90565b610379610255565b506103835f610365565b90565b601f602091010490565b1b90565b919060086103af9102916103a95f1984610390565b92610390565b9181191691161790565b90565b90565b6103d36103ce6103d8926103b9565b6103bc565b6103b9565b90565b90565b91906103f46103ef6103fc936103bf565b6103db565b908354610394565b9055565b5f90565b61041691610410610400565b916103de565b565b5b818110610424575050565b806104315f600193610404565b01610419565b9190601f8111610447575b505050565b610453610478936102a1565b90602061045f84610386565b83019310610480575b61047190610386565b0190610418565b5f8080610442565b915061047181929050610468565b1c90565b906104a2905f199060080261048e565b191690565b816104b191610492565b906002021790565b906104c38161005f565b9067ffffffffffffffff8211610583576104e7826104e1855461026e565b85610437565b602090601f831160011461051b5791809161050a935f9261050f575b50506104a7565b90555b565b90915001515f80610503565b601f1983169161052a856102a1565b925f5b81811061056b57509160029391856001969410610551575b5050500201905561050d565b610561910151601f841690610492565b90555f8080610545565b9193602060018192878701518155019501920161052d565b61010b565b90610592916104b9565b565b61059e905f610588565b56fea26469706673582212201c1562cbdbf4a117b1c73f79bbd579d814e888a6f0e6b137eed97d7cf259d95f64736f6c634300081e0033","linkReferences":{}},"methodIdentifiers":{"getData()":"3bc5de30","setData(string)":"47064d6a"},"id":51}