{"abi":[{"type":"constructor","inputs":[{"name":"_dataStorageAddress","type":"address","internalType":"address"}],"stateMutability":"nonpayable"},{"type":"function","name":"getDataByABI","inputs":[],"outputs":[{"name":"","type":"string","internalType":"string"}],"stateMutability":"nonpayable"},{"type":"function","name":"setDataByABI1","inputs":[{"name":"newData","type":"string","internalType":"string"}],"outputs":[{"name":"","type":"bool","internalType":"bool"}],"stateMutability":"nonpayable"},{"type":"function","name":"setDataByABI2","inputs":[{"name":"newData","type":"string","internalType":"string"}],"outputs":[{"name":"","type":"bool","internalType":"bool"}],"stateMutability":"nonpayable"},{"type":"function","name":"setDataByABI3","inputs":[{"name":"newData","type":"string","internalType":"string"}],"outputs":[{"name":"","type":"bool","internalType":"bool"}],"stateMutability":"nonpayable"}],"bytecode":{"object":"0x60806040523461002f576100196100146100f4565b61018f565b610021610034565b61072361019c823961072390f35b61003a565b60405190565b5f80fd5b601f801991011690565b634e487b7160e01b5f52604160045260245ffd5b906100669061003e565b810190811060018060401b0382111761007e57604052565b610048565b9061009661008f610034565b928361005c565b565b5f80fd5b60018060a01b031690565b6100b09061009c565b90565b6100bc816100a7565b036100c357565b5f80fd5b905051906100d4826100b3565b565b906020828203126100ef576100ec915f016100c7565b90565b610098565b6101126108bf8038038061010781610083565b9283398101906100d6565b90565b5f1b90565b9061012b60018060a01b0391610115565b9181191691161790565b90565b61014c6101476101519261009c565b610135565b61009c565b90565b61015d90610138565b90565b61016990610154565b90565b90565b9061018461017f61018b92610160565b61016c565b825461011a565b9055565b610199905f61016f565b56fe60806040526004361015610013575b61026d565b61001d5f3561005c565b80632971e81f14610057578063424d571c1461005257806370d1c75b1461004d576376db04d40361000e57610237565b610202565b610152565b61011c565b60e01c90565b60405190565b5f80fd5b5f80fd5b5f80fd5b5f80fd5b5f80fd5b5f80fd5b909182601f830112156100ba5781359167ffffffffffffffff83116100b55760200192600183028401116100b057565b61007c565b610078565b610074565b906020828203126100f0575f82013567ffffffffffffffff81116100eb576100e79201610080565b9091565b610070565b61006c565b151590565b610103906100f5565b9052565b919061011a905f602085019401906100fa565b565b3461014d576101496101386101323660046100bf565b9061042a565b610140610062565b91829182610107565b0390f35b610068565b346101835761017f61016e6101683660046100bf565b906104ae565b610176610062565b91829182610107565b0390f35b610068565b5f91031261019257565b61006c565b5190565b60209181520190565b90825f9392825e0152565b601f801991011690565b6101d86101e16020936101e6936101cf81610197565b9384809361019b565b958691016101a4565b6101af565b0190565b6101ff9160208201915f8184039101526101b9565b90565b3461023257610212366004610188565b61022e61021d610601565b610225610062565b918291826101ea565b0390f35b610068565b346102685761026461025361024d3660046100bf565b90610681565b61025b610062565b91829182610107565b0390f35b610068565b5f80fd5b5f90565b90825f939282370152565b919061029a816102938161029f9561019b565b8095610275565b6101af565b0190565b90916102ba9260208301925f818503910152610280565b90565b634e487b7160e01b5f52604160045260245ffd5b906102db906101af565b810190811067ffffffffffffffff8211176102f557604052565b6102bd565b5f1c90565b60018060a01b031690565b61031661031b916102fa565b6102ff565b90565b610328905461030a565b90565b9061033e610337610062565b92836102d1565b565b67ffffffffffffffff811161035e5761035a6020916101af565b0190565b6102bd565b9061037561037083610340565b61032b565b918252565b606090565b3d5f1461039a5761038f3d610363565b903d5f602084013e5b565b6103a261037a565b90610398565b5f7f63616c6c2066756e6374696f6e206661696c6564000000000000000000000000910152565b6103dc601460209261019b565b6103e5816103a8565b0190565b6103fe9060208101905f8183039101526103cf565b90565b1561040857565b610410610062565b62461bcd60e51b815280610426600482016103e9565b0390fd5b5f9161046d8392610439610271565b5061045e610445610062565b93849260046020850163238326b560e11b8152016102a3565b602082018103825203826102d1565b6104768261031e565b9082602082019151925af161048961037f565b5061049381610401565b90565b63ffffffff60e01b1690565b6104ab90610496565b90565b60046105155f939261050685946104c3610271565b506104ed7f47064d6aa29f488005958074e13949b6ec4c3273d7f48b2e1888852d083677696104a2565b926104f6610062565b95869460208601908152016102a3565b602082018103825203826102d1565b61051e8261031e565b9082602082019151925af161053161037f565b5061053b81610401565b90565b606090565b5f0190565b5f80fd5b67ffffffffffffffff811161056a576105666020916101af565b0190565b6102bd565b9092919261058461057f8261054c565b61032b565b938185526020850190828401116105a05761059e926101a4565b565b610548565b9080601f830112156105c3578160206105c09351910161056f565b90565b610074565b906020828203126105f8575f82015167ffffffffffffffff81116105f3576105f092016105a5565b90565b610070565b61006c565b5190565b61060961053e565b5061067e5f80610617610062565b610643816106346004602083016303bc5de360e41b815201610543565b602082018103825203826102d1565b61064c8261031e565b9082602082019151925af161066861066261037f565b91610401565b6020610673826105fd565b8183010191016105c8565b90565b5f916106c48392610690610271565b506106b561069c610062565b93849260046020850163238326b560e11b8152016102a3565b602082018103825203826102d1565b6106cd8261031e565b9082602082019151925af16106e061037f565b506106ea81610401565b9056fea2646970667358221220a7d31e3704fc7b08ddbb47b680522aabca8c70a85eaca4906b32e010842c1a9764736f6c634300081e0033","linkReferences":{}},"methodIdentifiers":{"getDataByABI()":"70d1c75b","setDataByABI1(string)":"2971e81f","setDataByABI2(string)":"424d571c","setDataByABI3(string)":"76db04d4"},"id":51}