{"abi":[{"type":"constructor","inputs":[{"name":"_dataStorageAddress","type":"address","internalType":"address"}],"stateMutability":"nonpayable"},{"type":"function","name":"getDataByABI","inputs":[],"outputs":[{"name":"","type":"string","internalType":"string"}],"stateMutability":"nonpayable"},{"type":"function","name":"setDataByABI1","inputs":[{"name":"newData","type":"string","internalType":"string"}],"outputs":[{"name":"","type":"bool","internalType":"bool"}],"stateMutability":"nonpayable"},{"type":"function","name":"setDataByABI2","inputs":[{"name":"newData","type":"string","internalType":"string"}],"outputs":[{"name":"","type":"bool","internalType":"bool"}],"stateMutability":"nonpayable"},{"type":"function","name":"setDataByABI3","inputs":[{"name":"newData","type":"string","internalType":"string"}],"outputs":[{"name":"","type":"bool","internalType":"bool"}],"stateMutability":"nonpayable"}],"bytecode":{"object":"0x608060405234801561000f575f5ffd5b50604051610bae380380610bae833981810160405281019061003191906100d4565b805f5f6101000a81548173ffffffffffffffffffffffffffffffffffffffff021916908373ffffffffffffffffffffffffffffffffffffffff160217905550506100ff565b5f5ffd5b5f73ffffffffffffffffffffffffffffffffffffffff82169050919050565b5f6100a38261007a565b9050919050565b6100b381610099565b81146100bd575f5ffd5b50565b5f815190506100ce816100aa565b92915050565b5f602082840312156100e9576100e8610076565b5b5f6100f6848285016100c0565b91505092915050565b610aa28061010c5f395ff3fe608060405234801561000f575f5ffd5b506004361061004a575f3560e01c80632971e81f1461004e578063424d571c1461007e57806370d1c75b146100ae57806376db04d4146100cc575b5f5ffd5b610068600480360381019061006391906106df565b6100fc565b6040516100759190610744565b60405180910390f35b610098600480360381019061009391906106df565b610263565b6040516100a59190610744565b60405180910390f35b6100b66103d0565b6040516100c391906107cd565b60405180910390f35b6100e660048036038101906100e191906106df565b61053e565b6040516100f39190610744565b60405180910390f35b5f5f8383604051602401610111929190610827565b6040516020818303038152906040527f47064d6a000000000000000000000000000000000000000000000000000000007bffffffffffffffffffffffffffffffffffffffffffffffffffffffff19166020820180517bffffffffffffffffffffffffffffffffffffffffffffffffffffffff838183161783525050505090505f5f5f9054906101000a900473ffffffffffffffffffffffffffffffffffffffff1673ffffffffffffffffffffffffffffffffffffffff16826040516101d6919061088d565b5f604051808303815f865af19150503d805f811461020f576040519150601f19603f3d011682016040523d82523d5f602084013e610214565b606091505b5050905080610258576040517f08c379a000000000000000000000000000000000000000000000000000000000815260040161024f906108ed565b60405180910390fd5b809250505092915050565b5f5f7f47064d6aa29f488005958074e13949b6ec4c3273d7f48b2e1888852d0836776990505f81858560405160240161029d929190610827565b604051602081830303815290604052907bffffffffffffffffffffffffffffffffffffffffffffffffffffffff19166020820180517bffffffffffffffffffffffffffffffffffffffffffffffffffffffff838183161783525050505090505f5f5f9054906101000a900473ffffffffffffffffffffffffffffffffffffffff1673ffffffffffffffffffffffffffffffffffffffff1682604051610342919061088d565b5f604051808303815f865af19150503d805f811461037b576040519150601f19603f3d011682016040523d82523d5f602084013e610380565b606091505b50509050806103c4576040517f08c379a00000000000000000000000000000000000000000000000000000000081526004016103bb906108ed565b60405180910390fd5b80935050505092915050565b60605f6040516024016040516020818303038152906040527f3bc5de30000000000000000000000000000000000000000000000000000000007bffffffffffffffffffffffffffffffffffffffffffffffffffffffff19166020820180517bffffffffffffffffffffffffffffffffffffffffffffffffffffffff838183161783525050505090505f5f5f5f9054906101000a900473ffffffffffffffffffffffffffffffffffffffff1673ffffffffffffffffffffffffffffffffffffffff168360405161049f919061088d565b5f604051808303815f865af19150503d805f81146104d8576040519150601f19603f3d011682016040523d82523d5f602084013e6104dd565b606091505b509150915081610522576040517f08c379a0000000000000000000000000000000000000000000000000000000008152600401610519906108ed565b60405180910390fd5b808060200190518101906105369190610a25565b935050505090565b5f5f8383604051602401610553929190610827565b6040516020818303038152906040526347064d6a60e01b6020820180517bffffffffffffffffffffffffffffffffffffffffffffffffffffffff838183161783525050505090505f5f5f9054906101000a900473ffffffffffffffffffffffffffffffffffffffff1673ffffffffffffffffffffffffffffffffffffffff16826040516105e0919061088d565b5f604051808303815f865af19150503d805f8114610619576040519150601f19603f3d011682016040523d82523d5f602084013e61061e565b606091505b5050905080610662576040517f08c379a0000000000000000000000000000000000000000000000000000000008152600401610659906108ed565b60405180910390fd5b809250505092915050565b5f604051905090565b5f5ffd5b5f5ffd5b5f5ffd5b5f5ffd5b5f5ffd5b5f5f83601f84011261069f5761069e61067e565b5b8235905067ffffffffffffffff8111156106bc576106bb610682565b5b6020830191508360018202830111156106d8576106d7610686565b5b9250929050565b5f5f602083850312156106f5576106f4610676565b5b5f83013567ffffffffffffffff8111156107125761071161067a565b5b61071e8582860161068a565b92509250509250929050565b5f8115159050919050565b61073e8161072a565b82525050565b5f6020820190506107575f830184610735565b92915050565b5f81519050919050565b5f82825260208201905092915050565b8281835e5f83830152505050565b5f601f19601f8301169050919050565b5f61079f8261075d565b6107a98185610767565b93506107b9818560208601610777565b6107c281610785565b840191505092915050565b5f6020820190508181035f8301526107e58184610795565b905092915050565b828183375f83830152505050565b5f6108068385610767565b93506108138385846107ed565b61081c83610785565b840190509392505050565b5f6020820190508181035f8301526108408184866107fb565b90509392505050565b5f81519050919050565b5f81905092915050565b5f61086782610849565b6108718185610853565b9350610881818560208601610777565b80840191505092915050565b5f610898828461085d565b915081905092915050565b7f63616c6c2066756e6374696f6e206661696c65640000000000000000000000005f82015250565b5f6108d7601483610767565b91506108e2826108a3565b602082019050919050565b5f6020820190508181035f830152610904816108cb565b9050919050565b5f5ffd5b7f4e487b71000000000000000000000000000000000000000000000000000000005f52604160045260245ffd5b61094582610785565b810181811067ffffffffffffffff821117156109645761096361090f565b5b80604052505050565b5f61097661066d565b9050610982828261093c565b919050565b5f67ffffffffffffffff8211156109a1576109a061090f565b5b6109aa82610785565b9050602081019050919050565b5f6109c96109c484610987565b61096d565b9050828152602081018484840111156109e5576109e461090b565b5b6109f0848285610777565b509392505050565b5f82601f830112610a0c57610a0b61067e565b5b8151610a1c8482602086016109b7565b91505092915050565b5f60208284031215610a3a57610a39610676565b5b5f82015167ffffffffffffffff811115610a5757610a5661067a565b5b610a63848285016109f8565b9150509291505056fea26469706673582212208ae41e9144c8191819da713b7ca548a48ed494862e293f98389073dea3214dd664736f6c634300081e0033","linkReferences":{}},"methodIdentifiers":{"getDataByABI()":"70d1c75b","setDataByABI1(string)":"2971e81f","setDataByABI2(string)":"424d571c","setDataByABI3(string)":"76db04d4"},"id":57}