{"abi":[{"type":"constructor","inputs":[],"stateMutability":"nonpayable"},{"type":"receive","stateMutability":"payable"},{"type":"function","name":"bigBankOwner","inputs":[],"outputs":[{"name":"","type":"address","internalType":"address"}],"stateMutability":"view"},{"type":"function","name":"changeOwner","inputs":[{"name":"_newOwner","type":"address","internalType":"address"}],"outputs":[],"stateMutability":"nonpayable"},{"type":"function","name":"deposit","inputs":[],"outputs":[],"stateMutability":"payable"},{"type":"function","name":"withdraw","inputs":[{"name":"_toAddress","type":"address","internalType":"address"},{"name":"amount","type":"uint256","internalType":"uint256"}],"outputs":[],"stateMutability":"payable"}],"bytecode":{"object":"0x6080604052348015600e575f5ffd5b503360045f6101000a81548173ffffffffffffffffffffffffffffffffffffffff021916908373ffffffffffffffffffffffffffffffffffffffff1602179055503060055f6101000a81548173ffffffffffffffffffffffffffffffffffffffff021916908373ffffffffffffffffffffffffffffffffffffffff1602179055503360065f6101000a81548173ffffffffffffffffffffffffffffffffffffffff021916908373ffffffffffffffffffffffffffffffffffffffff16021790555061113c806100dc5f395ff3fe608060405260043610610042575f3560e01c8063a6f9dae114610055578063cb436c851461007d578063d0e30db0146100a7578063f3fef3a3146100b157610051565b366100515761004f6100cd565b005b5f5ffd5b348015610060575f5ffd5b5061007b60048036038101906100769190610c19565b610120565b005b348015610088575f5ffd5b50610091610269565b60405161009e9190610c53565b60405180910390f35b6100af6100cd565b005b6100cb60048036038101906100c69190610c9f565b61028e565b005b66038d7ea4c680003411610116576040517f08c379a000000000000000000000000000000000000000000000000000000000815260040161010d90610d5d565b60405180910390fd5b61011e61032b565b565b60065f9054906101000a900473ffffffffffffffffffffffffffffffffffffffff1673ffffffffffffffffffffffffffffffffffffffff163373ffffffffffffffffffffffffffffffffffffffff16146101af576040517f08c379a00000000000000000000000000000000000000000000000000000000081526004016101a690610deb565b60405180910390fd5b5f73ffffffffffffffffffffffffffffffffffffffff168173ffffffffffffffffffffffffffffffffffffffff160361021d576040517f08c379a000000000000000000000000000000000000000000000000000000000815260040161021490610e53565b60405180910390fd5b8060065f6101000a81548173ffffffffffffffffffffffffffffffffffffffff021916908373ffffffffffffffffffffffffffffffffffffffff160217905550610266816108bb565b50565b60065f9054906101000a900473ffffffffffffffffffffffffffffffffffffffff1681565b60065f9054906101000a900473ffffffffffffffffffffffffffffffffffffffff1673ffffffffffffffffffffffffffffffffffffffff163373ffffffffffffffffffffffffffffffffffffffff161461031d576040517f08c379a000000000000000000000000000000000000000000000000000000000815260040161031490610deb565b60405180910390fd5b61032782826109fb565b5050565b5f341161036d576040517f08c379a000000000000000000000000000000000000000000000000000000000815260040161036490610ebb565b60405180910390fd5b345f5f3373ffffffffffffffffffffffffffffffffffffffff1673ffffffffffffffffffffffffffffffffffffffff1681526020019081526020015f205f8282546103b89190610f06565b9250508190555f5f3373ffffffffffffffffffffffffffffffffffffffff1673ffffffffffffffffffffffffffffffffffffffff1681526020019081526020015f20819055505f5f60015f6003811061041457610413610f39565b5b015f9054906101000a900473ffffffffffffffffffffffffffffffffffffffff1673ffffffffffffffffffffffffffffffffffffffff1673ffffffffffffffffffffffffffffffffffffffff1681526020019081526020015f20545f5f3373ffffffffffffffffffffffffffffffffffffffff1673ffffffffffffffffffffffffffffffffffffffff1681526020019081526020015f2054111561061957600180600381106104c6576104c5610f39565b5b015f9054906101000a900473ffffffffffffffffffffffffffffffffffffffff1660016002600381106104fc576104fb610f39565b5b015f6101000a81548173ffffffffffffffffffffffffffffffffffffffff021916908373ffffffffffffffffffffffffffffffffffffffff16021790555060015f6003811061054e5761054d610f39565b5b015f9054906101000a900473ffffffffffffffffffffffffffffffffffffffff166001806003811061058357610582610f39565b5b015f6101000a81548173ffffffffffffffffffffffffffffffffffffffff021916908373ffffffffffffffffffffffffffffffffffffffff1602179055503360015f600381106105d6576105d5610f39565b5b015f6101000a81548173ffffffffffffffffffffffffffffffffffffffff021916908373ffffffffffffffffffffffffffffffffffffffff1602179055506108b9565b5f5f6001806003811061062f5761062e610f39565b5b015f9054906101000a900473ffffffffffffffffffffffffffffffffffffffff1673ffffffffffffffffffffffffffffffffffffffff1673ffffffffffffffffffffffffffffffffffffffff1681526020019081526020015f20545f5f3373ffffffffffffffffffffffffffffffffffffffff1673ffffffffffffffffffffffffffffffffffffffff1681526020019081526020015f205411156107ad57600180600381106106e1576106e0610f39565b5b015f9054906101000a900473ffffffffffffffffffffffffffffffffffffffff16600160026003811061071757610716610f39565b5b015f6101000a81548173ffffffffffffffffffffffffffffffffffffffff021916908373ffffffffffffffffffffffffffffffffffffffff160217905550336001806003811061076a57610769610f39565b5b015f6101000a81548173ffffffffffffffffffffffffffffffffffffffff021916908373ffffffffffffffffffffffffffffffffffffffff1602179055506108b8565b5f5f60016002600381106107c4576107c3610f39565b5b015f9054906101000a900473ffffffffffffffffffffffffffffffffffffffff1673ffffffffffffffffffffffffffffffffffffffff1673ffffffffffffffffffffffffffffffffffffffff1681526020019081526020015f20545f5f3373ffffffffffffffffffffffffffffffffffffffff1673ffffffffffffffffffffffffffffffffffffffff1681526020019081526020015f205411156108b75733600160026003811061087857610877610f39565b5b015f6101000a81548173ffffffffffffffffffffffffffffffffffffffff021916908373ffffffffffffffffffffffffffffffffffffffff1602179055505b5b5b565b60045f9054906101000a900473ffffffffffffffffffffffffffffffffffffffff1673ffffffffffffffffffffffffffffffffffffffff163373ffffffffffffffffffffffffffffffffffffffff161461094a576040517f08c379a000000000000000000000000000000000000000000000000000000000815260040161094190610fb0565b60405180910390fd5b5f73ffffffffffffffffffffffffffffffffffffffff168173ffffffffffffffffffffffffffffffffffffffff16036109b8576040517f08c379a00000000000000000000000000000000000000000000000000000000081526004016109af90610e53565b60405180910390fd5b8060045f6101000a81548173ffffffffffffffffffffffffffffffffffffffff021916908373ffffffffffffffffffffffffffffffffffffffff16021790555050565b60045f9054906101000a900473ffffffffffffffffffffffffffffffffffffffff1673ffffffffffffffffffffffffffffffffffffffff163373ffffffffffffffffffffffffffffffffffffffff1614610a8a576040517f08c379a0000000000000000000000000000000000000000000000000000000008152600401610a8190611018565b60405180910390fd5b5f73ffffffffffffffffffffffffffffffffffffffff168273ffffffffffffffffffffffffffffffffffffffff1603610af8576040517f08c379a0000000000000000000000000000000000000000000000000000000008152600401610aef90611080565b60405180910390fd5b8060055f9054906101000a900473ffffffffffffffffffffffffffffffffffffffff1673ffffffffffffffffffffffffffffffffffffffff16311015610b73576040517f08c379a0000000000000000000000000000000000000000000000000000000008152600401610b6a906110e8565b60405180910390fd5b8173ffffffffffffffffffffffffffffffffffffffff166108fc8290811502906040515f60405180830381858888f19350505050158015610bb6573d5f5f3e3d5ffd5b505050565b5f5ffd5b5f73ffffffffffffffffffffffffffffffffffffffff82169050919050565b5f610be882610bbf565b9050919050565b610bf881610bde565b8114610c02575f5ffd5b50565b5f81359050610c1381610bef565b92915050565b5f60208284031215610c2e57610c2d610bbb565b5b5f610c3b84828501610c05565b91505092915050565b610c4d81610bde565b82525050565b5f602082019050610c665f830184610c44565b92915050565b5f819050919050565b610c7e81610c6c565b8114610c88575f5ffd5b50565b5f81359050610c9981610c75565b92915050565b5f5f60408385031215610cb557610cb4610bbb565b5b5f610cc285828601610c05565b9250506020610cd385828601610c8b565b9150509250929050565b5f82825260208201905092915050565b7f4465706f73697420616d6f756e74206d757374206265206772656174657220745f8201527f68616e20302e3030312065746865720000000000000000000000000000000000602082015250565b5f610d47602f83610cdd565b9150610d5282610ced565b604082019050919050565b5f6020820190508181035f830152610d7481610d3b565b9050919050565b7f4f6e6c792062696742616e6b206f776e65722063616e2063616c6c20746869735f8201527f2066756e6374696f6e0000000000000000000000000000000000000000000000602082015250565b5f610dd5602983610cdd565b9150610de082610d7b565b604082019050919050565b5f6020820190508181035f830152610e0281610dc9565b9050919050565b7f4e6577206f776e65722063616e6e6f74206265207a65726f20616464726573735f82015250565b5f610e3d602083610cdd565b9150610e4882610e09565b602082019050919050565b5f6020820190508181035f830152610e6a81610e31565b9050919050565b7f6465706f7369742076616c7565206d617374203e2030000000000000000000005f82015250565b5f610ea5601683610cdd565b9150610eb082610e71565b602082019050919050565b5f6020820190508181035f830152610ed281610e99565b9050919050565b7f4e487b71000000000000000000000000000000000000000000000000000000005f52601160045260245ffd5b5f610f1082610c6c565b9150610f1b83610c6c565b9250828201905080821115610f3357610f32610ed9565b5b92915050565b7f4e487b71000000000000000000000000000000000000000000000000000000005f52603260045260245ffd5b7f4f6e6c79206f776e65722063616e206368616e6765206f776e657200000000005f82015250565b5f610f9a601b83610cdd565b9150610fa582610f66565b602082019050919050565b5f6020820190508181035f830152610fc781610f8e565b9050919050565b7f4f6e6c79206f776e65722063616e2077697468647261770000000000000000005f82015250565b5f611002601783610cdd565b915061100d82610fce565b602082019050919050565b5f6020820190508181035f83015261102f81610ff6565b9050919050565b7f746f41646472657373206973206e6f74203000000000000000000000000000005f82015250565b5f61106a601283610cdd565b915061107582611036565b602082019050919050565b5f6020820190508181035f8301526110978161105e565b9050919050565b7f496e73756666696369656e742062616c616e63650000000000000000000000005f82015250565b5f6110d2601483610cdd565b91506110dd8261109e565b602082019050919050565b5f6020820190508181035f8301526110ff816110c6565b905091905056fea26469706673582212205b42168308a1700c67c154ed034fb943f5f22dab048a75f697793a34678b38f464736f6c634300081e0033","linkReferences":{}},"methodIdentifiers":{"bigBankOwner()":"cb436c85","changeOwner(address)":"a6f9dae1","deposit()":"d0e30db0","withdraw(address,uint256)":"f3fef3a3"},"id":4}