{"abi":[{"type":"constructor","inputs":[],"stateMutability":"nonpayable"},{"type":"receive","stateMutability":"payable"},{"type":"function","name":"Top3Address","inputs":[{"name":"","type":"uint256","internalType":"uint256"}],"outputs":[{"name":"","type":"address","internalType":"address"}],"stateMutability":"view"},{"type":"function","name":"balances","inputs":[{"name":"","type":"address","internalType":"address"}],"outputs":[{"name":"","type":"uint256","internalType":"uint256"}],"stateMutability":"view"},{"type":"function","name":"bigBankOwner","inputs":[],"outputs":[{"name":"","type":"address","internalType":"address"}],"stateMutability":"view"},{"type":"function","name":"changeOwner","inputs":[{"name":"_newOwner","type":"address","internalType":"address"}],"outputs":[],"stateMutability":"nonpayable"},{"type":"function","name":"contractAddress","inputs":[],"outputs":[{"name":"","type":"address","internalType":"address"}],"stateMutability":"view"},{"type":"function","name":"deposit","inputs":[],"outputs":[],"stateMutability":"payable"},{"type":"function","name":"owner","inputs":[],"outputs":[{"name":"","type":"address","internalType":"address"}],"stateMutability":"view"},{"type":"function","name":"withdraw","inputs":[{"name":"_toAddress","type":"address","internalType":"address"},{"name":"amount","type":"uint256","internalType":"uint256"}],"outputs":[],"stateMutability":"payable"}],"bytecode":{"object":"0x6080604052348015600e575f5ffd5b503360045f6101000a81548173ffffffffffffffffffffffffffffffffffffffff021916908373ffffffffffffffffffffffffffffffffffffffff1602179055503060055f6101000a81548173ffffffffffffffffffffffffffffffffffffffff021916908373ffffffffffffffffffffffffffffffffffffffff1602179055503360065f6101000a81548173ffffffffffffffffffffffffffffffffffffffff021916908373ffffffffffffffffffffffffffffffffffffffff160217905550611329806100dc5f395ff3fe60806040526004361061007e575f3560e01c8063cb436c851161004d578063cb436c851461015b578063d0e30db014610185578063f3fef3a31461018f578063f6b4dfb4146101ab5761008d565b80630fb4be3e1461009157806327e235e3146100cd5780638da5cb5b14610109578063a6f9dae1146101335761008d565b3661008d5761008b6101d5565b005b5f5ffd5b34801561009c575f5ffd5b506100b760048036038101906100b29190610d8c565b610228565b6040516100c49190610df6565b60405180910390f35b3480156100d8575f5ffd5b506100f360048036038101906100ee9190610e39565b61025c565b6040516101009190610e73565b60405180910390f35b348015610114575f5ffd5b5061011d610270565b60405161012a9190610df6565b60405180910390f35b34801561013e575f5ffd5b5061015960048036038101906101549190610e39565b610295565b005b348015610166575f5ffd5b5061016f6103de565b60405161017c9190610df6565b60405180910390f35b61018d6101d5565b005b6101a960048036038101906101a49190610e8c565b610403565b005b3480156101b6575f5ffd5b506101bf6104a0565b6040516101cc9190610df6565b60405180910390f35b66038d7ea4c68000341161021e576040517f08c379a000000000000000000000000000000000000000000000000000000000815260040161021590610f4a565b60405180910390fd5b6102266104c5565b565b60018160038110610237575f80fd5b015f915054906101000a900473ffffffffffffffffffffffffffffffffffffffff1681565b5f602052805f5260405f205f915090505481565b60045f9054906101000a900473ffffffffffffffffffffffffffffffffffffffff1681565b60065f9054906101000a900473ffffffffffffffffffffffffffffffffffffffff1673ffffffffffffffffffffffffffffffffffffffff163373ffffffffffffffffffffffffffffffffffffffff1614610324576040517f08c379a000000000000000000000000000000000000000000000000000000000815260040161031b90610fd8565b60405180910390fd5b5f73ffffffffffffffffffffffffffffffffffffffff168173ffffffffffffffffffffffffffffffffffffffff1603610392576040517f08c379a000000000000000000000000000000000000000000000000000000000815260040161038990611040565b60405180910390fd5b8060065f6101000a81548173ffffffffffffffffffffffffffffffffffffffff021916908373ffffffffffffffffffffffffffffffffffffffff1602179055506103db81610a55565b50565b60065f9054906101000a900473ffffffffffffffffffffffffffffffffffffffff1681565b60065f9054906101000a900473ffffffffffffffffffffffffffffffffffffffff1673ffffffffffffffffffffffffffffffffffffffff163373ffffffffffffffffffffffffffffffffffffffff1614610492576040517f08c379a000000000000000000000000000000000000000000000000000000000815260040161048990610fd8565b60405180910390fd5b61049c8282610b95565b5050565b60055f9054906101000a900473ffffffffffffffffffffffffffffffffffffffff1681565b5f3411610507576040517f08c379a00000000000000000000000000000000000000000000000000000000081526004016104fe906110a8565b60405180910390fd5b345f5f3373ffffffffffffffffffffffffffffffffffffffff1673ffffffffffffffffffffffffffffffffffffffff1681526020019081526020015f205f82825461055291906110f3565b9250508190555f5f3373ffffffffffffffffffffffffffffffffffffffff1673ffffffffffffffffffffffffffffffffffffffff1681526020019081526020015f20819055505f5f60015f600381106105ae576105ad611126565b5b015f9054906101000a900473ffffffffffffffffffffffffffffffffffffffff1673ffffffffffffffffffffffffffffffffffffffff1673ffffffffffffffffffffffffffffffffffffffff1681526020019081526020015f20545f5f3373ffffffffffffffffffffffffffffffffffffffff1673ffffffffffffffffffffffffffffffffffffffff1681526020019081526020015f205411156107b357600180600381106106605761065f611126565b5b015f9054906101000a900473ffffffffffffffffffffffffffffffffffffffff16600160026003811061069657610695611126565b5b015f6101000a81548173ffffffffffffffffffffffffffffffffffffffff021916908373ffffffffffffffffffffffffffffffffffffffff16021790555060015f600381106106e8576106e7611126565b5b015f9054906101000a900473ffffffffffffffffffffffffffffffffffffffff166001806003811061071d5761071c611126565b5b015f6101000a81548173ffffffffffffffffffffffffffffffffffffffff021916908373ffffffffffffffffffffffffffffffffffffffff1602179055503360015f600381106107705761076f611126565b5b015f6101000a81548173ffffffffffffffffffffffffffffffffffffffff021916908373ffffffffffffffffffffffffffffffffffffffff160217905550610a53565b5f5f600180600381106107c9576107c8611126565b5b015f9054906101000a900473ffffffffffffffffffffffffffffffffffffffff1673ffffffffffffffffffffffffffffffffffffffff1673ffffffffffffffffffffffffffffffffffffffff1681526020019081526020015f20545f5f3373ffffffffffffffffffffffffffffffffffffffff1673ffffffffffffffffffffffffffffffffffffffff1681526020019081526020015f20541115610947576001806003811061087b5761087a611126565b5b015f9054906101000a900473ffffffffffffffffffffffffffffffffffffffff1660016002600381106108b1576108b0611126565b5b015f6101000a81548173ffffffffffffffffffffffffffffffffffffffff021916908373ffffffffffffffffffffffffffffffffffffffff160217905550336001806003811061090457610903611126565b5b015f6101000a81548173ffffffffffffffffffffffffffffffffffffffff021916908373ffffffffffffffffffffffffffffffffffffffff160217905550610a52565b5f5f600160026003811061095e5761095d611126565b5b015f9054906101000a900473ffffffffffffffffffffffffffffffffffffffff1673ffffffffffffffffffffffffffffffffffffffff1673ffffffffffffffffffffffffffffffffffffffff1681526020019081526020015f20545f5f3373ffffffffffffffffffffffffffffffffffffffff1673ffffffffffffffffffffffffffffffffffffffff1681526020019081526020015f20541115610a5157336001600260038110610a1257610a11611126565b5b015f6101000a81548173ffffffffffffffffffffffffffffffffffffffff021916908373ffffffffffffffffffffffffffffffffffffffff1602179055505b5b5b565b60045f9054906101000a900473ffffffffffffffffffffffffffffffffffffffff1673ffffffffffffffffffffffffffffffffffffffff163373ffffffffffffffffffffffffffffffffffffffff1614610ae4576040517f08c379a0000000000000000000000000000000000000000000000000000000008152600401610adb9061119d565b60405180910390fd5b5f73ffffffffffffffffffffffffffffffffffffffff168173ffffffffffffffffffffffffffffffffffffffff1603610b52576040517f08c379a0000000000000000000000000000000000000000000000000000000008152600401610b4990611040565b60405180910390fd5b8060045f6101000a81548173ffffffffffffffffffffffffffffffffffffffff021916908373ffffffffffffffffffffffffffffffffffffffff16021790555050565b60045f9054906101000a900473ffffffffffffffffffffffffffffffffffffffff1673ffffffffffffffffffffffffffffffffffffffff163373ffffffffffffffffffffffffffffffffffffffff1614610c24576040517f08c379a0000000000000000000000000000000000000000000000000000000008152600401610c1b90611205565b60405180910390fd5b5f73ffffffffffffffffffffffffffffffffffffffff168273ffffffffffffffffffffffffffffffffffffffff1603610c92576040517f08c379a0000000000000000000000000000000000000000000000000000000008152600401610c899061126d565b60405180910390fd5b8060055f9054906101000a900473ffffffffffffffffffffffffffffffffffffffff1673ffffffffffffffffffffffffffffffffffffffff16311015610d0d576040517f08c379a0000000000000000000000000000000000000000000000000000000008152600401610d04906112d5565b60405180910390fd5b8173ffffffffffffffffffffffffffffffffffffffff166108fc8290811502906040515f60405180830381858888f19350505050158015610d50573d5f5f3e3d5ffd5b505050565b5f5ffd5b5f819050919050565b610d6b81610d59565b8114610d75575f5ffd5b50565b5f81359050610d8681610d62565b92915050565b5f60208284031215610da157610da0610d55565b5b5f610dae84828501610d78565b91505092915050565b5f73ffffffffffffffffffffffffffffffffffffffff82169050919050565b5f610de082610db7565b9050919050565b610df081610dd6565b82525050565b5f602082019050610e095f830184610de7565b92915050565b610e1881610dd6565b8114610e22575f5ffd5b50565b5f81359050610e3381610e0f565b92915050565b5f60208284031215610e4e57610e4d610d55565b5b5f610e5b84828501610e25565b91505092915050565b610e6d81610d59565b82525050565b5f602082019050610e865f830184610e64565b92915050565b5f5f60408385031215610ea257610ea1610d55565b5b5f610eaf85828601610e25565b9250506020610ec085828601610d78565b9150509250929050565b5f82825260208201905092915050565b7f4465706f73697420616d6f756e74206d757374206265206772656174657220745f8201527f68616e20302e3030312065746865720000000000000000000000000000000000602082015250565b5f610f34602f83610eca565b9150610f3f82610eda565b604082019050919050565b5f6020820190508181035f830152610f6181610f28565b9050919050565b7f4f6e6c792062696742616e6b206f776e65722063616e2063616c6c20746869735f8201527f2066756e6374696f6e0000000000000000000000000000000000000000000000602082015250565b5f610fc2602983610eca565b9150610fcd82610f68565b604082019050919050565b5f6020820190508181035f830152610fef81610fb6565b9050919050565b7f4e6577206f776e65722063616e6e6f74206265207a65726f20616464726573735f82015250565b5f61102a602083610eca565b915061103582610ff6565b602082019050919050565b5f6020820190508181035f8301526110578161101e565b9050919050565b7f6465706f7369742076616c7565206d617374203e2030000000000000000000005f82015250565b5f611092601683610eca565b915061109d8261105e565b602082019050919050565b5f6020820190508181035f8301526110bf81611086565b9050919050565b7f4e487b71000000000000000000000000000000000000000000000000000000005f52601160045260245ffd5b5f6110fd82610d59565b915061110883610d59565b92508282019050808211156111205761111f6110c6565b5b92915050565b7f4e487b71000000000000000000000000000000000000000000000000000000005f52603260045260245ffd5b7f4f6e6c79206f776e65722063616e206368616e6765206f776e657200000000005f82015250565b5f611187601b83610eca565b915061119282611153565b602082019050919050565b5f6020820190508181035f8301526111b48161117b565b9050919050565b7f4f6e6c79206f776e65722063616e2077697468647261770000000000000000005f82015250565b5f6111ef601783610eca565b91506111fa826111bb565b602082019050919050565b5f6020820190508181035f83015261121c816111e3565b9050919050565b7f746f41646472657373206973206e6f74203000000000000000000000000000005f82015250565b5f611257601283610eca565b915061126282611223565b602082019050919050565b5f6020820190508181035f8301526112848161124b565b9050919050565b7f496e73756666696369656e742062616c616e63650000000000000000000000005f82015250565b5f6112bf601483610eca565b91506112ca8261128b565b602082019050919050565b5f6020820190508181035f8301526112ec816112b3565b905091905056fea26469706673582212204f6f6159996cb931d06ad28a4e52559269e86f9bb9f9f64067dfdd91711785c264736f6c634300081e0033","linkReferences":{}},"methodIdentifiers":{"Top3Address(uint256)":"0fb4be3e","balances(address)":"27e235e3","bigBankOwner()":"cb436c85","changeOwner(address)":"a6f9dae1","contractAddress()":"f6b4dfb4","deposit()":"d0e30db0","owner()":"8da5cb5b","withdraw(address,uint256)":"f3fef3a3"},"id":23}