{"abi":[{"type":"constructor","inputs":[],"stateMutability":"nonpayable"},{"type":"receive","stateMutability":"payable"},{"type":"function","name":"bigBankOwner","inputs":[],"outputs":[{"name":"","type":"address","internalType":"address"}],"stateMutability":"view"},{"type":"function","name":"changeOwner","inputs":[{"name":"_newOwner","type":"address","internalType":"address"}],"outputs":[],"stateMutability":"nonpayable"},{"type":"function","name":"deposit","inputs":[],"outputs":[],"stateMutability":"payable"},{"type":"function","name":"withdraw","inputs":[{"name":"_toAddress","type":"address","internalType":"address"},{"name":"amount","type":"uint256","internalType":"uint256"}],"outputs":[],"stateMutability":"payable"}],"bytecode":{"object":"0x608060405234610027576100116100bb565b61001961002c565b610db36100fd8239610db390f35b610032565b60405190565b5f80fd5b5f1b90565b9061004c60018060a01b0391610036565b9181191691161790565b60018060a01b031690565b90565b61007861007361007d92610056565b610061565b610056565b90565b61008990610064565b90565b61009590610080565b90565b90565b906100b06100ab6100b79261008c565b610098565b825461003b565b9055565b6100c36100dc565b6100ce33600661009b565b565b6100d990610080565b90565b6100e733600461009b565b6100fa6100f3306100d0565b600561009b565b56fe6080604052600436101561001d575b3661025a5761001b610622565b005b6100275f35610066565b8063a6f9dae114610061578063cb436c851461005c578063d0e30db0146100575763f3fef3a30361000e57610230565b6101b4565b61017f565b6100d7565b60e01c90565b60405190565b5f80fd5b5f80fd5b60018060a01b031690565b61008e9061007a565b90565b61009a81610085565b036100a157565b5f80fd5b905035906100b282610091565b565b906020828203126100cd576100ca915f016100a5565b90565b610076565b5f0190565b34610105576100ef6100ea3660046100b4565b6104c6565b6100f761006c565b80610101816100d2565b0390f35b610072565b5f91031261011457565b610076565b1c90565b60018060a01b031690565b61013890600861013d9302610119565b61011d565b90565b9061014b9154610128565b90565b61015a60065f90610140565b90565b61016690610085565b9052565b919061017d905f6020850194019061015d565b565b346101af5761018f36600461010a565b6101ab61019a61014e565b6101a261006c565b9182918261016a565b0390f35b610072565b6101bf36600461010a565b6101c76105cf565b6101cf61006c565b806101d9816100d2565b0390f35b90565b6101e9816101dd565b036101f057565b5f80fd5b90503590610201826101e0565b565b919060408382031261022b578061021f610228925f86016100a5565b936020016101f4565b90565b610076565b61024461023e366004610203565b90610616565b61024c61006c565b80610256816100d2565b0390f35b5f80fd5b5f1c90565b61026f6102749161025e565b61011d565b90565b6102819054610263565b90565b60209181520190565b60207f2066756e6374696f6e0000000000000000000000000000000000000000000000917f4f6e6c792062696742616e6b206f776e65722063616e2063616c6c20746869735f8201520152565b6102e76029604092610284565b6102f08161028d565b0190565b6103099060208101905f8183039101526102da565b90565b1561031357565b61031b61006c565b62461bcd60e51b815280610331600482016102f4565b0390fd5b6103639061035e3361035861035261034d6006610277565b610085565b91610085565b1461030c565b61048b565b565b90565b90565b61037f61037a61038492610365565b610368565b61007a565b90565b6103909061036b565b90565b5f7f4e6577206f776e65722063616e6e6f74206265207a65726f2061646472657373910152565b6103c660208092610284565b6103cf81610393565b0190565b6103e89060208101905f8183039101526103ba565b90565b156103f257565b6103fa61006c565b62461bcd60e51b815280610410600482016103d3565b0390fd5b5f1b90565b9061042a60018060a01b0391610414565b9181191691161790565b61044861044361044d9261007a565b610368565b61007a565b90565b61045990610434565b90565b61046590610450565b90565b90565b9061048061047b6104879261045c565b610468565b8254610419565b9055565b6104c4906104b4816104ad6104a76104a25f610387565b610085565b91610085565b14156103eb565b6104bf81600661046b565b6106ae565b565b6104cf90610335565b565b90565b6104e86104e36104ed926104d1565b610368565b6101dd565b90565b60207f68616e20302e3030312065746865720000000000000000000000000000000000917f4465706f73697420616d6f756e74206d757374206265206772656174657220745f8201520152565b61054a602f604092610284565b610553816104f0565b0190565b61056c9060208101905f81830391015261053d565b90565b1561057657565b61057e61006c565b62461bcd60e51b81528061059460048201610557565b0390fd5b6105bb346105b56105af66038d7ea4c680006104d4565b916101dd565b1161056f565b6105c36105c5565b565b6105cd610900565b565b6105d7610598565b565b9061060891610603336105fd6105f76105f26006610277565b610085565b91610085565b1461030c565b61060a565b565b9061061491610cd8565b565b90610620916105d9565b565b61062a6105cf565b565b5f7f4f6e6c79206f776e65722063616e206368616e6765206f776e65720000000000910152565b610660601b602092610284565b6106698161062c565b0190565b6106829060208101905f818303910152610653565b90565b1561068c57565b61069461006c565b62461bcd60e51b8152806106aa6004820161066d565b0390fd5b610703906106d7336106d16106cb6106c66004610277565b610085565b91610085565b14610685565b6106fc816106f56106ef6106ea5f610387565b610085565b91610085565b14156103eb565b600461046b565b565b61071961071461071e92610365565b610368565b6101dd565b90565b5f7f6465706f7369742076616c7565206d617374203e203000000000000000000000910152565b6107556016602092610284565b61075e81610721565b0190565b6107779060208101905f818303910152610748565b90565b1561078157565b61078961006c565b62461bcd60e51b81528061079f60048201610762565b0390fd5b906107ad9061045c565b5f5260205260405f2090565b90565b6107c86107cd9161025e565b6107b9565b90565b6107da90546107bc565b90565b634e487b7160e01b5f52601160045260245ffd5b610800610806919392936101dd565b926101dd565b820180921161081157565b6107dd565b906108225f1991610414565b9181191691161790565b61084061083b610845926101dd565b610368565b6101dd565b90565b90565b9061086061085b6108679261082c565b610848565b8254610816565b9055565b634e487b7160e01b5f52603260045260245ffd5b50600390565b90565b6108918161087f565b8210156108ab576108a3600191610885565b910201905f90565b61086b565b1b90565b919060086108d49102916108ce60018060a01b03846108b0565b926108b0565b9181191691161790565b91906108f46108ef6108fc9361045c565b610468565b9083546108b4565b9055565b61091c346109166109105f610705565b916101dd565b1161077a565b610957346109476109406109315f33906107a3565b9261093b846107d0565b6107f1565b809261084b565b6109525f33906107a3565b61084b565b61096a6109655f33906107a3565b6107d0565b6109a261099c6109976109925f61098c61098660015f90610888565b90610140565b906107a3565b6107d0565b6101dd565b916101dd565b115f14610a15576109d36109c06109ba600180610888565b90610140565b6109cd6001600290610888565b906108de565b6109fc6109eb6109e560015f90610888565b90610140565b6109f6600180610888565b906108de565b610a1233610a0c60015f90610888565b906108de565b5b565b610a28610a235f33906107a3565b6107d0565b610a5f610a59610a54610a4f5f610a49610a43600180610888565b90610140565b906107a3565b6107d0565b6101dd565b916101dd565b115f14610aab57610a90610a7d610a77600180610888565b90610140565b610a8a6001600290610888565b906108de565b610aa533610a9f600180610888565b906108de565b5b610a13565b610abe610ab95f33906107a3565b6107d0565b610af7610af1610aec610ae75f610ae1610adb6001600290610888565b90610140565b906107a3565b6107d0565b6101dd565b916101dd565b11610b02575b610aa6565b610b1933610b136001600290610888565b906108de565b610afd565b5f7f4f6e6c79206f776e65722063616e207769746864726177000000000000000000910152565b610b526017602092610284565b610b5b81610b1e565b0190565b610b749060208101905f818303910152610b45565b90565b15610b7e57565b610b8661006c565b62461bcd60e51b815280610b9c60048201610b5f565b0390fd5b5f7f746f41646472657373206973206e6f7420300000000000000000000000000000910152565b610bd46012602092610284565b610bdd81610ba0565b0190565b610bf69060208101905f818303910152610bc7565b90565b15610c0057565b610c0861006c565b62461bcd60e51b815280610c1e60048201610be1565b0390fd5b5f7f496e73756666696369656e742062616c616e6365000000000000000000000000910152565b610c566014602092610284565b610c5f81610c22565b0190565b610c789060208101905f818303910152610c49565b90565b15610c8257565b610c8a61006c565b62461bcd60e51b815280610ca060048201610c63565b0390fd5b610cad90610434565b90565b610cb990610ca4565b90565b610cc590610450565b90565b610cd061006c565b3d5f823e3d90fd5b5f808093610d5f610d5a8395610d0933610d03610cfd610cf86004610277565b610085565b91610085565b14610b77565b610d2e81610d27610d21610d1c89610387565b610085565b91610085565b1415610bf9565b610d55610d3b6005610277565b31610d4e610d48876101dd565b916101dd565b1015610c7b565b610cb0565b610cbc565b828215610d74575bf115610d6f57565b610cc8565b506108fc610d6756fea26469706673582212209911565eb508f6439f62edf2415ba9b2641845044cdd9af3759bfc87953d318c64736f6c634300081e0033","linkReferences":{}},"methodIdentifiers":{"bigBankOwner()":"cb436c85","changeOwner(address)":"a6f9dae1","deposit()":"d0e30db0","withdraw(address,uint256)":"f3fef3a3"},"id":46}