{
  "abi": [
    {
      "type": "constructor",
      "inputs": [
        {
          "name": "_token",
          "type": "address",
          "internalType": "contract ERC20V2"
        }
      ],
      "stateMutability": "nonpayable"
    },
    {
      "type": "function",
      "name": "balances",
      "inputs": [
        {
          "name": "",
          "type": "address",
          "internalType": "address"
        }
      ],
      "outputs": [
        {
          "name": "",
          "type": "uint256",
          "internalType": "uint256"
        }
      ],
      "stateMutability": "view"
    },
    {
      "type": "function",
      "name": "deposit",
      "inputs": [
        {
          "name": "amount",
          "type": "uint256",
          "internalType": "uint256"
        }
      ],
      "outputs": [],
      "stateMutability": "nonpayable"
    },
    {
      "type": "function",
      "name": "owner",
      "inputs": [],
      "outputs": [
        {
          "name": "",
          "type": "address",
          "internalType": "address"
        }
      ],
      "stateMutability": "view"
    },
    {
      "type": "function",
      "name": "token",
      "inputs": [],
      "outputs": [
        {
          "name": "",
          "type": "address",
          "internalType": "contract IERC20"
        }
      ],
      "stateMutability": "view"
    },
    {
      "type": "function",
      "name": "tokenBankOwner",
      "inputs": [],
      "outputs": [
        {
          "name": "",
          "type": "address",
          "internalType": "address"
        }
      ],
      "stateMutability": "view"
    },
    {
      "type": "function",
      "name": "tokensReceived",
      "inputs": [
        {
          "name": "from",
          "type": "address",
          "internalType": "address"
        },
        {
          "name": "amount",
          "type": "uint256",
          "internalType": "uint256"
        },
        {
          "name": "token",
          "type": "address",
          "internalType": "address"
        }
      ],
      "outputs": [],
      "stateMutability": "nonpayable"
    },
    {
      "type": "function",
      "name": "totalDeposit",
      "inputs": [],
      "outputs": [
        {
          "name": "",
          "type": "uint256",
          "internalType": "uint256"
        }
      ],
      "stateMutability": "view"
    },
    {
      "type": "function",
      "name": "userTokenBalances",
      "inputs": [
        {
          "name": "",
          "type": "address",
          "internalType": "address"
        },
        {
          "name": "",
          "type": "address",
          "internalType": "address"
        }
      ],
      "outputs": [
        {
          "name": "",
          "type": "uint256",
          "internalType": "uint256"
        }
      ],
      "stateMutability": "view"
    },
    {
      "type": "function",
      "name": "withdraw",
      "inputs": [
        {
          "name": "amount",
          "type": "uint256",
          "internalType": "uint256"
        }
      ],
      "outputs": [],
      "stateMutability": "nonpayable"
    }
  ],
  "bytecode": {
    "object": "0x608060405234801561000f575f5ffd5b50604051610e00380380610e0083398181016040528101906100319190610167565b80335f5f6101000a81548173ffffffffffffffffffffffffffffffffffffffff021916908373ffffffffffffffffffffffffffffffffffffffff1602179055508060035f6101000a81548173ffffffffffffffffffffffffffffffffffffffff021916908373ffffffffffffffffffffffffffffffffffffffff160217905550503360055f6101000a81548173ffffffffffffffffffffffffffffffffffffffff021916908373ffffffffffffffffffffffffffffffffffffffff16021790555050610192565b5f5ffd5b5f73ffffffffffffffffffffffffffffffffffffffff82169050919050565b5f610125826100fc565b9050919050565b5f6101368261011b565b9050919050565b6101468161012c565b8114610150575f5ffd5b50565b5f815190506101618161013d565b92915050565b5f6020828403121561017c5761017b6100f8565b5b5f61018984828501610153565b91505092915050565b610c618061019f5f395ff3fe608060405234801561000f575f5ffd5b5060043610610091575f3560e01c806345f2d1051161006457806345f2d1051461011b5780638da5cb5b1461014b578063b6b55f2514610169578063f6153ccd14610185578063fc0c546a146101a357610091565b8063140189781461009557806327e235e3146100b35780632b86ed2f146100e35780632e1a7d4d146100ff575b5f5ffd5b61009d6101c1565b6040516100aa919061070c565b60405180910390f35b6100cd60048036038101906100c89190610753565b6101e6565b6040516100da9190610796565b60405180910390f35b6100fd60048036038101906100f891906107d9565b6101fb565b005b61011960048036038101906101149190610829565b6102fc565b005b61013560048036038101906101309190610854565b6104c5565b6040516101429190610796565b60405180910390f35b6101536104e5565b604051610160919061070c565b60405180910390f35b610183600480360381019061017e9190610829565b610509565b005b61018d610515565b60405161019a9190610796565b60405180910390f35b6101ab61051b565b6040516101b891906108ed565b60405180910390f35b60055f9054906101000a900473ffffffffffffffffffffffffffffffffffffffff1681565b6001602052805f5260405f205f915090505481565b8073ffffffffffffffffffffffffffffffffffffffff163373ffffffffffffffffffffffffffffffffffffffff1614610269576040517f08c379a000000000000000000000000000000000000000000000000000000000815260040161026090610960565b60405180910390fd5b8160045f8573ffffffffffffffffffffffffffffffffffffffff1673ffffffffffffffffffffffffffffffffffffffff1681526020019081526020015f205f8373ffffffffffffffffffffffffffffffffffffffff1673ffffffffffffffffffffffffffffffffffffffff1681526020019081526020015f205f8282546102f091906109ab565b92505081905550505050565b8060015f3373ffffffffffffffffffffffffffffffffffffffff1673ffffffffffffffffffffffffffffffffffffffff1681526020019081526020015f2054101561037c576040517f08c379a000000000000000000000000000000000000000000000000000000000815260040161037390610a28565b60405180910390fd5b8060015f3373ffffffffffffffffffffffffffffffffffffffff1673ffffffffffffffffffffffffffffffffffffffff1681526020019081526020015f205f8282546103c89190610a46565b925050819055508060025f8282546103e09190610a46565b9250508190555060035f9054906101000a900473ffffffffffffffffffffffffffffffffffffffff1673ffffffffffffffffffffffffffffffffffffffff1663a9059cbb33836040518363ffffffff1660e01b8152600401610443929190610a79565b6020604051808303815f875af115801561045f573d5f5f3e3d5ffd5b505050506040513d601f19601f820116820180604052508101906104839190610ad5565b6104c2576040517f08c379a00000000000000000000000000000000000000000000000000000000081526004016104b990610b4a565b60405180910390fd5b50565b6004602052815f5260405f20602052805f5260405f205f91509150505481565b5f5f9054906101000a900473ffffffffffffffffffffffffffffffffffffffff1681565b61051281610540565b50565b60025481565b60035f9054906101000a900473ffffffffffffffffffffffffffffffffffffffff1681565b5f8111610582576040517f08c379a000000000000000000000000000000000000000000000000000000000815260040161057990610bd8565b60405180910390fd5b60035f9054906101000a900473ffffffffffffffffffffffffffffffffffffffff1673ffffffffffffffffffffffffffffffffffffffff166323b872dd3330846040518463ffffffff1660e01b81526004016105e093929190610bf6565b6020604051808303815f875af11580156105fc573d5f5f3e3d5ffd5b505050506040513d601f19601f820116820180604052508101906106209190610ad5565b61065f576040517f08c379a000000000000000000000000000000000000000000000000000000000815260040161065690610b4a565b60405180910390fd5b8060015f3373ffffffffffffffffffffffffffffffffffffffff1673ffffffffffffffffffffffffffffffffffffffff1681526020019081526020015f205f8282546106ab91906109ab565b925050819055508060025f8282546106c391906109ab565b9250508190555050565b5f73ffffffffffffffffffffffffffffffffffffffff82169050919050565b5f6106f6826106cd565b9050919050565b610706816106ec565b82525050565b5f60208201905061071f5f8301846106fd565b92915050565b5f5ffd5b610732816106ec565b811461073c575f5ffd5b50565b5f8135905061074d81610729565b92915050565b5f6020828403121561076857610767610725565b5b5f6107758482850161073f565b91505092915050565b5f819050919050565b6107908161077e565b82525050565b5f6020820190506107a95f830184610787565b92915050565b6107b88161077e565b81146107c2575f5ffd5b50565b5f813590506107d3816107af565b92915050565b5f5f5f606084860312156107f0576107ef610725565b5b5f6107fd8682870161073f565b935050602061080e868287016107c5565b925050604061081f8682870161073f565b9150509250925092565b5f6020828403121561083e5761083d610725565b5b5f61084b848285016107c5565b91505092915050565b5f5f6040838503121561086a57610869610725565b5b5f6108778582860161073f565b92505060206108888582860161073f565b9150509250929050565b5f819050919050565b5f6108b56108b06108ab846106cd565b610892565b6106cd565b9050919050565b5f6108c68261089b565b9050919050565b5f6108d7826108bc565b9050919050565b6108e7816108cd565b82525050565b5f6020820190506109005f8301846108de565b92915050565b5f82825260208201905092915050565b7f4f6e6c7920746f6b656e20636f6e74726163742063616e2063616c6c000000005f82015250565b5f61094a601c83610906565b915061095582610916565b602082019050919050565b5f6020820190508181035f8301526109778161093e565b9050919050565b7f4e487b71000000000000000000000000000000000000000000000000000000005f52601160045260245ffd5b5f6109b58261077e565b91506109c08361077e565b92508282019050808211156109d8576109d761097e565b5b92915050565b7f496e73756666696369656e742062616c616e636520746f2077697468647261775f82015250565b5f610a12602083610906565b9150610a1d826109de565b602082019050919050565b5f6020820190508181035f830152610a3f81610a06565b9050919050565b5f610a508261077e565b9150610a5b8361077e565b9250828203905081811115610a7357610a7261097e565b5b92915050565b5f604082019050610a8c5f8301856106fd565b610a996020830184610787565b9392505050565b5f8115159050919050565b610ab481610aa0565b8114610abe575f5ffd5b50565b5f81519050610acf81610aab565b92915050565b5f60208284031215610aea57610ae9610725565b5b5f610af784828501610ac1565b91505092915050565b7f5472616e73666572206661696c656400000000000000000000000000000000005f82015250565b5f610b34600f83610906565b9150610b3f82610b00565b602082019050919050565b5f6020820190508181035f830152610b6181610b28565b9050919050565b7f4465706f73697420616d6f756e74206d757374206265206772656174657220745f8201527f68616e2030000000000000000000000000000000000000000000000000000000602082015250565b5f610bc2602583610906565b9150610bcd82610b68565b604082019050919050565b5f6020820190508181035f830152610bef81610bb6565b9050919050565b5f606082019050610c095f8301866106fd565b610c1660208301856106fd565b610c236040830184610787565b94935050505056fea2646970667358221220d00853349a3e15ee901bb751493bf20d4e18053ca46e0c154136d4f47109befd64736f6c634300081e0033",
    "linkReferences": {}
  },
  "methodIdentifiers": {
    "balances(address)": "27e235e3",
    "deposit(uint256)": "b6b55f25",
    "owner()": "8da5cb5b",
    "token()": "fc0c546a",
    "tokenBankOwner()": "14018978",
    "tokensReceived(address,uint256,address)": "2b86ed2f",
    "totalDeposit()": "f6153ccd",
    "userTokenBalances(address,address)": "45f2d105",
    "withdraw(uint256)": "2e1a7d4d"
  },
  "id": 62
}