{"abi":[{"type":"constructor","inputs":[{"name":"_token","type":"address","internalType":"contract ERC20V2"}],"stateMutability":"nonpayable"},{"type":"function","name":"balances","inputs":[{"name":"","type":"address","internalType":"address"}],"outputs":[{"name":"","type":"uint256","internalType":"uint256"}],"stateMutability":"view"},{"type":"function","name":"deposit","inputs":[{"name":"amount","type":"uint256","internalType":"uint256"}],"outputs":[],"stateMutability":"nonpayable"},{"type":"function","name":"owner","inputs":[],"outputs":[{"name":"","type":"address","internalType":"address"}],"stateMutability":"view"},{"type":"function","name":"setOwner","inputs":[{"name":"newOwner","type":"address","internalType":"address"}],"outputs":[],"stateMutability":"nonpayable"},{"type":"function","name":"token","inputs":[],"outputs":[{"name":"","type":"address","internalType":"contract IERC20"}],"stateMutability":"view"},{"type":"function","name":"tokenBankOwner","inputs":[],"outputs":[{"name":"","type":"address","internalType":"address"}],"stateMutability":"view"},{"type":"function","name":"tokensReceived","inputs":[{"name":"from","type":"address","internalType":"address"},{"name":"amount","type":"uint256","internalType":"uint256"},{"name":"token","type":"address","internalType":"address"}],"outputs":[],"stateMutability":"nonpayable"},{"type":"function","name":"totalDeposit","inputs":[],"outputs":[{"name":"","type":"uint256","internalType":"uint256"}],"stateMutability":"view"},{"type":"function","name":"userTokenBalances","inputs":[{"name":"","type":"address","internalType":"address"},{"name":"","type":"address","internalType":"address"}],"outputs":[{"name":"","type":"uint256","internalType":"uint256"}],"stateMutability":"view"},{"type":"function","name":"withdraw","inputs":[{"name":"amount","type":"uint256","internalType":"uint256"}],"outputs":[],"stateMutability":"nonpayable"}],"bytecode":{"object":"0x608060405234801561000f575f5ffd5b50604051610fb6380380610fb683398181016040528101906100319190610167565b80335f5f6101000a81548173ffffffffffffffffffffffffffffffffffffffff021916908373ffffffffffffffffffffffffffffffffffffffff1602179055508060035f6101000a81548173ffffffffffffffffffffffffffffffffffffffff021916908373ffffffffffffffffffffffffffffffffffffffff160217905550503360055f6101000a81548173ffffffffffffffffffffffffffffffffffffffff021916908373ffffffffffffffffffffffffffffffffffffffff16021790555050610192565b5f5ffd5b5f73ffffffffffffffffffffffffffffffffffffffff82169050919050565b5f610125826100fc565b9050919050565b5f6101368261011b565b9050919050565b6101468161012c565b8114610150575f5ffd5b50565b5f815190506101618161013d565b92915050565b5f6020828403121561017c5761017b6100f8565b5b5f61018984828501610153565b91505092915050565b610e178061019f5f395ff3fe608060405234801561000f575f5ffd5b506004361061009c575f3560e01c806345f2d1051161006457806345f2d105146101425780638da5cb5b14610172578063b6b55f2514610190578063f6153ccd146101ac578063fc0c546a146101ca5761009c565b806313af4035146100a057806314018978146100bc57806327e235e3146100da5780632b86ed2f1461010a5780632e1a7d4d14610126575b5f5ffd5b6100ba60048036038101906100b59190610879565b6101e8565b005b6100c461030f565b6040516100d191906108b3565b60405180910390f35b6100f460048036038101906100ef9190610879565b610334565b60405161010191906108e4565b60405180910390f35b610124600480360381019061011f9190610927565b610349565b005b610140600480360381019061013b9190610977565b61044a565b005b61015c600480360381019061015791906109a2565b610613565b60405161016991906108e4565b60405180910390f35b61017a610633565b60405161018791906108b3565b60405180910390f35b6101aa60048036038101906101a59190610977565b610657565b005b6101b4610663565b6040516101c191906108e4565b60405180910390f35b6101d2610669565b6040516101df9190610a3b565b60405180910390f35b5f5f9054906101000a900473ffffffffffffffffffffffffffffffffffffffff1673ffffffffffffffffffffffffffffffffffffffff163373ffffffffffffffffffffffffffffffffffffffff16148061028e575060055f9054906101000a900473ffffffffffffffffffffffffffffffffffffffff1673ffffffffffffffffffffffffffffffffffffffff163373ffffffffffffffffffffffffffffffffffffffff16145b6102cd576040517f08c379a00000000000000000000000000000000000000000000000000000000081526004016102c490610aae565b60405180910390fd5b805f5f6101000a81548173ffffffffffffffffffffffffffffffffffffffff021916908373ffffffffffffffffffffffffffffffffffffffff16021790555050565b60055f9054906101000a900473ffffffffffffffffffffffffffffffffffffffff1681565b6001602052805f5260405f205f915090505481565b8073ffffffffffffffffffffffffffffffffffffffff163373ffffffffffffffffffffffffffffffffffffffff16146103b7576040517f08c379a00000000000000000000000000000000000000000000000000000000081526004016103ae90610b16565b60405180910390fd5b8160045f8573ffffffffffffffffffffffffffffffffffffffff1673ffffffffffffffffffffffffffffffffffffffff1681526020019081526020015f205f8373ffffffffffffffffffffffffffffffffffffffff1673ffffffffffffffffffffffffffffffffffffffff1681526020019081526020015f205f82825461043e9190610b61565b92505081905550505050565b8060015f3373ffffffffffffffffffffffffffffffffffffffff1673ffffffffffffffffffffffffffffffffffffffff1681526020019081526020015f205410156104ca576040517f08c379a00000000000000000000000000000000000000000000000000000000081526004016104c190610bde565b60405180910390fd5b8060015f3373ffffffffffffffffffffffffffffffffffffffff1673ffffffffffffffffffffffffffffffffffffffff1681526020019081526020015f205f8282546105169190610bfc565b925050819055508060025f82825461052e9190610bfc565b9250508190555060035f9054906101000a900473ffffffffffffffffffffffffffffffffffffffff1673ffffffffffffffffffffffffffffffffffffffff1663a9059cbb33836040518363ffffffff1660e01b8152600401610591929190610c2f565b6020604051808303815f875af11580156105ad573d5f5f3e3d5ffd5b505050506040513d601f19601f820116820180604052508101906105d19190610c8b565b610610576040517f08c379a000000000000000000000000000000000000000000000000000000000815260040161060790610d00565b60405180910390fd5b50565b6004602052815f5260405f20602052805f5260405f205f91509150505481565b5f5f9054906101000a900473ffffffffffffffffffffffffffffffffffffffff1681565b6106608161068e565b50565b60025481565b60035f9054906101000a900473ffffffffffffffffffffffffffffffffffffffff1681565b5f81116106d0576040517f08c379a00000000000000000000000000000000000000000000000000000000081526004016106c790610d8e565b60405180910390fd5b60035f9054906101000a900473ffffffffffffffffffffffffffffffffffffffff1673ffffffffffffffffffffffffffffffffffffffff166323b872dd3330846040518463ffffffff1660e01b815260040161072e93929190610dac565b6020604051808303815f875af115801561074a573d5f5f3e3d5ffd5b505050506040513d601f19601f8201168201806040525081019061076e9190610c8b565b6107ad576040517f08c379a00000000000000000000000000000000000000000000000000000000081526004016107a490610d00565b60405180910390fd5b8060015f3373ffffffffffffffffffffffffffffffffffffffff1673ffffffffffffffffffffffffffffffffffffffff1681526020019081526020015f205f8282546107f99190610b61565b925050819055508060025f8282546108119190610b61565b9250508190555050565b5f5ffd5b5f73ffffffffffffffffffffffffffffffffffffffff82169050919050565b5f6108488261081f565b9050919050565b6108588161083e565b8114610862575f5ffd5b50565b5f813590506108738161084f565b92915050565b5f6020828403121561088e5761088d61081b565b5b5f61089b84828501610865565b91505092915050565b6108ad8161083e565b82525050565b5f6020820190506108c65f8301846108a4565b92915050565b5f819050919050565b6108de816108cc565b82525050565b5f6020820190506108f75f8301846108d5565b92915050565b610906816108cc565b8114610910575f5ffd5b50565b5f81359050610921816108fd565b92915050565b5f5f5f6060848603121561093e5761093d61081b565b5b5f61094b86828701610865565b935050602061095c86828701610913565b925050604061096d86828701610865565b9150509250925092565b5f6020828403121561098c5761098b61081b565b5b5f61099984828501610913565b91505092915050565b5f5f604083850312156109b8576109b761081b565b5b5f6109c585828601610865565b92505060206109d685828601610865565b9150509250929050565b5f819050919050565b5f610a036109fe6109f98461081f565b6109e0565b61081f565b9050919050565b5f610a14826109e9565b9050919050565b5f610a2582610a0a565b9050919050565b610a3581610a1b565b82525050565b5f602082019050610a4e5f830184610a2c565b92915050565b5f82825260208201905092915050565b7f4f6e6c79206f776e65722063616e20736574206e6577206f776e6572000000005f82015250565b5f610a98601c83610a54565b9150610aa382610a64565b602082019050919050565b5f6020820190508181035f830152610ac581610a8c565b9050919050565b7f4f6e6c7920746f6b656e20636f6e74726163742063616e2063616c6c000000005f82015250565b5f610b00601c83610a54565b9150610b0b82610acc565b602082019050919050565b5f6020820190508181035f830152610b2d81610af4565b9050919050565b7f4e487b71000000000000000000000000000000000000000000000000000000005f52601160045260245ffd5b5f610b6b826108cc565b9150610b76836108cc565b9250828201905080821115610b8e57610b8d610b34565b5b92915050565b7f496e73756666696369656e742062616c616e636520746f2077697468647261775f82015250565b5f610bc8602083610a54565b9150610bd382610b94565b602082019050919050565b5f6020820190508181035f830152610bf581610bbc565b9050919050565b5f610c06826108cc565b9150610c11836108cc565b9250828203905081811115610c2957610c28610b34565b5b92915050565b5f604082019050610c425f8301856108a4565b610c4f60208301846108d5565b9392505050565b5f8115159050919050565b610c6a81610c56565b8114610c74575f5ffd5b50565b5f81519050610c8581610c61565b92915050565b5f60208284031215610ca057610c9f61081b565b5b5f610cad84828501610c77565b91505092915050565b7f5472616e73666572206661696c656400000000000000000000000000000000005f82015250565b5f610cea600f83610a54565b9150610cf582610cb6565b602082019050919050565b5f6020820190508181035f830152610d1781610cde565b9050919050565b7f4465706f73697420616d6f756e74206d757374206265206772656174657220745f8201527f68616e2030000000000000000000000000000000000000000000000000000000602082015250565b5f610d78602583610a54565b9150610d8382610d1e565b604082019050919050565b5f6020820190508181035f830152610da581610d6c565b9050919050565b5f606082019050610dbf5f8301866108a4565b610dcc60208301856108a4565b610dd960408301846108d5565b94935050505056fea2646970667358221220c47297ab09db7507cc1dec4356baa151fa673d7879761c96f414f5382ce0923564736f6c634300081e0033","linkReferences":{}},"methodIdentifiers":{"balances(address)":"27e235e3","deposit(uint256)":"b6b55f25","owner()":"8da5cb5b","setOwner(address)":"13af4035","token()":"fc0c546a","tokenBankOwner()":"14018978","tokensReceived(address,uint256,address)":"2b86ed2f","totalDeposit()":"f6153ccd","userTokenBalances(address,address)":"45f2d105","withdraw(uint256)":"2e1a7d4d"},"id":70}