{"abi":[{"type":"constructor","inputs":[{"name":"_token","type":"address","internalType":"contract ERC20V2"}],"stateMutability":"nonpayable"},{"type":"function","name":"balances","inputs":[{"name":"","type":"address","internalType":"address"}],"outputs":[{"name":"","type":"uint256","internalType":"uint256"}],"stateMutability":"view"},{"type":"function","name":"deposit","inputs":[{"name":"amount","type":"uint256","internalType":"uint256"}],"outputs":[],"stateMutability":"nonpayable"},{"type":"function","name":"owner","inputs":[],"outputs":[{"name":"","type":"address","internalType":"address"}],"stateMutability":"view"},{"type":"function","name":"setOwner","inputs":[{"name":"newOwner","type":"address","internalType":"address"}],"outputs":[],"stateMutability":"nonpayable"},{"type":"function","name":"token","inputs":[],"outputs":[{"name":"","type":"address","internalType":"contract IERC20"}],"stateMutability":"view"},{"type":"function","name":"tokenBankOwner","inputs":[],"outputs":[{"name":"","type":"address","internalType":"address"}],"stateMutability":"view"},{"type":"function","name":"tokensReceived","inputs":[{"name":"from","type":"address","internalType":"address"},{"name":"amount","type":"uint256","internalType":"uint256"},{"name":"token","type":"address","internalType":"address"}],"outputs":[],"stateMutability":"nonpayable"},{"type":"function","name":"totalDeposit","inputs":[],"outputs":[{"name":"","type":"uint256","internalType":"uint256"}],"stateMutability":"view"},{"type":"function","name":"userTokenBalances","inputs":[{"name":"","type":"address","internalType":"address"},{"name":"","type":"address","internalType":"address"}],"outputs":[{"name":"","type":"uint256","internalType":"uint256"}],"stateMutability":"view"},{"type":"function","name":"withdraw","inputs":[{"name":"amount","type":"uint256","internalType":"uint256"}],"outputs":[],"stateMutability":"nonpayable"}],"bytecode":{"object":"0x60806040523461002f57610019610014610100565b6101b3565b610021610034565b610e026102188239610e0290f35b61003a565b60405190565b5f80fd5b601f801991011690565b634e487b7160e01b5f52604160045260245ffd5b906100669061003e565b810190811060018060401b0382111761007e57604052565b610048565b9061009661008f610034565b928361005c565b565b5f80fd5b60018060a01b031690565b6100b09061009c565b90565b6100bc906100a7565b90565b6100c8816100b3565b036100cf57565b5f80fd5b905051906100e0826100bf565b565b906020828203126100fb576100f8915f016100d3565b90565b610098565b61011e61101a8038038061011381610083565b9283398101906100e2565b90565b90565b61013861013361013d9261009c565b610121565b61009c565b90565b61014990610124565b90565b61015590610140565b90565b5f1b90565b9061016e60018060a01b0391610158565b9181191691161790565b61018190610124565b90565b61018d90610178565b90565b90565b906101a86101a36101af92610184565b610190565b825461015d565b9055565b6101bf6101c49161014c565b610200565b6101cf336005610193565b565b6101da90610140565b90565b90565b906101f56101f06101fc926101d1565b6101dd565b825461015d565b9055565b6102159061020e335f610193565b60036101e0565b56fe60806040526004361015610013575b6105cc565b61001d5f356100bc565b806313af4035146100b757806314018978146100b257806327e235e3146100ad5780632b86ed2f146100a85780632e1a7d4d146100a357806345f2d1051461009e5780638da5cb5b14610099578063b6b55f2514610094578063f6153ccd1461008f5763fc0c546a0361000e57610597565b6104f4565b6104b2565b61047d565b610439565b6103a2565b610350565b6102be565b6101d5565b61012d565b60e01c90565b60405190565b5f80fd5b5f80fd5b60018060a01b031690565b6100e4906100d0565b90565b6100f0816100db565b036100f757565b5f80fd5b90503590610108826100e7565b565b9060208282031261012357610120915f016100fb565b90565b6100cc565b5f0190565b3461015b5761014561014036600461010a565b6106c4565b61014d6100c2565b8061015781610128565b0390f35b6100c8565b5f91031261016a57565b6100cc565b1c90565b60018060a01b031690565b61018e906008610193930261016f565b610173565b90565b906101a1915461017e565b90565b6101b060055f90610196565b90565b6101bc906100db565b9052565b91906101d3905f602085019401906101b3565b565b34610205576101e5366004610160565b6102016101f06101a4565b6101f86100c2565b918291826101c0565b0390f35b6100c8565b90565b61022161021c610226926100d0565b61020a565b6100d0565b90565b6102329061020d565b90565b61023e90610229565b90565b9061024b90610235565b5f5260205260405f2090565b90565b61026a90600861026f930261016f565b610257565b90565b9061027d915461025a565b90565b610296906102916001915f92610241565b610272565b90565b90565b6102a590610299565b9052565b91906102bc905f6020850194019061029c565b565b346102ee576102ea6102d96102d436600461010a565b610280565b6102e16100c2565b918291826102a9565b0390f35b6100c8565b6102fc81610299565b0361030357565b5f80fd5b90503590610314826102f3565b565b909160608284031261034b57610348610331845f85016100fb565b9361033f8160208601610307565b936040016100fb565b90565b6100cc565b3461037f57610369610363366004610316565b91610855565b6103716100c2565b8061037b81610128565b0390f35b6100c8565b9060208282031261039d5761039a915f01610307565b90565b6100cc565b346103d0576103ba6103b5366004610384565b610ab3565b6103c26100c2565b806103cc81610128565b0390f35b6100c8565b91906040838203126103fd57806103f16103fa925f86016100fb565b936020016100fb565b90565b6100cc565b9061040c90610235565b5f5260205260405f2090565b6104316104369261042c6004935f94610402565b610241565b610272565b90565b3461046a5761046661045561044f3660046103d5565b90610418565b61045d6100c2565b918291826102a9565b0390f35b6100c8565b61047a5f5f90610196565b90565b346104ad5761048d366004610160565b6104a961049861046f565b6104a06100c2565b918291826101c0565b0390f35b6100c8565b346104e0576104ca6104c5366004610384565b610bbc565b6104d26100c2565b806104dc81610128565b0390f35b6100c8565b6104f160025f90610272565b90565b3461052457610504366004610160565b61052061050f6104e5565b6105176100c2565b918291826102a9565b0390f35b6100c8565b60018060a01b031690565b610544906008610549930261016f565b610529565b90565b906105579154610534565b90565b61056660035f9061054c565b90565b61057290610229565b90565b61057e90610569565b9052565b9190610595905f60208501940190610575565b565b346105c7576105a7366004610160565b6105c36105b261055a565b6105ba6100c2565b91829182610582565b0390f35b6100c8565b5f80fd5b5f1c90565b6105e16105e6916105d0565b610173565b90565b6105f390546105d5565b90565b60209181520190565b5f7f4f6e6c79206f776e65722063616e20736574206e6577206f776e657200000000910152565b610633601c6020926105f6565b61063c816105ff565b0190565b6106559060208101905f818303910152610626565b90565b1561065f57565b6106676100c2565b62461bcd60e51b81528061067d60048201610640565b0390fd5b5f1b90565b9061069760018060a01b0391610681565b9181191691161790565b90565b906106b96106b46106c092610235565b6106a1565b8254610686565b9055565b6106fa90336106e36106dd6106d85f6105e9565b6100db565b916100db565b1480156106fc575b6106f490610658565b5f6106a4565b565b506106f43361071c61071661071160056105e9565b6100db565b916100db565b1490506106eb565b5f7f4f6e6c7920746f6b656e20636f6e74726163742063616e2063616c6c00000000910152565b610758601c6020926105f6565b61076181610724565b0190565b61077a9060208101905f81830391015261074b565b90565b1561078457565b61078c6100c2565b62461bcd60e51b8152806107a260048201610765565b0390fd5b6107b26107b7916105d0565b610257565b90565b6107c490546107a6565b90565b634e487b7160e01b5f52601160045260245ffd5b6107ea6107f091939293610299565b92610299565b82018092116107fb57565b6107c7565b9061080c5f1991610681565b9181191691161790565b61082a61082561082f92610299565b61020a565b610299565b90565b90565b9061084a61084561085192610816565b610832565b8254610800565b9055565b9061088d6108a29361088861089c936108803361087a610874866100db565b916100db565b1461077d565b946004610402565b610241565b91610897836107ba565b6107db565b90610835565b565b5f7f496e73756666696369656e742062616c616e636520746f207769746864726177910152565b6108d7602080926105f6565b6108e0816108a4565b0190565b6108f99060208101905f8183039101526108cb565b90565b1561090357565b61090b6100c2565b62461bcd60e51b815280610921600482016108e4565b0390fd5b61093461093a91939293610299565b92610299565b820391821161094557565b6107c7565b61095661095b916105d0565b610529565b90565b610968905461094a565b90565b601f801991011690565b634e487b7160e01b5f52604160045260245ffd5b906109939061096b565b810190811067ffffffffffffffff8211176109ad57604052565b610975565b60e01b90565b151590565b6109c6816109b8565b036109cd57565b5f80fd5b905051906109de826109bd565b565b906020828203126109f9576109f6915f016109d1565b90565b6100cc565b916020610a1f929493610a1860408201965f8301906101b3565b019061029c565b565b610a296100c2565b3d5f823e3d90fd5b5f7f5472616e73666572206661696c65640000000000000000000000000000000000910152565b610a65600f6020926105f6565b610a6e81610a31565b0190565b610a879060208101905f818303910152610a58565b90565b15610a9157565b610a996100c2565b62461bcd60e51b815280610aaf60048201610a72565b0390fd5b610ae3610aca610ac560013390610241565b6107ba565b610adc610ad684610299565b91610299565b10156108fc565b610b0b81610b05610af660013390610241565b91610b00836107ba565b610925565b90610835565b610b28610b2182610b1c60026107ba565b610925565b6002610835565b6020610b3c610b37600361095e565b610569565b9163a9059cbb92610b615f339395610b6c610b556100c2565b978896879586946109b2565b8452600484016109fe565b03925af18015610bb757610b87915f91610b89575b50610a8a565b565b610baa915060203d8111610bb0575b610ba28183610989565b8101906109e0565b5f610b81565b503d610b98565b610a21565b610bc590610ccc565b565b90565b610bde610bd9610be392610bc7565b61020a565b610299565b90565b60207f68616e2030000000000000000000000000000000000000000000000000000000917f4465706f73697420616d6f756e74206d757374206265206772656174657220745f8201520152565b610c4060256040926105f6565b610c4981610be6565b0190565b610c629060208101905f818303910152610c33565b90565b15610c6c57565b610c746100c2565b62461bcd60e51b815280610c8a60048201610c4d565b0390fd5b610c9790610229565b90565b604090610cc3610cca9496959396610cb960608401985f8501906101b3565b60208301906101b3565b019061029c565b565b610ce881610ce2610cdc5f610bca565b91610299565b11610c65565b610cfa610cf5600361095e565b610569565b9060206323b872dd923390610d2b5f610d1230610c8e565b96610d3687610d1f6100c2565b998a97889687956109b2565b855260048501610c9a565b03925af1908115610dc757610d59610d9092610d97945f91610d99575b50610a8a565b610d8181610d7b610d6c60013390610241565b91610d76836107ba565b6107db565b90610835565b610d8b60026107ba565b6107db565b6002610835565b565b610dba915060203d8111610dc0575b610db28183610989565b8101906109e0565b5f610d53565b503d610da8565b610a2156fea2646970667358221220dd36b77030492cdb969efc4f6232017ca688d95dc43e5a6de78c258583ba664964736f6c634300081e0033","linkReferences":{}},"methodIdentifiers":{"balances(address)":"27e235e3","deposit(uint256)":"b6b55f25","owner()":"8da5cb5b","setOwner(address)":"13af4035","token()":"fc0c546a","tokenBankOwner()":"14018978","tokensReceived(address,uint256,address)":"2b86ed2f","totalDeposit()":"f6153ccd","userTokenBalances(address,address)":"45f2d105","withdraw(uint256)":"2e1a7d4d"},"id":59}