{"abi":[{"type":"function","name":"delegateSetValue","inputs":[{"name":"callee","type":"address","internalType":"address"},{"name":"_newValue","type":"uint256","internalType":"uint256"}],"outputs":[],"stateMutability":"nonpayable"},{"type":"function","name":"value","inputs":[],"outputs":[{"name":"","type":"uint256","internalType":"uint256"}],"stateMutability":"view"}],"bytecode":{"object":"0x608060405234601c57600e6020565b61039761002b823961039790f35b6026565b60405190565b5f80fdfe60806040526004361015610013575b6101b7565b61001d5f3561003c565b80633fa4f245146100375763c4307f6a0361000e57610183565b6100bf565b60e01c90565b60405190565b5f80fd5b5f80fd5b5f91031261005a57565b61004c565b1c90565b90565b61007690600861007b930261005f565b610063565b90565b906100899154610066565b90565b6100975f5f9061007e565b90565b90565b6100a69061009a565b9052565b91906100bd905f6020850194019061009d565b565b346100ef576100cf366004610050565b6100eb6100da61008c565b6100e2610042565b918291826100aa565b0390f35b610048565b60018060a01b031690565b610108906100f4565b90565b610114816100ff565b0361011b57565b5f80fd5b9050359061012c8261010b565b565b6101378161009a565b0361013e57565b5f80fd5b9050359061014f8261012e565b565b9190604083820312610179578061016d610176925f860161011f565b93602001610142565b90565b61004c565b5f0190565b346101b25761019c610196366004610151565b9061030a565b6101a4610042565b806101ae8161017e565b0390f35b610048565b5f80fd5b601f801991011690565b634e487b7160e01b5f52604160045260245ffd5b906101e3906101bb565b810190811067ffffffffffffffff8211176101fd57604052565b6101c5565b9061021561020e610042565b92836101d9565b565b67ffffffffffffffff8111610235576102316020916101bb565b0190565b6101c5565b9061024c61024783610217565b610202565b918252565b606090565b3d5f14610271576102663d61023a565b903d5f602084013e5b565b610279610251565b9061026f565b60209181520190565b5f7f64656c65676174652063616c6c206661696c6564000000000000000000000000910152565b6102bc601460209261027f565b6102c581610288565b0190565b6102de9060208101905f8183039101526102af565b90565b156102e857565b6102f0610042565b62461bcd60e51b815280610306600482016102c9565b0390fd5b5f61035f92610339610348839492610320610042565b928391600460208401635524107760e01b8152016100aa565b602082018103825203826101d9565b602081019051915af4610359610256565b506102e1565b56fea2646970667358221220a72c8035fe440bbfb87efe24271fc1bcdc650400e0fc7dae9d6077f877540c6b64736f6c634300081e0033","linkReferences":{}},"methodIdentifiers":{"delegateSetValue(address,uint256)":"c4307f6a","value()":"3fa4f245"},"id":53}