{"abi":[{"type":"function","name":"delegateSetValue","inputs":[{"name":"callee","type":"address","internalType":"address"},{"name":"_newValue","type":"uint256","internalType":"uint256"}],"outputs":[],"stateMutability":"nonpayable"},{"type":"function","name":"value","inputs":[],"outputs":[{"name":"","type":"uint256","internalType":"uint256"}],"stateMutability":"view"}],"bytecode":{"object":"0x6080604052348015600e575f5ffd5b506103bd8061001c5f395ff3fe608060405234801561000f575f5ffd5b5060043610610034575f3560e01c80633fa4f24514610038578063c4307f6a14610056575b5f5ffd5b610040610072565b60405161004d91906101c8565b60405180910390f35b610070600480360381019061006b9190610269565b610077565b005b5f5481565b5f8273ffffffffffffffffffffffffffffffffffffffff16826040516024016100a091906101c8565b6040516020818303038152906040527f55241077000000000000000000000000000000000000000000000000000000007bffffffffffffffffffffffffffffffffffffffffffffffffffffffff19166020820180517bffffffffffffffffffffffffffffffffffffffffffffffffffffffff838183161783525050505060405161012a91906102f9565b5f60405180830381855af49150503d805f8114610162576040519150601f19603f3d011682016040523d82523d5f602084013e610167565b606091505b50509050806101ab576040517f08c379a00000000000000000000000000000000000000000000000000000000081526004016101a290610369565b60405180910390fd5b505050565b5f819050919050565b6101c2816101b0565b82525050565b5f6020820190506101db5f8301846101b9565b92915050565b5f5ffd5b5f73ffffffffffffffffffffffffffffffffffffffff82169050919050565b5f61020e826101e5565b9050919050565b61021e81610204565b8114610228575f5ffd5b50565b5f8135905061023981610215565b92915050565b610248816101b0565b8114610252575f5ffd5b50565b5f813590506102638161023f565b92915050565b5f5f6040838503121561027f5761027e6101e1565b5b5f61028c8582860161022b565b925050602061029d85828601610255565b9150509250929050565b5f81519050919050565b5f81905092915050565b8281835e5f83830152505050565b5f6102d3826102a7565b6102dd81856102b1565b93506102ed8185602086016102bb565b80840191505092915050565b5f61030482846102c9565b915081905092915050565b5f82825260208201905092915050565b7f64656c65676174652063616c6c206661696c65640000000000000000000000005f82015250565b5f61035360148361030f565b915061035e8261031f565b602082019050919050565b5f6020820190508181035f83015261038081610347565b905091905056fea264697066735822122013949762e01dc46725c6a8ac5d528e676bf80570a8b0d0d94f5a09b3202ae9bd64736f6c634300081e0033","linkReferences":{}},"methodIdentifiers":{"delegateSetValue(address,uint256)":"c4307f6a","value()":"3fa4f245"},"id":82}