{"abi":[{"type":"function","name":"setValue","inputs":[{"name":"_newValue","type":"uint256","internalType":"uint256"}],"outputs":[],"stateMutability":"nonpayable"},{"type":"function","name":"value","inputs":[],"outputs":[{"name":"","type":"uint256","internalType":"uint256"}],"stateMutability":"view"}],"bytecode":{"object":"0x608060405234601c57600e6020565b61021061002b823961021090f35b6026565b60405190565b5f80fdfe60806040526004361015610013575b61016d565b61001d5f3561003c565b80633fa4f245146100375763552410770361000e5761013a565b6100bf565b60e01c90565b60405190565b5f80fd5b5f80fd5b5f91031261005a57565b61004c565b1c90565b90565b61007690600861007b930261005f565b610063565b90565b906100899154610066565b90565b6100975f5f9061007e565b90565b90565b6100a69061009a565b9052565b91906100bd905f6020850194019061009d565b565b346100ef576100cf366004610050565b6100eb6100da61008c565b6100e2610042565b918291826100aa565b0390f35b610048565b6100fd8161009a565b0361010457565b5f80fd5b90503590610115826100f4565b565b906020828203126101305761012d915f01610108565b90565b61004c565b5f0190565b346101685761015261014d366004610117565b6101ce565b61015a610042565b8061016481610135565b0390f35b610048565b5f80fd5b5f1b90565b906101825f1991610171565b9181191691161790565b90565b6101a361019e6101a89261009a565b61018c565b61009a565b90565b90565b906101c36101be6101ca9261018f565b6101ab565b8254610176565b9055565b6101d8905f6101ae565b56fea2646970667358221220c93af84893bb39ad30706be733335f447f2b499da03cf2fbebcc2557fd7a3dbd64736f6c634300081e0033","linkReferences":{}},"methodIdentifiers":{"setValue(uint256)":"55241077","value()":"3fa4f245"},"id":53}